{
	"data": {
		"bytecode": {
			"linkReferences": {},
			"object": "608060405260006007556000600c556000600e60146101000a81548160ff0219169083151502179055506000600f556000601060006101000a81548160ff0219169083151502179055506000602055600060215560006025553480156200006557600080fd5b50604051620090133803806200901383398181016040528101906200008b9190620007a4565b82878360008060006101000a81548160ff0219169083151502179055508160088190555082600960006101000a81548173ffffffffffffffffffffffffffffffffffffffff021916908373ffffffffffffffffffffffffffffffffffffffff160217905550806005908162000101919062000afa565b505050506001600b81905550600073ffffffffffffffffffffffffffffffffffffffff168a73ffffffffffffffffffffffffffffffffffffffff1614158015620001785750600073ffffffffffffffffffffffffffffffffffffffff168373ffffffffffffffffffffffffffffffffffffffff1614155b620001ba576040517f08c379a0000000000000000000000000000000000000000000000000000000008152600401620001b19062000c42565b60405180910390fd5b6000891162000200576040517f08c379a0000000000000000000000000000000000000000000000000000000008152600401620001f79062000cb4565b60405180910390fd5b85421062000245576040517f08c379a00000000000000000000000000000000000000000000000000000000081526004016200023c9062000d4c565b60405180910390fd5b8642106200028a576040517f08c379a0000000000000000000000000000000000000000000000000000000008152600401620002819062000de4565b60405180910390fd5b858710620002cf576040517f08c379a0000000000000000000000000000000000000000000000000000000008152600401620002c69062000e7c565b60405180910390fd5b6000881162000315576040517f08c379a00000000000000000000000000000000000000000000000000000000081526004016200030c9062000eee565b60405180910390fd5b6127108411156200035d576040517f08c379a0000000000000000000000000000000000000000000000000000000008152600401620003549062000f86565b60405180910390fd5b8760218190555088601181905550866008819055508560128190555084602260006101000a81548160ff02191690831515021790555084620003d557620003ce612710620003ba868b6200050460201b62004e7b1790919060201c565b6200051c60201b62004e911790919060201c565b601f819055505b89600e60006101000a81548173ffffffffffffffffffffffffffffffffffffffff021916908373ffffffffffffffffffffffffffffffffffffffff160217905550600e60009054906101000a900473ffffffffffffffffffffffffffffffffffffffff1673ffffffffffffffffffffffffffffffffffffffff1663313ce5676040518163ffffffff1660e01b8152600401602060405180830381865afa15801562000484573d6000803e3d6000fd5b505050506040513d601f19601f82011682018060405250810190620004aa919062000fe6565b60ff16600f8190555080602660006101000a81548173ffffffffffffffffffffffffffffffffffffffff021916908373ffffffffffffffffffffffffffffffffffffffff16021790555050505050505050505050620010f9565b6000818362000514919062001047565b905092915050565b600081836200052c9190620010c1565b905092915050565b6000604051905090565b600080fd5b600080fd5b600073ffffffffffffffffffffffffffffffffffffffff82169050919050565b6000620005758262000548565b9050919050565b620005878162000568565b81146200059357600080fd5b50565b600081519050620005a7816200057c565b92915050565b6000819050919050565b620005c281620005ad565b8114620005ce57600080fd5b50565b600081519050620005e281620005b7565b92915050565b60008115159050919050565b620005ff81620005e8565b81146200060b57600080fd5b50565b6000815190506200061f81620005f4565b92915050565b600080fd5b600080fd5b6000601f19601f8301169050919050565b7f4e487b7100000000000000000000000000000000000000000000000000000000600052604160045260246000fd5b6200067a826200062f565b810181811067ffffffffffffffff821117156200069c576200069b62000640565b5b80604052505050565b6000620006b162000534565b9050620006bf82826200066f565b919050565b600067ffffffffffffffff821115620006e257620006e162000640565b5b620006ed826200062f565b9050602081019050919050565b60005b838110156200071a578082015181840152602081019050620006fd565b60008484015250505050565b60006200073d6200073784620006c4565b620006a5565b9050828152602081018484840111156200075c576200075b6200062a565b5b62000769848285620006fa565b509392505050565b600082601f83011262000789576200078862000625565b5b81516200079b84826020860162000726565b91505092915050565b6000806000806000806000806000806101408b8d031215620007cb57620007ca6200053e565b5b6000620007db8d828e0162000596565b9a50506020620007ee8d828e01620005d1565b9950506040620008018d828e01620005d1565b9850506060620008148d828e01620005d1565b9750506080620008278d828e01620005d1565b96505060a06200083a8d828e016200060e565b95505060c06200084d8d828e01620005d1565b94505060e0620008608d828e0162000596565b9350506101008b015167ffffffffffffffff81111562000885576200088462000543565b5b620008938d828e0162000771565b925050610120620008a78d828e0162000596565b9150509295989b9194979a5092959850565b600081519050919050565b7f4e487b7100000000000000000000000000000000000000000000000000000000600052602260045260246000fd5b600060028204905060018216806200090c57607f821691505b602082108103620009225762000921620008c4565b5b50919050565b60008190508160005260206000209050919050565b60006020601f8301049050919050565b600082821b905092915050565b6000600883026200098c7fffffffffffffffffffffffffffffffffffffffffffffffffffffffffffffffff826200094d565b6200099886836200094d565b95508019841693508086168417925050509392505050565b6000819050919050565b6000620009db620009d5620009cf84620005ad565b620009b0565b620005ad565b9050919050565b6000819050919050565b620009f783620009ba565b62000a0f62000a0682620009e2565b8484546200095a565b825550505050565b600090565b62000a2662000a17565b62000a33818484620009ec565b505050565b5b8181101562000a5b5762000a4f60008262000a1c565b60018101905062000a39565b5050565b601f82111562000aaa5762000a748162000928565b62000a7f846200093d565b8101602085101562000a8f578190505b62000aa762000a9e856200093d565b83018262000a38565b50505b505050565b600082821c905092915050565b600062000acf6000198460080262000aaf565b1980831691505092915050565b600062000aea838362000abc565b9150826002028217905092915050565b62000b0582620008b9565b67ffffffffffffffff81111562000b215762000b2062000640565b5b62000b2d8254620008f3565b62000b3a82828562000a5f565b600060209050601f83116001811462000b72576000841562000b5d578287015190505b62000b69858262000adc565b86555062000bd9565b601f19841662000b828662000928565b60005b8281101562000bac5784890151825560018201915060208501945060208101905062000b85565b8683101562000bcc578489015162000bc8601f89168262000abc565b8355505b6001600288020188555050505b505050505050565b600082825260208201905092915050565b7f696e76616c696420616464726573730000000000000000000000000000000000600082015250565b600062000c2a600f8362000be1565b915062000c378262000bf2565b602082019050919050565b6000602082019050818103600083015262000c5d8162000c1b565b9050919050565b7f54726164652076616c75652073686f756c64206265206f766572203000000000600082015250565b600062000c9c601c8362000be1565b915062000ca98262000c64565b602082019050919050565b6000602082019050818103600083015262000ccf8162000c8d565b9050919050565b7f456e6420446174652073686f756c642062652066757274686572207468616e2060008201527f63757272656e7420646174650000000000000000000000000000000000000000602082015250565b600062000d34602c8362000be1565b915062000d418262000cd6565b604082019050919050565b6000602082019050818103600083015262000d678162000d25565b9050919050565b7f537461727420446174652073686f756c6420626520667572746865722074686160008201527f6e2063757272656e742064617465000000000000000000000000000000000000602082015250565b600062000dcc602e8362000be1565b915062000dd98262000d6e565b604082019050919050565b6000602082019050818103600083015262000dff8162000dbd565b9050919050565b7f456e642044617465206d757374206265206c61746572207468616e205374617260008201527f7420446174650000000000000000000000000000000000000000000000000000602082015250565b600062000e6460268362000be1565b915062000e718262000e06565b604082019050919050565b6000602082019050818103600083015262000e978162000e55565b9050919050565b7f546f6b656e7320666f722053616c652073686f756c64206265206f7665722030600082015250565b600062000ed660208362000be1565b915062000ee38262000e9e565b602082019050919050565b6000602082019050818103600083015262000f098162000ec7565b9050919050565b7f4d696e696d756d2052616973652050657263656e746167652073686f756c642060008201527f6265206c657373207468616e2044656e6f6d696e61746f720000000000000000602082015250565b600062000f6e60388362000be1565b915062000f7b8262000f10565b604082019050919050565b6000602082019050818103600083015262000fa18162000f5f565b9050919050565b600060ff82169050919050565b62000fc08162000fa8565b811462000fcc57600080fd5b50565b60008151905062000fe08162000fb5565b92915050565b60006020828403121562000fff5762000ffe6200053e565b5b60006200100f8482850162000fcf565b91505092915050565b7f4e487b7100000000000000000000000000000000000000000000000000000000600052601160045260246000fd5b60006200105482620005ad565b91506200106183620005ad565b92508282026200107181620005ad565b915082820484148315176200108b576200108a62001018565b5b5092915050565b7f4e487b7100000000000000000000000000000000000000000000000000000000600052601260045260246000fd5b6000620010ce82620005ad565b9150620010db83620005ad565b925082620010ee57620010ed62001092565b5b828204905092915050565b617f0a80620011096000396000f3fe6080604052600436106104105760003560e01c8063886d35181161021e578063b31f8f9311610123578063df43ca03116100ab578063eb1edd611161007a578063eb1edd6114610f70578063ee1df50d14610f9b578063efbb34d514610fc6578063f5a1f5b414610ff1578063fef270091461101a57610410565b8063df43ca0314610ec8578063e4d2620e14610ef1578063e82bef2914610f2e578063e9a9c50c14610f5957610410565b8063c6c1decd116100f2578063c6c1decd14610e05578063c8bdbfb614610e30578063c95e966814610e47578063da68715014610e72578063de11c94a14610e9d57610410565b8063b31f8f9314610d59578063b367940e14610d84578063b7fd706d14610daf578063c24a0f8b14610dda57610410565b8063a001ecdd116101a6578063a457c2ae11610175578063a457c2ae14610c86578063a8f1378414610cb1578063ae06c1b714610cda578063affed0e014610d03578063b1dd61b614610d2e57610410565b8063a001ecdd14610bb3578063a1c8313f14610bde578063a275999c14610c1b578063a351f75a14610c5d57610410565b8063918f8674116101ed578063918f867414610ac757806394b918de14610af25780639af4ee7e14610b0e5780639b19251a14610b395780639f22f72d14610b7657610410565b8063886d3518146109f75780638e190cb714610a345780638e75b13114610a5f5780639097548d14610a8a57610410565b806350adcdb71161032457806369e15404116102ac578063755e3e281161027b578063755e3e281461091f57806378f305c61461094a578063842a77d3146109755780638456cb59146109b757806385dc3004146109ce57610410565b806369e15404146108755780636d028027146108a057806374fa05fb146108cb5780637542c5f9146108f657610410565b80636295a2f4116102f35780636295a2f41461078e57806362ca66b4146107b95780636616e525146107e257806368c282f21461081f57806369bb4dc21461084a57610410565b806350adcdb7146106e6578063552dae54146107115780635c975abb1461073a57806360d0743d1461076557610410565b8063398f5ed3116103a75780634089aa9a116103765780634089aa9a1461061157806344691f7e1461063c57806344b17fbc14610667578063452a545b1461069257806347535d7b146106bb57610410565b8063398f5ed3146105675780633af32abf146105a65780633f4ba83a146105e35780633fbc9e40146105fa57610410565b8063161a7b2a116103e3578063161a7b2a146104bd57806321c7557c146104e857806324600fc314610525578063313ce5671461053c57610410565b806301faac02146104155780630e53c3341461043e57806312aef8c31461046757806315b5786614610492575b600080fd5b34801561042157600080fd5b5061043c60048036038101906104379190615708565b611045565b005b34801561044a57600080fd5b5061046560048036038101906104609190615780565b6114b3565b005b34801561047357600080fd5b5061047c6115e5565b60405161048991906157bc565b60405180910390f35b34801561049e57600080fd5b506104a76115eb565b6040516104b491906157f2565b60405180910390f35b3480156104c957600080fd5b506104d26115f8565b6040516104df91906157f2565b60405180910390f35b3480156104f457600080fd5b5061050f600480360381019061050a919061580d565b61160b565b60405161051c91906157bc565b60405180910390f35b34801561053157600080fd5b5061053a611623565b005b34801561054857600080fd5b50610551611a03565b60405161055e91906157bc565b60405180910390f35b34801561057357600080fd5b5061058e60048036038101906105899190615780565b611a09565b60405161059d93929190615849565b60405180910390f35b3480156105b257600080fd5b506105cd60048036038101906105c8919061580d565b611a70565b6040516105da91906157f2565b60405180910390f35b3480156105ef57600080fd5b506105f8611ac6565b005b34801561060657600080fd5b5061060f611b60565b005b34801561061d57600080fd5b50610626612032565b60405161063391906157f2565b60405180910390f35b34801561064857600080fd5b5061065161203e565b60405161065e91906157f2565b60405180910390f35b34801561067357600080fd5b5061067c61204b565b60405161068991906157bc565b60405180910390f35b34801561069e57600080fd5b506106b960048036038101906106b49190615880565b612051565b005b3480156106c757600080fd5b506106d0612266565b6040516106dd91906157f2565b60405180910390f35b3480156106f257600080fd5b506106fb612286565b604051610708919061591f565b60405180910390f35b34801561071d57600080fd5b5061073860048036038101906107339190615a4a565b6122ac565b005b34801561074657600080fd5b5061074f612927565b60405161075c91906157f2565b60405180910390f35b34801561077157600080fd5b5061078c60048036038101906107879190615b0a565b61293d565b005b34801561079a57600080fd5b506107a3612950565b6040516107b091906157bc565b60405180910390f35b3480156107c557600080fd5b506107e060048036038101906107db9190615c04565b612956565b005b3480156107ee57600080fd5b5061080960048036038101906108049190615780565b612bbf565b60405161081691906157bc565b60405180910390f35b34801561082b57600080fd5b50610834612bda565b6040516108419190615cc4565b60405180910390f35b34801561085657600080fd5b5061085f612c68565b60405161086c91906157bc565b60405180910390f35b34801561088157600080fd5b5061088a612d0b565b60405161089791906157bc565b60405180910390f35b3480156108ac57600080fd5b506108b5612d11565b6040516108c29190615e04565b60405180910390f35b3480156108d757600080fd5b506108e0612deb565b6040516108ed91906157f2565b60405180910390f35b34801561090257600080fd5b5061091d60048036038101906109189190615780565b612e4a565b005b34801561092b57600080fd5b50610934613022565b60405161094191906157bc565b60405180910390f35b34801561095657600080fd5b5061095f613028565b60405161096c91906157bc565b60405180910390f35b34801561098157600080fd5b5061099c6004803603810190610997919061580d565b613032565b6040516109ae96959493929190615e26565b60405180910390f35b3480156109c357600080fd5b506109cc6130a8565b005b3480156109da57600080fd5b506109f560048036038101906109f09190615ec5565b613142565b005b348015610a0357600080fd5b50610a1e6004803603810190610a19919061580d565b6132bc565b604051610a2b91906157bc565b60405180910390f35b348015610a4057600080fd5b50610a496132d4565b604051610a5691906157f2565b60405180910390f35b348015610a6b57600080fd5b50610a746132e7565b604051610a8191906157bc565b60405180910390f35b348015610a9657600080fd5b50610ab16004803603810190610aac9190615780565b6132ed565b604051610abe91906157bc565b60405180910390f35b348015610ad357600080fd5b50610adc61332b565b604051610ae991906157bc565b60405180910390f35b610b0c6004803603810190610b079190615780565b613331565b005b348015610b1a57600080fd5b50610b23613b6c565b604051610b3091906157f2565b60405180910390f35b348015610b4557600080fd5b50610b606004803603810190610b5b919061580d565b613b7f565b604051610b6d91906157f2565b60405180910390f35b348015610b8257600080fd5b50610b9d6004803603810190610b989190615780565b613b9f565b604051610baa91906157bc565b60405180910390f35b348015610bbf57600080fd5b50610bc8613bba565b604051610bd591906157bc565b60405180910390f35b348015610bea57600080fd5b50610c056004803603810190610c009190615780565b613bc0565b604051610c1291906157bc565b60405180910390f35b348015610c2757600080fd5b50610c426004803603810190610c3d919061580d565b613c2b565b604051610c5496959493929190615e26565b60405180910390f35b348015610c6957600080fd5b50610c846004803603810190610c7f9190615ec5565b613d60565b005b348015610c9257600080fd5b50610c9b613e43565b604051610ca89190615cc4565b60405180910390f35b348015610cbd57600080fd5b50610cd86004803603810190610cd39190615f1e565b613ed1565b005b348015610ce657600080fd5b50610d016004803603810190610cfc9190615780565b613fd5565b005b348015610d0f57600080fd5b50610d18614105565b604051610d2591906157bc565b60405180910390f35b348015610d3a57600080fd5b50610d4361410b565b604051610d5091906157f2565b60405180910390f35b348015610d6557600080fd5b50610d6e61411e565b604051610d7b91906157bc565b60405180910390f35b348015610d9057600080fd5b50610d99614135565b604051610da691906157f2565b60405180910390f35b348015610dbb57600080fd5b50610dc46141a3565b604051610dd191906157f2565b60405180910390f35b348015610de657600080fd5b50610def6141b6565b604051610dfc91906157bc565b60405180910390f35b348015610e1157600080fd5b50610e1a6141bc565b604051610e279190615f5e565b60405180910390f35b348015610e3c57600080fd5b50610e456141e2565b005b348015610e5357600080fd5b50610e5c6143bc565b604051610e69919061591f565b60405180910390f35b348015610e7e57600080fd5b50610e876143e2565b604051610e9491906157bc565b60405180910390f35b348015610ea957600080fd5b50610eb26143e8565b604051610ebf9190615f5e565b60405180910390f35b348015610ed457600080fd5b50610eef6004803603810190610eea9190615f79565b61440e565b005b348015610efd57600080fd5b50610f186004803603810190610f13919061580d565b61486a565b604051610f2591906157bc565b60405180910390f35b348015610f3a57600080fd5b50610f436148cb565b604051610f509190615fd1565b60405180910390f35b348015610f6557600080fd5b50610f6e6148f1565b005b348015610f7c57600080fd5b50610f85614d63565b604051610f929190615fd1565b60405180910390f35b348015610fa757600080fd5b50610fb0614d89565b604051610fbd91906157bc565b60405180910390f35b348015610fd257600080fd5b50610fdb614d8f565b604051610fe891906157bc565b60405180910390f35b348015610ffd57600080fd5b506110186004803603810190611013919061580d565b614da1565b005b34801561102657600080fd5b5061102f614e75565b60405161103c91906157bc565b60405180910390f35b600960009054906101000a900473ffffffffffffffffffffffffffffffffffffffff1673ffffffffffffffffffffffffffffffffffffffff163373ffffffffffffffffffffffffffffffffffffffff16146110d5576040517f08c379a00000000000000000000000000000000000000000000000000000000081526004016110cc9061605e565b60405180910390fd5b6008544211156110e457600080fd5b6007548251111561112a576040517f08c379a0000000000000000000000000000000000000000000000000000000008152600401611121906160ca565b60405180910390fd5b600080600090505b83518110156114925783818151811061114e5761114d6160ea565b5b602002602001015173ffffffffffffffffffffffffffffffffffffffff16600a848381518110611181576111806160ea565b5b60200260200101518154811061119a576111996160ea565b5b906000526020600020906002020160000160019054906101000a900473ffffffffffffffffffffffffffffffffffffffff1673ffffffffffffffffffffffffffffffffffffffff1614611222576040517f08c379a000000000000000000000000000000000000000000000000000000000815260040161121990616165565b60405180910390fd5b60006001600086848151811061123b5761123a6160ea565b5b602002602001015173ffffffffffffffffffffffffffffffffffffffff1673ffffffffffffffffffffffffffffffffffffffff16815260200190815260200160002060006101000a81548160ff021916908315150217905550600a6001600a805490506112a891906161b4565b815481106112b9576112b86160ea565b5b9060005260206000209060020201600a8483815181106112dc576112db6160ea565b5b6020026020010151815481106112f5576112f46160ea565b5b90600052602060002090600202016000820160009054906101000a900460ff168160000160006101000a81548160ff0219169083151502179055506000820160019054906101000a900473ffffffffffffffffffffffffffffffffffffffff168160000160016101000a81548173ffffffffffffffffffffffffffffffffffffffff021916908373ffffffffffffffffffffffffffffffffffffffff16021790555060018201548160010155905050600a6001600a805490506113b891906161b4565b815481106113c9576113c86160ea565b5b9060005260206000209060020201600080820160006101000a81549060ff02191690556000820160016101000a81549073ffffffffffffffffffffffffffffffffffffffff02191690556001820160009055505060018261142a91906161b4565b91507fd288ab5da2e1f37cf384a1565a3f905ad289b092fbdd31950dbbfef148c04f888482815181106114605761145f6160ea565b5b6020026020010151306040516114779291906161e8565b60405180910390a1808061148a90616211565b915050611132565b506114a881600754614ea790919063ffffffff16565b600781905550505050565b6008544211156114c257600080fd5b602660009054906101000a900473ffffffffffffffffffffffffffffffffffffffff1673ffffffffffffffffffffffffffffffffffffffff163373ffffffffffffffffffffffffffffffffffffffff1614611552576040517f08c379a0000000000000000000000000000000000000000000000000000000008152600401611549906162a5565b60405180910390fd5b6127108110611596576040517f08c379a000000000000000000000000000000000000000000000000000000000815260040161158d90616337565b60405180910390fd5b6115bf6127106115b183602154614e7b90919063ffffffff16565b614e9190919063ffffffff16565b6027819055506115dc602754602154614ea790919063ffffffff16565b60288190555050565b60215481565b600080601f541415905090565b600e60149054906101000a900460ff1681565b60026020528060005260406000206000915090505481565b61162b614ebd565b600960009054906101000a900473ffffffffffffffffffffffffffffffffffffffff1673ffffffffffffffffffffffffffffffffffffffff163373ffffffffffffffffffffffffffffffffffffffff16146116bb576040517f08c379a00000000000000000000000000000000000000000000000000000000081526004016116b29061605e565b60405180910390fd5b6116c3612032565b611702576040517f08c379a00000000000000000000000000000000000000000000000000000000081526004016116f9906163a3565b60405180910390fd5b61170a614135565b611749576040517f08c379a00000000000000000000000000000000000000000000000000000000081526004016117409061640f565b60405180910390fd5b602960019054906101000a900460ff161561183757602360009054906101000a900473ffffffffffffffffffffffffffffffffffffffff1673ffffffffffffffffffffffffffffffffffffffff166108fc6025549081150290604051600060405180830381858888f193505050501580156117c8573d6000803e3d6000fd5b50602260019054906101000a900473ffffffffffffffffffffffffffffffffffffffff1673ffffffffffffffffffffffffffffffffffffffff166108fc479081150290604051600060405180830381858888f19350505050158015611831573d6000803e3d6000fd5b506119b3565b6118a8602360009054906101000a900473ffffffffffffffffffffffffffffffffffffffff16602554602960029054906101000a900473ffffffffffffffffffffffffffffffffffffffff1673ffffffffffffffffffffffffffffffffffffffff16614f079092919063ffffffff16565b6119b2602260019054906101000a900473ffffffffffffffffffffffffffffffffffffffff16602960029054906101000a900473ffffffffffffffffffffffffffffffffffffffff1673ffffffffffffffffffffffffffffffffffffffff166370a08231306040518263ffffffff1660e01b81526004016119299190615f5e565b602060405180830381865afa158015611946573d6000803e3d6000fd5b505050506040513d601f19601f8201168201806040525081019061196a9190616444565b602960029054906101000a900473ffffffffffffffffffffffffffffffffffffffff1673ffffffffffffffffffffffffffffffffffffffff16614f079092919063ffffffff16565b5b3373ffffffffffffffffffffffffffffffffffffffff167fe57d8098f4ea9a6b92bb21c1bcf7708b5b661779b84da5f01d2b76c3984284df306040516119f99190615f5e565b60405180910390a2565b600f5481565b600a8181548110611a1957600080fd5b90600052602060002090600202016000915090508060000160009054906101000a900460ff16908060000160019054906101000a900473ffffffffffffffffffffffffffffffffffffffff16908060010154905083565b6000600160008373ffffffffffffffffffffffffffffffffffffffff1673ffffffffffffffffffffffffffffffffffffffff16815260200190815260200160002060009054906101000a900460ff169050919050565b600960009054906101000a900473ffffffffffffffffffffffffffffffffffffffff1673ffffffffffffffffffffffffffffffffffffffff163373ffffffffffffffffffffffffffffffffffffffff1614611b56576040517f08c379a0000000000000000000000000000000000000000000000000000000008152600401611b4d9061605e565b60405180910390fd5b611b5e614f8d565b565b611b68612032565b611ba7576040517f08c379a0000000000000000000000000000000000000000000000000000000008152600401611b9e906163a3565b60405180910390fd5b602260009054906101000a900460ff1615611bf7576040517f08c379a0000000000000000000000000000000000000000000000000000000008152600401611bee906164bd565b60405180910390fd5b611bff614fef565b611c076115eb565b611c46576040517f08c379a0000000000000000000000000000000000000000000000000000000008152600401611c3d90616529565b60405180910390fd5b611c4e612deb565b611c8d576040517f08c379a0000000000000000000000000000000000000000000000000000000008152600401611c849061640f565b60405180910390fd5b6000600d60003373ffffffffffffffffffffffffffffffffffffffff1673ffffffffffffffffffffffffffffffffffffffff1681526020019081526020016000206000015414158015611d2d5750600d60003373ffffffffffffffffffffffffffffffffffffffff1673ffffffffffffffffffffffffffffffffffffffff16815260200190815260200160002060040160009054906101000a900460ff16155b611d6c576040517f08c379a0000000000000000000000000000000000000000000000000000000008152600401611d63906165bb565b60405180910390fd5b3373ffffffffffffffffffffffffffffffffffffffff16600d60003373ffffffffffffffffffffffffffffffffffffffff1673ffffffffffffffffffffffffffffffffffffffff16815260200190815260200160002060010160009054906101000a900473ffffffffffffffffffffffffffffffffffffffff1673ffffffffffffffffffffffffffffffffffffffff1614611e0657600080fd5b6001600d60003373ffffffffffffffffffffffffffffffffffffffff1673ffffffffffffffffffffffffffffffffffffffff16815260200190815260200160002060040160006101000a81548160ff0219169083151502179055506001600d60003373ffffffffffffffffffffffffffffffffffffffff1673ffffffffffffffffffffffffffffffffffffffff16815260200190815260200160002060040160016101000a81548160ff021916908315150217905550602960019054906101000a900460ff1615611f5f573373ffffffffffffffffffffffffffffffffffffffff166108fc600d60003373ffffffffffffffffffffffffffffffffffffffff1673ffffffffffffffffffffffffffffffffffffffff168152602001908152602001600020600201549081150290604051600060405180830381858888f19350505050158015611f59573d6000803e3d6000fd5b50611fef565b611fee33600d60003373ffffffffffffffffffffffffffffffffffffffff1673ffffffffffffffffffffffffffffffffffffffff16815260200190815260200160002060020154602960029054906101000a900473ffffffffffffffffffffffffffffffffffffffff1673ffffffffffffffffffffffffffffffffffffffff16614f079092919063ffffffff16565b5b7fb484599b1523b500c6466268b8f8223963e1abcf26b855599c5a218c9e440cbf33306040516120209291906161e8565b60405180910390a161203061503e565b565b60006012544211905090565b6000600854421015905090565b60275481565b600960009054906101000a900473ffffffffffffffffffffffffffffffffffffffff1673ffffffffffffffffffffffffffffffffffffffff163373ffffffffffffffffffffffffffffffffffffffff16146120e1576040517f08c379a00000000000000000000000000000000000000000000000000000000081526004016120d89061605e565b60405180910390fd5b6120e9612032565b612128576040517f08c379a000000000000000000000000000000000000000000000000000000000815260040161211f906163a3565b60405180910390fd5b600e60009054906101000a900473ffffffffffffffffffffffffffffffffffffffff1673ffffffffffffffffffffffffffffffffffffffff168273ffffffffffffffffffffffffffffffffffffffff16036121b8576040517f08c379a00000000000000000000000000000000000000000000000000000000081526004016121af9061664d565b60405180910390fd5b6000829050612261828273ffffffffffffffffffffffffffffffffffffffff166370a08231306040518263ffffffff1660e01b81526004016121fa9190615f5e565b602060405180830381865afa158015612217573d6000803e3d6000fd5b505050506040513d601f19601f8201168201806040525081019061223b9190616444565b8373ffffffffffffffffffffffffffffffffffffffff16614f079092919063ffffffff16565b505050565b600061227061203e565b8015612281575061227f612032565b155b905090565b602960029054906101000a900473ffffffffffffffffffffffffffffffffffffffff1681565b600960009054906101000a900473ffffffffffffffffffffffffffffffffffffffff1673ffffffffffffffffffffffffffffffffffffffff163373ffffffffffffffffffffffffffffffffffffffff161461233c576040517f08c379a00000000000000000000000000000000000000000000000000000000081526004016123339061605e565b60405180910390fd5b60085442111561234b57600080fd5b600085511161238f576040517f08c379a0000000000000000000000000000000000000000000000000000000008152600401612386906166b9565b60405180910390fd5b600082865110156123d5576040517f08c379a00000000000000000000000000000000000000000000000000000000081526004016123cc90616725565b60405180910390fd5b60008651905060005b61240560016123f7602088614e9190919063ffffffff16565b61504890919063ffffffff16565b811015612902576006600081548092919061241f90616211565b9190505550600084600460065460405160200161243e9392919061683e565b60405160208183030381529060405280519060200120905060005b60208110156128ed57868510156128da5760006124ba85848460208110612483576124826160ea565b5b1a60f81b7effffffffffffffffffffffffffffffffffffffffffffffffffffffffffffff191660001c61505e90919063ffffffff16565b905060018060008d84815181106124d4576124d36160ea565b5b602002602001015173ffffffffffffffffffffffffffffffffffffffff1673ffffffffffffffffffffffffffffffffffffffff16815260200190815260200160002060006101000a81548160ff02191690831515021790555060008a8a83818110612542576125416160ea565b5b90506020020135118015612570575060068a8a83818110612566576125656160ea565b5b9050602002013511155b6125af576040517f08c379a00000000000000000000000000000000000000000000000000000000081526004016125a6906168cf565b60405180910390fd5b8989828181106125c2576125c16160ea565b5b90506020020135600260008d84815181106125e0576125df6160ea565b5b602002602001015173ffffffffffffffffffffffffffffffffffffffff1673ffffffffffffffffffffffffffffffffffffffff16815260200190815260200160002081905550600a60405180606001604052806001151581526020018d848151811061264f5761264e6160ea565b5b602002602001015173ffffffffffffffffffffffffffffffffffffffff1681526020018c8c85818110612685576126846160ea565b5b90506020020135815250908060018154018082558091505060019003906000526020600020906002020160009091909190915060008201518160000160006101000a81548160ff02191690831515021790555060208201518160000160016101000a81548173ffffffffffffffffffffffffffffffffffffffff021916908373ffffffffffffffffffffffffffffffffffffffff1602179055506040820151816001015550508a60018661273991906161b4565b8151811061274a576127496160ea565b5b60200260200101600073ffffffffffffffffffffffffffffffffffffffff16815250612780600186614ea790919063ffffffff16565b945085600360008d848151811061279a576127996160ea565b5b602002602001015173ffffffffffffffffffffffffffffffffffffffff1673ffffffffffffffffffffffffffffffffffffffff168152602001908152602001600020819055506127f460018761504890919063ffffffff16565b95507f5a2c39a0bacc7eaf39e675a6129807391745c73a0b6110a986c6f7d4082f8f798b828151811061282a576128296160ea565b5b60200260200101518b8b84818110612845576128446160ea565b5b905060200201353060405161285c939291906168ef565b60405180910390a18a60018661287291906161b4565b81518110612883576128826160ea565b5b60200260200101518b828151811061289e5761289d6160ea565b5b602002602001019073ffffffffffffffffffffffffffffffffffffffff16908173ffffffffffffffffffffffffffffffffffffffff1681525050505b80806128e590616211565b915050612459565b505080806128fa90616211565b9150506123de565b506129188260075461504890919063ffffffff16565b60078190555050505050505050565b60008060009054906101000a900460ff16905090565b806004908161294c9190616ab3565b5050565b60115481565b60085442111561296557600080fd5b600960009054906101000a900473ffffffffffffffffffffffffffffffffffffffff1673ffffffffffffffffffffffffffffffffffffffff163373ffffffffffffffffffffffffffffffffffffffff16146129f5576040517f08c379a00000000000000000000000000000000000000000000000000000000081526004016129ec906162a5565b60405180910390fd5b60005b6005811015612b9f57828160058110612a1457612a136160ea565b5b6020020151828260058110612a2c57612a2b6160ea565b5b60200201511015612a72576040517f08c379a0000000000000000000000000000000000000000000000000000000008152600401612a6990616bf7565b60405180910390fd5b828160058110612a8557612a846160ea565b5b60200201516021541015612ace576040517f08c379a0000000000000000000000000000000000000000000000000000000008152600401612ac590616c89565b60405180910390fd5b818160058110612ae157612ae06160ea565b5b60200201516021541015612b2a576040517f08c379a0000000000000000000000000000000000000000000000000000000008152600401612b2190616d1b565b60405180910390fd5b828160058110612b3d57612b3c6160ea565b5b602002015160138260068110612b5657612b556160ea565b5b0181905550818160058110612b6e57612b6d6160ea565b5b602002015160198260068110612b8757612b866160ea565b5b01819055508080612b9790616211565b9150506129f8565b506001602960006101000a81548160ff0219169083151502179055505050565b60198160068110612bcf57600080fd5b016000915090505481565b60058054612be790616774565b80601f0160208091040260200160405190810160405280929190818152602001828054612c1390616774565b8015612c605780601f10612c3557610100808354040283529160200191612c60565b820191906000526020600020905b815481529060010190602001808311612c4357829003601f168201915b505050505081565b6000600e60009054906101000a900473ffffffffffffffffffffffffffffffffffffffff1673ffffffffffffffffffffffffffffffffffffffff166370a08231306040518263ffffffff1660e01b8152600401612cc59190615f5e565b602060405180830381865afa158015612ce2573d6000803e3d6000fd5b505050506040513d601f19601f82011682018060405250810190612d069190616444565b905090565b60255481565b6060600a805480602002602001604051908101604052809291908181526020016000905b82821015612de257838290600052602060002090600202016040518060600160405290816000820160009054906101000a900460ff161515151581526020016000820160019054906101000a900473ffffffffffffffffffffffffffffffffffffffff1673ffffffffffffffffffffffffffffffffffffffff1673ffffffffffffffffffffffffffffffffffffffff16815260200160018201548152505081526020019060010190612d35565b50505050905090565b6000612df8601f546132ed565b612e036020546132ed565b10612e43576040517f08c379a0000000000000000000000000000000000000000000000000000000008152600401612e3a90616dad565b60405180910390fd5b6001905090565b600854421115612e5957600080fd5b80600e60009054906101000a900473ffffffffffffffffffffffffffffffffffffffff1673ffffffffffffffffffffffffffffffffffffffff166370a08231336040518263ffffffff1660e01b8152600401612eb59190615f5e565b602060405180830381865afa158015612ed2573d6000803e3d6000fd5b505050506040513d601f19601f82011682018060405250810190612ef69190616444565b1015612f37576040517f08c379a0000000000000000000000000000000000000000000000000000000008152600401612f2e90616e19565b60405180910390fd5b602154811015612f7c576040517f08c379a0000000000000000000000000000000000000000000000000000000008152600401612f7390616eab565b60405180910390fd5b612fcb333083600e60009054906101000a900473ffffffffffffffffffffffffffffffffffffffff1673ffffffffffffffffffffffffffffffffffffffff16615074909392919063ffffffff16565b6001600e60146101000a81548160ff0219169083151502179055507feb7ea3b6ce7975cdf574554f1904ab174663d6f9094535d95b5bae6a44d870618130604051613017929190616ecb565b60405180910390a150565b60205481565b6000600854905090565b600d6020528060005260406000206000915090508060000154908060010160009054906101000a900473ffffffffffffffffffffffffffffffffffffffff16908060020154908060030154908060040160009054906101000a900460ff16908060040160019054906101000a900460ff16905086565b600960009054906101000a900473ffffffffffffffffffffffffffffffffffffffff1673ffffffffffffffffffffffffffffffffffffffff163373ffffffffffffffffffffffffffffffffffffffff1614613138576040517f08c379a000000000000000000000000000000000000000000000000000000000815260040161312f9061605e565b60405180910390fd5b6131406150fd565b565b600960009054906101000a900473ffffffffffffffffffffffffffffffffffffffff1673ffffffffffffffffffffffffffffffffffffffff163373ffffffffffffffffffffffffffffffffffffffff16146131d2576040517f08c379a00000000000000000000000000000000000000000000000000000000081526004016131c99061605e565b60405180910390fd5b600073ffffffffffffffffffffffffffffffffffffffff168173ffffffffffffffffffffffffffffffffffffffff1603613241576040517f08c379a000000000000000000000000000000000000000000000000000000000815260040161323890616f40565b60405180910390fd5b80602260016101000a81548173ffffffffffffffffffffffffffffffffffffffff021916908373ffffffffffffffffffffffffffffffffffffffff1602179055507f45215203c85e400cb105104faee2424849a1f3c133e4137bb7c8fcfd5364abd2816040516132b19190616f81565b60405180910390a150565b60036020528060005260406000206000915090505481565b602960009054906101000a900460ff1681565b601f5481565b6000613324600f54600a61330191906170cf565b61331660115485614e7b90919063ffffffff16565b614e9190919063ffffffff16565b9050919050565b61271081565b613339614ebd565b600e60149054906101000a900460ff16613388576040517f08c379a000000000000000000000000000000000000000000000000000000000815260040161337f90617166565b60405180910390fd5b613390612266565b6133cf576040517f08c379a00000000000000000000000000000000000000000000000000000000081526004016133c6906171d2565b60405180910390fd5b6133d833611a70565b613417576040517f08c379a000000000000000000000000000000000000000000000000000000000815260040161340e9061723e565b60405180910390fd5b6000811161345a576040517f08c379a0000000000000000000000000000000000000000000000000000000008152600401613451906172aa565b60405180910390fd5b61346261411e565b8111156134a4576040517f08c379a000000000000000000000000000000000000000000000000000000000815260040161349b9061733c565b60405180910390fd5b60006134c96134b283613bc0565b6134bb846132ed565b61504890919063ffffffff16565b9050602960019054906101000a900460ff161561352357803414613522576040517f08c379a0000000000000000000000000000000000000000000000000000000008152600401613519906173f4565b60405180910390fd5b5b600061352e3361486a565b90506000811015613574576040517f08c379a000000000000000000000000000000000000000000000000000000000815260040161356b90617486565b60405180910390fd5b6000600d60003373ffffffffffffffffffffffffffffffffffffffff1673ffffffffffffffffffffffffffffffffffffffff1681526020019081526020016000206040518060c0016040529081600082015481526020016001820160009054906101000a900473ffffffffffffffffffffffffffffffffffffffff1673ffffffffffffffffffffffffffffffffffffffff1673ffffffffffffffffffffffffffffffffffffffff16815260200160028201548152602001600382015481526020016004820160009054906101000a900460ff161515151581526020016004820160019054906101000a900460ff16151515158152505090506000816000015190506006831461384057602960009054906101000a900460ff16156137835760136001846136a191906161b4565b600681106136b2576136b16160ea565b5b01546136c7868361504890919063ffffffff16565b1015613708576040517f08c379a00000000000000000000000000000000000000000000000000000000081526004016136ff90617518565b60405180910390fd5b601960018461371791906161b4565b60068110613728576137276160ea565b5b015461373d868361504890919063ffffffff16565b111561377e576040517f08c379a0000000000000000000000000000000000000000000000000000000008152600401613775906175aa565b60405180910390fd5b6137db565b602154613799868361504890919063ffffffff16565b11156137da576040517f08c379a00000000000000000000000000000000000000000000000000000000081526004016137d1906175aa565b60405180910390fd5b5b846027541015613820576040517f08c379a00000000000000000000000000000000000000000000000000000000081526004016138179061763c565b60405180910390fd5b61383585602754614ea790919063ffffffff16565b6027819055506138a1565b846028541015613885576040517f08c379a000000000000000000000000000000000000000000000000000000000815260040161387c906176ce565b60405180910390fd5b61389a85602854614ea790919063ffffffff16565b6028819055505b602260009054906101000a900460ff1615613915576139033386600e60009054906101000a900473ffffffffffffffffffffffffffffffffffffffff1673ffffffffffffffffffffffffffffffffffffffff16614f079092919063ffffffff16565b60018260800190151590811515815250505b602960019054906101000a900460ff1661397957613978333086602960029054906101000a900473ffffffffffffffffffffffffffffffffffffffff1673ffffffffffffffffffffffffffffffffffffffff16615074909392919063ffffffff16565b5b61399661398586613bc0565b60255461504890919063ffffffff16565b60258190555033826020019073ffffffffffffffffffffffffffffffffffffffff16908173ffffffffffffffffffffffffffffffffffffffff1681525050428260600181815250508482600001516139ee91906176ee565b826000018181525050838260400151613a0791906176ee565b82604001818152505081600d60003373ffffffffffffffffffffffffffffffffffffffff1673ffffffffffffffffffffffffffffffffffffffff1681526020019081526020016000206000820151816000015560208201518160010160006101000a81548173ffffffffffffffffffffffffffffffffffffffff021916908373ffffffffffffffffffffffffffffffffffffffff160217905550604082015181600201556060820151816003015560808201518160040160006101000a81548160ff02191690831515021790555060a08201518160040160016101000a81548160ff021916908315150217905550905050613b0d8560205461504890919063ffffffff16565b6020819055503373ffffffffffffffffffffffffffffffffffffffff167f9db36b09fdfdbc55f35f19e1794139cdd96254e7ed10817263e6dff5aff27164864230604051613b5d93929190617722565b60405180910390a25050505050565b602960019054906101000a900460ff1681565b60016020528060005260406000206000915054906101000a900460ff1681565b60138160068110613baf57600080fd5b016000915090505481565b60245481565b600080613c20612710613c12602454613c04600f54600a613be191906170cf565b613bf66011548a614e7b90919063ffffffff16565b614e9190919063ffffffff16565b614e7b90919063ffffffff16565b614e9190919063ffffffff16565b905080915050919050565b6000806000806000806000600d60008973ffffffffffffffffffffffffffffffffffffffff1673ffffffffffffffffffffffffffffffffffffffff1681526020019081526020016000206040518060c0016040529081600082015481526020016001820160009054906101000a900473ffffffffffffffffffffffffffffffffffffffff1673ffffffffffffffffffffffffffffffffffffffff1673ffffffffffffffffffffffffffffffffffffffff16815260200160028201548152602001600382015481526020016004820160009054906101000a900460ff161515151581526020016004820160019054906101000a900460ff1615151515815250509050806000015181602001518260400151836060015184608001518560a001519650965096509650965096505091939550919395565b600960009054906101000a900473ffffffffffffffffffffffffffffffffffffffff1673ffffffffffffffffffffffffffffffffffffffff163373ffffffffffffffffffffffffffffffffffffffff1614613df0576040517f08c379a0000000000000000000000000000000000000000000000000000000008152600401613de79061605e565b60405180910390fd5b600854421115613dff57600080fd5b80602360006101000a81548173ffffffffffffffffffffffffffffffffffffffff021916908373ffffffffffffffffffffffffffffffffffffffff16021790555050565b60048054613e5090616774565b80601f0160208091040260200160405190810160405280929190818152602001828054613e7c90616774565b8015613ec95780601f10613e9e57610100808354040283529160200191613ec9565b820191906000526020600020905b815481529060010190602001808311613eac57829003601f168201915b505050505081565b600854421115613ee057600080fd5b602660009054906101000a900473ffffffffffffffffffffffffffffffffffffffff1673ffffffffffffffffffffffffffffffffffffffff163373ffffffffffffffffffffffffffffffffffffffff1614613f70576040517f08c379a0000000000000000000000000000000000000000000000000000000008152600401613f67906162a5565b60405180910390fd5b81602960016101000a81548160ff02191690831515021790555081613fd15780602960026101000a81548173ffffffffffffffffffffffffffffffffffffffff021916908373ffffffffffffffffffffffffffffffffffffffff1602179055505b5050565b600960009054906101000a900473ffffffffffffffffffffffffffffffffffffffff1673ffffffffffffffffffffffffffffffffffffffff163373ffffffffffffffffffffffffffffffffffffffff1614614065576040517f08c379a000000000000000000000000000000000000000000000000000000000815260040161405c9061605e565b60405180910390fd5b60085442111561407457600080fd5b612710811080156140855750600081115b6140c4576040517f08c379a00000000000000000000000000000000000000000000000000000000081526004016140bb906177a5565b60405180910390fd5b806024819055507fcc8e0d099b6b6a1a4ae089dec1b2c29e7df166eb8f103f55064427f6e4596b09816040516140fa91906157bc565b60405180910390a150565b60065481565b602260009054906101000a900460ff1681565b600060205460215461413091906161b4565b905090565b600061413f6115eb565b1561419c5761414f601f546132ed565b61415a6020546132ed565b101561419b576040517f08c379a000000000000000000000000000000000000000000000000000000000815260040161419290617837565b60405180910390fd5b5b6001905090565b601060009054906101000a900460ff1681565b60125481565b600960009054906101000a900473ffffffffffffffffffffffffffffffffffffffff1681565b600960009054906101000a900473ffffffffffffffffffffffffffffffffffffffff1673ffffffffffffffffffffffffffffffffffffffff163373ffffffffffffffffffffffffffffffffffffffff1614614272576040517f08c379a00000000000000000000000000000000000000000000000000000000081526004016142699061605e565b60405180910390fd5b61427a612032565b6142b9576040517f08c379a00000000000000000000000000000000000000000000000000000000081526004016142b0906163a3565b60405180910390fd5b601060009054906101000a900460ff16156142d357600080fd5b60006142dd6115eb565b80156142fc57506142ef601f546132ed565b6142fa6020546132ed565b105b1561430b576021549050614325565b614322602054602154614ea790919063ffffffff16565b90505b60008111156143b9576001601060006101000a81548160ff0219169083151502179055506143b8602260019054906101000a900473ffffffffffffffffffffffffffffffffffffffff1682600e60009054906101000a900473ffffffffffffffffffffffffffffffffffffffff1673ffffffffffffffffffffffffffffffffffffffff16614f079092919063ffffffff16565b5b50565b600e60009054906101000a900473ffffffffffffffffffffffffffffffffffffffff1681565b60075481565b602660009054906101000a900473ffffffffffffffffffffffffffffffffffffffff1681565b600960009054906101000a900473ffffffffffffffffffffffffffffffffffffffff1673ffffffffffffffffffffffffffffffffffffffff163373ffffffffffffffffffffffffffffffffffffffff161461449e576040517f08c379a00000000000000000000000000000000000000000000000000000000081526004016144959061605e565b60405180910390fd5b6008544211156144ad57600080fd5b600080600090505b825181101561484a57600073ffffffffffffffffffffffffffffffffffffffff168382815181106144e9576144e86160ea565b5b602002602001015173ffffffffffffffffffffffffffffffffffffffff1603614547576040517f08c379a000000000000000000000000000000000000000000000000000000000815260040161453e906178a3565b60405180910390fd5b6001151560016000858481518110614562576145616160ea565b5b602002602001015173ffffffffffffffffffffffffffffffffffffffff1673ffffffffffffffffffffffffffffffffffffffff16815260200190815260200160002060009054906101000a900460ff161515146148375760018060008584815181106145d1576145d06160ea565b5b602002602001015173ffffffffffffffffffffffffffffffffffffffff1673ffffffffffffffffffffffffffffffffffffffff16815260200190815260200160002060006101000a81548160ff021916908315150217905550600a6040518060600160405280600015158152602001858481518110614653576146526160ea565b5b602002602001015173ffffffffffffffffffffffffffffffffffffffff1681526020016006815250908060018154018082558091505060019003906000526020600020906002020160009091909190915060008201518160000160006101000a81548160ff02191690831515021790555060208201518160000160016101000a81548173ffffffffffffffffffffffffffffffffffffffff021916908373ffffffffffffffffffffffffffffffffffffffff1602179055506040820151816001015550506006600260008584815181106147305761472f6160ea565b5b602002602001015173ffffffffffffffffffffffffffffffffffffffff1673ffffffffffffffffffffffffffffffffffffffff16815260200190815260200160002081905550816003600085848151811061478e5761478d6160ea565b5b602002602001015173ffffffffffffffffffffffffffffffffffffffff1673ffffffffffffffffffffffffffffffffffffffff168152602001908152602001600020819055506001826147e191906176ee565b91507f0c4b48e75a1f7ab0a9a2f786b5d6c1f7789020403bff177fb54d46edb89ccc00838281518110614817576148166160ea565b5b60200260200101513060405161482e9291906161e8565b60405180910390a15b808061484290616211565b9150506144b5565b506148608160075461504890919063ffffffff16565b6007819055505050565b600061487582611a70565b156148c157600260008373ffffffffffffffffffffffffffffffffffffffff1673ffffffffffffffffffffffffffffffffffffffff1681526020019081526020016000205490506148c6565b600090505b919050565b602260019054906101000a900473ffffffffffffffffffffffffffffffffffffffff1681565b602260009054906101000a900460ff1615614941576040517f08c379a0000000000000000000000000000000000000000000000000000000008152600401614938906164bd565b60405180910390fd5b614949612032565b614988576040517f08c379a000000000000000000000000000000000000000000000000000000000815260040161497f906163a3565b60405180910390fd5b600e60149054906101000a900460ff166149d7576040517f08c379a00000000000000000000000000000000000000000000000000000000081526004016149ce90617166565b60405180910390fd5b6149df614ebd565b6149e7614fef565b6000600d60003373ffffffffffffffffffffffffffffffffffffffff1673ffffffffffffffffffffffffffffffffffffffff1681526020019081526020016000206000015414158015614a875750600d60003373ffffffffffffffffffffffffffffffffffffffff1673ffffffffffffffffffffffffffffffffffffffff16815260200190815260200160002060040160009054906101000a900460ff16155b614ac6576040517f08c379a0000000000000000000000000000000000000000000000000000000008152600401614abd906165bb565b60405180910390fd5b614ace614135565b614b0d576040517f08c379a0000000000000000000000000000000000000000000000000000000008152600401614b049061790f565b60405180910390fd5b3373ffffffffffffffffffffffffffffffffffffffff16600d60003373ffffffffffffffffffffffffffffffffffffffff1673ffffffffffffffffffffffffffffffffffffffff16815260200190815260200160002060010160009054906101000a900473ffffffffffffffffffffffffffffffffffffffff1673ffffffffffffffffffffffffffffffffffffffff1614614bdd576040517f08c379a0000000000000000000000000000000000000000000000000000000008152600401614bd4906179a1565b60405180910390fd5b6001600d60003373ffffffffffffffffffffffffffffffffffffffff1673ffffffffffffffffffffffffffffffffffffffff16815260200190815260200160002060040160006101000a81548160ff021916908315150217905550614cc733600d60003373ffffffffffffffffffffffffffffffffffffffff1673ffffffffffffffffffffffffffffffffffffffff16815260200190815260200160002060000154600e60009054906101000a900473ffffffffffffffffffffffffffffffffffffffff1673ffffffffffffffffffffffffffffffffffffffff16614f079092919063ffffffff16565b3373ffffffffffffffffffffffffffffffffffffffff167faf1c751736853cd600a4066d300ada44130063fcffdf2eecbcc805a135b35a5c600d60003373ffffffffffffffffffffffffffffffffffffffff1673ffffffffffffffffffffffffffffffffffffffff1681526020019081526020016000206000015430604051614d51929190616ecb565b60405180910390a2614d6161503e565b565b602360009054906101000a900473ffffffffffffffffffffffffffffffffffffffff1681565b60085481565b6000614d9c6021546132ed565b905090565b3373ffffffffffffffffffffffffffffffffffffffff16602660009054906101000a900473ffffffffffffffffffffffffffffffffffffffff1673ffffffffffffffffffffffffffffffffffffffff1614614e31576040517f08c379a0000000000000000000000000000000000000000000000000000000008152600401614e2890617a0d565b60405180910390fd5b80600960006101000a81548173ffffffffffffffffffffffffffffffffffffffff021916908373ffffffffffffffffffffffffffffffffffffffff16021790555050565b60285481565b60008183614e899190617a2d565b905092915050565b60008183614e9f9190617a9e565b905092915050565b60008183614eb591906161b4565b905092915050565b614ec5612927565b15614f05576040517f08c379a0000000000000000000000000000000000000000000000000000000008152600401614efc90617b1b565b60405180910390fd5b565b614f888363a9059cbb60e01b8484604051602401614f26929190617b3b565b604051602081830303815290604052907bffffffffffffffffffffffffffffffffffffffffffffffffffffffff19166020820180517bffffffffffffffffffffffffffffffffffffffffffffffffffffffff838183161783525050505061515f565b505050565b614f95615226565b60008060006101000a81548160ff0219169083151502179055507f5db9ee0a495bf2e6ff9c91a7834c1ba4fdd244a5e8aa4e537bd38aeae4b073aa614fd861526f565b604051614fe59190615f5e565b60405180910390a1565b6002600b5403615034576040517f08c379a000000000000000000000000000000000000000000000000000000000815260040161502b90617bb0565b60405180910390fd5b6002600b81905550565b6001600b81905550565b6000818361505691906176ee565b905092915050565b6000818361506c9190617bd0565b905092915050565b6150f7846323b872dd60e01b85858560405160240161509593929190617c01565b604051602081830303815290604052907bffffffffffffffffffffffffffffffffffffffffffffffffffffffff19166020820180517bffffffffffffffffffffffffffffffffffffffffffffffffffffffff838183161783525050505061515f565b50505050565b615105614ebd565b60016000806101000a81548160ff0219169083151502179055507f62e78cea01bee320cd4e420270b5ea74000d11b0c9f74754ebdbfc544b05a25861514861526f565b6040516151559190615f5e565b60405180910390a1565b60006151c1826040518060400160405280602081526020017f5361666542455032303a206c6f772d6c6576656c2063616c6c206661696c65648152508573ffffffffffffffffffffffffffffffffffffffff166152779092919063ffffffff16565b905060008151111561522157808060200190518101906151e19190617c4d565b615220576040517f08c379a000000000000000000000000000000000000000000000000000000000815260040161521790617cec565b60405180910390fd5b5b505050565b61522e612927565b61526d576040517f08c379a000000000000000000000000000000000000000000000000000000000815260040161526490617d58565b60405180910390fd5b565b600033905090565b6060615286848460008561528f565b90509392505050565b6060824710156152d4576040517f08c379a00000000000000000000000000000000000000000000000000000000081526004016152cb90617dea565b60405180910390fd5b6000808673ffffffffffffffffffffffffffffffffffffffff1685876040516152fd9190617e51565b60006040518083038185875af1925050503d806000811461533a576040519150601f19603f3d011682016040523d82523d6000602084013e61533f565b606091505b50915091506153508783838761535c565b92505050949350505050565b606083156153be5760008351036153b657615376856153d1565b6153b5576040517f08c379a00000000000000000000000000000000000000000000000000000000081526004016153ac90617eb4565b60405180910390fd5b5b8290506153c9565b6153c883836153f4565b5b949350505050565b6000808273ffffffffffffffffffffffffffffffffffffffff163b119050919050565b6000825111156154075781518083602001fd5b806040517f08c379a000000000000000000000000000000000000000000000000000000000815260040161543b9190615cc4565b60405180910390fd5b6000604051905090565b600080fd5b600080fd5b600080fd5b6000601f19601f8301169050919050565b7f4e487b7100000000000000000000000000000000000000000000000000000000600052604160045260246000fd5b6154a68261545d565b810181811067ffffffffffffffff821117156154c5576154c461546e565b5b80604052505050565b60006154d8615444565b90506154e4828261549d565b919050565b600067ffffffffffffffff8211156155045761550361546e565b5b602082029050602081019050919050565b600080fd5b600073ffffffffffffffffffffffffffffffffffffffff82169050919050565b60006155458261551a565b9050919050565b6155558161553a565b811461556057600080fd5b50565b6000813590506155728161554c565b92915050565b600061558b615586846154e9565b6154ce565b905080838252602082019050602084028301858111156155ae576155ad615515565b5b835b818110156155d757806155c38882615563565b8452602084019350506020810190506155b0565b5050509392505050565b600082601f8301126155f6576155f5615458565b5b8135615606848260208601615578565b91505092915050565b600067ffffffffffffffff82111561562a5761562961546e565b5b602082029050602081019050919050565b6000819050919050565b61564e8161563b565b811461565957600080fd5b50565b60008135905061566b81615645565b92915050565b600061568461567f8461560f565b6154ce565b905080838252602082019050602084028301858111156156a7576156a6615515565b5b835b818110156156d057806156bc888261565c565b8452602084019350506020810190506156a9565b5050509392505050565b600082601f8301126156ef576156ee615458565b5b81356156ff848260208601615671565b91505092915050565b6000806040838503121561571f5761571e61544e565b5b600083013567ffffffffffffffff81111561573d5761573c615453565b5b615749858286016155e1565b925050602083013567ffffffffffffffff81111561576a57615769615453565b5b615776858286016156da565b9150509250929050565b6000602082840312156157965761579561544e565b5b60006157a48482850161565c565b91505092915050565b6157b68161563b565b82525050565b60006020820190506157d160008301846157ad565b92915050565b60008115159050919050565b6157ec816157d7565b82525050565b600060208201905061580760008301846157e3565b92915050565b6000602082840312156158235761582261544e565b5b600061583184828501615563565b91505092915050565b6158438161553a565b82525050565b600060608201905061585e60008301866157e3565b61586b602083018561583a565b61587860408301846157ad565b949350505050565b600080604083850312156158975761589661544e565b5b60006158a585828601615563565b92505060206158b685828601615563565b9150509250929050565b6000819050919050565b60006158e56158e06158db8461551a565b6158c0565b61551a565b9050919050565b60006158f7826158ca565b9050919050565b6000615909826158ec565b9050919050565b615919816158fe565b82525050565b60006020820190506159346000830184615910565b92915050565b600080fd5b60008083601f84011261595557615954615458565b5b8235905067ffffffffffffffff8111156159725761597161593a565b5b60208301915083602082028301111561598e5761598d615515565b5b9250929050565b600080fd5b600067ffffffffffffffff8211156159b5576159b461546e565b5b6159be8261545d565b9050602081019050919050565b82818337600083830152505050565b60006159ed6159e88461599a565b6154ce565b905082815260208101848484011115615a0957615a08615995565b5b615a148482856159cb565b509392505050565b600082601f830112615a3157615a30615458565b5b8135615a418482602086016159da565b91505092915050565b600080600080600060808688031215615a6657615a6561544e565b5b600086013567ffffffffffffffff811115615a8457615a83615453565b5b615a90888289016155e1565b955050602086013567ffffffffffffffff811115615ab157615ab0615453565b5b615abd8882890161593f565b94509450506040615ad08882890161565c565b925050606086013567ffffffffffffffff811115615af157615af0615453565b5b615afd88828901615a1c565b9150509295509295909350565b600060208284031215615b2057615b1f61544e565b5b600082013567ffffffffffffffff811115615b3e57615b3d615453565b5b615b4a84828501615a1c565b91505092915050565b600067ffffffffffffffff821115615b6e57615b6d61546e565b5b602082029050919050565b6000615b8c615b8784615b53565b6154ce565b90508060208402830185811115615ba657615ba5615515565b5b835b81811015615bcf5780615bbb888261565c565b845260208401935050602081019050615ba8565b5050509392505050565b600082601f830112615bee57615bed615458565b5b6005615bfb848285615b79565b91505092915050565b6000806101408385031215615c1c57615c1b61544e565b5b6000615c2a85828601615bd9565b92505060a0615c3b85828601615bd9565b9150509250929050565b600081519050919050565b600082825260208201905092915050565b60005b83811015615c7f578082015181840152602081019050615c64565b60008484015250505050565b6000615c9682615c45565b615ca08185615c50565b9350615cb0818560208601615c61565b615cb98161545d565b840191505092915050565b60006020820190508181036000830152615cde8184615c8b565b905092915050565b600081519050919050565b600082825260208201905092915050565b6000819050602082019050919050565b615d1b816157d7565b82525050565b615d2a8161553a565b82525050565b615d398161563b565b82525050565b606082016000820151615d556000850182615d12565b506020820151615d686020850182615d21565b506040820151615d7b6040850182615d30565b50505050565b6000615d8d8383615d3f565b60608301905092915050565b6000602082019050919050565b6000615db182615ce6565b615dbb8185615cf1565b9350615dc683615d02565b8060005b83811015615df7578151615dde8882615d81565b9750615de983615d99565b925050600181019050615dca565b5085935050505092915050565b60006020820190508181036000830152615e1e8184615da6565b905092915050565b600060c082019050615e3b60008301896157ad565b615e48602083018861583a565b615e5560408301876157ad565b615e6260608301866157ad565b615e6f60808301856157e3565b615e7c60a08301846157e3565b979650505050505050565b6000615e928261551a565b9050919050565b615ea281615e87565b8114615ead57600080fd5b50565b600081359050615ebf81615e99565b92915050565b600060208284031215615edb57615eda61544e565b5b6000615ee984828501615eb0565b91505092915050565b615efb816157d7565b8114615f0657600080fd5b50565b600081359050615f1881615ef2565b92915050565b60008060408385031215615f3557615f3461544e565b5b6000615f4385828601615f09565b9250506020615f5485828601615563565b9150509250929050565b6000602082019050615f73600083018461583a565b92915050565b600060208284031215615f8f57615f8e61544e565b5b600082013567ffffffffffffffff811115615fad57615fac615453565b5b615fb9848285016155e1565b91505092915050565b615fcb81615e87565b82525050565b6000602082019050615fe66000830184615fc2565b92915050565b7f6f6e6c7920506f6f6c2043726561746f7220616464726573732063616e20636160008201527f6c6c000000000000000000000000000000000000000000000000000000000000602082015250565b6000616048602283615c50565b915061605382615fec565b604082019050919050565b600060208201905081810360008301526160778161603b565b9050919050565b7f72656d6f7665206f6e6c792077686974656c6973742061646472657373000000600082015250565b60006160b4601d83615c50565b91506160bf8261607e565b602082019050919050565b600060208201905081810360008301526160e3816160a7565b9050919050565b7f4e487b7100000000000000000000000000000000000000000000000000000000600052603260045260246000fd5b7f7573652076616c69642061646472657373000000000000000000000000000000600082015250565b600061614f601183615c50565b915061615a82616119565b602082019050919050565b6000602082019050818103600083015261617e81616142565b9050919050565b7f4e487b7100000000000000000000000000000000000000000000000000000000600052601160045260246000fd5b60006161bf8261563b565b91506161ca8361563b565b92508282039050818111156161e2576161e1616185565b5b92915050565b60006040820190506161fd600083018561583a565b61620a602083018461583a565b9392505050565b600061621c8261563b565b91507fffffffffffffffffffffffffffffffffffffffffffffffffffffffffffffffff820361624e5761624d616185565b5b600182019050919050565b7f6f6e6c792076616c696420616464726573732063616e2063616c6c0000000000600082015250565b600061628f601b83615c50565b915061629a82616259565b602082019050919050565b600060208201905081810360008301526162be81616282565b9050919050565b7f5f7075626c6963526174696f206d75737420736d616c6c6572207468616e204460008201527f454e4f4d494e41544f5200000000000000000000000000000000000000000000602082015250565b6000616321602a83615c50565b915061632c826162c5565b604082019050919050565b6000602082019050818103600083015261635081616314565b9050919050565b7f48617320746f2062652066696e616c697a656400000000000000000000000000600082015250565b600061638d601383615c50565b915061639882616357565b602082019050919050565b600060208201905081810360008301526163bc81616380565b9050919050565b7f4d696e696d756d2072616973652068617320746f206265207265616368656400600082015250565b60006163f9601f83615c50565b9150616404826163c3565b602082019050919050565b60006020820190508181036000830152616428816163ec565b9050919050565b60008151905061643e81615645565b92915050565b60006020828403121561645a5761645961544e565b5b60006164688482850161642f565b91505092915050565b7f48617320746f206265206e6f6e20696e7374616e742073776170000000000000600082015250565b60006164a7601a83615c50565b91506164b282616471565b602082019050919050565b600060208201905081810360008301526164d68161649a565b9050919050565b7f4d696e696d756d2072616973652068617320746f206578697374000000000000600082015250565b6000616513601a83615c50565b915061651e826164dd565b602082019050919050565b6000602082019050818103600083015261654281616506565b9050919050565b7f5075726368617365206973206569746865722030206f722066696e616c697a6560008201527f6400000000000000000000000000000000000000000000000000000000000000602082015250565b60006165a5602183615c50565b91506165b082616549565b604082019050919050565b600060208201905081810360008301526165d481616598565b9050919050565b7f546f6b656e20416464726573732068617320746f20626520646966662074686160008201527f6e2074686520696265703230207375626a65637420746f2073616c6500000000602082015250565b6000616637603c83615c50565b9150616642826165db565b604082019050919050565b600060208201905081810360008301526166668161662a565b9050919050565b7f205f616464726573736573206c656e677468206973207a65726f000000000000600082015250565b60006166a3601a83615c50565b91506166ae8261666d565b602082019050919050565b600060208201905081810360008301526166d281616696565b9050919050565b7f6c65737320616464726573730000000000000000000000000000000000000000600082015250565b600061670f600c83615c50565b915061671a826166d9565b602082019050919050565b6000602082019050818103600083015261673e81616702565b9050919050565b7f4e487b7100000000000000000000000000000000000000000000000000000000600052602260045260246000fd5b6000600282049050600182168061678c57607f821691505b60208210810361679f5761679e616745565b5b50919050565b60008190508160005260206000209050919050565b600081546167c781616774565b6167d18186615c50565b945060018216600081146167ec576001811461680257616835565b60ff198316865281151560200286019350616835565b61680b856167a5565b60005b8381101561682d5781548189015260018201915060208101905061680e565b808801955050505b50505092915050565b600060608201905081810360008301526168588186615c8b565b9050818103602083015261686c81856167ba565b905061687b60408301846157ad565b949350505050565b7f6e6f7420612076616c6964207469657200000000000000000000000000000000600082015250565b60006168b9601083615c50565b91506168c482616883565b602082019050919050565b600060208201905081810360008301526168e8816168ac565b9050919050565b6000606082019050616904600083018661583a565b61691160208301856157ad565b61691e604083018461583a565b949350505050565b60006020601f8301049050919050565b600082821b905092915050565b6000600883026169737fffffffffffffffffffffffffffffffffffffffffffffffffffffffffffffffff82616936565b61697d8683616936565b95508019841693508086168417925050509392505050565b60006169b06169ab6169a68461563b565b6158c0565b61563b565b9050919050565b6000819050919050565b6169ca83616995565b6169de6169d6826169b7565b848454616943565b825550505050565b600090565b6169f36169e6565b6169fe8184846169c1565b505050565b5b81811015616a2257616a176000826169eb565b600181019050616a04565b5050565b601f821115616a6757616a38816167a5565b616a4184616926565b81016020851015616a50578190505b616a64616a5c85616926565b830182616a03565b50505b505050565b600082821c905092915050565b6000616a8a60001984600802616a6c565b1980831691505092915050565b6000616aa38383616a79565b9150826002028217905092915050565b616abc82615c45565b67ffffffffffffffff811115616ad557616ad461546e565b5b616adf8254616774565b616aea828285616a26565b600060209050601f831160018114616b1d5760008415616b0b578287015190505b616b158582616a97565b865550616b7d565b601f198416616b2b866167a5565b60005b82811015616b5357848901518255600182019150602085019450602081019050616b2e565b86831015616b705784890151616b6c601f891682616a79565b8355505b6001600288020188555050505b505050505050565b7f496e646976696475616c204d6178696d696d20414d6f756e742073686f756c6460008201527f206265203e20496e646976696475616c204d696e696d756d20416d6f756e7400602082015250565b6000616be1603f83615c50565b9150616bec82616b85565b604082019050919050565b60006020820190508181036000830152616c1081616bd4565b9050919050565b7f546f6b656e7320666f722053616c652073686f756c64206265203e20496e646960008201527f76696475616c204d696e696d756d20416d6f756e740000000000000000000000602082015250565b6000616c73603583615c50565b9150616c7e82616c17565b604082019050919050565b60006020820190508181036000830152616ca281616c66565b9050919050565b7f546f6b656e7320666f722053616c652073686f756c64206265203e20496e646960008201527f76696475616c206d6178696d756d20416d6f756e740000000000000000000000602082015250565b6000616d05603583615c50565b9150616d1082616ca9565b604082019050919050565b60006020820190508181036000830152616d3481616cf8565b9050919050565b7f546f74616c526169736520697320626967676572207468616e206d696e696d7560008201527f6d20726169736520616d6f756e74000000000000000000000000000000000000602082015250565b6000616d97602e83615c50565b9150616da282616d3b565b604082019050919050565b60006020820190508181036000830152616dc681616d8a565b9050919050565b7f746f6b656e2062616c616e6365206973206c6f77000000000000000000000000600082015250565b6000616e03601483615c50565b9150616e0e82616dcd565b602082019050919050565b60006020820190508181036000830152616e3281616df6565b9050919050565b7f5472616e73666572656420746f6b656e73206861766520746f2062652065717560008201527f616c206f72206c657373207468616e2070726f706f7365640000000000000000602082015250565b6000616e95603883615c50565b9150616ea082616e39565b604082019050919050565b60006020820190508181036000830152616ec481616e88565b9050919050565b6000604082019050616ee060008301856157ad565b616eed602083018461583a565b9392505050565b7f5365742076616c69642061646472657373000000000000000000000000000000600082015250565b6000616f2a601183615c50565b9150616f3582616ef4565b602082019050919050565b60006020820190508181036000830152616f5981616f1d565b9050919050565b6000616f6b826158ec565b9050919050565b616f7b81616f60565b82525050565b6000602082019050616f966000830184616f72565b92915050565b60008160011c9050919050565b6000808291508390505b6001851115616ff357808604811115616fcf57616fce616185565b5b6001851615616fde5780820291505b8081029050616fec85616f9c565b9450616fb3565b94509492505050565b60008261700c57600190506170c8565b8161701a57600090506170c8565b8160018114617030576002811461703a57617069565b60019150506170c8565b60ff84111561704c5761704b616185565b5b8360020a91508482111561706357617062616185565b5b506170c8565b5060208310610133831016604e8410600b841016171561709e5782820a90508381111561709957617098616185565b5b6170c8565b6170ab8484846001616fa9565b925090508184048111156170c2576170c1616185565b5b81810290505b9392505050565b60006170da8261563b565b91506170e58361563b565b92506171127fffffffffffffffffffffffffffffffffffffffffffffffffffffffffffffffff8484616ffc565b905092915050565b7f48617320746f2062652066756e64656400000000000000000000000000000000600082015250565b6000617150601083615c50565b915061715b8261711a565b602082019050919050565b6000602082019050818103600083015261717f81617143565b9050919050565b7f48617320746f206265206f70656e000000000000000000000000000000000000600082015250565b60006171bc600e83615c50565b91506171c782617186565b602082019050919050565b600060208201905081810360008301526171eb816171af565b9050919050565b7f6f6e6c792077686974656c69737420616464726573732063616e2063616c6c00600082015250565b6000617228601f83615c50565b9150617233826171f2565b602082019050919050565b600060208201905081810360008301526172578161721b565b9050919050565b7f416d6f756e742068617320746f20626520706f73697469766500000000000000600082015250565b6000617294601983615c50565b915061729f8261725e565b602082019050919050565b600060208201905081810360008301526172c381617287565b9050919050565b7f416d6f756e74206973206c657373207468616e20746f6b656e7320617661696c60008201527f61626c6500000000000000000000000000000000000000000000000000000000602082015250565b6000617326602483615c50565b9150617331826172ca565b604082019050919050565b6000602082019050818103600083015261735581617319565b9050919050565b7f557365722068617320746f20636f7665722074686520636f7374206f6620746860008201527f65207377617020696e20424e422c207573652074686520636f73742066756e6360208201527f74696f6e20746f2064657465726d696e65000000000000000000000000000000604082015250565b60006173de605183615c50565b91506173e98261735c565b606082019050919050565b6000602082019050818103600083015261740d816173d1565b9050919050565b7f4f6e6c792076616c69642075736572732063616e20737761702074686973207460008201527f6f6b656e73000000000000000000000000000000000000000000000000000000602082015250565b6000617470602583615c50565b915061747b82617414565b604082019050919050565b6000602082019050818103600083015261749f81617463565b9050919050565b7f416d6f756e74206973206c657373207468616e206d696e696d756d20616d6f7560008201527f6e74000000000000000000000000000000000000000000000000000000000000602082015250565b6000617502602283615c50565b915061750d826174a6565b604082019050919050565b60006020820190508181036000830152617531816174f5565b9050919050565b7f416464726573732068617320616c72656164792070617373656420746865206d60008201527f617820616d6f756e74206f662073776170000000000000000000000000000000602082015250565b6000617594603183615c50565b915061759f82617538565b604082019050919050565b600060208201905081810360008301526175c381617587565b9050919050565b7f6e6f742073756666696369656e7420616d6f756e7420617661696c61626c652060008201527f666f72207075626c69632073616c650000000000000000000000000000000000602082015250565b6000617626602f83615c50565b9150617631826175ca565b604082019050919050565b6000602082019050818103600083015261765581617619565b9050919050565b7f6e6f742073756666696369656e7420616d6f756e7420617661696c61626c652060008201527f666f7220707269766174652073616c6500000000000000000000000000000000602082015250565b60006176b8603083615c50565b91506176c38261765c565b604082019050919050565b600060208201905081810360008301526176e7816176ab565b9050919050565b60006176f98261563b565b91506177048361563b565b925082820190508082111561771c5761771b616185565b5b92915050565b600060608201905061773760008301866157ad565b61774460208301856157ad565b617751604083018461583a565b949350505050565b7f7365742056616c6964206665652070657263656e746167650000000000000000600082015250565b600061778f601883615c50565b915061779a82617759565b602082019050919050565b600060208201905081810360008301526177be81617782565b9050919050565b7f546f74616c5261697365206973206c657373207468616e206d696e696d756d2060008201527f726169736520616d6f756e740000000000000000000000000000000000000000602082015250565b6000617821602c83615c50565b915061782c826177c5565b604082019050919050565b6000602082019050818103600083015261785081617814565b9050919050565b7f61646472657373206d7573742062652076616c69640000000000000000000000600082015250565b600061788d601583615c50565b915061789882617857565b602082019050919050565b600060208201905081810360008301526178bc81617880565b9050919050565b7f6d696e696d756e20726169736520686173206e6f742062652072656163686564600082015250565b60006178f9602083615c50565b9150617904826178c3565b602082019050919050565b60006020820190508181036000830152617928816178ec565b9050919050565b7f73656e6465722073686f756c6420707572636861736520647572696e6720697060008201527f6f00000000000000000000000000000000000000000000000000000000000000602082015250565b600061798b602183615c50565b91506179968261792f565b604082019050919050565b600060208201905081810360008301526179ba8161797e565b9050919050565b7f6f6e6c7920666163746f727920636f6e74726163742063616e2063616c6c0000600082015250565b60006179f7601e83615c50565b9150617a02826179c1565b602082019050919050565b60006020820190508181036000830152617a26816179ea565b9050919050565b6000617a388261563b565b9150617a438361563b565b9250828202617a518161563b565b91508282048414831517617a6857617a67616185565b5b5092915050565b7f4e487b7100000000000000000000000000000000000000000000000000000000600052601260045260246000fd5b6000617aa98261563b565b9150617ab48361563b565b925082617ac457617ac3617a6f565b5b828204905092915050565b7f5061757361626c653a2070617573656400000000000000000000000000000000600082015250565b6000617b05601083615c50565b9150617b1082617acf565b602082019050919050565b60006020820190508181036000830152617b3481617af8565b9050919050565b6000604082019050617b50600083018561583a565b617b5d60208301846157ad565b9392505050565b7f5265656e7472616e637947756172643a207265656e7472616e742063616c6c00600082015250565b6000617b9a601f83615c50565b9150617ba582617b64565b602082019050919050565b60006020820190508181036000830152617bc981617b8d565b9050919050565b6000617bdb8261563b565b9150617be68361563b565b925082617bf657617bf5617a6f565b5b828206905092915050565b6000606082019050617c16600083018661583a565b617c23602083018561583a565b617c3060408301846157ad565b949350505050565b600081519050617c4781615ef2565b92915050565b600060208284031215617c6357617c6261544e565b5b6000617c7184828501617c38565b91505092915050565b7f5361666542455032303a204245503230206f7065726174696f6e20646964206e60008201527f6f74207375636365656400000000000000000000000000000000000000000000602082015250565b6000617cd6602a83615c50565b9150617ce182617c7a565b604082019050919050565b60006020820190508181036000830152617d0581617cc9565b9050919050565b7f5061757361626c653a206e6f7420706175736564000000000000000000000000600082015250565b6000617d42601483615c50565b9150617d4d82617d0c565b602082019050919050565b60006020820190508181036000830152617d7181617d35565b9050919050565b7f416464726573733a20696e73756666696369656e742062616c616e636520666f60008201527f722063616c6c0000000000000000000000000000000000000000000000000000602082015250565b6000617dd4602683615c50565b9150617ddf82617d78565b604082019050919050565b60006020820190508181036000830152617e0381617dc7565b9050919050565b600081519050919050565b600081905092915050565b6000617e2b82617e0a565b617e358185617e15565b9350617e45818560208601615c61565b80840191505092915050565b6000617e5d8284617e20565b915081905092915050565b7f416464726573733a2063616c6c20746f206e6f6e2d636f6e7472616374000000600082015250565b6000617e9e601d83615c50565b9150617ea982617e68565b602082019050919050565b60006020820190508181036000830152617ecd81617e91565b905091905056fea26469706673582212200d632bfa0d7013ee52951bf9b29b388377d8886902580d45bc30b4b4623f2d9164736f6c63430008110033",
			"opcodes": "PUSH1 0x80 PUSH1 0x40 MSTORE PUSH1 0x0 PUSH1 0x7 SSTORE PUSH1 0x0 PUSH1 0xC SSTORE PUSH1 0x0 PUSH1 0xE PUSH1 0x14 PUSH2 0x100 EXP DUP2 SLOAD DUP2 PUSH1 0xFF MUL NOT AND SWAP1 DUP4 ISZERO ISZERO MUL OR SWAP1 SSTORE POP PUSH1 0x0 PUSH1 0xF SSTORE PUSH1 0x0 PUSH1 0x10 PUSH1 0x0 PUSH2 0x100 EXP DUP2 SLOAD DUP2 PUSH1 0xFF MUL NOT AND SWAP1 DUP4 ISZERO ISZERO MUL OR SWAP1 SSTORE POP PUSH1 0x0 PUSH1 0x20 SSTORE PUSH1 0x0 PUSH1 0x21 SSTORE PUSH1 0x0 PUSH1 0x25 SSTORE CALLVALUE DUP1 ISZERO PUSH3 0x65 JUMPI PUSH1 0x0 DUP1 REVERT JUMPDEST POP PUSH1 0x40 MLOAD PUSH3 0x9013 CODESIZE SUB DUP1 PUSH3 0x9013 DUP4 CODECOPY DUP2 DUP2 ADD PUSH1 0x40 MSTORE DUP2 ADD SWAP1 PUSH3 0x8B SWAP2 SWAP1 PUSH3 0x7A4 JUMP JUMPDEST DUP3 DUP8 DUP4 PUSH1 0x0 DUP1 PUSH1 0x0 PUSH2 0x100 EXP DUP2 SLOAD DUP2 PUSH1 0xFF MUL NOT AND SWAP1 DUP4 ISZERO ISZERO MUL OR SWAP1 SSTORE POP DUP2 PUSH1 0x8 DUP2 SWAP1 SSTORE POP DUP3 PUSH1 0x9 PUSH1 0x0 PUSH2 0x100 EXP DUP2 SLOAD DUP2 PUSH20 0xFFFFFFFFFFFFFFFFFFFFFFFFFFFFFFFFFFFFFFFF MUL NOT AND SWAP1 DUP4 PUSH20 0xFFFFFFFFFFFFFFFFFFFFFFFFFFFFFFFFFFFFFFFF AND MUL OR SWAP1 SSTORE POP DUP1 PUSH1 0x5 SWAP1 DUP2 PUSH3 0x101 SWAP2 SWAP1 PUSH3 0xAFA JUMP JUMPDEST POP POP POP POP PUSH1 0x1 PUSH1 0xB DUP2 SWAP1 SSTORE POP PUSH1 0x0 PUSH20 0xFFFFFFFFFFFFFFFFFFFFFFFFFFFFFFFFFFFFFFFF AND DUP11 PUSH20 0xFFFFFFFFFFFFFFFFFFFFFFFFFFFFFFFFFFFFFFFF AND EQ ISZERO DUP1 ISZERO PUSH3 0x178 JUMPI POP PUSH1 0x0 PUSH20 0xFFFFFFFFFFFFFFFFFFFFFFFFFFFFFFFFFFFFFFFF AND DUP4 PUSH20 0xFFFFFFFFFFFFFFFFFFFFFFFFFFFFFFFFFFFFFFFF AND EQ ISZERO JUMPDEST PUSH3 0x1BA JUMPI PUSH1 0x40 MLOAD PUSH32 0x8C379A000000000000000000000000000000000000000000000000000000000 DUP2 MSTORE PUSH1 0x4 ADD PUSH3 0x1B1 SWAP1 PUSH3 0xC42 JUMP JUMPDEST PUSH1 0x40 MLOAD DUP1 SWAP2 SUB SWAP1 REVERT JUMPDEST PUSH1 0x0 DUP10 GT PUSH3 0x200 JUMPI PUSH1 0x40 MLOAD PUSH32 0x8C379A000000000000000000000000000000000000000000000000000000000 DUP2 MSTORE PUSH1 0x4 ADD PUSH3 0x1F7 SWAP1 PUSH3 0xCB4 JUMP JUMPDEST PUSH1 0x40 MLOAD DUP1 SWAP2 SUB SWAP1 REVERT JUMPDEST DUP6 TIMESTAMP LT PUSH3 0x245 JUMPI PUSH1 0x40 MLOAD PUSH32 0x8C379A000000000000000000000000000000000000000000000000000000000 DUP2 MSTORE PUSH1 0x4 ADD PUSH3 0x23C SWAP1 PUSH3 0xD4C JUMP JUMPDEST PUSH1 0x40 MLOAD DUP1 SWAP2 SUB SWAP1 REVERT JUMPDEST DUP7 TIMESTAMP LT PUSH3 0x28A JUMPI PUSH1 0x40 MLOAD PUSH32 0x8C379A000000000000000000000000000000000000000000000000000000000 DUP2 MSTORE PUSH1 0x4 ADD PUSH3 0x281 SWAP1 PUSH3 0xDE4 JUMP JUMPDEST PUSH1 0x40 MLOAD DUP1 SWAP2 SUB SWAP1 REVERT JUMPDEST DUP6 DUP8 LT PUSH3 0x2CF JUMPI PUSH1 0x40 MLOAD PUSH32 0x8C379A000000000000000000000000000000000000000000000000000000000 DUP2 MSTORE PUSH1 0x4 ADD PUSH3 0x2C6 SWAP1 PUSH3 0xE7C JUMP JUMPDEST PUSH1 0x40 MLOAD DUP1 SWAP2 SUB SWAP1 REVERT JUMPDEST PUSH1 0x0 DUP9 GT PUSH3 0x315 JUMPI PUSH1 0x40 MLOAD PUSH32 0x8C379A000000000000000000000000000000000000000000000000000000000 DUP2 MSTORE PUSH1 0x4 ADD PUSH3 0x30C SWAP1 PUSH3 0xEEE JUMP JUMPDEST PUSH1 0x40 MLOAD DUP1 SWAP2 SUB SWAP1 REVERT JUMPDEST PUSH2 0x2710 DUP5 GT ISZERO PUSH3 0x35D JUMPI PUSH1 0x40 MLOAD PUSH32 0x8C379A000000000000000000000000000000000000000000000000000000000 DUP2 MSTORE PUSH1 0x4 ADD PUSH3 0x354 SWAP1 PUSH3 0xF86 JUMP JUMPDEST PUSH1 0x40 MLOAD DUP1 SWAP2 SUB SWAP1 REVERT JUMPDEST DUP8 PUSH1 0x21 DUP2 SWAP1 SSTORE POP DUP9 PUSH1 0x11 DUP2 SWAP1 SSTORE POP DUP7 PUSH1 0x8 DUP2 SWAP1 SSTORE POP DUP6 PUSH1 0x12 DUP2 SWAP1 SSTORE POP DUP5 PUSH1 0x22 PUSH1 0x0 PUSH2 0x100 EXP DUP2 SLOAD DUP2 PUSH1 0xFF MUL NOT AND SWAP1 DUP4 ISZERO ISZERO MUL OR SWAP1 SSTORE POP DUP5 PUSH3 0x3D5 JUMPI PUSH3 0x3CE PUSH2 0x2710 PUSH3 0x3BA DUP7 DUP12 PUSH3 0x504 PUSH1 0x20 SHL PUSH3 0x4E7B OR SWAP1 SWAP2 SWAP1 PUSH1 0x20 SHR JUMP JUMPDEST PUSH3 0x51C PUSH1 0x20 SHL PUSH3 0x4E91 OR SWAP1 SWAP2 SWAP1 PUSH1 0x20 SHR JUMP JUMPDEST PUSH1 0x1F DUP2 SWAP1 SSTORE POP JUMPDEST DUP10 PUSH1 0xE PUSH1 0x0 PUSH2 0x100 EXP DUP2 SLOAD DUP2 PUSH20 0xFFFFFFFFFFFFFFFFFFFFFFFFFFFFFFFFFFFFFFFF MUL NOT AND SWAP1 DUP4 PUSH20 0xFFFFFFFFFFFFFFFFFFFFFFFFFFFFFFFFFFFFFFFF AND MUL OR SWAP1 SSTORE POP PUSH1 0xE PUSH1 0x0 SWAP1 SLOAD SWAP1 PUSH2 0x100 EXP SWAP1 DIV PUSH20 0xFFFFFFFFFFFFFFFFFFFFFFFFFFFFFFFFFFFFFFFF AND PUSH20 0xFFFFFFFFFFFFFFFFFFFFFFFFFFFFFFFFFFFFFFFF AND PUSH4 0x313CE567 PUSH1 0x40 MLOAD DUP2 PUSH4 0xFFFFFFFF AND PUSH1 0xE0 SHL DUP2 MSTORE PUSH1 0x4 ADD PUSH1 0x20 PUSH1 0x40 MLOAD DUP1 DUP4 SUB DUP2 DUP7 GAS STATICCALL ISZERO DUP1 ISZERO PUSH3 0x484 JUMPI RETURNDATASIZE PUSH1 0x0 DUP1 RETURNDATACOPY RETURNDATASIZE PUSH1 0x0 REVERT JUMPDEST POP POP POP POP PUSH1 0x40 MLOAD RETURNDATASIZE PUSH1 0x1F NOT PUSH1 0x1F DUP3 ADD AND DUP3 ADD DUP1 PUSH1 0x40 MSTORE POP DUP2 ADD SWAP1 PUSH3 0x4AA SWAP2 SWAP1 PUSH3 0xFE6 JUMP JUMPDEST PUSH1 0xFF AND PUSH1 0xF DUP2 SWAP1 SSTORE POP DUP1 PUSH1 0x26 PUSH1 0x0 PUSH2 0x100 EXP DUP2 SLOAD DUP2 PUSH20 0xFFFFFFFFFFFFFFFFFFFFFFFFFFFFFFFFFFFFFFFF MUL NOT AND SWAP1 DUP4 PUSH20 0xFFFFFFFFFFFFFFFFFFFFFFFFFFFFFFFFFFFFFFFF AND MUL OR SWAP1 SSTORE POP POP POP POP POP POP POP POP POP POP POP PUSH3 0x10F9 JUMP JUMPDEST PUSH1 0x0 DUP2 DUP4 PUSH3 0x514 SWAP2 SWAP1 PUSH3 0x1047 JUMP JUMPDEST SWAP1 POP SWAP3 SWAP2 POP POP JUMP JUMPDEST PUSH1 0x0 DUP2 DUP4 PUSH3 0x52C SWAP2 SWAP1 PUSH3 0x10C1 JUMP JUMPDEST SWAP1 POP SWAP3 SWAP2 POP POP JUMP JUMPDEST PUSH1 0x0 PUSH1 0x40 MLOAD SWAP1 POP SWAP1 JUMP JUMPDEST PUSH1 0x0 DUP1 REVERT JUMPDEST PUSH1 0x0 DUP1 REVERT JUMPDEST PUSH1 0x0 PUSH20 0xFFFFFFFFFFFFFFFFFFFFFFFFFFFFFFFFFFFFFFFF DUP3 AND SWAP1 POP SWAP2 SWAP1 POP JUMP JUMPDEST PUSH1 0x0 PUSH3 0x575 DUP3 PUSH3 0x548 JUMP JUMPDEST SWAP1 POP SWAP2 SWAP1 POP JUMP JUMPDEST PUSH3 0x587 DUP2 PUSH3 0x568 JUMP JUMPDEST DUP2 EQ PUSH3 0x593 JUMPI PUSH1 0x0 DUP1 REVERT JUMPDEST POP JUMP JUMPDEST PUSH1 0x0 DUP2 MLOAD SWAP1 POP PUSH3 0x5A7 DUP2 PUSH3 0x57C JUMP JUMPDEST SWAP3 SWAP2 POP POP JUMP JUMPDEST PUSH1 0x0 DUP2 SWAP1 POP SWAP2 SWAP1 POP JUMP JUMPDEST PUSH3 0x5C2 DUP2 PUSH3 0x5AD JUMP JUMPDEST DUP2 EQ PUSH3 0x5CE JUMPI PUSH1 0x0 DUP1 REVERT JUMPDEST POP JUMP JUMPDEST PUSH1 0x0 DUP2 MLOAD SWAP1 POP PUSH3 0x5E2 DUP2 PUSH3 0x5B7 JUMP JUMPDEST SWAP3 SWAP2 POP POP JUMP JUMPDEST PUSH1 0x0 DUP2 ISZERO ISZERO SWAP1 POP SWAP2 SWAP1 POP JUMP JUMPDEST PUSH3 0x5FF DUP2 PUSH3 0x5E8 JUMP JUMPDEST DUP2 EQ PUSH3 0x60B JUMPI PUSH1 0x0 DUP1 REVERT JUMPDEST POP JUMP JUMPDEST PUSH1 0x0 DUP2 MLOAD SWAP1 POP PUSH3 0x61F DUP2 PUSH3 0x5F4 JUMP JUMPDEST SWAP3 SWAP2 POP POP JUMP JUMPDEST PUSH1 0x0 DUP1 REVERT JUMPDEST PUSH1 0x0 DUP1 REVERT JUMPDEST PUSH1 0x0 PUSH1 0x1F NOT PUSH1 0x1F DUP4 ADD AND SWAP1 POP SWAP2 SWAP1 POP JUMP JUMPDEST PUSH32 0x4E487B7100000000000000000000000000000000000000000000000000000000 PUSH1 0x0 MSTORE PUSH1 0x41 PUSH1 0x4 MSTORE PUSH1 0x24 PUSH1 0x0 REVERT JUMPDEST PUSH3 0x67A DUP3 PUSH3 0x62F JUMP JUMPDEST DUP2 ADD DUP2 DUP2 LT PUSH8 0xFFFFFFFFFFFFFFFF DUP3 GT OR ISZERO PUSH3 0x69C JUMPI PUSH3 0x69B PUSH3 0x640 JUMP JUMPDEST JUMPDEST DUP1 PUSH1 0x40 MSTORE POP POP POP JUMP JUMPDEST PUSH1 0x0 PUSH3 0x6B1 PUSH3 0x534 JUMP JUMPDEST SWAP1 POP PUSH3 0x6BF DUP3 DUP3 PUSH3 0x66F JUMP JUMPDEST SWAP2 SWAP1 POP JUMP JUMPDEST PUSH1 0x0 PUSH8 0xFFFFFFFFFFFFFFFF DUP3 GT ISZERO PUSH3 0x6E2 JUMPI PUSH3 0x6E1 PUSH3 0x640 JUMP JUMPDEST JUMPDEST PUSH3 0x6ED DUP3 PUSH3 0x62F JUMP JUMPDEST SWAP1 POP PUSH1 0x20 DUP2 ADD SWAP1 POP SWAP2 SWAP1 POP JUMP JUMPDEST PUSH1 0x0 JUMPDEST DUP4 DUP2 LT ISZERO PUSH3 0x71A JUMPI DUP1 DUP3 ADD MLOAD DUP2 DUP5 ADD MSTORE PUSH1 0x20 DUP2 ADD SWAP1 POP PUSH3 0x6FD JUMP JUMPDEST PUSH1 0x0 DUP5 DUP5 ADD MSTORE POP POP POP POP JUMP JUMPDEST PUSH1 0x0 PUSH3 0x73D PUSH3 0x737 DUP5 PUSH3 0x6C4 JUMP JUMPDEST PUSH3 0x6A5 JUMP JUMPDEST SWAP1 POP DUP3 DUP2 MSTORE PUSH1 0x20 DUP2 ADD DUP5 DUP5 DUP5 ADD GT ISZERO PUSH3 0x75C JUMPI PUSH3 0x75B PUSH3 0x62A JUMP JUMPDEST JUMPDEST PUSH3 0x769 DUP5 DUP3 DUP6 PUSH3 0x6FA JUMP JUMPDEST POP SWAP4 SWAP3 POP POP POP JUMP JUMPDEST PUSH1 0x0 DUP3 PUSH1 0x1F DUP4 ADD SLT PUSH3 0x789 JUMPI PUSH3 0x788 PUSH3 0x625 JUMP JUMPDEST JUMPDEST DUP2 MLOAD PUSH3 0x79B DUP5 DUP3 PUSH1 0x20 DUP7 ADD PUSH3 0x726 JUMP JUMPDEST SWAP2 POP POP SWAP3 SWAP2 POP POP JUMP JUMPDEST PUSH1 0x0 DUP1 PUSH1 0x0 DUP1 PUSH1 0x0 DUP1 PUSH1 0x0 DUP1 PUSH1 0x0 DUP1 PUSH2 0x140 DUP12 DUP14 SUB SLT ISZERO PUSH3 0x7CB JUMPI PUSH3 0x7CA PUSH3 0x53E JUMP JUMPDEST JUMPDEST PUSH1 0x0 PUSH3 0x7DB DUP14 DUP3 DUP15 ADD PUSH3 0x596 JUMP JUMPDEST SWAP11 POP POP PUSH1 0x20 PUSH3 0x7EE DUP14 DUP3 DUP15 ADD PUSH3 0x5D1 JUMP JUMPDEST SWAP10 POP POP PUSH1 0x40 PUSH3 0x801 DUP14 DUP3 DUP15 ADD PUSH3 0x5D1 JUMP JUMPDEST SWAP9 POP POP PUSH1 0x60 PUSH3 0x814 DUP14 DUP3 DUP15 ADD PUSH3 0x5D1 JUMP JUMPDEST SWAP8 POP POP PUSH1 0x80 PUSH3 0x827 DUP14 DUP3 DUP15 ADD PUSH3 0x5D1 JUMP JUMPDEST SWAP7 POP POP PUSH1 0xA0 PUSH3 0x83A DUP14 DUP3 DUP15 ADD PUSH3 0x60E JUMP JUMPDEST SWAP6 POP POP PUSH1 0xC0 PUSH3 0x84D DUP14 DUP3 DUP15 ADD PUSH3 0x5D1 JUMP JUMPDEST SWAP5 POP POP PUSH1 0xE0 PUSH3 0x860 DUP14 DUP3 DUP15 ADD PUSH3 0x596 JUMP JUMPDEST SWAP4 POP POP PUSH2 0x100 DUP12 ADD MLOAD PUSH8 0xFFFFFFFFFFFFFFFF DUP2 GT ISZERO PUSH3 0x885 JUMPI PUSH3 0x884 PUSH3 0x543 JUMP JUMPDEST JUMPDEST PUSH3 0x893 DUP14 DUP3 DUP15 ADD PUSH3 0x771 JUMP JUMPDEST SWAP3 POP POP PUSH2 0x120 PUSH3 0x8A7 DUP14 DUP3 DUP15 ADD PUSH3 0x596 JUMP JUMPDEST SWAP2 POP POP SWAP3 SWAP6 SWAP9 SWAP12 SWAP2 SWAP5 SWAP8 SWAP11 POP SWAP3 SWAP6 SWAP9 POP JUMP JUMPDEST PUSH1 0x0 DUP2 MLOAD SWAP1 POP SWAP2 SWAP1 POP JUMP JUMPDEST PUSH32 0x4E487B7100000000000000000000000000000000000000000000000000000000 PUSH1 0x0 MSTORE PUSH1 0x22 PUSH1 0x4 MSTORE PUSH1 0x24 PUSH1 0x0 REVERT JUMPDEST PUSH1 0x0 PUSH1 0x2 DUP3 DIV SWAP1 POP PUSH1 0x1 DUP3 AND DUP1 PUSH3 0x90C JUMPI PUSH1 0x7F DUP3 AND SWAP2 POP JUMPDEST PUSH1 0x20 DUP3 LT DUP2 SUB PUSH3 0x922 JUMPI PUSH3 0x921 PUSH3 0x8C4 JUMP JUMPDEST JUMPDEST POP SWAP2 SWAP1 POP JUMP JUMPDEST PUSH1 0x0 DUP2 SWAP1 POP DUP2 PUSH1 0x0 MSTORE PUSH1 0x20 PUSH1 0x0 KECCAK256 SWAP1 POP SWAP2 SWAP1 POP JUMP JUMPDEST PUSH1 0x0 PUSH1 0x20 PUSH1 0x1F DUP4 ADD DIV SWAP1 POP SWAP2 SWAP1 POP JUMP JUMPDEST PUSH1 0x0 DUP3 DUP3 SHL SWAP1 POP SWAP3 SWAP2 POP POP JUMP JUMPDEST PUSH1 0x0 PUSH1 0x8 DUP4 MUL PUSH3 0x98C PUSH32 0xFFFFFFFFFFFFFFFFFFFFFFFFFFFFFFFFFFFFFFFFFFFFFFFFFFFFFFFFFFFFFFFF DUP3 PUSH3 0x94D JUMP JUMPDEST PUSH3 0x998 DUP7 DUP4 PUSH3 0x94D JUMP JUMPDEST SWAP6 POP DUP1 NOT DUP5 AND SWAP4 POP DUP1 DUP7 AND DUP5 OR SWAP3 POP POP POP SWAP4 SWAP3 POP POP POP JUMP JUMPDEST PUSH1 0x0 DUP2 SWAP1 POP SWAP2 SWAP1 POP JUMP JUMPDEST PUSH1 0x0 PUSH3 0x9DB PUSH3 0x9D5 PUSH3 0x9CF DUP5 PUSH3 0x5AD JUMP JUMPDEST PUSH3 0x9B0 JUMP JUMPDEST PUSH3 0x5AD JUMP JUMPDEST SWAP1 POP SWAP2 SWAP1 POP JUMP JUMPDEST PUSH1 0x0 DUP2 SWAP1 POP SWAP2 SWAP1 POP JUMP JUMPDEST PUSH3 0x9F7 DUP4 PUSH3 0x9BA JUMP JUMPDEST PUSH3 0xA0F PUSH3 0xA06 DUP3 PUSH3 0x9E2 JUMP JUMPDEST DUP5 DUP5 SLOAD PUSH3 0x95A JUMP JUMPDEST DUP3 SSTORE POP POP POP POP JUMP JUMPDEST PUSH1 0x0 SWAP1 JUMP JUMPDEST PUSH3 0xA26 PUSH3 0xA17 JUMP JUMPDEST PUSH3 0xA33 DUP2 DUP5 DUP5 PUSH3 0x9EC JUMP JUMPDEST POP POP POP JUMP JUMPDEST JUMPDEST DUP2 DUP2 LT ISZERO PUSH3 0xA5B JUMPI PUSH3 0xA4F PUSH1 0x0 DUP3 PUSH3 0xA1C JUMP JUMPDEST PUSH1 0x1 DUP2 ADD SWAP1 POP PUSH3 0xA39 JUMP JUMPDEST POP POP JUMP JUMPDEST PUSH1 0x1F DUP3 GT ISZERO PUSH3 0xAAA JUMPI PUSH3 0xA74 DUP2 PUSH3 0x928 JUMP JUMPDEST PUSH3 0xA7F DUP5 PUSH3 0x93D JUMP JUMPDEST DUP2 ADD PUSH1 0x20 DUP6 LT ISZERO PUSH3 0xA8F JUMPI DUP2 SWAP1 POP JUMPDEST PUSH3 0xAA7 PUSH3 0xA9E DUP6 PUSH3 0x93D JUMP JUMPDEST DUP4 ADD DUP3 PUSH3 0xA38 JUMP JUMPDEST POP POP JUMPDEST POP POP POP JUMP JUMPDEST PUSH1 0x0 DUP3 DUP3 SHR SWAP1 POP SWAP3 SWAP2 POP POP JUMP JUMPDEST PUSH1 0x0 PUSH3 0xACF PUSH1 0x0 NOT DUP5 PUSH1 0x8 MUL PUSH3 0xAAF JUMP JUMPDEST NOT DUP1 DUP4 AND SWAP2 POP POP SWAP3 SWAP2 POP POP JUMP JUMPDEST PUSH1 0x0 PUSH3 0xAEA DUP4 DUP4 PUSH3 0xABC JUMP JUMPDEST SWAP2 POP DUP3 PUSH1 0x2 MUL DUP3 OR SWAP1 POP SWAP3 SWAP2 POP POP JUMP JUMPDEST PUSH3 0xB05 DUP3 PUSH3 0x8B9 JUMP JUMPDEST PUSH8 0xFFFFFFFFFFFFFFFF DUP2 GT ISZERO PUSH3 0xB21 JUMPI PUSH3 0xB20 PUSH3 0x640 JUMP JUMPDEST JUMPDEST PUSH3 0xB2D DUP3 SLOAD PUSH3 0x8F3 JUMP JUMPDEST PUSH3 0xB3A DUP3 DUP3 DUP6 PUSH3 0xA5F JUMP JUMPDEST PUSH1 0x0 PUSH1 0x20 SWAP1 POP PUSH1 0x1F DUP4 GT PUSH1 0x1 DUP2 EQ PUSH3 0xB72 JUMPI PUSH1 0x0 DUP5 ISZERO PUSH3 0xB5D JUMPI DUP3 DUP8 ADD MLOAD SWAP1 POP JUMPDEST PUSH3 0xB69 DUP6 DUP3 PUSH3 0xADC JUMP JUMPDEST DUP7 SSTORE POP PUSH3 0xBD9 JUMP JUMPDEST PUSH1 0x1F NOT DUP5 AND PUSH3 0xB82 DUP7 PUSH3 0x928 JUMP JUMPDEST PUSH1 0x0 JUMPDEST DUP3 DUP2 LT ISZERO PUSH3 0xBAC JUMPI DUP5 DUP10 ADD MLOAD DUP3 SSTORE PUSH1 0x1 DUP3 ADD SWAP2 POP PUSH1 0x20 DUP6 ADD SWAP5 POP PUSH1 0x20 DUP2 ADD SWAP1 POP PUSH3 0xB85 JUMP JUMPDEST DUP7 DUP4 LT ISZERO PUSH3 0xBCC JUMPI DUP5 DUP10 ADD MLOAD PUSH3 0xBC8 PUSH1 0x1F DUP10 AND DUP3 PUSH3 0xABC JUMP JUMPDEST DUP4 SSTORE POP JUMPDEST PUSH1 0x1 PUSH1 0x2 DUP9 MUL ADD DUP9 SSTORE POP POP POP JUMPDEST POP POP POP POP POP POP JUMP JUMPDEST PUSH1 0x0 DUP3 DUP3 MSTORE PUSH1 0x20 DUP3 ADD SWAP1 POP SWAP3 SWAP2 POP POP JUMP JUMPDEST PUSH32 0x696E76616C696420616464726573730000000000000000000000000000000000 PUSH1 0x0 DUP3 ADD MSTORE POP JUMP JUMPDEST PUSH1 0x0 PUSH3 0xC2A PUSH1 0xF DUP4 PUSH3 0xBE1 JUMP JUMPDEST SWAP2 POP PUSH3 0xC37 DUP3 PUSH3 0xBF2 JUMP JUMPDEST PUSH1 0x20 DUP3 ADD SWAP1 POP SWAP2 SWAP1 POP JUMP JUMPDEST PUSH1 0x0 PUSH1 0x20 DUP3 ADD SWAP1 POP DUP2 DUP2 SUB PUSH1 0x0 DUP4 ADD MSTORE PUSH3 0xC5D DUP2 PUSH3 0xC1B JUMP JUMPDEST SWAP1 POP SWAP2 SWAP1 POP JUMP JUMPDEST PUSH32 0x54726164652076616C75652073686F756C64206265206F766572203000000000 PUSH1 0x0 DUP3 ADD MSTORE POP JUMP JUMPDEST PUSH1 0x0 PUSH3 0xC9C PUSH1 0x1C DUP4 PUSH3 0xBE1 JUMP JUMPDEST SWAP2 POP PUSH3 0xCA9 DUP3 PUSH3 0xC64 JUMP JUMPDEST PUSH1 0x20 DUP3 ADD SWAP1 POP SWAP2 SWAP1 POP JUMP JUMPDEST PUSH1 0x0 PUSH1 0x20 DUP3 ADD SWAP1 POP DUP2 DUP2 SUB PUSH1 0x0 DUP4 ADD MSTORE PUSH3 0xCCF DUP2 PUSH3 0xC8D JUMP JUMPDEST SWAP1 POP SWAP2 SWAP1 POP JUMP JUMPDEST PUSH32 0x456E6420446174652073686F756C642062652066757274686572207468616E20 PUSH1 0x0 DUP3 ADD MSTORE PUSH32 0x63757272656E7420646174650000000000000000000000000000000000000000 PUSH1 0x20 DUP3 ADD MSTORE POP JUMP JUMPDEST PUSH1 0x0 PUSH3 0xD34 PUSH1 0x2C DUP4 PUSH3 0xBE1 JUMP JUMPDEST SWAP2 POP PUSH3 0xD41 DUP3 PUSH3 0xCD6 JUMP JUMPDEST PUSH1 0x40 DUP3 ADD SWAP1 POP SWAP2 SWAP1 POP JUMP JUMPDEST PUSH1 0x0 PUSH1 0x20 DUP3 ADD SWAP1 POP DUP2 DUP2 SUB PUSH1 0x0 DUP4 ADD MSTORE PUSH3 0xD67 DUP2 PUSH3 0xD25 JUMP JUMPDEST SWAP1 POP SWAP2 SWAP1 POP JUMP JUMPDEST PUSH32 0x537461727420446174652073686F756C64206265206675727468657220746861 PUSH1 0x0 DUP3 ADD MSTORE PUSH32 0x6E2063757272656E742064617465000000000000000000000000000000000000 PUSH1 0x20 DUP3 ADD MSTORE POP JUMP JUMPDEST PUSH1 0x0 PUSH3 0xDCC PUSH1 0x2E DUP4 PUSH3 0xBE1 JUMP JUMPDEST SWAP2 POP PUSH3 0xDD9 DUP3 PUSH3 0xD6E JUMP JUMPDEST PUSH1 0x40 DUP3 ADD SWAP1 POP SWAP2 SWAP1 POP JUMP JUMPDEST PUSH1 0x0 PUSH1 0x20 DUP3 ADD SWAP1 POP DUP2 DUP2 SUB PUSH1 0x0 DUP4 ADD MSTORE PUSH3 0xDFF DUP2 PUSH3 0xDBD JUMP JUMPDEST SWAP1 POP SWAP2 SWAP1 POP JUMP JUMPDEST PUSH32 0x456E642044617465206D757374206265206C61746572207468616E2053746172 PUSH1 0x0 DUP3 ADD MSTORE PUSH32 0x7420446174650000000000000000000000000000000000000000000000000000 PUSH1 0x20 DUP3 ADD MSTORE POP JUMP JUMPDEST PUSH1 0x0 PUSH3 0xE64 PUSH1 0x26 DUP4 PUSH3 0xBE1 JUMP JUMPDEST SWAP2 POP PUSH3 0xE71 DUP3 PUSH3 0xE06 JUMP JUMPDEST PUSH1 0x40 DUP3 ADD SWAP1 POP SWAP2 SWAP1 POP JUMP JUMPDEST PUSH1 0x0 PUSH1 0x20 DUP3 ADD SWAP1 POP DUP2 DUP2 SUB PUSH1 0x0 DUP4 ADD MSTORE PUSH3 0xE97 DUP2 PUSH3 0xE55 JUMP JUMPDEST SWAP1 POP SWAP2 SWAP1 POP JUMP JUMPDEST PUSH32 0x546F6B656E7320666F722053616C652073686F756C64206265206F7665722030 PUSH1 0x0 DUP3 ADD MSTORE POP JUMP JUMPDEST PUSH1 0x0 PUSH3 0xED6 PUSH1 0x20 DUP4 PUSH3 0xBE1 JUMP JUMPDEST SWAP2 POP PUSH3 0xEE3 DUP3 PUSH3 0xE9E JUMP JUMPDEST PUSH1 0x20 DUP3 ADD SWAP1 POP SWAP2 SWAP1 POP JUMP JUMPDEST PUSH1 0x0 PUSH1 0x20 DUP3 ADD SWAP1 POP DUP2 DUP2 SUB PUSH1 0x0 DUP4 ADD MSTORE PUSH3 0xF09 DUP2 PUSH3 0xEC7 JUMP JUMPDEST SWAP1 POP SWAP2 SWAP1 POP JUMP JUMPDEST PUSH32 0x4D696E696D756D2052616973652050657263656E746167652073686F756C6420 PUSH1 0x0 DUP3 ADD MSTORE PUSH32 0x6265206C657373207468616E2044656E6F6D696E61746F720000000000000000 PUSH1 0x20 DUP3 ADD MSTORE POP JUMP JUMPDEST PUSH1 0x0 PUSH3 0xF6E PUSH1 0x38 DUP4 PUSH3 0xBE1 JUMP JUMPDEST SWAP2 POP PUSH3 0xF7B DUP3 PUSH3 0xF10 JUMP JUMPDEST PUSH1 0x40 DUP3 ADD SWAP1 POP SWAP2 SWAP1 POP JUMP JUMPDEST PUSH1 0x0 PUSH1 0x20 DUP3 ADD SWAP1 POP DUP2 DUP2 SUB PUSH1 0x0 DUP4 ADD MSTORE PUSH3 0xFA1 DUP2 PUSH3 0xF5F JUMP JUMPDEST SWAP1 POP SWAP2 SWAP1 POP JUMP JUMPDEST PUSH1 0x0 PUSH1 0xFF DUP3 AND SWAP1 POP SWAP2 SWAP1 POP JUMP JUMPDEST PUSH3 0xFC0 DUP2 PUSH3 0xFA8 JUMP JUMPDEST DUP2 EQ PUSH3 0xFCC JUMPI PUSH1 0x0 DUP1 REVERT JUMPDEST POP JUMP JUMPDEST PUSH1 0x0 DUP2 MLOAD SWAP1 POP PUSH3 0xFE0 DUP2 PUSH3 0xFB5 JUMP JUMPDEST SWAP3 SWAP2 POP POP JUMP JUMPDEST PUSH1 0x0 PUSH1 0x20 DUP3 DUP5 SUB SLT ISZERO PUSH3 0xFFF JUMPI PUSH3 0xFFE PUSH3 0x53E JUMP JUMPDEST JUMPDEST PUSH1 0x0 PUSH3 0x100F DUP5 DUP3 DUP6 ADD PUSH3 0xFCF JUMP JUMPDEST SWAP2 POP POP SWAP3 SWAP2 POP POP JUMP JUMPDEST PUSH32 0x4E487B7100000000000000000000000000000000000000000000000000000000 PUSH1 0x0 MSTORE PUSH1 0x11 PUSH1 0x4 MSTORE PUSH1 0x24 PUSH1 0x0 REVERT JUMPDEST PUSH1 0x0 PUSH3 0x1054 DUP3 PUSH3 0x5AD JUMP JUMPDEST SWAP2 POP PUSH3 0x1061 DUP4 PUSH3 0x5AD JUMP JUMPDEST SWAP3 POP DUP3 DUP3 MUL PUSH3 0x1071 DUP2 PUSH3 0x5AD JUMP JUMPDEST SWAP2 POP DUP3 DUP3 DIV DUP5 EQ DUP4 ISZERO OR PUSH3 0x108B JUMPI PUSH3 0x108A PUSH3 0x1018 JUMP JUMPDEST JUMPDEST POP SWAP3 SWAP2 POP POP JUMP JUMPDEST PUSH32 0x4E487B7100000000000000000000000000000000000000000000000000000000 PUSH1 0x0 MSTORE PUSH1 0x12 PUSH1 0x4 MSTORE PUSH1 0x24 PUSH1 0x0 REVERT JUMPDEST PUSH1 0x0 PUSH3 0x10CE DUP3 PUSH3 0x5AD JUMP JUMPDEST SWAP2 POP PUSH3 0x10DB DUP4 PUSH3 0x5AD JUMP JUMPDEST SWAP3 POP DUP3 PUSH3 0x10EE JUMPI PUSH3 0x10ED PUSH3 0x1092 JUMP JUMPDEST JUMPDEST DUP3 DUP3 DIV SWAP1 POP SWAP3 SWAP2 POP POP JUMP JUMPDEST PUSH2 0x7F0A DUP1 PUSH3 0x1109 PUSH1 0x0 CODECOPY PUSH1 0x0 RETURN INVALID PUSH1 0x80 PUSH1 0x40 MSTORE PUSH1 0x4 CALLDATASIZE LT PUSH2 0x410 JUMPI PUSH1 0x0 CALLDATALOAD PUSH1 0xE0 SHR DUP1 PUSH4 0x886D3518 GT PUSH2 0x21E JUMPI DUP1 PUSH4 0xB31F8F93 GT PUSH2 0x123 JUMPI DUP1 PUSH4 0xDF43CA03 GT PUSH2 0xAB JUMPI DUP1 PUSH4 0xEB1EDD61 GT PUSH2 0x7A JUMPI DUP1 PUSH4 0xEB1EDD61 EQ PUSH2 0xF70 JUMPI DUP1 PUSH4 0xEE1DF50D EQ PUSH2 0xF9B JUMPI DUP1 PUSH4 0xEFBB34D5 EQ PUSH2 0xFC6 JUMPI DUP1 PUSH4 0xF5A1F5B4 EQ PUSH2 0xFF1 JUMPI DUP1 PUSH4 0xFEF27009 EQ PUSH2 0x101A JUMPI PUSH2 0x410 JUMP JUMPDEST DUP1 PUSH4 0xDF43CA03 EQ PUSH2 0xEC8 JUMPI DUP1 PUSH4 0xE4D2620E EQ PUSH2 0xEF1 JUMPI DUP1 PUSH4 0xE82BEF29 EQ PUSH2 0xF2E JUMPI DUP1 PUSH4 0xE9A9C50C EQ PUSH2 0xF59 JUMPI PUSH2 0x410 JUMP JUMPDEST DUP1 PUSH4 0xC6C1DECD GT PUSH2 0xF2 JUMPI DUP1 PUSH4 0xC6C1DECD EQ PUSH2 0xE05 JUMPI DUP1 PUSH4 0xC8BDBFB6 EQ PUSH2 0xE30 JUMPI DUP1 PUSH4 0xC95E9668 EQ PUSH2 0xE47 JUMPI DUP1 PUSH4 0xDA687150 EQ PUSH2 0xE72 JUMPI DUP1 PUSH4 0xDE11C94A EQ PUSH2 0xE9D JUMPI PUSH2 0x410 JUMP JUMPDEST DUP1 PUSH4 0xB31F8F93 EQ PUSH2 0xD59 JUMPI DUP1 PUSH4 0xB367940E EQ PUSH2 0xD84 JUMPI DUP1 PUSH4 0xB7FD706D EQ PUSH2 0xDAF JUMPI DUP1 PUSH4 0xC24A0F8B EQ PUSH2 0xDDA JUMPI PUSH2 0x410 JUMP JUMPDEST DUP1 PUSH4 0xA001ECDD GT PUSH2 0x1A6 JUMPI DUP1 PUSH4 0xA457C2AE GT PUSH2 0x175 JUMPI DUP1 PUSH4 0xA457C2AE EQ PUSH2 0xC86 JUMPI DUP1 PUSH4 0xA8F13784 EQ PUSH2 0xCB1 JUMPI DUP1 PUSH4 0xAE06C1B7 EQ PUSH2 0xCDA JUMPI DUP1 PUSH4 0xAFFED0E0 EQ PUSH2 0xD03 JUMPI DUP1 PUSH4 0xB1DD61B6 EQ PUSH2 0xD2E JUMPI PUSH2 0x410 JUMP JUMPDEST DUP1 PUSH4 0xA001ECDD EQ PUSH2 0xBB3 JUMPI DUP1 PUSH4 0xA1C8313F EQ PUSH2 0xBDE JUMPI DUP1 PUSH4 0xA275999C EQ PUSH2 0xC1B JUMPI DUP1 PUSH4 0xA351F75A EQ PUSH2 0xC5D JUMPI PUSH2 0x410 JUMP JUMPDEST DUP1 PUSH4 0x918F8674 GT PUSH2 0x1ED JUMPI DUP1 PUSH4 0x918F8674 EQ PUSH2 0xAC7 JUMPI DUP1 PUSH4 0x94B918DE EQ PUSH2 0xAF2 JUMPI DUP1 PUSH4 0x9AF4EE7E EQ PUSH2 0xB0E JUMPI DUP1 PUSH4 0x9B19251A EQ PUSH2 0xB39 JUMPI DUP1 PUSH4 0x9F22F72D EQ PUSH2 0xB76 JUMPI PUSH2 0x410 JUMP JUMPDEST DUP1 PUSH4 0x886D3518 EQ PUSH2 0x9F7 JUMPI DUP1 PUSH4 0x8E190CB7 EQ PUSH2 0xA34 JUMPI DUP1 PUSH4 0x8E75B131 EQ PUSH2 0xA5F JUMPI DUP1 PUSH4 0x9097548D EQ PUSH2 0xA8A JUMPI PUSH2 0x410 JUMP JUMPDEST DUP1 PUSH4 0x50ADCDB7 GT PUSH2 0x324 JUMPI DUP1 PUSH4 0x69E15404 GT PUSH2 0x2AC JUMPI DUP1 PUSH4 0x755E3E28 GT PUSH2 0x27B JUMPI DUP1 PUSH4 0x755E3E28 EQ PUSH2 0x91F JUMPI DUP1 PUSH4 0x78F305C6 EQ PUSH2 0x94A JUMPI DUP1 PUSH4 0x842A77D3 EQ PUSH2 0x975 JUMPI DUP1 PUSH4 0x8456CB59 EQ PUSH2 0x9B7 JUMPI DUP1 PUSH4 0x85DC3004 EQ PUSH2 0x9CE JUMPI PUSH2 0x410 JUMP JUMPDEST DUP1 PUSH4 0x69E15404 EQ PUSH2 0x875 JUMPI DUP1 PUSH4 0x6D028027 EQ PUSH2 0x8A0 JUMPI DUP1 PUSH4 0x74FA05FB EQ PUSH2 0x8CB JUMPI DUP1 PUSH4 0x7542C5F9 EQ PUSH2 0x8F6 JUMPI PUSH2 0x410 JUMP JUMPDEST DUP1 PUSH4 0x6295A2F4 GT PUSH2 0x2F3 JUMPI DUP1 PUSH4 0x6295A2F4 EQ PUSH2 0x78E JUMPI DUP1 PUSH4 0x62CA66B4 EQ PUSH2 0x7B9 JUMPI DUP1 PUSH4 0x6616E525 EQ PUSH2 0x7E2 JUMPI DUP1 PUSH4 0x68C282F2 EQ PUSH2 0x81F JUMPI DUP1 PUSH4 0x69BB4DC2 EQ PUSH2 0x84A JUMPI PUSH2 0x410 JUMP JUMPDEST DUP1 PUSH4 0x50ADCDB7 EQ PUSH2 0x6E6 JUMPI DUP1 PUSH4 0x552DAE54 EQ PUSH2 0x711 JUMPI DUP1 PUSH4 0x5C975ABB EQ PUSH2 0x73A JUMPI DUP1 PUSH4 0x60D0743D EQ PUSH2 0x765 JUMPI PUSH2 0x410 JUMP JUMPDEST DUP1 PUSH4 0x398F5ED3 GT PUSH2 0x3A7 JUMPI DUP1 PUSH4 0x4089AA9A GT PUSH2 0x376 JUMPI DUP1 PUSH4 0x4089AA9A EQ PUSH2 0x611 JUMPI DUP1 PUSH4 0x44691F7E EQ PUSH2 0x63C JUMPI DUP1 PUSH4 0x44B17FBC EQ PUSH2 0x667 JUMPI DUP1 PUSH4 0x452A545B EQ PUSH2 0x692 JUMPI DUP1 PUSH4 0x47535D7B EQ PUSH2 0x6BB JUMPI PUSH2 0x410 JUMP JUMPDEST DUP1 PUSH4 0x398F5ED3 EQ PUSH2 0x567 JUMPI DUP1 PUSH4 0x3AF32ABF EQ PUSH2 0x5A6 JUMPI DUP1 PUSH4 0x3F4BA83A EQ PUSH2 0x5E3 JUMPI DUP1 PUSH4 0x3FBC9E40 EQ PUSH2 0x5FA JUMPI PUSH2 0x410 JUMP JUMPDEST DUP1 PUSH4 0x161A7B2A GT PUSH2 0x3E3 JUMPI DUP1 PUSH4 0x161A7B2A EQ PUSH2 0x4BD JUMPI DUP1 PUSH4 0x21C7557C EQ PUSH2 0x4E8 JUMPI DUP1 PUSH4 0x24600FC3 EQ PUSH2 0x525 JUMPI DUP1 PUSH4 0x313CE567 EQ PUSH2 0x53C JUMPI PUSH2 0x410 JUMP JUMPDEST DUP1 PUSH4 0x1FAAC02 EQ PUSH2 0x415 JUMPI DUP1 PUSH4 0xE53C334 EQ PUSH2 0x43E JUMPI DUP1 PUSH4 0x12AEF8C3 EQ PUSH2 0x467 JUMPI DUP1 PUSH4 0x15B57866 EQ PUSH2 0x492 JUMPI JUMPDEST PUSH1 0x0 DUP1 REVERT JUMPDEST CALLVALUE DUP1 ISZERO PUSH2 0x421 JUMPI PUSH1 0x0 DUP1 REVERT JUMPDEST POP PUSH2 0x43C PUSH1 0x4 DUP1 CALLDATASIZE SUB DUP2 ADD SWAP1 PUSH2 0x437 SWAP2 SWAP1 PUSH2 0x5708 JUMP JUMPDEST PUSH2 0x1045 JUMP JUMPDEST STOP JUMPDEST CALLVALUE DUP1 ISZERO PUSH2 0x44A JUMPI PUSH1 0x0 DUP1 REVERT JUMPDEST POP PUSH2 0x465 PUSH1 0x4 DUP1 CALLDATASIZE SUB DUP2 ADD SWAP1 PUSH2 0x460 SWAP2 SWAP1 PUSH2 0x5780 JUMP JUMPDEST PUSH2 0x14B3 JUMP JUMPDEST STOP JUMPDEST CALLVALUE DUP1 ISZERO PUSH2 0x473 JUMPI PUSH1 0x0 DUP1 REVERT JUMPDEST POP PUSH2 0x47C PUSH2 0x15E5 JUMP JUMPDEST PUSH1 0x40 MLOAD PUSH2 0x489 SWAP2 SWAP1 PUSH2 0x57BC JUMP JUMPDEST PUSH1 0x40 MLOAD DUP1 SWAP2 SUB SWAP1 RETURN JUMPDEST CALLVALUE DUP1 ISZERO PUSH2 0x49E JUMPI PUSH1 0x0 DUP1 REVERT JUMPDEST POP PUSH2 0x4A7 PUSH2 0x15EB JUMP JUMPDEST PUSH1 0x40 MLOAD PUSH2 0x4B4 SWAP2 SWAP1 PUSH2 0x57F2 JUMP JUMPDEST PUSH1 0x40 MLOAD DUP1 SWAP2 SUB SWAP1 RETURN JUMPDEST CALLVALUE DUP1 ISZERO PUSH2 0x4C9 JUMPI PUSH1 0x0 DUP1 REVERT JUMPDEST POP PUSH2 0x4D2 PUSH2 0x15F8 JUMP JUMPDEST PUSH1 0x40 MLOAD PUSH2 0x4DF SWAP2 SWAP1 PUSH2 0x57F2 JUMP JUMPDEST PUSH1 0x40 MLOAD DUP1 SWAP2 SUB SWAP1 RETURN JUMPDEST CALLVALUE DUP1 ISZERO PUSH2 0x4F4 JUMPI PUSH1 0x0 DUP1 REVERT JUMPDEST POP PUSH2 0x50F PUSH1 0x4 DUP1 CALLDATASIZE SUB DUP2 ADD SWAP1 PUSH2 0x50A SWAP2 SWAP1 PUSH2 0x580D JUMP JUMPDEST PUSH2 0x160B JUMP JUMPDEST PUSH1 0x40 MLOAD PUSH2 0x51C SWAP2 SWAP1 PUSH2 0x57BC JUMP JUMPDEST PUSH1 0x40 MLOAD DUP1 SWAP2 SUB SWAP1 RETURN JUMPDEST CALLVALUE DUP1 ISZERO PUSH2 0x531 JUMPI PUSH1 0x0 DUP1 REVERT JUMPDEST POP PUSH2 0x53A PUSH2 0x1623 JUMP JUMPDEST STOP JUMPDEST CALLVALUE DUP1 ISZERO PUSH2 0x548 JUMPI PUSH1 0x0 DUP1 REVERT JUMPDEST POP PUSH2 0x551 PUSH2 0x1A03 JUMP JUMPDEST PUSH1 0x40 MLOAD PUSH2 0x55E SWAP2 SWAP1 PUSH2 0x57BC JUMP JUMPDEST PUSH1 0x40 MLOAD DUP1 SWAP2 SUB SWAP1 RETURN JUMPDEST CALLVALUE DUP1 ISZERO PUSH2 0x573 JUMPI PUSH1 0x0 DUP1 REVERT JUMPDEST POP PUSH2 0x58E PUSH1 0x4 DUP1 CALLDATASIZE SUB DUP2 ADD SWAP1 PUSH2 0x589 SWAP2 SWAP1 PUSH2 0x5780 JUMP JUMPDEST PUSH2 0x1A09 JUMP JUMPDEST PUSH1 0x40 MLOAD PUSH2 0x59D SWAP4 SWAP3 SWAP2 SWAP1 PUSH2 0x5849 JUMP JUMPDEST PUSH1 0x40 MLOAD DUP1 SWAP2 SUB SWAP1 RETURN JUMPDEST CALLVALUE DUP1 ISZERO PUSH2 0x5B2 JUMPI PUSH1 0x0 DUP1 REVERT JUMPDEST POP PUSH2 0x5CD PUSH1 0x4 DUP1 CALLDATASIZE SUB DUP2 ADD SWAP1 PUSH2 0x5C8 SWAP2 SWAP1 PUSH2 0x580D JUMP JUMPDEST PUSH2 0x1A70 JUMP JUMPDEST PUSH1 0x40 MLOAD PUSH2 0x5DA SWAP2 SWAP1 PUSH2 0x57F2 JUMP JUMPDEST PUSH1 0x40 MLOAD DUP1 SWAP2 SUB SWAP1 RETURN JUMPDEST CALLVALUE DUP1 ISZERO PUSH2 0x5EF JUMPI PUSH1 0x0 DUP1 REVERT JUMPDEST POP PUSH2 0x5F8 PUSH2 0x1AC6 JUMP JUMPDEST STOP JUMPDEST CALLVALUE DUP1 ISZERO PUSH2 0x606 JUMPI PUSH1 0x0 DUP1 REVERT JUMPDEST POP PUSH2 0x60F PUSH2 0x1B60 JUMP JUMPDEST STOP JUMPDEST CALLVALUE DUP1 ISZERO PUSH2 0x61D JUMPI PUSH1 0x0 DUP1 REVERT JUMPDEST POP PUSH2 0x626 PUSH2 0x2032 JUMP JUMPDEST PUSH1 0x40 MLOAD PUSH2 0x633 SWAP2 SWAP1 PUSH2 0x57F2 JUMP JUMPDEST PUSH1 0x40 MLOAD DUP1 SWAP2 SUB SWAP1 RETURN JUMPDEST CALLVALUE DUP1 ISZERO PUSH2 0x648 JUMPI PUSH1 0x0 DUP1 REVERT JUMPDEST POP PUSH2 0x651 PUSH2 0x203E JUMP JUMPDEST PUSH1 0x40 MLOAD PUSH2 0x65E SWAP2 SWAP1 PUSH2 0x57F2 JUMP JUMPDEST PUSH1 0x40 MLOAD DUP1 SWAP2 SUB SWAP1 RETURN JUMPDEST CALLVALUE DUP1 ISZERO PUSH2 0x673 JUMPI PUSH1 0x0 DUP1 REVERT JUMPDEST POP PUSH2 0x67C PUSH2 0x204B JUMP JUMPDEST PUSH1 0x40 MLOAD PUSH2 0x689 SWAP2 SWAP1 PUSH2 0x57BC JUMP JUMPDEST PUSH1 0x40 MLOAD DUP1 SWAP2 SUB SWAP1 RETURN JUMPDEST CALLVALUE DUP1 ISZERO PUSH2 0x69E JUMPI PUSH1 0x0 DUP1 REVERT JUMPDEST POP PUSH2 0x6B9 PUSH1 0x4 DUP1 CALLDATASIZE SUB DUP2 ADD SWAP1 PUSH2 0x6B4 SWAP2 SWAP1 PUSH2 0x5880 JUMP JUMPDEST PUSH2 0x2051 JUMP JUMPDEST STOP JUMPDEST CALLVALUE DUP1 ISZERO PUSH2 0x6C7 JUMPI PUSH1 0x0 DUP1 REVERT JUMPDEST POP PUSH2 0x6D0 PUSH2 0x2266 JUMP JUMPDEST PUSH1 0x40 MLOAD PUSH2 0x6DD SWAP2 SWAP1 PUSH2 0x57F2 JUMP JUMPDEST PUSH1 0x40 MLOAD DUP1 SWAP2 SUB SWAP1 RETURN JUMPDEST CALLVALUE DUP1 ISZERO PUSH2 0x6F2 JUMPI PUSH1 0x0 DUP1 REVERT JUMPDEST POP PUSH2 0x6FB PUSH2 0x2286 JUMP JUMPDEST PUSH1 0x40 MLOAD PUSH2 0x708 SWAP2 SWAP1 PUSH2 0x591F JUMP JUMPDEST PUSH1 0x40 MLOAD DUP1 SWAP2 SUB SWAP1 RETURN JUMPDEST CALLVALUE DUP1 ISZERO PUSH2 0x71D JUMPI PUSH1 0x0 DUP1 REVERT JUMPDEST POP PUSH2 0x738 PUSH1 0x4 DUP1 CALLDATASIZE SUB DUP2 ADD SWAP1 PUSH2 0x733 SWAP2 SWAP1 PUSH2 0x5A4A JUMP JUMPDEST PUSH2 0x22AC JUMP JUMPDEST STOP JUMPDEST CALLVALUE DUP1 ISZERO PUSH2 0x746 JUMPI PUSH1 0x0 DUP1 REVERT JUMPDEST POP PUSH2 0x74F PUSH2 0x2927 JUMP JUMPDEST PUSH1 0x40 MLOAD PUSH2 0x75C SWAP2 SWAP1 PUSH2 0x57F2 JUMP JUMPDEST PUSH1 0x40 MLOAD DUP1 SWAP2 SUB SWAP1 RETURN JUMPDEST CALLVALUE DUP1 ISZERO PUSH2 0x771 JUMPI PUSH1 0x0 DUP1 REVERT JUMPDEST POP PUSH2 0x78C PUSH1 0x4 DUP1 CALLDATASIZE SUB DUP2 ADD SWAP1 PUSH2 0x787 SWAP2 SWAP1 PUSH2 0x5B0A JUMP JUMPDEST PUSH2 0x293D JUMP JUMPDEST STOP JUMPDEST CALLVALUE DUP1 ISZERO PUSH2 0x79A JUMPI PUSH1 0x0 DUP1 REVERT JUMPDEST POP PUSH2 0x7A3 PUSH2 0x2950 JUMP JUMPDEST PUSH1 0x40 MLOAD PUSH2 0x7B0 SWAP2 SWAP1 PUSH2 0x57BC JUMP JUMPDEST PUSH1 0x40 MLOAD DUP1 SWAP2 SUB SWAP1 RETURN JUMPDEST CALLVALUE DUP1 ISZERO PUSH2 0x7C5 JUMPI PUSH1 0x0 DUP1 REVERT JUMPDEST POP PUSH2 0x7E0 PUSH1 0x4 DUP1 CALLDATASIZE SUB DUP2 ADD SWAP1 PUSH2 0x7DB SWAP2 SWAP1 PUSH2 0x5C04 JUMP JUMPDEST PUSH2 0x2956 JUMP JUMPDEST STOP JUMPDEST CALLVALUE DUP1 ISZERO PUSH2 0x7EE JUMPI PUSH1 0x0 DUP1 REVERT JUMPDEST POP PUSH2 0x809 PUSH1 0x4 DUP1 CALLDATASIZE SUB DUP2 ADD SWAP1 PUSH2 0x804 SWAP2 SWAP1 PUSH2 0x5780 JUMP JUMPDEST PUSH2 0x2BBF JUMP JUMPDEST PUSH1 0x40 MLOAD PUSH2 0x816 SWAP2 SWAP1 PUSH2 0x57BC JUMP JUMPDEST PUSH1 0x40 MLOAD DUP1 SWAP2 SUB SWAP1 RETURN JUMPDEST CALLVALUE DUP1 ISZERO PUSH2 0x82B JUMPI PUSH1 0x0 DUP1 REVERT JUMPDEST POP PUSH2 0x834 PUSH2 0x2BDA JUMP JUMPDEST PUSH1 0x40 MLOAD PUSH2 0x841 SWAP2 SWAP1 PUSH2 0x5CC4 JUMP JUMPDEST PUSH1 0x40 MLOAD DUP1 SWAP2 SUB SWAP1 RETURN JUMPDEST CALLVALUE DUP1 ISZERO PUSH2 0x856 JUMPI PUSH1 0x0 DUP1 REVERT JUMPDEST POP PUSH2 0x85F PUSH2 0x2C68 JUMP JUMPDEST PUSH1 0x40 MLOAD PUSH2 0x86C SWAP2 SWAP1 PUSH2 0x57BC JUMP JUMPDEST PUSH1 0x40 MLOAD DUP1 SWAP2 SUB SWAP1 RETURN JUMPDEST CALLVALUE DUP1 ISZERO PUSH2 0x881 JUMPI PUSH1 0x0 DUP1 REVERT JUMPDEST POP PUSH2 0x88A PUSH2 0x2D0B JUMP JUMPDEST PUSH1 0x40 MLOAD PUSH2 0x897 SWAP2 SWAP1 PUSH2 0x57BC JUMP JUMPDEST PUSH1 0x40 MLOAD DUP1 SWAP2 SUB SWAP1 RETURN JUMPDEST CALLVALUE DUP1 ISZERO PUSH2 0x8AC JUMPI PUSH1 0x0 DUP1 REVERT JUMPDEST POP PUSH2 0x8B5 PUSH2 0x2D11 JUMP JUMPDEST PUSH1 0x40 MLOAD PUSH2 0x8C2 SWAP2 SWAP1 PUSH2 0x5E04 JUMP JUMPDEST PUSH1 0x40 MLOAD DUP1 SWAP2 SUB SWAP1 RETURN JUMPDEST CALLVALUE DUP1 ISZERO PUSH2 0x8D7 JUMPI PUSH1 0x0 DUP1 REVERT JUMPDEST POP PUSH2 0x8E0 PUSH2 0x2DEB JUMP JUMPDEST PUSH1 0x40 MLOAD PUSH2 0x8ED SWAP2 SWAP1 PUSH2 0x57F2 JUMP JUMPDEST PUSH1 0x40 MLOAD DUP1 SWAP2 SUB SWAP1 RETURN JUMPDEST CALLVALUE DUP1 ISZERO PUSH2 0x902 JUMPI PUSH1 0x0 DUP1 REVERT JUMPDEST POP PUSH2 0x91D PUSH1 0x4 DUP1 CALLDATASIZE SUB DUP2 ADD SWAP1 PUSH2 0x918 SWAP2 SWAP1 PUSH2 0x5780 JUMP JUMPDEST PUSH2 0x2E4A JUMP JUMPDEST STOP JUMPDEST CALLVALUE DUP1 ISZERO PUSH2 0x92B JUMPI PUSH1 0x0 DUP1 REVERT JUMPDEST POP PUSH2 0x934 PUSH2 0x3022 JUMP JUMPDEST PUSH1 0x40 MLOAD PUSH2 0x941 SWAP2 SWAP1 PUSH2 0x57BC JUMP JUMPDEST PUSH1 0x40 MLOAD DUP1 SWAP2 SUB SWAP1 RETURN JUMPDEST CALLVALUE DUP1 ISZERO PUSH2 0x956 JUMPI PUSH1 0x0 DUP1 REVERT JUMPDEST POP PUSH2 0x95F PUSH2 0x3028 JUMP JUMPDEST PUSH1 0x40 MLOAD PUSH2 0x96C SWAP2 SWAP1 PUSH2 0x57BC JUMP JUMPDEST PUSH1 0x40 MLOAD DUP1 SWAP2 SUB SWAP1 RETURN JUMPDEST CALLVALUE DUP1 ISZERO PUSH2 0x981 JUMPI PUSH1 0x0 DUP1 REVERT JUMPDEST POP PUSH2 0x99C PUSH1 0x4 DUP1 CALLDATASIZE SUB DUP2 ADD SWAP1 PUSH2 0x997 SWAP2 SWAP1 PUSH2 0x580D JUMP JUMPDEST PUSH2 0x3032 JUMP JUMPDEST PUSH1 0x40 MLOAD PUSH2 0x9AE SWAP7 SWAP6 SWAP5 SWAP4 SWAP3 SWAP2 SWAP1 PUSH2 0x5E26 JUMP JUMPDEST PUSH1 0x40 MLOAD DUP1 SWAP2 SUB SWAP1 RETURN JUMPDEST CALLVALUE DUP1 ISZERO PUSH2 0x9C3 JUMPI PUSH1 0x0 DUP1 REVERT JUMPDEST POP PUSH2 0x9CC PUSH2 0x30A8 JUMP JUMPDEST STOP JUMPDEST CALLVALUE DUP1 ISZERO PUSH2 0x9DA JUMPI PUSH1 0x0 DUP1 REVERT JUMPDEST POP PUSH2 0x9F5 PUSH1 0x4 DUP1 CALLDATASIZE SUB DUP2 ADD SWAP1 PUSH2 0x9F0 SWAP2 SWAP1 PUSH2 0x5EC5 JUMP JUMPDEST PUSH2 0x3142 JUMP JUMPDEST STOP JUMPDEST CALLVALUE DUP1 ISZERO PUSH2 0xA03 JUMPI PUSH1 0x0 DUP1 REVERT JUMPDEST POP PUSH2 0xA1E PUSH1 0x4 DUP1 CALLDATASIZE SUB DUP2 ADD SWAP1 PUSH2 0xA19 SWAP2 SWAP1 PUSH2 0x580D JUMP JUMPDEST PUSH2 0x32BC JUMP JUMPDEST PUSH1 0x40 MLOAD PUSH2 0xA2B SWAP2 SWAP1 PUSH2 0x57BC JUMP JUMPDEST PUSH1 0x40 MLOAD DUP1 SWAP2 SUB SWAP1 RETURN JUMPDEST CALLVALUE DUP1 ISZERO PUSH2 0xA40 JUMPI PUSH1 0x0 DUP1 REVERT JUMPDEST POP PUSH2 0xA49 PUSH2 0x32D4 JUMP JUMPDEST PUSH1 0x40 MLOAD PUSH2 0xA56 SWAP2 SWAP1 PUSH2 0x57F2 JUMP JUMPDEST PUSH1 0x40 MLOAD DUP1 SWAP2 SUB SWAP1 RETURN JUMPDEST CALLVALUE DUP1 ISZERO PUSH2 0xA6B JUMPI PUSH1 0x0 DUP1 REVERT JUMPDEST POP PUSH2 0xA74 PUSH2 0x32E7 JUMP JUMPDEST PUSH1 0x40 MLOAD PUSH2 0xA81 SWAP2 SWAP1 PUSH2 0x57BC JUMP JUMPDEST PUSH1 0x40 MLOAD DUP1 SWAP2 SUB SWAP1 RETURN JUMPDEST CALLVALUE DUP1 ISZERO PUSH2 0xA96 JUMPI PUSH1 0x0 DUP1 REVERT JUMPDEST POP PUSH2 0xAB1 PUSH1 0x4 DUP1 CALLDATASIZE SUB DUP2 ADD SWAP1 PUSH2 0xAAC SWAP2 SWAP1 PUSH2 0x5780 JUMP JUMPDEST PUSH2 0x32ED JUMP JUMPDEST PUSH1 0x40 MLOAD PUSH2 0xABE SWAP2 SWAP1 PUSH2 0x57BC JUMP JUMPDEST PUSH1 0x40 MLOAD DUP1 SWAP2 SUB SWAP1 RETURN JUMPDEST CALLVALUE DUP1 ISZERO PUSH2 0xAD3 JUMPI PUSH1 0x0 DUP1 REVERT JUMPDEST POP PUSH2 0xADC PUSH2 0x332B JUMP JUMPDEST PUSH1 0x40 MLOAD PUSH2 0xAE9 SWAP2 SWAP1 PUSH2 0x57BC JUMP JUMPDEST PUSH1 0x40 MLOAD DUP1 SWAP2 SUB SWAP1 RETURN JUMPDEST PUSH2 0xB0C PUSH1 0x4 DUP1 CALLDATASIZE SUB DUP2 ADD SWAP1 PUSH2 0xB07 SWAP2 SWAP1 PUSH2 0x5780 JUMP JUMPDEST PUSH2 0x3331 JUMP JUMPDEST STOP JUMPDEST CALLVALUE DUP1 ISZERO PUSH2 0xB1A JUMPI PUSH1 0x0 DUP1 REVERT JUMPDEST POP PUSH2 0xB23 PUSH2 0x3B6C JUMP JUMPDEST PUSH1 0x40 MLOAD PUSH2 0xB30 SWAP2 SWAP1 PUSH2 0x57F2 JUMP JUMPDEST PUSH1 0x40 MLOAD DUP1 SWAP2 SUB SWAP1 RETURN JUMPDEST CALLVALUE DUP1 ISZERO PUSH2 0xB45 JUMPI PUSH1 0x0 DUP1 REVERT JUMPDEST POP PUSH2 0xB60 PUSH1 0x4 DUP1 CALLDATASIZE SUB DUP2 ADD SWAP1 PUSH2 0xB5B SWAP2 SWAP1 PUSH2 0x580D JUMP JUMPDEST PUSH2 0x3B7F JUMP JUMPDEST PUSH1 0x40 MLOAD PUSH2 0xB6D SWAP2 SWAP1 PUSH2 0x57F2 JUMP JUMPDEST PUSH1 0x40 MLOAD DUP1 SWAP2 SUB SWAP1 RETURN JUMPDEST CALLVALUE DUP1 ISZERO PUSH2 0xB82 JUMPI PUSH1 0x0 DUP1 REVERT JUMPDEST POP PUSH2 0xB9D PUSH1 0x4 DUP1 CALLDATASIZE SUB DUP2 ADD SWAP1 PUSH2 0xB98 SWAP2 SWAP1 PUSH2 0x5780 JUMP JUMPDEST PUSH2 0x3B9F JUMP JUMPDEST PUSH1 0x40 MLOAD PUSH2 0xBAA SWAP2 SWAP1 PUSH2 0x57BC JUMP JUMPDEST PUSH1 0x40 MLOAD DUP1 SWAP2 SUB SWAP1 RETURN JUMPDEST CALLVALUE DUP1 ISZERO PUSH2 0xBBF JUMPI PUSH1 0x0 DUP1 REVERT JUMPDEST POP PUSH2 0xBC8 PUSH2 0x3BBA JUMP JUMPDEST PUSH1 0x40 MLOAD PUSH2 0xBD5 SWAP2 SWAP1 PUSH2 0x57BC JUMP JUMPDEST PUSH1 0x40 MLOAD DUP1 SWAP2 SUB SWAP1 RETURN JUMPDEST CALLVALUE DUP1 ISZERO PUSH2 0xBEA JUMPI PUSH1 0x0 DUP1 REVERT JUMPDEST POP PUSH2 0xC05 PUSH1 0x4 DUP1 CALLDATASIZE SUB DUP2 ADD SWAP1 PUSH2 0xC00 SWAP2 SWAP1 PUSH2 0x5780 JUMP JUMPDEST PUSH2 0x3BC0 JUMP JUMPDEST PUSH1 0x40 MLOAD PUSH2 0xC12 SWAP2 SWAP1 PUSH2 0x57BC JUMP JUMPDEST PUSH1 0x40 MLOAD DUP1 SWAP2 SUB SWAP1 RETURN JUMPDEST CALLVALUE DUP1 ISZERO PUSH2 0xC27 JUMPI PUSH1 0x0 DUP1 REVERT JUMPDEST POP PUSH2 0xC42 PUSH1 0x4 DUP1 CALLDATASIZE SUB DUP2 ADD SWAP1 PUSH2 0xC3D SWAP2 SWAP1 PUSH2 0x580D JUMP JUMPDEST PUSH2 0x3C2B JUMP JUMPDEST PUSH1 0x40 MLOAD PUSH2 0xC54 SWAP7 SWAP6 SWAP5 SWAP4 SWAP3 SWAP2 SWAP1 PUSH2 0x5E26 JUMP JUMPDEST PUSH1 0x40 MLOAD DUP1 SWAP2 SUB SWAP1 RETURN JUMPDEST CALLVALUE DUP1 ISZERO PUSH2 0xC69 JUMPI PUSH1 0x0 DUP1 REVERT JUMPDEST POP PUSH2 0xC84 PUSH1 0x4 DUP1 CALLDATASIZE SUB DUP2 ADD SWAP1 PUSH2 0xC7F SWAP2 SWAP1 PUSH2 0x5EC5 JUMP JUMPDEST PUSH2 0x3D60 JUMP JUMPDEST STOP JUMPDEST CALLVALUE DUP1 ISZERO PUSH2 0xC92 JUMPI PUSH1 0x0 DUP1 REVERT JUMPDEST POP PUSH2 0xC9B PUSH2 0x3E43 JUMP JUMPDEST PUSH1 0x40 MLOAD PUSH2 0xCA8 SWAP2 SWAP1 PUSH2 0x5CC4 JUMP JUMPDEST PUSH1 0x40 MLOAD DUP1 SWAP2 SUB SWAP1 RETURN JUMPDEST CALLVALUE DUP1 ISZERO PUSH2 0xCBD JUMPI PUSH1 0x0 DUP1 REVERT JUMPDEST POP PUSH2 0xCD8 PUSH1 0x4 DUP1 CALLDATASIZE SUB DUP2 ADD SWAP1 PUSH2 0xCD3 SWAP2 SWAP1 PUSH2 0x5F1E JUMP JUMPDEST PUSH2 0x3ED1 JUMP JUMPDEST STOP JUMPDEST CALLVALUE DUP1 ISZERO PUSH2 0xCE6 JUMPI PUSH1 0x0 DUP1 REVERT JUMPDEST POP PUSH2 0xD01 PUSH1 0x4 DUP1 CALLDATASIZE SUB DUP2 ADD SWAP1 PUSH2 0xCFC SWAP2 SWAP1 PUSH2 0x5780 JUMP JUMPDEST PUSH2 0x3FD5 JUMP JUMPDEST STOP JUMPDEST CALLVALUE DUP1 ISZERO PUSH2 0xD0F JUMPI PUSH1 0x0 DUP1 REVERT JUMPDEST POP PUSH2 0xD18 PUSH2 0x4105 JUMP JUMPDEST PUSH1 0x40 MLOAD PUSH2 0xD25 SWAP2 SWAP1 PUSH2 0x57BC JUMP JUMPDEST PUSH1 0x40 MLOAD DUP1 SWAP2 SUB SWAP1 RETURN JUMPDEST CALLVALUE DUP1 ISZERO PUSH2 0xD3A JUMPI PUSH1 0x0 DUP1 REVERT JUMPDEST POP PUSH2 0xD43 PUSH2 0x410B JUMP JUMPDEST PUSH1 0x40 MLOAD PUSH2 0xD50 SWAP2 SWAP1 PUSH2 0x57F2 JUMP JUMPDEST PUSH1 0x40 MLOAD DUP1 SWAP2 SUB SWAP1 RETURN JUMPDEST CALLVALUE DUP1 ISZERO PUSH2 0xD65 JUMPI PUSH1 0x0 DUP1 REVERT JUMPDEST POP PUSH2 0xD6E PUSH2 0x411E JUMP JUMPDEST PUSH1 0x40 MLOAD PUSH2 0xD7B SWAP2 SWAP1 PUSH2 0x57BC JUMP JUMPDEST PUSH1 0x40 MLOAD DUP1 SWAP2 SUB SWAP1 RETURN JUMPDEST CALLVALUE DUP1 ISZERO PUSH2 0xD90 JUMPI PUSH1 0x0 DUP1 REVERT JUMPDEST POP PUSH2 0xD99 PUSH2 0x4135 JUMP JUMPDEST PUSH1 0x40 MLOAD PUSH2 0xDA6 SWAP2 SWAP1 PUSH2 0x57F2 JUMP JUMPDEST PUSH1 0x40 MLOAD DUP1 SWAP2 SUB SWAP1 RETURN JUMPDEST CALLVALUE DUP1 ISZERO PUSH2 0xDBB JUMPI PUSH1 0x0 DUP1 REVERT JUMPDEST POP PUSH2 0xDC4 PUSH2 0x41A3 JUMP JUMPDEST PUSH1 0x40 MLOAD PUSH2 0xDD1 SWAP2 SWAP1 PUSH2 0x57F2 JUMP JUMPDEST PUSH1 0x40 MLOAD DUP1 SWAP2 SUB SWAP1 RETURN JUMPDEST CALLVALUE DUP1 ISZERO PUSH2 0xDE6 JUMPI PUSH1 0x0 DUP1 REVERT JUMPDEST POP PUSH2 0xDEF PUSH2 0x41B6 JUMP JUMPDEST PUSH1 0x40 MLOAD PUSH2 0xDFC SWAP2 SWAP1 PUSH2 0x57BC JUMP JUMPDEST PUSH1 0x40 MLOAD DUP1 SWAP2 SUB SWAP1 RETURN JUMPDEST CALLVALUE DUP1 ISZERO PUSH2 0xE11 JUMPI PUSH1 0x0 DUP1 REVERT JUMPDEST POP PUSH2 0xE1A PUSH2 0x41BC JUMP JUMPDEST PUSH1 0x40 MLOAD PUSH2 0xE27 SWAP2 SWAP1 PUSH2 0x5F5E JUMP JUMPDEST PUSH1 0x40 MLOAD DUP1 SWAP2 SUB SWAP1 RETURN JUMPDEST CALLVALUE DUP1 ISZERO PUSH2 0xE3C JUMPI PUSH1 0x0 DUP1 REVERT JUMPDEST POP PUSH2 0xE45 PUSH2 0x41E2 JUMP JUMPDEST STOP JUMPDEST CALLVALUE DUP1 ISZERO PUSH2 0xE53 JUMPI PUSH1 0x0 DUP1 REVERT JUMPDEST POP PUSH2 0xE5C PUSH2 0x43BC JUMP JUMPDEST PUSH1 0x40 MLOAD PUSH2 0xE69 SWAP2 SWAP1 PUSH2 0x591F JUMP JUMPDEST PUSH1 0x40 MLOAD DUP1 SWAP2 SUB SWAP1 RETURN JUMPDEST CALLVALUE DUP1 ISZERO PUSH2 0xE7E JUMPI PUSH1 0x0 DUP1 REVERT JUMPDEST POP PUSH2 0xE87 PUSH2 0x43E2 JUMP JUMPDEST PUSH1 0x40 MLOAD PUSH2 0xE94 SWAP2 SWAP1 PUSH2 0x57BC JUMP JUMPDEST PUSH1 0x40 MLOAD DUP1 SWAP2 SUB SWAP1 RETURN JUMPDEST CALLVALUE DUP1 ISZERO PUSH2 0xEA9 JUMPI PUSH1 0x0 DUP1 REVERT JUMPDEST POP PUSH2 0xEB2 PUSH2 0x43E8 JUMP JUMPDEST PUSH1 0x40 MLOAD PUSH2 0xEBF SWAP2 SWAP1 PUSH2 0x5F5E JUMP JUMPDEST PUSH1 0x40 MLOAD DUP1 SWAP2 SUB SWAP1 RETURN JUMPDEST CALLVALUE DUP1 ISZERO PUSH2 0xED4 JUMPI PUSH1 0x0 DUP1 REVERT JUMPDEST POP PUSH2 0xEEF PUSH1 0x4 DUP1 CALLDATASIZE SUB DUP2 ADD SWAP1 PUSH2 0xEEA SWAP2 SWAP1 PUSH2 0x5F79 JUMP JUMPDEST PUSH2 0x440E JUMP JUMPDEST STOP JUMPDEST CALLVALUE DUP1 ISZERO PUSH2 0xEFD JUMPI PUSH1 0x0 DUP1 REVERT JUMPDEST POP PUSH2 0xF18 PUSH1 0x4 DUP1 CALLDATASIZE SUB DUP2 ADD SWAP1 PUSH2 0xF13 SWAP2 SWAP1 PUSH2 0x580D JUMP JUMPDEST PUSH2 0x486A JUMP JUMPDEST PUSH1 0x40 MLOAD PUSH2 0xF25 SWAP2 SWAP1 PUSH2 0x57BC JUMP JUMPDEST PUSH1 0x40 MLOAD DUP1 SWAP2 SUB SWAP1 RETURN JUMPDEST CALLVALUE DUP1 ISZERO PUSH2 0xF3A JUMPI PUSH1 0x0 DUP1 REVERT JUMPDEST POP PUSH2 0xF43 PUSH2 0x48CB JUMP JUMPDEST PUSH1 0x40 MLOAD PUSH2 0xF50 SWAP2 SWAP1 PUSH2 0x5FD1 JUMP JUMPDEST PUSH1 0x40 MLOAD DUP1 SWAP2 SUB SWAP1 RETURN JUMPDEST CALLVALUE DUP1 ISZERO PUSH2 0xF65 JUMPI PUSH1 0x0 DUP1 REVERT JUMPDEST POP PUSH2 0xF6E PUSH2 0x48F1 JUMP JUMPDEST STOP JUMPDEST CALLVALUE DUP1 ISZERO PUSH2 0xF7C JUMPI PUSH1 0x0 DUP1 REVERT JUMPDEST POP PUSH2 0xF85 PUSH2 0x4D63 JUMP JUMPDEST PUSH1 0x40 MLOAD PUSH2 0xF92 SWAP2 SWAP1 PUSH2 0x5FD1 JUMP JUMPDEST PUSH1 0x40 MLOAD DUP1 SWAP2 SUB SWAP1 RETURN JUMPDEST CALLVALUE DUP1 ISZERO PUSH2 0xFA7 JUMPI PUSH1 0x0 DUP1 REVERT JUMPDEST POP PUSH2 0xFB0 PUSH2 0x4D89 JUMP JUMPDEST PUSH1 0x40 MLOAD PUSH2 0xFBD SWAP2 SWAP1 PUSH2 0x57BC JUMP JUMPDEST PUSH1 0x40 MLOAD DUP1 SWAP2 SUB SWAP1 RETURN JUMPDEST CALLVALUE DUP1 ISZERO PUSH2 0xFD2 JUMPI PUSH1 0x0 DUP1 REVERT JUMPDEST POP PUSH2 0xFDB PUSH2 0x4D8F JUMP JUMPDEST PUSH1 0x40 MLOAD PUSH2 0xFE8 SWAP2 SWAP1 PUSH2 0x57BC JUMP JUMPDEST PUSH1 0x40 MLOAD DUP1 SWAP2 SUB SWAP1 RETURN JUMPDEST CALLVALUE DUP1 ISZERO PUSH2 0xFFD JUMPI PUSH1 0x0 DUP1 REVERT JUMPDEST POP PUSH2 0x1018 PUSH1 0x4 DUP1 CALLDATASIZE SUB DUP2 ADD SWAP1 PUSH2 0x1013 SWAP2 SWAP1 PUSH2 0x580D JUMP JUMPDEST PUSH2 0x4DA1 JUMP JUMPDEST STOP JUMPDEST CALLVALUE DUP1 ISZERO PUSH2 0x1026 JUMPI PUSH1 0x0 DUP1 REVERT JUMPDEST POP PUSH2 0x102F PUSH2 0x4E75 JUMP JUMPDEST PUSH1 0x40 MLOAD PUSH2 0x103C SWAP2 SWAP1 PUSH2 0x57BC JUMP JUMPDEST PUSH1 0x40 MLOAD DUP1 SWAP2 SUB SWAP1 RETURN JUMPDEST PUSH1 0x9 PUSH1 0x0 SWAP1 SLOAD SWAP1 PUSH2 0x100 EXP SWAP1 DIV PUSH20 0xFFFFFFFFFFFFFFFFFFFFFFFFFFFFFFFFFFFFFFFF AND PUSH20 0xFFFFFFFFFFFFFFFFFFFFFFFFFFFFFFFFFFFFFFFF AND CALLER PUSH20 0xFFFFFFFFFFFFFFFFFFFFFFFFFFFFFFFFFFFFFFFF AND EQ PUSH2 0x10D5 JUMPI PUSH1 0x40 MLOAD PUSH32 0x8C379A000000000000000000000000000000000000000000000000000000000 DUP2 MSTORE PUSH1 0x4 ADD PUSH2 0x10CC SWAP1 PUSH2 0x605E JUMP JUMPDEST PUSH1 0x40 MLOAD DUP1 SWAP2 SUB SWAP1 REVERT JUMPDEST PUSH1 0x8 SLOAD TIMESTAMP GT ISZERO PUSH2 0x10E4 JUMPI PUSH1 0x0 DUP1 REVERT JUMPDEST PUSH1 0x7 SLOAD DUP3 MLOAD GT ISZERO PUSH2 0x112A JUMPI PUSH1 0x40 MLOAD PUSH32 0x8C379A000000000000000000000000000000000000000000000000000000000 DUP2 MSTORE PUSH1 0x4 ADD PUSH2 0x1121 SWAP1 PUSH2 0x60CA JUMP JUMPDEST PUSH1 0x40 MLOAD DUP1 SWAP2 SUB SWAP1 REVERT JUMPDEST PUSH1 0x0 DUP1 PUSH1 0x0 SWAP1 POP JUMPDEST DUP4 MLOAD DUP2 LT ISZERO PUSH2 0x1492 JUMPI DUP4 DUP2 DUP2 MLOAD DUP2 LT PUSH2 0x114E JUMPI PUSH2 0x114D PUSH2 0x60EA JUMP JUMPDEST JUMPDEST PUSH1 0x20 MUL PUSH1 0x20 ADD ADD MLOAD PUSH20 0xFFFFFFFFFFFFFFFFFFFFFFFFFFFFFFFFFFFFFFFF AND PUSH1 0xA DUP5 DUP4 DUP2 MLOAD DUP2 LT PUSH2 0x1181 JUMPI PUSH2 0x1180 PUSH2 0x60EA JUMP JUMPDEST JUMPDEST PUSH1 0x20 MUL PUSH1 0x20 ADD ADD MLOAD DUP2 SLOAD DUP2 LT PUSH2 0x119A JUMPI PUSH2 0x1199 PUSH2 0x60EA JUMP JUMPDEST JUMPDEST SWAP1 PUSH1 0x0 MSTORE PUSH1 0x20 PUSH1 0x0 KECCAK256 SWAP1 PUSH1 0x2 MUL ADD PUSH1 0x0 ADD PUSH1 0x1 SWAP1 SLOAD SWAP1 PUSH2 0x100 EXP SWAP1 DIV PUSH20 0xFFFFFFFFFFFFFFFFFFFFFFFFFFFFFFFFFFFFFFFF AND PUSH20 0xFFFFFFFFFFFFFFFFFFFFFFFFFFFFFFFFFFFFFFFF AND EQ PUSH2 0x1222 JUMPI PUSH1 0x40 MLOAD PUSH32 0x8C379A000000000000000000000000000000000000000000000000000000000 DUP2 MSTORE PUSH1 0x4 ADD PUSH2 0x1219 SWAP1 PUSH2 0x6165 JUMP JUMPDEST PUSH1 0x40 MLOAD DUP1 SWAP2 SUB SWAP1 REVERT JUMPDEST PUSH1 0x0 PUSH1 0x1 PUSH1 0x0 DUP7 DUP5 DUP2 MLOAD DUP2 LT PUSH2 0x123B JUMPI PUSH2 0x123A PUSH2 0x60EA JUMP JUMPDEST JUMPDEST PUSH1 0x20 MUL PUSH1 0x20 ADD ADD MLOAD PUSH20 0xFFFFFFFFFFFFFFFFFFFFFFFFFFFFFFFFFFFFFFFF AND PUSH20 0xFFFFFFFFFFFFFFFFFFFFFFFFFFFFFFFFFFFFFFFF AND DUP2 MSTORE PUSH1 0x20 ADD SWAP1 DUP2 MSTORE PUSH1 0x20 ADD PUSH1 0x0 KECCAK256 PUSH1 0x0 PUSH2 0x100 EXP DUP2 SLOAD DUP2 PUSH1 0xFF MUL NOT AND SWAP1 DUP4 ISZERO ISZERO MUL OR SWAP1 SSTORE POP PUSH1 0xA PUSH1 0x1 PUSH1 0xA DUP1 SLOAD SWAP1 POP PUSH2 0x12A8 SWAP2 SWAP1 PUSH2 0x61B4 JUMP JUMPDEST DUP2 SLOAD DUP2 LT PUSH2 0x12B9 JUMPI PUSH2 0x12B8 PUSH2 0x60EA JUMP JUMPDEST JUMPDEST SWAP1 PUSH1 0x0 MSTORE PUSH1 0x20 PUSH1 0x0 KECCAK256 SWAP1 PUSH1 0x2 MUL ADD PUSH1 0xA DUP5 DUP4 DUP2 MLOAD DUP2 LT PUSH2 0x12DC JUMPI PUSH2 0x12DB PUSH2 0x60EA JUMP JUMPDEST JUMPDEST PUSH1 0x20 MUL PUSH1 0x20 ADD ADD MLOAD DUP2 SLOAD DUP2 LT PUSH2 0x12F5 JUMPI PUSH2 0x12F4 PUSH2 0x60EA JUMP JUMPDEST JUMPDEST SWAP1 PUSH1 0x0 MSTORE PUSH1 0x20 PUSH1 0x0 KECCAK256 SWAP1 PUSH1 0x2 MUL ADD PUSH1 0x0 DUP3 ADD PUSH1 0x0 SWAP1 SLOAD SWAP1 PUSH2 0x100 EXP SWAP1 DIV PUSH1 0xFF AND DUP2 PUSH1 0x0 ADD PUSH1 0x0 PUSH2 0x100 EXP DUP2 SLOAD DUP2 PUSH1 0xFF MUL NOT AND SWAP1 DUP4 ISZERO ISZERO MUL OR SWAP1 SSTORE POP PUSH1 0x0 DUP3 ADD PUSH1 0x1 SWAP1 SLOAD SWAP1 PUSH2 0x100 EXP SWAP1 DIV PUSH20 0xFFFFFFFFFFFFFFFFFFFFFFFFFFFFFFFFFFFFFFFF AND DUP2 PUSH1 0x0 ADD PUSH1 0x1 PUSH2 0x100 EXP DUP2 SLOAD DUP2 PUSH20 0xFFFFFFFFFFFFFFFFFFFFFFFFFFFFFFFFFFFFFFFF MUL NOT AND SWAP1 DUP4 PUSH20 0xFFFFFFFFFFFFFFFFFFFFFFFFFFFFFFFFFFFFFFFF AND MUL OR SWAP1 SSTORE POP PUSH1 0x1 DUP3 ADD SLOAD DUP2 PUSH1 0x1 ADD SSTORE SWAP1 POP POP PUSH1 0xA PUSH1 0x1 PUSH1 0xA DUP1 SLOAD SWAP1 POP PUSH2 0x13B8 SWAP2 SWAP1 PUSH2 0x61B4 JUMP JUMPDEST DUP2 SLOAD DUP2 LT PUSH2 0x13C9 JUMPI PUSH2 0x13C8 PUSH2 0x60EA JUMP JUMPDEST JUMPDEST SWAP1 PUSH1 0x0 MSTORE PUSH1 0x20 PUSH1 0x0 KECCAK256 SWAP1 PUSH1 0x2 MUL ADD PUSH1 0x0 DUP1 DUP3 ADD PUSH1 0x0 PUSH2 0x100 EXP DUP2 SLOAD SWAP1 PUSH1 0xFF MUL NOT AND SWAP1 SSTORE PUSH1 0x0 DUP3 ADD PUSH1 0x1 PUSH2 0x100 EXP DUP2 SLOAD SWAP1 PUSH20 0xFFFFFFFFFFFFFFFFFFFFFFFFFFFFFFFFFFFFFFFF MUL NOT AND SWAP1 SSTORE PUSH1 0x1 DUP3 ADD PUSH1 0x0 SWAP1 SSTORE POP POP PUSH1 0x1 DUP3 PUSH2 0x142A SWAP2 SWAP1 PUSH2 0x61B4 JUMP JUMPDEST SWAP2 POP PUSH32 0xD288AB5DA2E1F37CF384A1565A3F905AD289B092FBDD31950DBBFEF148C04F88 DUP5 DUP3 DUP2 MLOAD DUP2 LT PUSH2 0x1460 JUMPI PUSH2 0x145F PUSH2 0x60EA JUMP JUMPDEST JUMPDEST PUSH1 0x20 MUL PUSH1 0x20 ADD ADD MLOAD ADDRESS PUSH1 0x40 MLOAD PUSH2 0x1477 SWAP3 SWAP2 SWAP1 PUSH2 0x61E8 JUMP JUMPDEST PUSH1 0x40 MLOAD DUP1 SWAP2 SUB SWAP1 LOG1 DUP1 DUP1 PUSH2 0x148A SWAP1 PUSH2 0x6211 JUMP JUMPDEST SWAP2 POP POP PUSH2 0x1132 JUMP JUMPDEST POP PUSH2 0x14A8 DUP2 PUSH1 0x7 SLOAD PUSH2 0x4EA7 SWAP1 SWAP2 SWAP1 PUSH4 0xFFFFFFFF AND JUMP JUMPDEST PUSH1 0x7 DUP2 SWAP1 SSTORE POP POP POP POP JUMP JUMPDEST PUSH1 0x8 SLOAD TIMESTAMP GT ISZERO PUSH2 0x14C2 JUMPI PUSH1 0x0 DUP1 REVERT JUMPDEST PUSH1 0x26 PUSH1 0x0 SWAP1 SLOAD SWAP1 PUSH2 0x100 EXP SWAP1 DIV PUSH20 0xFFFFFFFFFFFFFFFFFFFFFFFFFFFFFFFFFFFFFFFF AND PUSH20 0xFFFFFFFFFFFFFFFFFFFFFFFFFFFFFFFFFFFFFFFF AND CALLER PUSH20 0xFFFFFFFFFFFFFFFFFFFFFFFFFFFFFFFFFFFFFFFF AND EQ PUSH2 0x1552 JUMPI PUSH1 0x40 MLOAD PUSH32 0x8C379A000000000000000000000000000000000000000000000000000000000 DUP2 MSTORE PUSH1 0x4 ADD PUSH2 0x1549 SWAP1 PUSH2 0x62A5 JUMP JUMPDEST PUSH1 0x40 MLOAD DUP1 SWAP2 SUB SWAP1 REVERT JUMPDEST PUSH2 0x2710 DUP2 LT PUSH2 0x1596 JUMPI PUSH1 0x40 MLOAD PUSH32 0x8C379A000000000000000000000000000000000000000000000000000000000 DUP2 MSTORE PUSH1 0x4 ADD PUSH2 0x158D SWAP1 PUSH2 0x6337 JUMP JUMPDEST PUSH1 0x40 MLOAD DUP1 SWAP2 SUB SWAP1 REVERT JUMPDEST PUSH2 0x15BF PUSH2 0x2710 PUSH2 0x15B1 DUP4 PUSH1 0x21 SLOAD PUSH2 0x4E7B SWAP1 SWAP2 SWAP1 PUSH4 0xFFFFFFFF AND JUMP JUMPDEST PUSH2 0x4E91 SWAP1 SWAP2 SWAP1 PUSH4 0xFFFFFFFF AND JUMP JUMPDEST PUSH1 0x27 DUP2 SWAP1 SSTORE POP PUSH2 0x15DC PUSH1 0x27 SLOAD PUSH1 0x21 SLOAD PUSH2 0x4EA7 SWAP1 SWAP2 SWAP1 PUSH4 0xFFFFFFFF AND JUMP JUMPDEST PUSH1 0x28 DUP2 SWAP1 SSTORE POP POP JUMP JUMPDEST PUSH1 0x21 SLOAD DUP2 JUMP JUMPDEST PUSH1 0x0 DUP1 PUSH1 0x1F SLOAD EQ ISZERO SWAP1 POP SWAP1 JUMP JUMPDEST PUSH1 0xE PUSH1 0x14 SWAP1 SLOAD SWAP1 PUSH2 0x100 EXP SWAP1 DIV PUSH1 0xFF AND DUP2 JUMP JUMPDEST PUSH1 0x2 PUSH1 0x20 MSTORE DUP1 PUSH1 0x0 MSTORE PUSH1 0x40 PUSH1 0x0 KECCAK256 PUSH1 0x0 SWAP2 POP SWAP1 POP SLOAD DUP2 JUMP JUMPDEST PUSH2 0x162B PUSH2 0x4EBD JUMP JUMPDEST PUSH1 0x9 PUSH1 0x0 SWAP1 SLOAD SWAP1 PUSH2 0x100 EXP SWAP1 DIV PUSH20 0xFFFFFFFFFFFFFFFFFFFFFFFFFFFFFFFFFFFFFFFF AND PUSH20 0xFFFFFFFFFFFFFFFFFFFFFFFFFFFFFFFFFFFFFFFF AND CALLER PUSH20 0xFFFFFFFFFFFFFFFFFFFFFFFFFFFFFFFFFFFFFFFF AND EQ PUSH2 0x16BB JUMPI PUSH1 0x40 MLOAD PUSH32 0x8C379A000000000000000000000000000000000000000000000000000000000 DUP2 MSTORE PUSH1 0x4 ADD PUSH2 0x16B2 SWAP1 PUSH2 0x605E JUMP JUMPDEST PUSH1 0x40 MLOAD DUP1 SWAP2 SUB SWAP1 REVERT JUMPDEST PUSH2 0x16C3 PUSH2 0x2032 JUMP JUMPDEST PUSH2 0x1702 JUMPI PUSH1 0x40 MLOAD PUSH32 0x8C379A000000000000000000000000000000000000000000000000000000000 DUP2 MSTORE PUSH1 0x4 ADD PUSH2 0x16F9 SWAP1 PUSH2 0x63A3 JUMP JUMPDEST PUSH1 0x40 MLOAD DUP1 SWAP2 SUB SWAP1 REVERT JUMPDEST PUSH2 0x170A PUSH2 0x4135 JUMP JUMPDEST PUSH2 0x1749 JUMPI PUSH1 0x40 MLOAD PUSH32 0x8C379A000000000000000000000000000000000000000000000000000000000 DUP2 MSTORE PUSH1 0x4 ADD PUSH2 0x1740 SWAP1 PUSH2 0x640F JUMP JUMPDEST PUSH1 0x40 MLOAD DUP1 SWAP2 SUB SWAP1 REVERT JUMPDEST PUSH1 0x29 PUSH1 0x1 SWAP1 SLOAD SWAP1 PUSH2 0x100 EXP SWAP1 DIV PUSH1 0xFF AND ISZERO PUSH2 0x1837 JUMPI PUSH1 0x23 PUSH1 0x0 SWAP1 SLOAD SWAP1 PUSH2 0x100 EXP SWAP1 DIV PUSH20 0xFFFFFFFFFFFFFFFFFFFFFFFFFFFFFFFFFFFFFFFF AND PUSH20 0xFFFFFFFFFFFFFFFFFFFFFFFFFFFFFFFFFFFFFFFF AND PUSH2 0x8FC PUSH1 0x25 SLOAD SWAP1 DUP2 ISZERO MUL SWAP1 PUSH1 0x40 MLOAD PUSH1 0x0 PUSH1 0x40 MLOAD DUP1 DUP4 SUB DUP2 DUP6 DUP9 DUP9 CALL SWAP4 POP POP POP POP ISZERO DUP1 ISZERO PUSH2 0x17C8 JUMPI RETURNDATASIZE PUSH1 0x0 DUP1 RETURNDATACOPY RETURNDATASIZE PUSH1 0x0 REVERT JUMPDEST POP PUSH1 0x22 PUSH1 0x1 SWAP1 SLOAD SWAP1 PUSH2 0x100 EXP SWAP1 DIV PUSH20 0xFFFFFFFFFFFFFFFFFFFFFFFFFFFFFFFFFFFFFFFF AND PUSH20 0xFFFFFFFFFFFFFFFFFFFFFFFFFFFFFFFFFFFFFFFF AND PUSH2 0x8FC SELFBALANCE SWAP1 DUP2 ISZERO MUL SWAP1 PUSH1 0x40 MLOAD PUSH1 0x0 PUSH1 0x40 MLOAD DUP1 DUP4 SUB DUP2 DUP6 DUP9 DUP9 CALL SWAP4 POP POP POP POP ISZERO DUP1 ISZERO PUSH2 0x1831 JUMPI RETURNDATASIZE PUSH1 0x0 DUP1 RETURNDATACOPY RETURNDATASIZE PUSH1 0x0 REVERT JUMPDEST POP PUSH2 0x19B3 JUMP JUMPDEST PUSH2 0x18A8 PUSH1 0x23 PUSH1 0x0 SWAP1 SLOAD SWAP1 PUSH2 0x100 EXP SWAP1 DIV PUSH20 0xFFFFFFFFFFFFFFFFFFFFFFFFFFFFFFFFFFFFFFFF AND PUSH1 0x25 SLOAD PUSH1 0x29 PUSH1 0x2 SWAP1 SLOAD SWAP1 PUSH2 0x100 EXP SWAP1 DIV PUSH20 0xFFFFFFFFFFFFFFFFFFFFFFFFFFFFFFFFFFFFFFFF AND PUSH20 0xFFFFFFFFFFFFFFFFFFFFFFFFFFFFFFFFFFFFFFFF AND PUSH2 0x4F07 SWAP1 SWAP3 SWAP2 SWAP1 PUSH4 0xFFFFFFFF AND JUMP JUMPDEST PUSH2 0x19B2 PUSH1 0x22 PUSH1 0x1 SWAP1 SLOAD SWAP1 PUSH2 0x100 EXP SWAP1 DIV PUSH20 0xFFFFFFFFFFFFFFFFFFFFFFFFFFFFFFFFFFFFFFFF AND PUSH1 0x29 PUSH1 0x2 SWAP1 SLOAD SWAP1 PUSH2 0x100 EXP SWAP1 DIV PUSH20 0xFFFFFFFFFFFFFFFFFFFFFFFFFFFFFFFFFFFFFFFF AND PUSH20 0xFFFFFFFFFFFFFFFFFFFFFFFFFFFFFFFFFFFFFFFF AND PUSH4 0x70A08231 ADDRESS PUSH1 0x40 MLOAD DUP3 PUSH4 0xFFFFFFFF AND PUSH1 0xE0 SHL DUP2 MSTORE PUSH1 0x4 ADD PUSH2 0x1929 SWAP2 SWAP1 PUSH2 0x5F5E JUMP JUMPDEST PUSH1 0x20 PUSH1 0x40 MLOAD DUP1 DUP4 SUB DUP2 DUP7 GAS STATICCALL ISZERO DUP1 ISZERO PUSH2 0x1946 JUMPI RETURNDATASIZE PUSH1 0x0 DUP1 RETURNDATACOPY RETURNDATASIZE PUSH1 0x0 REVERT JUMPDEST POP POP POP POP PUSH1 0x40 MLOAD RETURNDATASIZE PUSH1 0x1F NOT PUSH1 0x1F DUP3 ADD AND DUP3 ADD DUP1 PUSH1 0x40 MSTORE POP DUP2 ADD SWAP1 PUSH2 0x196A SWAP2 SWAP1 PUSH2 0x6444 JUMP JUMPDEST PUSH1 0x29 PUSH1 0x2 SWAP1 SLOAD SWAP1 PUSH2 0x100 EXP SWAP1 DIV PUSH20 0xFFFFFFFFFFFFFFFFFFFFFFFFFFFFFFFFFFFFFFFF AND PUSH20 0xFFFFFFFFFFFFFFFFFFFFFFFFFFFFFFFFFFFFFFFF AND PUSH2 0x4F07 SWAP1 SWAP3 SWAP2 SWAP1 PUSH4 0xFFFFFFFF AND JUMP JUMPDEST JUMPDEST CALLER PUSH20 0xFFFFFFFFFFFFFFFFFFFFFFFFFFFFFFFFFFFFFFFF AND PUSH32 0xE57D8098F4EA9A6B92BB21C1BCF7708B5B661779B84DA5F01D2B76C3984284DF ADDRESS PUSH1 0x40 MLOAD PUSH2 0x19F9 SWAP2 SWAP1 PUSH2 0x5F5E JUMP JUMPDEST PUSH1 0x40 MLOAD DUP1 SWAP2 SUB SWAP1 LOG2 JUMP JUMPDEST PUSH1 0xF SLOAD DUP2 JUMP JUMPDEST PUSH1 0xA DUP2 DUP2 SLOAD DUP2 LT PUSH2 0x1A19 JUMPI PUSH1 0x0 DUP1 REVERT JUMPDEST SWAP1 PUSH1 0x0 MSTORE PUSH1 0x20 PUSH1 0x0 KECCAK256 SWAP1 PUSH1 0x2 MUL ADD PUSH1 0x0 SWAP2 POP SWAP1 POP DUP1 PUSH1 0x0 ADD PUSH1 0x0 SWAP1 SLOAD SWAP1 PUSH2 0x100 EXP SWAP1 DIV PUSH1 0xFF AND SWAP1 DUP1 PUSH1 0x0 ADD PUSH1 0x1 SWAP1 SLOAD SWAP1 PUSH2 0x100 EXP SWAP1 DIV PUSH20 0xFFFFFFFFFFFFFFFFFFFFFFFFFFFFFFFFFFFFFFFF AND SWAP1 DUP1 PUSH1 0x1 ADD SLOAD SWAP1 POP DUP4 JUMP JUMPDEST PUSH1 0x0 PUSH1 0x1 PUSH1 0x0 DUP4 PUSH20 0xFFFFFFFFFFFFFFFFFFFFFFFFFFFFFFFFFFFFFFFF AND PUSH20 0xFFFFFFFFFFFFFFFFFFFFFFFFFFFFFFFFFFFFFFFF AND DUP2 MSTORE PUSH1 0x20 ADD SWAP1 DUP2 MSTORE PUSH1 0x20 ADD PUSH1 0x0 KECCAK256 PUSH1 0x0 SWAP1 SLOAD SWAP1 PUSH2 0x100 EXP SWAP1 DIV PUSH1 0xFF AND SWAP1 POP SWAP2 SWAP1 POP JUMP JUMPDEST PUSH1 0x9 PUSH1 0x0 SWAP1 SLOAD SWAP1 PUSH2 0x100 EXP SWAP1 DIV PUSH20 0xFFFFFFFFFFFFFFFFFFFFFFFFFFFFFFFFFFFFFFFF AND PUSH20 0xFFFFFFFFFFFFFFFFFFFFFFFFFFFFFFFFFFFFFFFF AND CALLER PUSH20 0xFFFFFFFFFFFFFFFFFFFFFFFFFFFFFFFFFFFFFFFF AND EQ PUSH2 0x1B56 JUMPI PUSH1 0x40 MLOAD PUSH32 0x8C379A000000000000000000000000000000000000000000000000000000000 DUP2 MSTORE PUSH1 0x4 ADD PUSH2 0x1B4D SWAP1 PUSH2 0x605E JUMP JUMPDEST PUSH1 0x40 MLOAD DUP1 SWAP2 SUB SWAP1 REVERT JUMPDEST PUSH2 0x1B5E PUSH2 0x4F8D JUMP JUMPDEST JUMP JUMPDEST PUSH2 0x1B68 PUSH2 0x2032 JUMP JUMPDEST PUSH2 0x1BA7 JUMPI PUSH1 0x40 MLOAD PUSH32 0x8C379A000000000000000000000000000000000000000000000000000000000 DUP2 MSTORE PUSH1 0x4 ADD PUSH2 0x1B9E SWAP1 PUSH2 0x63A3 JUMP JUMPDEST PUSH1 0x40 MLOAD DUP1 SWAP2 SUB SWAP1 REVERT JUMPDEST PUSH1 0x22 PUSH1 0x0 SWAP1 SLOAD SWAP1 PUSH2 0x100 EXP SWAP1 DIV PUSH1 0xFF AND ISZERO PUSH2 0x1BF7 JUMPI PUSH1 0x40 MLOAD PUSH32 0x8C379A000000000000000000000000000000000000000000000000000000000 DUP2 MSTORE PUSH1 0x4 ADD PUSH2 0x1BEE SWAP1 PUSH2 0x64BD JUMP JUMPDEST PUSH1 0x40 MLOAD DUP1 SWAP2 SUB SWAP1 REVERT JUMPDEST PUSH2 0x1BFF PUSH2 0x4FEF JUMP JUMPDEST PUSH2 0x1C07 PUSH2 0x15EB JUMP JUMPDEST PUSH2 0x1C46 JUMPI PUSH1 0x40 MLOAD PUSH32 0x8C379A000000000000000000000000000000000000000000000000000000000 DUP2 MSTORE PUSH1 0x4 ADD PUSH2 0x1C3D SWAP1 PUSH2 0x6529 JUMP JUMPDEST PUSH1 0x40 MLOAD DUP1 SWAP2 SUB SWAP1 REVERT JUMPDEST PUSH2 0x1C4E PUSH2 0x2DEB JUMP JUMPDEST PUSH2 0x1C8D JUMPI PUSH1 0x40 MLOAD PUSH32 0x8C379A000000000000000000000000000000000000000000000000000000000 DUP2 MSTORE PUSH1 0x4 ADD PUSH2 0x1C84 SWAP1 PUSH2 0x640F JUMP JUMPDEST PUSH1 0x40 MLOAD DUP1 SWAP2 SUB SWAP1 REVERT JUMPDEST PUSH1 0x0 PUSH1 0xD PUSH1 0x0 CALLER PUSH20 0xFFFFFFFFFFFFFFFFFFFFFFFFFFFFFFFFFFFFFFFF AND PUSH20 0xFFFFFFFFFFFFFFFFFFFFFFFFFFFFFFFFFFFFFFFF AND DUP2 MSTORE PUSH1 0x20 ADD SWAP1 DUP2 MSTORE PUSH1 0x20 ADD PUSH1 0x0 KECCAK256 PUSH1 0x0 ADD SLOAD EQ ISZERO DUP1 ISZERO PUSH2 0x1D2D JUMPI POP PUSH1 0xD PUSH1 0x0 CALLER PUSH20 0xFFFFFFFFFFFFFFFFFFFFFFFFFFFFFFFFFFFFFFFF AND PUSH20 0xFFFFFFFFFFFFFFFFFFFFFFFFFFFFFFFFFFFFFFFF AND DUP2 MSTORE PUSH1 0x20 ADD SWAP1 DUP2 MSTORE PUSH1 0x20 ADD PUSH1 0x0 KECCAK256 PUSH1 0x4 ADD PUSH1 0x0 SWAP1 SLOAD SWAP1 PUSH2 0x100 EXP SWAP1 DIV PUSH1 0xFF AND ISZERO JUMPDEST PUSH2 0x1D6C JUMPI PUSH1 0x40 MLOAD PUSH32 0x8C379A000000000000000000000000000000000000000000000000000000000 DUP2 MSTORE PUSH1 0x4 ADD PUSH2 0x1D63 SWAP1 PUSH2 0x65BB JUMP JUMPDEST PUSH1 0x40 MLOAD DUP1 SWAP2 SUB SWAP1 REVERT JUMPDEST CALLER PUSH20 0xFFFFFFFFFFFFFFFFFFFFFFFFFFFFFFFFFFFFFFFF AND PUSH1 0xD PUSH1 0x0 CALLER PUSH20 0xFFFFFFFFFFFFFFFFFFFFFFFFFFFFFFFFFFFFFFFF AND PUSH20 0xFFFFFFFFFFFFFFFFFFFFFFFFFFFFFFFFFFFFFFFF AND DUP2 MSTORE PUSH1 0x20 ADD SWAP1 DUP2 MSTORE PUSH1 0x20 ADD PUSH1 0x0 KECCAK256 PUSH1 0x1 ADD PUSH1 0x0 SWAP1 SLOAD SWAP1 PUSH2 0x100 EXP SWAP1 DIV PUSH20 0xFFFFFFFFFFFFFFFFFFFFFFFFFFFFFFFFFFFFFFFF AND PUSH20 0xFFFFFFFFFFFFFFFFFFFFFFFFFFFFFFFFFFFFFFFF AND EQ PUSH2 0x1E06 JUMPI PUSH1 0x0 DUP1 REVERT JUMPDEST PUSH1 0x1 PUSH1 0xD PUSH1 0x0 CALLER PUSH20 0xFFFFFFFFFFFFFFFFFFFFFFFFFFFFFFFFFFFFFFFF AND PUSH20 0xFFFFFFFFFFFFFFFFFFFFFFFFFFFFFFFFFFFFFFFF AND DUP2 MSTORE PUSH1 0x20 ADD SWAP1 DUP2 MSTORE PUSH1 0x20 ADD PUSH1 0x0 KECCAK256 PUSH1 0x4 ADD PUSH1 0x0 PUSH2 0x100 EXP DUP2 SLOAD DUP2 PUSH1 0xFF MUL NOT AND SWAP1 DUP4 ISZERO ISZERO MUL OR SWAP1 SSTORE POP PUSH1 0x1 PUSH1 0xD PUSH1 0x0 CALLER PUSH20 0xFFFFFFFFFFFFFFFFFFFFFFFFFFFFFFFFFFFFFFFF AND PUSH20 0xFFFFFFFFFFFFFFFFFFFFFFFFFFFFFFFFFFFFFFFF AND DUP2 MSTORE PUSH1 0x20 ADD SWAP1 DUP2 MSTORE PUSH1 0x20 ADD PUSH1 0x0 KECCAK256 PUSH1 0x4 ADD PUSH1 0x1 PUSH2 0x100 EXP DUP2 SLOAD DUP2 PUSH1 0xFF MUL NOT AND SWAP1 DUP4 ISZERO ISZERO MUL OR SWAP1 SSTORE POP PUSH1 0x29 PUSH1 0x1 SWAP1 SLOAD SWAP1 PUSH2 0x100 EXP SWAP1 DIV PUSH1 0xFF AND ISZERO PUSH2 0x1F5F JUMPI CALLER PUSH20 0xFFFFFFFFFFFFFFFFFFFFFFFFFFFFFFFFFFFFFFFF AND PUSH2 0x8FC PUSH1 0xD PUSH1 0x0 CALLER PUSH20 0xFFFFFFFFFFFFFFFFFFFFFFFFFFFFFFFFFFFFFFFF AND PUSH20 0xFFFFFFFFFFFFFFFFFFFFFFFFFFFFFFFFFFFFFFFF AND DUP2 MSTORE PUSH1 0x20 ADD SWAP1 DUP2 MSTORE PUSH1 0x20 ADD PUSH1 0x0 KECCAK256 PUSH1 0x2 ADD SLOAD SWAP1 DUP2 ISZERO MUL SWAP1 PUSH1 0x40 MLOAD PUSH1 0x0 PUSH1 0x40 MLOAD DUP1 DUP4 SUB DUP2 DUP6 DUP9 DUP9 CALL SWAP4 POP POP POP POP ISZERO DUP1 ISZERO PUSH2 0x1F59 JUMPI RETURNDATASIZE PUSH1 0x0 DUP1 RETURNDATACOPY RETURNDATASIZE PUSH1 0x0 REVERT JUMPDEST POP PUSH2 0x1FEF JUMP JUMPDEST PUSH2 0x1FEE CALLER PUSH1 0xD PUSH1 0x0 CALLER PUSH20 0xFFFFFFFFFFFFFFFFFFFFFFFFFFFFFFFFFFFFFFFF AND PUSH20 0xFFFFFFFFFFFFFFFFFFFFFFFFFFFFFFFFFFFFFFFF AND DUP2 MSTORE PUSH1 0x20 ADD SWAP1 DUP2 MSTORE PUSH1 0x20 ADD PUSH1 0x0 KECCAK256 PUSH1 0x2 ADD SLOAD PUSH1 0x29 PUSH1 0x2 SWAP1 SLOAD SWAP1 PUSH2 0x100 EXP SWAP1 DIV PUSH20 0xFFFFFFFFFFFFFFFFFFFFFFFFFFFFFFFFFFFFFFFF AND PUSH20 0xFFFFFFFFFFFFFFFFFFFFFFFFFFFFFFFFFFFFFFFF AND PUSH2 0x4F07 SWAP1 SWAP3 SWAP2 SWAP1 PUSH4 0xFFFFFFFF AND JUMP JUMPDEST JUMPDEST PUSH32 0xB484599B1523B500C6466268B8F8223963E1ABCF26B855599C5A218C9E440CBF CALLER ADDRESS PUSH1 0x40 MLOAD PUSH2 0x2020 SWAP3 SWAP2 SWAP1 PUSH2 0x61E8 JUMP JUMPDEST PUSH1 0x40 MLOAD DUP1 SWAP2 SUB SWAP1 LOG1 PUSH2 0x2030 PUSH2 0x503E JUMP JUMPDEST JUMP JUMPDEST PUSH1 0x0 PUSH1 0x12 SLOAD TIMESTAMP GT SWAP1 POP SWAP1 JUMP JUMPDEST PUSH1 0x0 PUSH1 0x8 SLOAD TIMESTAMP LT ISZERO SWAP1 POP SWAP1 JUMP JUMPDEST PUSH1 0x27 SLOAD DUP2 JUMP JUMPDEST PUSH1 0x9 PUSH1 0x0 SWAP1 SLOAD SWAP1 PUSH2 0x100 EXP SWAP1 DIV PUSH20 0xFFFFFFFFFFFFFFFFFFFFFFFFFFFFFFFFFFFFFFFF AND PUSH20 0xFFFFFFFFFFFFFFFFFFFFFFFFFFFFFFFFFFFFFFFF AND CALLER PUSH20 0xFFFFFFFFFFFFFFFFFFFFFFFFFFFFFFFFFFFFFFFF AND EQ PUSH2 0x20E1 JUMPI PUSH1 0x40 MLOAD PUSH32 0x8C379A000000000000000000000000000000000000000000000000000000000 DUP2 MSTORE PUSH1 0x4 ADD PUSH2 0x20D8 SWAP1 PUSH2 0x605E JUMP JUMPDEST PUSH1 0x40 MLOAD DUP1 SWAP2 SUB SWAP1 REVERT JUMPDEST PUSH2 0x20E9 PUSH2 0x2032 JUMP JUMPDEST PUSH2 0x2128 JUMPI PUSH1 0x40 MLOAD PUSH32 0x8C379A000000000000000000000000000000000000000000000000000000000 DUP2 MSTORE PUSH1 0x4 ADD PUSH2 0x211F SWAP1 PUSH2 0x63A3 JUMP JUMPDEST PUSH1 0x40 MLOAD DUP1 SWAP2 SUB SWAP1 REVERT JUMPDEST PUSH1 0xE PUSH1 0x0 SWAP1 SLOAD SWAP1 PUSH2 0x100 EXP SWAP1 DIV PUSH20 0xFFFFFFFFFFFFFFFFFFFFFFFFFFFFFFFFFFFFFFFF AND PUSH20 0xFFFFFFFFFFFFFFFFFFFFFFFFFFFFFFFFFFFFFFFF AND DUP3 PUSH20 0xFFFFFFFFFFFFFFFFFFFFFFFFFFFFFFFFFFFFFFFF AND SUB PUSH2 0x21B8 JUMPI PUSH1 0x40 MLOAD PUSH32 0x8C379A000000000000000000000000000000000000000000000000000000000 DUP2 MSTORE PUSH1 0x4 ADD PUSH2 0x21AF SWAP1 PUSH2 0x664D JUMP JUMPDEST PUSH1 0x40 MLOAD DUP1 SWAP2 SUB SWAP1 REVERT JUMPDEST PUSH1 0x0 DUP3 SWAP1 POP PUSH2 0x2261 DUP3 DUP3 PUSH20 0xFFFFFFFFFFFFFFFFFFFFFFFFFFFFFFFFFFFFFFFF AND PUSH4 0x70A08231 ADDRESS PUSH1 0x40 MLOAD DUP3 PUSH4 0xFFFFFFFF AND PUSH1 0xE0 SHL DUP2 MSTORE PUSH1 0x4 ADD PUSH2 0x21FA SWAP2 SWAP1 PUSH2 0x5F5E JUMP JUMPDEST PUSH1 0x20 PUSH1 0x40 MLOAD DUP1 DUP4 SUB DUP2 DUP7 GAS STATICCALL ISZERO DUP1 ISZERO PUSH2 0x2217 JUMPI RETURNDATASIZE PUSH1 0x0 DUP1 RETURNDATACOPY RETURNDATASIZE PUSH1 0x0 REVERT JUMPDEST POP POP POP POP PUSH1 0x40 MLOAD RETURNDATASIZE PUSH1 0x1F NOT PUSH1 0x1F DUP3 ADD AND DUP3 ADD DUP1 PUSH1 0x40 MSTORE POP DUP2 ADD SWAP1 PUSH2 0x223B SWAP2 SWAP1 PUSH2 0x6444 JUMP JUMPDEST DUP4 PUSH20 0xFFFFFFFFFFFFFFFFFFFFFFFFFFFFFFFFFFFFFFFF AND PUSH2 0x4F07 SWAP1 SWAP3 SWAP2 SWAP1 PUSH4 0xFFFFFFFF AND JUMP JUMPDEST POP POP POP JUMP JUMPDEST PUSH1 0x0 PUSH2 0x2270 PUSH2 0x203E JUMP JUMPDEST DUP1 ISZERO PUSH2 0x2281 JUMPI POP PUSH2 0x227F PUSH2 0x2032 JUMP JUMPDEST ISZERO JUMPDEST SWAP1 POP SWAP1 JUMP JUMPDEST PUSH1 0x29 PUSH1 0x2 SWAP1 SLOAD SWAP1 PUSH2 0x100 EXP SWAP1 DIV PUSH20 0xFFFFFFFFFFFFFFFFFFFFFFFFFFFFFFFFFFFFFFFF AND DUP2 JUMP JUMPDEST PUSH1 0x9 PUSH1 0x0 SWAP1 SLOAD SWAP1 PUSH2 0x100 EXP SWAP1 DIV PUSH20 0xFFFFFFFFFFFFFFFFFFFFFFFFFFFFFFFFFFFFFFFF AND PUSH20 0xFFFFFFFFFFFFFFFFFFFFFFFFFFFFFFFFFFFFFFFF AND CALLER PUSH20 0xFFFFFFFFFFFFFFFFFFFFFFFFFFFFFFFFFFFFFFFF AND EQ PUSH2 0x233C JUMPI PUSH1 0x40 MLOAD PUSH32 0x8C379A000000000000000000000000000000000000000000000000000000000 DUP2 MSTORE PUSH1 0x4 ADD PUSH2 0x2333 SWAP1 PUSH2 0x605E JUMP JUMPDEST PUSH1 0x40 MLOAD DUP1 SWAP2 SUB SWAP1 REVERT JUMPDEST PUSH1 0x8 SLOAD TIMESTAMP GT ISZERO PUSH2 0x234B JUMPI PUSH1 0x0 DUP1 REVERT JUMPDEST PUSH1 0x0 DUP6 MLOAD GT PUSH2 0x238F JUMPI PUSH1 0x40 MLOAD PUSH32 0x8C379A000000000000000000000000000000000000000000000000000000000 DUP2 MSTORE PUSH1 0x4 ADD PUSH2 0x2386 SWAP1 PUSH2 0x66B9 JUMP JUMPDEST PUSH1 0x40 MLOAD DUP1 SWAP2 SUB SWAP1 REVERT JUMPDEST PUSH1 0x0 DUP3 DUP7 MLOAD LT ISZERO PUSH2 0x23D5 JUMPI PUSH1 0x40 MLOAD PUSH32 0x8C379A000000000000000000000000000000000000000000000000000000000 DUP2 MSTORE PUSH1 0x4 ADD PUSH2 0x23CC SWAP1 PUSH2 0x6725 JUMP JUMPDEST PUSH1 0x40 MLOAD DUP1 SWAP2 SUB SWAP1 REVERT JUMPDEST PUSH1 0x0 DUP7 MLOAD SWAP1 POP PUSH1 0x0 JUMPDEST PUSH2 0x2405 PUSH1 0x1 PUSH2 0x23F7 PUSH1 0x20 DUP9 PUSH2 0x4E91 SWAP1 SWAP2 SWAP1 PUSH4 0xFFFFFFFF AND JUMP JUMPDEST PUSH2 0x5048 SWAP1 SWAP2 SWAP1 PUSH4 0xFFFFFFFF AND JUMP JUMPDEST DUP2 LT ISZERO PUSH2 0x2902 JUMPI PUSH1 0x6 PUSH1 0x0 DUP2 SLOAD DUP1 SWAP3 SWAP2 SWAP1 PUSH2 0x241F SWAP1 PUSH2 0x6211 JUMP JUMPDEST SWAP2 SWAP1 POP SSTORE POP PUSH1 0x0 DUP5 PUSH1 0x4 PUSH1 0x6 SLOAD PUSH1 0x40 MLOAD PUSH1 0x20 ADD PUSH2 0x243E SWAP4 SWAP3 SWAP2 SWAP1 PUSH2 0x683E JUMP JUMPDEST PUSH1 0x40 MLOAD PUSH1 0x20 DUP2 DUP4 SUB SUB DUP2 MSTORE SWAP1 PUSH1 0x40 MSTORE DUP1 MLOAD SWAP1 PUSH1 0x20 ADD KECCAK256 SWAP1 POP PUSH1 0x0 JUMPDEST PUSH1 0x20 DUP2 LT ISZERO PUSH2 0x28ED JUMPI DUP7 DUP6 LT ISZERO PUSH2 0x28DA JUMPI PUSH1 0x0 PUSH2 0x24BA DUP6 DUP5 DUP5 PUSH1 0x20 DUP2 LT PUSH2 0x2483 JUMPI PUSH2 0x2482 PUSH2 0x60EA JUMP JUMPDEST JUMPDEST BYTE PUSH1 0xF8 SHL PUSH31 0xFFFFFFFFFFFFFFFFFFFFFFFFFFFFFFFFFFFFFFFFFFFFFFFFFFFFFFFFFFFFFF NOT AND PUSH1 0x0 SHR PUSH2 0x505E SWAP1 SWAP2 SWAP1 PUSH4 0xFFFFFFFF AND JUMP JUMPDEST SWAP1 POP PUSH1 0x1 DUP1 PUSH1 0x0 DUP14 DUP5 DUP2 MLOAD DUP2 LT PUSH2 0x24D4 JUMPI PUSH2 0x24D3 PUSH2 0x60EA JUMP JUMPDEST JUMPDEST PUSH1 0x20 MUL PUSH1 0x20 ADD ADD MLOAD PUSH20 0xFFFFFFFFFFFFFFFFFFFFFFFFFFFFFFFFFFFFFFFF AND PUSH20 0xFFFFFFFFFFFFFFFFFFFFFFFFFFFFFFFFFFFFFFFF AND DUP2 MSTORE PUSH1 0x20 ADD SWAP1 DUP2 MSTORE PUSH1 0x20 ADD PUSH1 0x0 KECCAK256 PUSH1 0x0 PUSH2 0x100 EXP DUP2 SLOAD DUP2 PUSH1 0xFF MUL NOT AND SWAP1 DUP4 ISZERO ISZERO MUL OR SWAP1 SSTORE POP PUSH1 0x0 DUP11 DUP11 DUP4 DUP2 DUP2 LT PUSH2 0x2542 JUMPI PUSH2 0x2541 PUSH2 0x60EA JUMP JUMPDEST JUMPDEST SWAP1 POP PUSH1 0x20 MUL ADD CALLDATALOAD GT DUP1 ISZERO PUSH2 0x2570 JUMPI POP PUSH1 0x6 DUP11 DUP11 DUP4 DUP2 DUP2 LT PUSH2 0x2566 JUMPI PUSH2 0x2565 PUSH2 0x60EA JUMP JUMPDEST JUMPDEST SWAP1 POP PUSH1 0x20 MUL ADD CALLDATALOAD GT ISZERO JUMPDEST PUSH2 0x25AF JUMPI PUSH1 0x40 MLOAD PUSH32 0x8C379A000000000000000000000000000000000000000000000000000000000 DUP2 MSTORE PUSH1 0x4 ADD PUSH2 0x25A6 SWAP1 PUSH2 0x68CF JUMP JUMPDEST PUSH1 0x40 MLOAD DUP1 SWAP2 SUB SWAP1 REVERT JUMPDEST DUP10 DUP10 DUP3 DUP2 DUP2 LT PUSH2 0x25C2 JUMPI PUSH2 0x25C1 PUSH2 0x60EA JUMP JUMPDEST JUMPDEST SWAP1 POP PUSH1 0x20 MUL ADD CALLDATALOAD PUSH1 0x2 PUSH1 0x0 DUP14 DUP5 DUP2 MLOAD DUP2 LT PUSH2 0x25E0 JUMPI PUSH2 0x25DF PUSH2 0x60EA JUMP JUMPDEST JUMPDEST PUSH1 0x20 MUL PUSH1 0x20 ADD ADD MLOAD PUSH20 0xFFFFFFFFFFFFFFFFFFFFFFFFFFFFFFFFFFFFFFFF AND PUSH20 0xFFFFFFFFFFFFFFFFFFFFFFFFFFFFFFFFFFFFFFFF AND DUP2 MSTORE PUSH1 0x20 ADD SWAP1 DUP2 MSTORE PUSH1 0x20 ADD PUSH1 0x0 KECCAK256 DUP2 SWAP1 SSTORE POP PUSH1 0xA PUSH1 0x40 MLOAD DUP1 PUSH1 0x60 ADD PUSH1 0x40 MSTORE DUP1 PUSH1 0x1 ISZERO ISZERO DUP2 MSTORE PUSH1 0x20 ADD DUP14 DUP5 DUP2 MLOAD DUP2 LT PUSH2 0x264F JUMPI PUSH2 0x264E PUSH2 0x60EA JUMP JUMPDEST JUMPDEST PUSH1 0x20 MUL PUSH1 0x20 ADD ADD MLOAD PUSH20 0xFFFFFFFFFFFFFFFFFFFFFFFFFFFFFFFFFFFFFFFF AND DUP2 MSTORE PUSH1 0x20 ADD DUP13 DUP13 DUP6 DUP2 DUP2 LT PUSH2 0x2685 JUMPI PUSH2 0x2684 PUSH2 0x60EA JUMP JUMPDEST JUMPDEST SWAP1 POP PUSH1 0x20 MUL ADD CALLDATALOAD DUP2 MSTORE POP SWAP1 DUP1 PUSH1 0x1 DUP2 SLOAD ADD DUP1 DUP3 SSTORE DUP1 SWAP2 POP POP PUSH1 0x1 SWAP1 SUB SWAP1 PUSH1 0x0 MSTORE PUSH1 0x20 PUSH1 0x0 KECCAK256 SWAP1 PUSH1 0x2 MUL ADD PUSH1 0x0 SWAP1 SWAP2 SWAP1 SWAP2 SWAP1 SWAP2 POP PUSH1 0x0 DUP3 ADD MLOAD DUP2 PUSH1 0x0 ADD PUSH1 0x0 PUSH2 0x100 EXP DUP2 SLOAD DUP2 PUSH1 0xFF MUL NOT AND SWAP1 DUP4 ISZERO ISZERO MUL OR SWAP1 SSTORE POP PUSH1 0x20 DUP3 ADD MLOAD DUP2 PUSH1 0x0 ADD PUSH1 0x1 PUSH2 0x100 EXP DUP2 SLOAD DUP2 PUSH20 0xFFFFFFFFFFFFFFFFFFFFFFFFFFFFFFFFFFFFFFFF MUL NOT AND SWAP1 DUP4 PUSH20 0xFFFFFFFFFFFFFFFFFFFFFFFFFFFFFFFFFFFFFFFF AND MUL OR SWAP1 SSTORE POP PUSH1 0x40 DUP3 ADD MLOAD DUP2 PUSH1 0x1 ADD SSTORE POP POP DUP11 PUSH1 0x1 DUP7 PUSH2 0x2739 SWAP2 SWAP1 PUSH2 0x61B4 JUMP JUMPDEST DUP2 MLOAD DUP2 LT PUSH2 0x274A JUMPI PUSH2 0x2749 PUSH2 0x60EA JUMP JUMPDEST JUMPDEST PUSH1 0x20 MUL PUSH1 0x20 ADD ADD PUSH1 0x0 PUSH20 0xFFFFFFFFFFFFFFFFFFFFFFFFFFFFFFFFFFFFFFFF AND DUP2 MSTORE POP PUSH2 0x2780 PUSH1 0x1 DUP7 PUSH2 0x4EA7 SWAP1 SWAP2 SWAP1 PUSH4 0xFFFFFFFF AND JUMP JUMPDEST SWAP5 POP DUP6 PUSH1 0x3 PUSH1 0x0 DUP14 DUP5 DUP2 MLOAD DUP2 LT PUSH2 0x279A JUMPI PUSH2 0x2799 PUSH2 0x60EA JUMP JUMPDEST JUMPDEST PUSH1 0x20 MUL PUSH1 0x20 ADD ADD MLOAD PUSH20 0xFFFFFFFFFFFFFFFFFFFFFFFFFFFFFFFFFFFFFFFF AND PUSH20 0xFFFFFFFFFFFFFFFFFFFFFFFFFFFFFFFFFFFFFFFF AND DUP2 MSTORE PUSH1 0x20 ADD SWAP1 DUP2 MSTORE PUSH1 0x20 ADD PUSH1 0x0 KECCAK256 DUP2 SWAP1 SSTORE POP PUSH2 0x27F4 PUSH1 0x1 DUP8 PUSH2 0x5048 SWAP1 SWAP2 SWAP1 PUSH4 0xFFFFFFFF AND JUMP JUMPDEST SWAP6 POP PUSH32 0x5A2C39A0BACC7EAF39E675A6129807391745C73A0B6110A986C6F7D4082F8F79 DUP12 DUP3 DUP2 MLOAD DUP2 LT PUSH2 0x282A JUMPI PUSH2 0x2829 PUSH2 0x60EA JUMP JUMPDEST JUMPDEST PUSH1 0x20 MUL PUSH1 0x20 ADD ADD MLOAD DUP12 DUP12 DUP5 DUP2 DUP2 LT PUSH2 0x2845 JUMPI PUSH2 0x2844 PUSH2 0x60EA JUMP JUMPDEST JUMPDEST SWAP1 POP PUSH1 0x20 MUL ADD CALLDATALOAD ADDRESS PUSH1 0x40 MLOAD PUSH2 0x285C SWAP4 SWAP3 SWAP2 SWAP1 PUSH2 0x68EF JUMP JUMPDEST PUSH1 0x40 MLOAD DUP1 SWAP2 SUB SWAP1 LOG1 DUP11 PUSH1 0x1 DUP7 PUSH2 0x2872 SWAP2 SWAP1 PUSH2 0x61B4 JUMP JUMPDEST DUP2 MLOAD DUP2 LT PUSH2 0x2883 JUMPI PUSH2 0x2882 PUSH2 0x60EA JUMP JUMPDEST JUMPDEST PUSH1 0x20 MUL PUSH1 0x20 ADD ADD MLOAD DUP12 DUP3 DUP2 MLOAD DUP2 LT PUSH2 0x289E JUMPI PUSH2 0x289D PUSH2 0x60EA JUMP JUMPDEST JUMPDEST PUSH1 0x20 MUL PUSH1 0x20 ADD ADD SWAP1 PUSH20 0xFFFFFFFFFFFFFFFFFFFFFFFFFFFFFFFFFFFFFFFF AND SWAP1 DUP2 PUSH20 0xFFFFFFFFFFFFFFFFFFFFFFFFFFFFFFFFFFFFFFFF AND DUP2 MSTORE POP POP POP JUMPDEST DUP1 DUP1 PUSH2 0x28E5 SWAP1 PUSH2 0x6211 JUMP JUMPDEST SWAP2 POP POP PUSH2 0x2459 JUMP JUMPDEST POP POP DUP1 DUP1 PUSH2 0x28FA SWAP1 PUSH2 0x6211 JUMP JUMPDEST SWAP2 POP POP PUSH2 0x23DE JUMP JUMPDEST POP PUSH2 0x2918 DUP3 PUSH1 0x7 SLOAD PUSH2 0x5048 SWAP1 SWAP2 SWAP1 PUSH4 0xFFFFFFFF AND JUMP JUMPDEST PUSH1 0x7 DUP2 SWAP1 SSTORE POP POP POP POP POP POP POP POP JUMP JUMPDEST PUSH1 0x0 DUP1 PUSH1 0x0 SWAP1 SLOAD SWAP1 PUSH2 0x100 EXP SWAP1 DIV PUSH1 0xFF AND SWAP1 POP SWAP1 JUMP JUMPDEST DUP1 PUSH1 0x4 SWAP1 DUP2 PUSH2 0x294C SWAP2 SWAP1 PUSH2 0x6AB3 JUMP JUMPDEST POP POP JUMP JUMPDEST PUSH1 0x11 SLOAD DUP2 JUMP JUMPDEST PUSH1 0x8 SLOAD TIMESTAMP GT ISZERO PUSH2 0x2965 JUMPI PUSH1 0x0 DUP1 REVERT JUMPDEST PUSH1 0x9 PUSH1 0x0 SWAP1 SLOAD SWAP1 PUSH2 0x100 EXP SWAP1 DIV PUSH20 0xFFFFFFFFFFFFFFFFFFFFFFFFFFFFFFFFFFFFFFFF AND PUSH20 0xFFFFFFFFFFFFFFFFFFFFFFFFFFFFFFFFFFFFFFFF AND CALLER PUSH20 0xFFFFFFFFFFFFFFFFFFFFFFFFFFFFFFFFFFFFFFFF AND EQ PUSH2 0x29F5 JUMPI PUSH1 0x40 MLOAD PUSH32 0x8C379A000000000000000000000000000000000000000000000000000000000 DUP2 MSTORE PUSH1 0x4 ADD PUSH2 0x29EC SWAP1 PUSH2 0x62A5 JUMP JUMPDEST PUSH1 0x40 MLOAD DUP1 SWAP2 SUB SWAP1 REVERT JUMPDEST PUSH1 0x0 JUMPDEST PUSH1 0x5 DUP2 LT ISZERO PUSH2 0x2B9F JUMPI DUP3 DUP2 PUSH1 0x5 DUP2 LT PUSH2 0x2A14 JUMPI PUSH2 0x2A13 PUSH2 0x60EA JUMP JUMPDEST JUMPDEST PUSH1 0x20 MUL ADD MLOAD DUP3 DUP3 PUSH1 0x5 DUP2 LT PUSH2 0x2A2C JUMPI PUSH2 0x2A2B PUSH2 0x60EA JUMP JUMPDEST JUMPDEST PUSH1 0x20 MUL ADD MLOAD LT ISZERO PUSH2 0x2A72 JUMPI PUSH1 0x40 MLOAD PUSH32 0x8C379A000000000000000000000000000000000000000000000000000000000 DUP2 MSTORE PUSH1 0x4 ADD PUSH2 0x2A69 SWAP1 PUSH2 0x6BF7 JUMP JUMPDEST PUSH1 0x40 MLOAD DUP1 SWAP2 SUB SWAP1 REVERT JUMPDEST DUP3 DUP2 PUSH1 0x5 DUP2 LT PUSH2 0x2A85 JUMPI PUSH2 0x2A84 PUSH2 0x60EA JUMP JUMPDEST JUMPDEST PUSH1 0x20 MUL ADD MLOAD PUSH1 0x21 SLOAD LT ISZERO PUSH2 0x2ACE JUMPI PUSH1 0x40 MLOAD PUSH32 0x8C379A000000000000000000000000000000000000000000000000000000000 DUP2 MSTORE PUSH1 0x4 ADD PUSH2 0x2AC5 SWAP1 PUSH2 0x6C89 JUMP JUMPDEST PUSH1 0x40 MLOAD DUP1 SWAP2 SUB SWAP1 REVERT JUMPDEST DUP2 DUP2 PUSH1 0x5 DUP2 LT PUSH2 0x2AE1 JUMPI PUSH2 0x2AE0 PUSH2 0x60EA JUMP JUMPDEST JUMPDEST PUSH1 0x20 MUL ADD MLOAD PUSH1 0x21 SLOAD LT ISZERO PUSH2 0x2B2A JUMPI PUSH1 0x40 MLOAD PUSH32 0x8C379A000000000000000000000000000000000000000000000000000000000 DUP2 MSTORE PUSH1 0x4 ADD PUSH2 0x2B21 SWAP1 PUSH2 0x6D1B JUMP JUMPDEST PUSH1 0x40 MLOAD DUP1 SWAP2 SUB SWAP1 REVERT JUMPDEST DUP3 DUP2 PUSH1 0x5 DUP2 LT PUSH2 0x2B3D JUMPI PUSH2 0x2B3C PUSH2 0x60EA JUMP JUMPDEST JUMPDEST PUSH1 0x20 MUL ADD MLOAD PUSH1 0x13 DUP3 PUSH1 0x6 DUP2 LT PUSH2 0x2B56 JUMPI PUSH2 0x2B55 PUSH2 0x60EA JUMP JUMPDEST JUMPDEST ADD DUP2 SWAP1 SSTORE POP DUP2 DUP2 PUSH1 0x5 DUP2 LT PUSH2 0x2B6E JUMPI PUSH2 0x2B6D PUSH2 0x60EA JUMP JUMPDEST JUMPDEST PUSH1 0x20 MUL ADD MLOAD PUSH1 0x19 DUP3 PUSH1 0x6 DUP2 LT PUSH2 0x2B87 JUMPI PUSH2 0x2B86 PUSH2 0x60EA JUMP JUMPDEST JUMPDEST ADD DUP2 SWAP1 SSTORE POP DUP1 DUP1 PUSH2 0x2B97 SWAP1 PUSH2 0x6211 JUMP JUMPDEST SWAP2 POP POP PUSH2 0x29F8 JUMP JUMPDEST POP PUSH1 0x1 PUSH1 0x29 PUSH1 0x0 PUSH2 0x100 EXP DUP2 SLOAD DUP2 PUSH1 0xFF MUL NOT AND SWAP1 DUP4 ISZERO ISZERO MUL OR SWAP1 SSTORE POP POP POP JUMP JUMPDEST PUSH1 0x19 DUP2 PUSH1 0x6 DUP2 LT PUSH2 0x2BCF JUMPI PUSH1 0x0 DUP1 REVERT JUMPDEST ADD PUSH1 0x0 SWAP2 POP SWAP1 POP SLOAD DUP2 JUMP JUMPDEST PUSH1 0x5 DUP1 SLOAD PUSH2 0x2BE7 SWAP1 PUSH2 0x6774 JUMP JUMPDEST DUP1 PUSH1 0x1F ADD PUSH1 0x20 DUP1 SWAP2 DIV MUL PUSH1 0x20 ADD PUSH1 0x40 MLOAD SWAP1 DUP2 ADD PUSH1 0x40 MSTORE DUP1 SWAP3 SWAP2 SWAP1 DUP2 DUP2 MSTORE PUSH1 0x20 ADD DUP3 DUP1 SLOAD PUSH2 0x2C13 SWAP1 PUSH2 0x6774 JUMP JUMPDEST DUP1 ISZERO PUSH2 0x2C60 JUMPI DUP1 PUSH1 0x1F LT PUSH2 0x2C35 JUMPI PUSH2 0x100 DUP1 DUP4 SLOAD DIV MUL DUP4 MSTORE SWAP2 PUSH1 0x20 ADD SWAP2 PUSH2 0x2C60 JUMP JUMPDEST DUP3 ADD SWAP2 SWAP1 PUSH1 0x0 MSTORE PUSH1 0x20 PUSH1 0x0 KECCAK256 SWAP1 JUMPDEST DUP2 SLOAD DUP2 MSTORE SWAP1 PUSH1 0x1 ADD SWAP1 PUSH1 0x20 ADD DUP1 DUP4 GT PUSH2 0x2C43 JUMPI DUP3 SWAP1 SUB PUSH1 0x1F AND DUP3 ADD SWAP2 JUMPDEST POP POP POP POP POP DUP2 JUMP JUMPDEST PUSH1 0x0 PUSH1 0xE PUSH1 0x0 SWAP1 SLOAD SWAP1 PUSH2 0x100 EXP SWAP1 DIV PUSH20 0xFFFFFFFFFFFFFFFFFFFFFFFFFFFFFFFFFFFFFFFF AND PUSH20 0xFFFFFFFFFFFFFFFFFFFFFFFFFFFFFFFFFFFFFFFF AND PUSH4 0x70A08231 ADDRESS PUSH1 0x40 MLOAD DUP3 PUSH4 0xFFFFFFFF AND PUSH1 0xE0 SHL DUP2 MSTORE PUSH1 0x4 ADD PUSH2 0x2CC5 SWAP2 SWAP1 PUSH2 0x5F5E JUMP JUMPDEST PUSH1 0x20 PUSH1 0x40 MLOAD DUP1 DUP4 SUB DUP2 DUP7 GAS STATICCALL ISZERO DUP1 ISZERO PUSH2 0x2CE2 JUMPI RETURNDATASIZE PUSH1 0x0 DUP1 RETURNDATACOPY RETURNDATASIZE PUSH1 0x0 REVERT JUMPDEST POP POP POP POP PUSH1 0x40 MLOAD RETURNDATASIZE PUSH1 0x1F NOT PUSH1 0x1F DUP3 ADD AND DUP3 ADD DUP1 PUSH1 0x40 MSTORE POP DUP2 ADD SWAP1 PUSH2 0x2D06 SWAP2 SWAP1 PUSH2 0x6444 JUMP JUMPDEST SWAP1 POP SWAP1 JUMP JUMPDEST PUSH1 0x25 SLOAD DUP2 JUMP JUMPDEST PUSH1 0x60 PUSH1 0xA DUP1 SLOAD DUP1 PUSH1 0x20 MUL PUSH1 0x20 ADD PUSH1 0x40 MLOAD SWAP1 DUP2 ADD PUSH1 0x40 MSTORE DUP1 SWAP3 SWAP2 SWAP1 DUP2 DUP2 MSTORE PUSH1 0x20 ADD PUSH1 0x0 SWAP1 JUMPDEST DUP3 DUP3 LT ISZERO PUSH2 0x2DE2 JUMPI DUP4 DUP3 SWAP1 PUSH1 0x0 MSTORE PUSH1 0x20 PUSH1 0x0 KECCAK256 SWAP1 PUSH1 0x2 MUL ADD PUSH1 0x40 MLOAD DUP1 PUSH1 0x60 ADD PUSH1 0x40 MSTORE SWAP1 DUP2 PUSH1 0x0 DUP3 ADD PUSH1 0x0 SWAP1 SLOAD SWAP1 PUSH2 0x100 EXP SWAP1 DIV PUSH1 0xFF AND ISZERO ISZERO ISZERO ISZERO DUP2 MSTORE PUSH1 0x20 ADD PUSH1 0x0 DUP3 ADD PUSH1 0x1 SWAP1 SLOAD SWAP1 PUSH2 0x100 EXP SWAP1 DIV PUSH20 0xFFFFFFFFFFFFFFFFFFFFFFFFFFFFFFFFFFFFFFFF AND PUSH20 0xFFFFFFFFFFFFFFFFFFFFFFFFFFFFFFFFFFFFFFFF AND PUSH20 0xFFFFFFFFFFFFFFFFFFFFFFFFFFFFFFFFFFFFFFFF AND DUP2 MSTORE PUSH1 0x20 ADD PUSH1 0x1 DUP3 ADD SLOAD DUP2 MSTORE POP POP DUP2 MSTORE PUSH1 0x20 ADD SWAP1 PUSH1 0x1 ADD SWAP1 PUSH2 0x2D35 JUMP JUMPDEST POP POP POP POP SWAP1 POP SWAP1 JUMP JUMPDEST PUSH1 0x0 PUSH2 0x2DF8 PUSH1 0x1F SLOAD PUSH2 0x32ED JUMP JUMPDEST PUSH2 0x2E03 PUSH1 0x20 SLOAD PUSH2 0x32ED JUMP JUMPDEST LT PUSH2 0x2E43 JUMPI PUSH1 0x40 MLOAD PUSH32 0x8C379A000000000000000000000000000000000000000000000000000000000 DUP2 MSTORE PUSH1 0x4 ADD PUSH2 0x2E3A SWAP1 PUSH2 0x6DAD JUMP JUMPDEST PUSH1 0x40 MLOAD DUP1 SWAP2 SUB SWAP1 REVERT JUMPDEST PUSH1 0x1 SWAP1 POP SWAP1 JUMP JUMPDEST PUSH1 0x8 SLOAD TIMESTAMP GT ISZERO PUSH2 0x2E59 JUMPI PUSH1 0x0 DUP1 REVERT JUMPDEST DUP1 PUSH1 0xE PUSH1 0x0 SWAP1 SLOAD SWAP1 PUSH2 0x100 EXP SWAP1 DIV PUSH20 0xFFFFFFFFFFFFFFFFFFFFFFFFFFFFFFFFFFFFFFFF AND PUSH20 0xFFFFFFFFFFFFFFFFFFFFFFFFFFFFFFFFFFFFFFFF AND PUSH4 0x70A08231 CALLER PUSH1 0x40 MLOAD DUP3 PUSH4 0xFFFFFFFF AND PUSH1 0xE0 SHL DUP2 MSTORE PUSH1 0x4 ADD PUSH2 0x2EB5 SWAP2 SWAP1 PUSH2 0x5F5E JUMP JUMPDEST PUSH1 0x20 PUSH1 0x40 MLOAD DUP1 DUP4 SUB DUP2 DUP7 GAS STATICCALL ISZERO DUP1 ISZERO PUSH2 0x2ED2 JUMPI RETURNDATASIZE PUSH1 0x0 DUP1 RETURNDATACOPY RETURNDATASIZE PUSH1 0x0 REVERT JUMPDEST POP POP POP POP PUSH1 0x40 MLOAD RETURNDATASIZE PUSH1 0x1F NOT PUSH1 0x1F DUP3 ADD AND DUP3 ADD DUP1 PUSH1 0x40 MSTORE POP DUP2 ADD SWAP1 PUSH2 0x2EF6 SWAP2 SWAP1 PUSH2 0x6444 JUMP JUMPDEST LT ISZERO PUSH2 0x2F37 JUMPI PUSH1 0x40 MLOAD PUSH32 0x8C379A000000000000000000000000000000000000000000000000000000000 DUP2 MSTORE PUSH1 0x4 ADD PUSH2 0x2F2E SWAP1 PUSH2 0x6E19 JUMP JUMPDEST PUSH1 0x40 MLOAD DUP1 SWAP2 SUB SWAP1 REVERT JUMPDEST PUSH1 0x21 SLOAD DUP2 LT ISZERO PUSH2 0x2F7C JUMPI PUSH1 0x40 MLOAD PUSH32 0x8C379A000000000000000000000000000000000000000000000000000000000 DUP2 MSTORE PUSH1 0x4 ADD PUSH2 0x2F73 SWAP1 PUSH2 0x6EAB JUMP JUMPDEST PUSH1 0x40 MLOAD DUP1 SWAP2 SUB SWAP1 REVERT JUMPDEST PUSH2 0x2FCB CALLER ADDRESS DUP4 PUSH1 0xE PUSH1 0x0 SWAP1 SLOAD SWAP1 PUSH2 0x100 EXP SWAP1 DIV PUSH20 0xFFFFFFFFFFFFFFFFFFFFFFFFFFFFFFFFFFFFFFFF AND PUSH20 0xFFFFFFFFFFFFFFFFFFFFFFFFFFFFFFFFFFFFFFFF AND PUSH2 0x5074 SWAP1 SWAP4 SWAP3 SWAP2 SWAP1 PUSH4 0xFFFFFFFF AND JUMP JUMPDEST PUSH1 0x1 PUSH1 0xE PUSH1 0x14 PUSH2 0x100 EXP DUP2 SLOAD DUP2 PUSH1 0xFF MUL NOT AND SWAP1 DUP4 ISZERO ISZERO MUL OR SWAP1 SSTORE POP PUSH32 0xEB7EA3B6CE7975CDF574554F1904AB174663D6F9094535D95B5BAE6A44D87061 DUP2 ADDRESS PUSH1 0x40 MLOAD PUSH2 0x3017 SWAP3 SWAP2 SWAP1 PUSH2 0x6ECB JUMP JUMPDEST PUSH1 0x40 MLOAD DUP1 SWAP2 SUB SWAP1 LOG1 POP JUMP JUMPDEST PUSH1 0x20 SLOAD DUP2 JUMP JUMPDEST PUSH1 0x0 PUSH1 0x8 SLOAD SWAP1 POP SWAP1 JUMP JUMPDEST PUSH1 0xD PUSH1 0x20 MSTORE DUP1 PUSH1 0x0 MSTORE PUSH1 0x40 PUSH1 0x0 KECCAK256 PUSH1 0x0 SWAP2 POP SWAP1 POP DUP1 PUSH1 0x0 ADD SLOAD SWAP1 DUP1 PUSH1 0x1 ADD PUSH1 0x0 SWAP1 SLOAD SWAP1 PUSH2 0x100 EXP SWAP1 DIV PUSH20 0xFFFFFFFFFFFFFFFFFFFFFFFFFFFFFFFFFFFFFFFF AND SWAP1 DUP1 PUSH1 0x2 ADD SLOAD SWAP1 DUP1 PUSH1 0x3 ADD SLOAD SWAP1 DUP1 PUSH1 0x4 ADD PUSH1 0x0 SWAP1 SLOAD SWAP1 PUSH2 0x100 EXP SWAP1 DIV PUSH1 0xFF AND SWAP1 DUP1 PUSH1 0x4 ADD PUSH1 0x1 SWAP1 SLOAD SWAP1 PUSH2 0x100 EXP SWAP1 DIV PUSH1 0xFF AND SWAP1 POP DUP7 JUMP JUMPDEST PUSH1 0x9 PUSH1 0x0 SWAP1 SLOAD SWAP1 PUSH2 0x100 EXP SWAP1 DIV PUSH20 0xFFFFFFFFFFFFFFFFFFFFFFFFFFFFFFFFFFFFFFFF AND PUSH20 0xFFFFFFFFFFFFFFFFFFFFFFFFFFFFFFFFFFFFFFFF AND CALLER PUSH20 0xFFFFFFFFFFFFFFFFFFFFFFFFFFFFFFFFFFFFFFFF AND EQ PUSH2 0x3138 JUMPI PUSH1 0x40 MLOAD PUSH32 0x8C379A000000000000000000000000000000000000000000000000000000000 DUP2 MSTORE PUSH1 0x4 ADD PUSH2 0x312F SWAP1 PUSH2 0x605E JUMP JUMPDEST PUSH1 0x40 MLOAD DUP1 SWAP2 SUB SWAP1 REVERT JUMPDEST PUSH2 0x3140 PUSH2 0x50FD JUMP JUMPDEST JUMP JUMPDEST PUSH1 0x9 PUSH1 0x0 SWAP1 SLOAD SWAP1 PUSH2 0x100 EXP SWAP1 DIV PUSH20 0xFFFFFFFFFFFFFFFFFFFFFFFFFFFFFFFFFFFFFFFF AND PUSH20 0xFFFFFFFFFFFFFFFFFFFFFFFFFFFFFFFFFFFFFFFF AND CALLER PUSH20 0xFFFFFFFFFFFFFFFFFFFFFFFFFFFFFFFFFFFFFFFF AND EQ PUSH2 0x31D2 JUMPI PUSH1 0x40 MLOAD PUSH32 0x8C379A000000000000000000000000000000000000000000000000000000000 DUP2 MSTORE PUSH1 0x4 ADD PUSH2 0x31C9 SWAP1 PUSH2 0x605E JUMP JUMPDEST PUSH1 0x40 MLOAD DUP1 SWAP2 SUB SWAP1 REVERT JUMPDEST PUSH1 0x0 PUSH20 0xFFFFFFFFFFFFFFFFFFFFFFFFFFFFFFFFFFFFFFFF AND DUP2 PUSH20 0xFFFFFFFFFFFFFFFFFFFFFFFFFFFFFFFFFFFFFFFF AND SUB PUSH2 0x3241 JUMPI PUSH1 0x40 MLOAD PUSH32 0x8C379A000000000000000000000000000000000000000000000000000000000 DUP2 MSTORE PUSH1 0x4 ADD PUSH2 0x3238 SWAP1 PUSH2 0x6F40 JUMP JUMPDEST PUSH1 0x40 MLOAD DUP1 SWAP2 SUB SWAP1 REVERT JUMPDEST DUP1 PUSH1 0x22 PUSH1 0x1 PUSH2 0x100 EXP DUP2 SLOAD DUP2 PUSH20 0xFFFFFFFFFFFFFFFFFFFFFFFFFFFFFFFFFFFFFFFF MUL NOT AND SWAP1 DUP4 PUSH20 0xFFFFFFFFFFFFFFFFFFFFFFFFFFFFFFFFFFFFFFFF AND MUL OR SWAP1 SSTORE POP PUSH32 0x45215203C85E400CB105104FAEE2424849A1F3C133E4137BB7C8FCFD5364ABD2 DUP2 PUSH1 0x40 MLOAD PUSH2 0x32B1 SWAP2 SWAP1 PUSH2 0x6F81 JUMP JUMPDEST PUSH1 0x40 MLOAD DUP1 SWAP2 SUB SWAP1 LOG1 POP JUMP JUMPDEST PUSH1 0x3 PUSH1 0x20 MSTORE DUP1 PUSH1 0x0 MSTORE PUSH1 0x40 PUSH1 0x0 KECCAK256 PUSH1 0x0 SWAP2 POP SWAP1 POP SLOAD DUP2 JUMP JUMPDEST PUSH1 0x29 PUSH1 0x0 SWAP1 SLOAD SWAP1 PUSH2 0x100 EXP SWAP1 DIV PUSH1 0xFF AND DUP2 JUMP JUMPDEST PUSH1 0x1F SLOAD DUP2 JUMP JUMPDEST PUSH1 0x0 PUSH2 0x3324 PUSH1 0xF SLOAD PUSH1 0xA PUSH2 0x3301 SWAP2 SWAP1 PUSH2 0x70CF JUMP JUMPDEST PUSH2 0x3316 PUSH1 0x11 SLOAD DUP6 PUSH2 0x4E7B SWAP1 SWAP2 SWAP1 PUSH4 0xFFFFFFFF AND JUMP JUMPDEST PUSH2 0x4E91 SWAP1 SWAP2 SWAP1 PUSH4 0xFFFFFFFF AND JUMP JUMPDEST SWAP1 POP SWAP2 SWAP1 POP JUMP JUMPDEST PUSH2 0x2710 DUP2 JUMP JUMPDEST PUSH2 0x3339 PUSH2 0x4EBD JUMP JUMPDEST PUSH1 0xE PUSH1 0x14 SWAP1 SLOAD SWAP1 PUSH2 0x100 EXP SWAP1 DIV PUSH1 0xFF AND PUSH2 0x3388 JUMPI PUSH1 0x40 MLOAD PUSH32 0x8C379A000000000000000000000000000000000000000000000000000000000 DUP2 MSTORE PUSH1 0x4 ADD PUSH2 0x337F SWAP1 PUSH2 0x7166 JUMP JUMPDEST PUSH1 0x40 MLOAD DUP1 SWAP2 SUB SWAP1 REVERT JUMPDEST PUSH2 0x3390 PUSH2 0x2266 JUMP JUMPDEST PUSH2 0x33CF JUMPI PUSH1 0x40 MLOAD PUSH32 0x8C379A000000000000000000000000000000000000000000000000000000000 DUP2 MSTORE PUSH1 0x4 ADD PUSH2 0x33C6 SWAP1 PUSH2 0x71D2 JUMP JUMPDEST PUSH1 0x40 MLOAD DUP1 SWAP2 SUB SWAP1 REVERT JUMPDEST PUSH2 0x33D8 CALLER PUSH2 0x1A70 JUMP JUMPDEST PUSH2 0x3417 JUMPI PUSH1 0x40 MLOAD PUSH32 0x8C379A000000000000000000000000000000000000000000000000000000000 DUP2 MSTORE PUSH1 0x4 ADD PUSH2 0x340E SWAP1 PUSH2 0x723E JUMP JUMPDEST PUSH1 0x40 MLOAD DUP1 SWAP2 SUB SWAP1 REVERT JUMPDEST PUSH1 0x0 DUP2 GT PUSH2 0x345A JUMPI PUSH1 0x40 MLOAD PUSH32 0x8C379A000000000000000000000000000000000000000000000000000000000 DUP2 MSTORE PUSH1 0x4 ADD PUSH2 0x3451 SWAP1 PUSH2 0x72AA JUMP JUMPDEST PUSH1 0x40 MLOAD DUP1 SWAP2 SUB SWAP1 REVERT JUMPDEST PUSH2 0x3462 PUSH2 0x411E JUMP JUMPDEST DUP2 GT ISZERO PUSH2 0x34A4 JUMPI PUSH1 0x40 MLOAD PUSH32 0x8C379A000000000000000000000000000000000000000000000000000000000 DUP2 MSTORE PUSH1 0x4 ADD PUSH2 0x349B SWAP1 PUSH2 0x733C JUMP JUMPDEST PUSH1 0x40 MLOAD DUP1 SWAP2 SUB SWAP1 REVERT JUMPDEST PUSH1 0x0 PUSH2 0x34C9 PUSH2 0x34B2 DUP4 PUSH2 0x3BC0 JUMP JUMPDEST PUSH2 0x34BB DUP5 PUSH2 0x32ED JUMP JUMPDEST PUSH2 0x5048 SWAP1 SWAP2 SWAP1 PUSH4 0xFFFFFFFF AND JUMP JUMPDEST SWAP1 POP PUSH1 0x29 PUSH1 0x1 SWAP1 SLOAD SWAP1 PUSH2 0x100 EXP SWAP1 DIV PUSH1 0xFF AND ISZERO PUSH2 0x3523 JUMPI DUP1 CALLVALUE EQ PUSH2 0x3522 JUMPI PUSH1 0x40 MLOAD PUSH32 0x8C379A000000000000000000000000000000000000000000000000000000000 DUP2 MSTORE PUSH1 0x4 ADD PUSH2 0x3519 SWAP1 PUSH2 0x73F4 JUMP JUMPDEST PUSH1 0x40 MLOAD DUP1 SWAP2 SUB SWAP1 REVERT JUMPDEST JUMPDEST PUSH1 0x0 PUSH2 0x352E CALLER PUSH2 0x486A JUMP JUMPDEST SWAP1 POP PUSH1 0x0 DUP2 LT ISZERO PUSH2 0x3574 JUMPI PUSH1 0x40 MLOAD PUSH32 0x8C379A000000000000000000000000000000000000000000000000000000000 DUP2 MSTORE PUSH1 0x4 ADD PUSH2 0x356B SWAP1 PUSH2 0x7486 JUMP JUMPDEST PUSH1 0x40 MLOAD DUP1 SWAP2 SUB SWAP1 REVERT JUMPDEST PUSH1 0x0 PUSH1 0xD PUSH1 0x0 CALLER PUSH20 0xFFFFFFFFFFFFFFFFFFFFFFFFFFFFFFFFFFFFFFFF AND PUSH20 0xFFFFFFFFFFFFFFFFFFFFFFFFFFFFFFFFFFFFFFFF AND DUP2 MSTORE PUSH1 0x20 ADD SWAP1 DUP2 MSTORE PUSH1 0x20 ADD PUSH1 0x0 KECCAK256 PUSH1 0x40 MLOAD DUP1 PUSH1 0xC0 ADD PUSH1 0x40 MSTORE SWAP1 DUP2 PUSH1 0x0 DUP3 ADD SLOAD DUP2 MSTORE PUSH1 0x20 ADD PUSH1 0x1 DUP3 ADD PUSH1 0x0 SWAP1 SLOAD SWAP1 PUSH2 0x100 EXP SWAP1 DIV PUSH20 0xFFFFFFFFFFFFFFFFFFFFFFFFFFFFFFFFFFFFFFFF AND PUSH20 0xFFFFFFFFFFFFFFFFFFFFFFFFFFFFFFFFFFFFFFFF AND PUSH20 0xFFFFFFFFFFFFFFFFFFFFFFFFFFFFFFFFFFFFFFFF AND DUP2 MSTORE PUSH1 0x20 ADD PUSH1 0x2 DUP3 ADD SLOAD DUP2 MSTORE PUSH1 0x20 ADD PUSH1 0x3 DUP3 ADD SLOAD DUP2 MSTORE PUSH1 0x20 ADD PUSH1 0x4 DUP3 ADD PUSH1 0x0 SWAP1 SLOAD SWAP1 PUSH2 0x100 EXP SWAP1 DIV PUSH1 0xFF AND ISZERO ISZERO ISZERO ISZERO DUP2 MSTORE PUSH1 0x20 ADD PUSH1 0x4 DUP3 ADD PUSH1 0x1 SWAP1 SLOAD SWAP1 PUSH2 0x100 EXP SWAP1 DIV PUSH1 0xFF AND ISZERO ISZERO ISZERO ISZERO DUP2 MSTORE POP POP SWAP1 POP PUSH1 0x0 DUP2 PUSH1 0x0 ADD MLOAD SWAP1 POP PUSH1 0x6 DUP4 EQ PUSH2 0x3840 JUMPI PUSH1 0x29 PUSH1 0x0 SWAP1 SLOAD SWAP1 PUSH2 0x100 EXP SWAP1 DIV PUSH1 0xFF AND ISZERO PUSH2 0x3783 JUMPI PUSH1 0x13 PUSH1 0x1 DUP5 PUSH2 0x36A1 SWAP2 SWAP1 PUSH2 0x61B4 JUMP JUMPDEST PUSH1 0x6 DUP2 LT PUSH2 0x36B2 JUMPI PUSH2 0x36B1 PUSH2 0x60EA JUMP JUMPDEST JUMPDEST ADD SLOAD PUSH2 0x36C7 DUP7 DUP4 PUSH2 0x5048 SWAP1 SWAP2 SWAP1 PUSH4 0xFFFFFFFF AND JUMP JUMPDEST LT ISZERO PUSH2 0x3708 JUMPI PUSH1 0x40 MLOAD PUSH32 0x8C379A000000000000000000000000000000000000000000000000000000000 DUP2 MSTORE PUSH1 0x4 ADD PUSH2 0x36FF SWAP1 PUSH2 0x7518 JUMP JUMPDEST PUSH1 0x40 MLOAD DUP1 SWAP2 SUB SWAP1 REVERT JUMPDEST PUSH1 0x19 PUSH1 0x1 DUP5 PUSH2 0x3717 SWAP2 SWAP1 PUSH2 0x61B4 JUMP JUMPDEST PUSH1 0x6 DUP2 LT PUSH2 0x3728 JUMPI PUSH2 0x3727 PUSH2 0x60EA JUMP JUMPDEST JUMPDEST ADD SLOAD PUSH2 0x373D DUP7 DUP4 PUSH2 0x5048 SWAP1 SWAP2 SWAP1 PUSH4 0xFFFFFFFF AND JUMP JUMPDEST GT ISZERO PUSH2 0x377E JUMPI PUSH1 0x40 MLOAD PUSH32 0x8C379A000000000000000000000000000000000000000000000000000000000 DUP2 MSTORE PUSH1 0x4 ADD PUSH2 0x3775 SWAP1 PUSH2 0x75AA JUMP JUMPDEST PUSH1 0x40 MLOAD DUP1 SWAP2 SUB SWAP1 REVERT JUMPDEST PUSH2 0x37DB JUMP JUMPDEST PUSH1 0x21 SLOAD PUSH2 0x3799 DUP7 DUP4 PUSH2 0x5048 SWAP1 SWAP2 SWAP1 PUSH4 0xFFFFFFFF AND JUMP JUMPDEST GT ISZERO PUSH2 0x37DA JUMPI PUSH1 0x40 MLOAD PUSH32 0x8C379A000000000000000000000000000000000000000000000000000000000 DUP2 MSTORE PUSH1 0x4 ADD PUSH2 0x37D1 SWAP1 PUSH2 0x75AA JUMP JUMPDEST PUSH1 0x40 MLOAD DUP1 SWAP2 SUB SWAP1 REVERT JUMPDEST JUMPDEST DUP5 PUSH1 0x27 SLOAD LT ISZERO PUSH2 0x3820 JUMPI PUSH1 0x40 MLOAD PUSH32 0x8C379A000000000000000000000000000000000000000000000000000000000 DUP2 MSTORE PUSH1 0x4 ADD PUSH2 0x3817 SWAP1 PUSH2 0x763C JUMP JUMPDEST PUSH1 0x40 MLOAD DUP1 SWAP2 SUB SWAP1 REVERT JUMPDEST PUSH2 0x3835 DUP6 PUSH1 0x27 SLOAD PUSH2 0x4EA7 SWAP1 SWAP2 SWAP1 PUSH4 0xFFFFFFFF AND JUMP JUMPDEST PUSH1 0x27 DUP2 SWAP1 SSTORE POP PUSH2 0x38A1 JUMP JUMPDEST DUP5 PUSH1 0x28 SLOAD LT ISZERO PUSH2 0x3885 JUMPI PUSH1 0x40 MLOAD PUSH32 0x8C379A000000000000000000000000000000000000000000000000000000000 DUP2 MSTORE PUSH1 0x4 ADD PUSH2 0x387C SWAP1 PUSH2 0x76CE JUMP JUMPDEST PUSH1 0x40 MLOAD DUP1 SWAP2 SUB SWAP1 REVERT JUMPDEST PUSH2 0x389A DUP6 PUSH1 0x28 SLOAD PUSH2 0x4EA7 SWAP1 SWAP2 SWAP1 PUSH4 0xFFFFFFFF AND JUMP JUMPDEST PUSH1 0x28 DUP2 SWAP1 SSTORE POP JUMPDEST PUSH1 0x22 PUSH1 0x0 SWAP1 SLOAD SWAP1 PUSH2 0x100 EXP SWAP1 DIV PUSH1 0xFF AND ISZERO PUSH2 0x3915 JUMPI PUSH2 0x3903 CALLER DUP7 PUSH1 0xE PUSH1 0x0 SWAP1 SLOAD SWAP1 PUSH2 0x100 EXP SWAP1 DIV PUSH20 0xFFFFFFFFFFFFFFFFFFFFFFFFFFFFFFFFFFFFFFFF AND PUSH20 0xFFFFFFFFFFFFFFFFFFFFFFFFFFFFFFFFFFFFFFFF AND PUSH2 0x4F07 SWAP1 SWAP3 SWAP2 SWAP1 PUSH4 0xFFFFFFFF AND JUMP JUMPDEST PUSH1 0x1 DUP3 PUSH1 0x80 ADD SWAP1 ISZERO ISZERO SWAP1 DUP2 ISZERO ISZERO DUP2 MSTORE POP POP JUMPDEST PUSH1 0x29 PUSH1 0x1 SWAP1 SLOAD SWAP1 PUSH2 0x100 EXP SWAP1 DIV PUSH1 0xFF AND PUSH2 0x3979 JUMPI PUSH2 0x3978 CALLER ADDRESS DUP7 PUSH1 0x29 PUSH1 0x2 SWAP1 SLOAD SWAP1 PUSH2 0x100 EXP SWAP1 DIV PUSH20 0xFFFFFFFFFFFFFFFFFFFFFFFFFFFFFFFFFFFFFFFF AND PUSH20 0xFFFFFFFFFFFFFFFFFFFFFFFFFFFFFFFFFFFFFFFF AND PUSH2 0x5074 SWAP1 SWAP4 SWAP3 SWAP2 SWAP1 PUSH4 0xFFFFFFFF AND JUMP JUMPDEST JUMPDEST PUSH2 0x3996 PUSH2 0x3985 DUP7 PUSH2 0x3BC0 JUMP JUMPDEST PUSH1 0x25 SLOAD PUSH2 0x5048 SWAP1 SWAP2 SWAP1 PUSH4 0xFFFFFFFF AND JUMP JUMPDEST PUSH1 0x25 DUP2 SWAP1 SSTORE POP CALLER DUP3 PUSH1 0x20 ADD SWAP1 PUSH20 0xFFFFFFFFFFFFFFFFFFFFFFFFFFFFFFFFFFFFFFFF AND SWAP1 DUP2 PUSH20 0xFFFFFFFFFFFFFFFFFFFFFFFFFFFFFFFFFFFFFFFF AND DUP2 MSTORE POP POP TIMESTAMP DUP3 PUSH1 0x60 ADD DUP2 DUP2 MSTORE POP POP DUP5 DUP3 PUSH1 0x0 ADD MLOAD PUSH2 0x39EE SWAP2 SWAP1 PUSH2 0x76EE JUMP JUMPDEST DUP3 PUSH1 0x0 ADD DUP2 DUP2 MSTORE POP POP DUP4 DUP3 PUSH1 0x40 ADD MLOAD PUSH2 0x3A07 SWAP2 SWAP1 PUSH2 0x76EE JUMP JUMPDEST DUP3 PUSH1 0x40 ADD DUP2 DUP2 MSTORE POP POP DUP2 PUSH1 0xD PUSH1 0x0 CALLER PUSH20 0xFFFFFFFFFFFFFFFFFFFFFFFFFFFFFFFFFFFFFFFF AND PUSH20 0xFFFFFFFFFFFFFFFFFFFFFFFFFFFFFFFFFFFFFFFF AND DUP2 MSTORE PUSH1 0x20 ADD SWAP1 DUP2 MSTORE PUSH1 0x20 ADD PUSH1 0x0 KECCAK256 PUSH1 0x0 DUP3 ADD MLOAD DUP2 PUSH1 0x0 ADD SSTORE PUSH1 0x20 DUP3 ADD MLOAD DUP2 PUSH1 0x1 ADD PUSH1 0x0 PUSH2 0x100 EXP DUP2 SLOAD DUP2 PUSH20 0xFFFFFFFFFFFFFFFFFFFFFFFFFFFFFFFFFFFFFFFF MUL NOT AND SWAP1 DUP4 PUSH20 0xFFFFFFFFFFFFFFFFFFFFFFFFFFFFFFFFFFFFFFFF AND MUL OR SWAP1 SSTORE POP PUSH1 0x40 DUP3 ADD MLOAD DUP2 PUSH1 0x2 ADD SSTORE PUSH1 0x60 DUP3 ADD MLOAD DUP2 PUSH1 0x3 ADD SSTORE PUSH1 0x80 DUP3 ADD MLOAD DUP2 PUSH1 0x4 ADD PUSH1 0x0 PUSH2 0x100 EXP DUP2 SLOAD DUP2 PUSH1 0xFF MUL NOT AND SWAP1 DUP4 ISZERO ISZERO MUL OR SWAP1 SSTORE POP PUSH1 0xA0 DUP3 ADD MLOAD DUP2 PUSH1 0x4 ADD PUSH1 0x1 PUSH2 0x100 EXP DUP2 SLOAD DUP2 PUSH1 0xFF MUL NOT AND SWAP1 DUP4 ISZERO ISZERO MUL OR SWAP1 SSTORE POP SWAP1 POP POP PUSH2 0x3B0D DUP6 PUSH1 0x20 SLOAD PUSH2 0x5048 SWAP1 SWAP2 SWAP1 PUSH4 0xFFFFFFFF AND JUMP JUMPDEST PUSH1 0x20 DUP2 SWAP1 SSTORE POP CALLER PUSH20 0xFFFFFFFFFFFFFFFFFFFFFFFFFFFFFFFFFFFFFFFF AND PUSH32 0x9DB36B09FDFDBC55F35F19E1794139CDD96254E7ED10817263E6DFF5AFF27164 DUP7 TIMESTAMP ADDRESS PUSH1 0x40 MLOAD PUSH2 0x3B5D SWAP4 SWAP3 SWAP2 SWAP1 PUSH2 0x7722 JUMP JUMPDEST PUSH1 0x40 MLOAD DUP1 SWAP2 SUB SWAP1 LOG2 POP POP POP POP POP JUMP JUMPDEST PUSH1 0x29 PUSH1 0x1 SWAP1 SLOAD SWAP1 PUSH2 0x100 EXP SWAP1 DIV PUSH1 0xFF AND DUP2 JUMP JUMPDEST PUSH1 0x1 PUSH1 0x20 MSTORE DUP1 PUSH1 0x0 MSTORE PUSH1 0x40 PUSH1 0x0 KECCAK256 PUSH1 0x0 SWAP2 POP SLOAD SWAP1 PUSH2 0x100 EXP SWAP1 DIV PUSH1 0xFF AND DUP2 JUMP JUMPDEST PUSH1 0x13 DUP2 PUSH1 0x6 DUP2 LT PUSH2 0x3BAF JUMPI PUSH1 0x0 DUP1 REVERT JUMPDEST ADD PUSH1 0x0 SWAP2 POP SWAP1 POP SLOAD DUP2 JUMP JUMPDEST PUSH1 0x24 SLOAD DUP2 JUMP JUMPDEST PUSH1 0x0 DUP1 PUSH2 0x3C20 PUSH2 0x2710 PUSH2 0x3C12 PUSH1 0x24 SLOAD PUSH2 0x3C04 PUSH1 0xF SLOAD PUSH1 0xA PUSH2 0x3BE1 SWAP2 SWAP1 PUSH2 0x70CF JUMP JUMPDEST PUSH2 0x3BF6 PUSH1 0x11 SLOAD DUP11 PUSH2 0x4E7B SWAP1 SWAP2 SWAP1 PUSH4 0xFFFFFFFF AND JUMP JUMPDEST PUSH2 0x4E91 SWAP1 SWAP2 SWAP1 PUSH4 0xFFFFFFFF AND JUMP JUMPDEST PUSH2 0x4E7B SWAP1 SWAP2 SWAP1 PUSH4 0xFFFFFFFF AND JUMP JUMPDEST PUSH2 0x4E91 SWAP1 SWAP2 SWAP1 PUSH4 0xFFFFFFFF AND JUMP JUMPDEST SWAP1 POP DUP1 SWAP2 POP POP SWAP2 SWAP1 POP JUMP JUMPDEST PUSH1 0x0 DUP1 PUSH1 0x0 DUP1 PUSH1 0x0 DUP1 PUSH1 0x0 PUSH1 0xD PUSH1 0x0 DUP10 PUSH20 0xFFFFFFFFFFFFFFFFFFFFFFFFFFFFFFFFFFFFFFFF AND PUSH20 0xFFFFFFFFFFFFFFFFFFFFFFFFFFFFFFFFFFFFFFFF AND DUP2 MSTORE PUSH1 0x20 ADD SWAP1 DUP2 MSTORE PUSH1 0x20 ADD PUSH1 0x0 KECCAK256 PUSH1 0x40 MLOAD DUP1 PUSH1 0xC0 ADD PUSH1 0x40 MSTORE SWAP1 DUP2 PUSH1 0x0 DUP3 ADD SLOAD DUP2 MSTORE PUSH1 0x20 ADD PUSH1 0x1 DUP3 ADD PUSH1 0x0 SWAP1 SLOAD SWAP1 PUSH2 0x100 EXP SWAP1 DIV PUSH20 0xFFFFFFFFFFFFFFFFFFFFFFFFFFFFFFFFFFFFFFFF AND PUSH20 0xFFFFFFFFFFFFFFFFFFFFFFFFFFFFFFFFFFFFFFFF AND PUSH20 0xFFFFFFFFFFFFFFFFFFFFFFFFFFFFFFFFFFFFFFFF AND DUP2 MSTORE PUSH1 0x20 ADD PUSH1 0x2 DUP3 ADD SLOAD DUP2 MSTORE PUSH1 0x20 ADD PUSH1 0x3 DUP3 ADD SLOAD DUP2 MSTORE PUSH1 0x20 ADD PUSH1 0x4 DUP3 ADD PUSH1 0x0 SWAP1 SLOAD SWAP1 PUSH2 0x100 EXP SWAP1 DIV PUSH1 0xFF AND ISZERO ISZERO ISZERO ISZERO DUP2 MSTORE PUSH1 0x20 ADD PUSH1 0x4 DUP3 ADD PUSH1 0x1 SWAP1 SLOAD SWAP1 PUSH2 0x100 EXP SWAP1 DIV PUSH1 0xFF AND ISZERO ISZERO ISZERO ISZERO DUP2 MSTORE POP POP SWAP1 POP DUP1 PUSH1 0x0 ADD MLOAD DUP2 PUSH1 0x20 ADD MLOAD DUP3 PUSH1 0x40 ADD MLOAD DUP4 PUSH1 0x60 ADD MLOAD DUP5 PUSH1 0x80 ADD MLOAD DUP6 PUSH1 0xA0 ADD MLOAD SWAP7 POP SWAP7 POP SWAP7 POP SWAP7 POP SWAP7 POP SWAP7 POP POP SWAP2 SWAP4 SWAP6 POP SWAP2 SWAP4 SWAP6 JUMP JUMPDEST PUSH1 0x9 PUSH1 0x0 SWAP1 SLOAD SWAP1 PUSH2 0x100 EXP SWAP1 DIV PUSH20 0xFFFFFFFFFFFFFFFFFFFFFFFFFFFFFFFFFFFFFFFF AND PUSH20 0xFFFFFFFFFFFFFFFFFFFFFFFFFFFFFFFFFFFFFFFF AND CALLER PUSH20 0xFFFFFFFFFFFFFFFFFFFFFFFFFFFFFFFFFFFFFFFF AND EQ PUSH2 0x3DF0 JUMPI PUSH1 0x40 MLOAD PUSH32 0x8C379A000000000000000000000000000000000000000000000000000000000 DUP2 MSTORE PUSH1 0x4 ADD PUSH2 0x3DE7 SWAP1 PUSH2 0x605E JUMP JUMPDEST PUSH1 0x40 MLOAD DUP1 SWAP2 SUB SWAP1 REVERT JUMPDEST PUSH1 0x8 SLOAD TIMESTAMP GT ISZERO PUSH2 0x3DFF JUMPI PUSH1 0x0 DUP1 REVERT JUMPDEST DUP1 PUSH1 0x23 PUSH1 0x0 PUSH2 0x100 EXP DUP2 SLOAD DUP2 PUSH20 0xFFFFFFFFFFFFFFFFFFFFFFFFFFFFFFFFFFFFFFFF MUL NOT AND SWAP1 DUP4 PUSH20 0xFFFFFFFFFFFFFFFFFFFFFFFFFFFFFFFFFFFFFFFF AND MUL OR SWAP1 SSTORE POP POP JUMP JUMPDEST PUSH1 0x4 DUP1 SLOAD PUSH2 0x3E50 SWAP1 PUSH2 0x6774 JUMP JUMPDEST DUP1 PUSH1 0x1F ADD PUSH1 0x20 DUP1 SWAP2 DIV MUL PUSH1 0x20 ADD PUSH1 0x40 MLOAD SWAP1 DUP2 ADD PUSH1 0x40 MSTORE DUP1 SWAP3 SWAP2 SWAP1 DUP2 DUP2 MSTORE PUSH1 0x20 ADD DUP3 DUP1 SLOAD PUSH2 0x3E7C SWAP1 PUSH2 0x6774 JUMP JUMPDEST DUP1 ISZERO PUSH2 0x3EC9 JUMPI DUP1 PUSH1 0x1F LT PUSH2 0x3E9E JUMPI PUSH2 0x100 DUP1 DUP4 SLOAD DIV MUL DUP4 MSTORE SWAP2 PUSH1 0x20 ADD SWAP2 PUSH2 0x3EC9 JUMP JUMPDEST DUP3 ADD SWAP2 SWAP1 PUSH1 0x0 MSTORE PUSH1 0x20 PUSH1 0x0 KECCAK256 SWAP1 JUMPDEST DUP2 SLOAD DUP2 MSTORE SWAP1 PUSH1 0x1 ADD SWAP1 PUSH1 0x20 ADD DUP1 DUP4 GT PUSH2 0x3EAC JUMPI DUP3 SWAP1 SUB PUSH1 0x1F AND DUP3 ADD SWAP2 JUMPDEST POP POP POP POP POP DUP2 JUMP JUMPDEST PUSH1 0x8 SLOAD TIMESTAMP GT ISZERO PUSH2 0x3EE0 JUMPI PUSH1 0x0 DUP1 REVERT JUMPDEST PUSH1 0x26 PUSH1 0x0 SWAP1 SLOAD SWAP1 PUSH2 0x100 EXP SWAP1 DIV PUSH20 0xFFFFFFFFFFFFFFFFFFFFFFFFFFFFFFFFFFFFFFFF AND PUSH20 0xFFFFFFFFFFFFFFFFFFFFFFFFFFFFFFFFFFFFFFFF AND CALLER PUSH20 0xFFFFFFFFFFFFFFFFFFFFFFFFFFFFFFFFFFFFFFFF AND EQ PUSH2 0x3F70 JUMPI PUSH1 0x40 MLOAD PUSH32 0x8C379A000000000000000000000000000000000000000000000000000000000 DUP2 MSTORE PUSH1 0x4 ADD PUSH2 0x3F67 SWAP1 PUSH2 0x62A5 JUMP JUMPDEST PUSH1 0x40 MLOAD DUP1 SWAP2 SUB SWAP1 REVERT JUMPDEST DUP2 PUSH1 0x29 PUSH1 0x1 PUSH2 0x100 EXP DUP2 SLOAD DUP2 PUSH1 0xFF MUL NOT AND SWAP1 DUP4 ISZERO ISZERO MUL OR SWAP1 SSTORE POP DUP2 PUSH2 0x3FD1 JUMPI DUP1 PUSH1 0x29 PUSH1 0x2 PUSH2 0x100 EXP DUP2 SLOAD DUP2 PUSH20 0xFFFFFFFFFFFFFFFFFFFFFFFFFFFFFFFFFFFFFFFF MUL NOT AND SWAP1 DUP4 PUSH20 0xFFFFFFFFFFFFFFFFFFFFFFFFFFFFFFFFFFFFFFFF AND MUL OR SWAP1 SSTORE POP JUMPDEST POP POP JUMP JUMPDEST PUSH1 0x9 PUSH1 0x0 SWAP1 SLOAD SWAP1 PUSH2 0x100 EXP SWAP1 DIV PUSH20 0xFFFFFFFFFFFFFFFFFFFFFFFFFFFFFFFFFFFFFFFF AND PUSH20 0xFFFFFFFFFFFFFFFFFFFFFFFFFFFFFFFFFFFFFFFF AND CALLER PUSH20 0xFFFFFFFFFFFFFFFFFFFFFFFFFFFFFFFFFFFFFFFF AND EQ PUSH2 0x4065 JUMPI PUSH1 0x40 MLOAD PUSH32 0x8C379A000000000000000000000000000000000000000000000000000000000 DUP2 MSTORE PUSH1 0x4 ADD PUSH2 0x405C SWAP1 PUSH2 0x605E JUMP JUMPDEST PUSH1 0x40 MLOAD DUP1 SWAP2 SUB SWAP1 REVERT JUMPDEST PUSH1 0x8 SLOAD TIMESTAMP GT ISZERO PUSH2 0x4074 JUMPI PUSH1 0x0 DUP1 REVERT JUMPDEST PUSH2 0x2710 DUP2 LT DUP1 ISZERO PUSH2 0x4085 JUMPI POP PUSH1 0x0 DUP2 GT JUMPDEST PUSH2 0x40C4 JUMPI PUSH1 0x40 MLOAD PUSH32 0x8C379A000000000000000000000000000000000000000000000000000000000 DUP2 MSTORE PUSH1 0x4 ADD PUSH2 0x40BB SWAP1 PUSH2 0x77A5 JUMP JUMPDEST PUSH1 0x40 MLOAD DUP1 SWAP2 SUB SWAP1 REVERT JUMPDEST DUP1 PUSH1 0x24 DUP2 SWAP1 SSTORE POP PUSH32 0xCC8E0D099B6B6A1A4AE089DEC1B2C29E7DF166EB8F103F55064427F6E4596B09 DUP2 PUSH1 0x40 MLOAD PUSH2 0x40FA SWAP2 SWAP1 PUSH2 0x57BC JUMP JUMPDEST PUSH1 0x40 MLOAD DUP1 SWAP2 SUB SWAP1 LOG1 POP JUMP JUMPDEST PUSH1 0x6 SLOAD DUP2 JUMP JUMPDEST PUSH1 0x22 PUSH1 0x0 SWAP1 SLOAD SWAP1 PUSH2 0x100 EXP SWAP1 DIV PUSH1 0xFF AND DUP2 JUMP JUMPDEST PUSH1 0x0 PUSH1 0x20 SLOAD PUSH1 0x21 SLOAD PUSH2 0x4130 SWAP2 SWAP1 PUSH2 0x61B4 JUMP JUMPDEST SWAP1 POP SWAP1 JUMP JUMPDEST PUSH1 0x0 PUSH2 0x413F PUSH2 0x15EB JUMP JUMPDEST ISZERO PUSH2 0x419C JUMPI PUSH2 0x414F PUSH1 0x1F SLOAD PUSH2 0x32ED JUMP JUMPDEST PUSH2 0x415A PUSH1 0x20 SLOAD PUSH2 0x32ED JUMP JUMPDEST LT ISZERO PUSH2 0x419B JUMPI PUSH1 0x40 MLOAD PUSH32 0x8C379A000000000000000000000000000000000000000000000000000000000 DUP2 MSTORE PUSH1 0x4 ADD PUSH2 0x4192 SWAP1 PUSH2 0x7837 JUMP JUMPDEST PUSH1 0x40 MLOAD DUP1 SWAP2 SUB SWAP1 REVERT JUMPDEST JUMPDEST PUSH1 0x1 SWAP1 POP SWAP1 JUMP JUMPDEST PUSH1 0x10 PUSH1 0x0 SWAP1 SLOAD SWAP1 PUSH2 0x100 EXP SWAP1 DIV PUSH1 0xFF AND DUP2 JUMP JUMPDEST PUSH1 0x12 SLOAD DUP2 JUMP JUMPDEST PUSH1 0x9 PUSH1 0x0 SWAP1 SLOAD SWAP1 PUSH2 0x100 EXP SWAP1 DIV PUSH20 0xFFFFFFFFFFFFFFFFFFFFFFFFFFFFFFFFFFFFFFFF AND DUP2 JUMP JUMPDEST PUSH1 0x9 PUSH1 0x0 SWAP1 SLOAD SWAP1 PUSH2 0x100 EXP SWAP1 DIV PUSH20 0xFFFFFFFFFFFFFFFFFFFFFFFFFFFFFFFFFFFFFFFF AND PUSH20 0xFFFFFFFFFFFFFFFFFFFFFFFFFFFFFFFFFFFFFFFF AND CALLER PUSH20 0xFFFFFFFFFFFFFFFFFFFFFFFFFFFFFFFFFFFFFFFF AND EQ PUSH2 0x4272 JUMPI PUSH1 0x40 MLOAD PUSH32 0x8C379A000000000000000000000000000000000000000000000000000000000 DUP2 MSTORE PUSH1 0x4 ADD PUSH2 0x4269 SWAP1 PUSH2 0x605E JUMP JUMPDEST PUSH1 0x40 MLOAD DUP1 SWAP2 SUB SWAP1 REVERT JUMPDEST PUSH2 0x427A PUSH2 0x2032 JUMP JUMPDEST PUSH2 0x42B9 JUMPI PUSH1 0x40 MLOAD PUSH32 0x8C379A000000000000000000000000000000000000000000000000000000000 DUP2 MSTORE PUSH1 0x4 ADD PUSH2 0x42B0 SWAP1 PUSH2 0x63A3 JUMP JUMPDEST PUSH1 0x40 MLOAD DUP1 SWAP2 SUB SWAP1 REVERT JUMPDEST PUSH1 0x10 PUSH1 0x0 SWAP1 SLOAD SWAP1 PUSH2 0x100 EXP SWAP1 DIV PUSH1 0xFF AND ISZERO PUSH2 0x42D3 JUMPI PUSH1 0x0 DUP1 REVERT JUMPDEST PUSH1 0x0 PUSH2 0x42DD PUSH2 0x15EB JUMP JUMPDEST DUP1 ISZERO PUSH2 0x42FC JUMPI POP PUSH2 0x42EF PUSH1 0x1F SLOAD PUSH2 0x32ED JUMP JUMPDEST PUSH2 0x42FA PUSH1 0x20 SLOAD PUSH2 0x32ED JUMP JUMPDEST LT JUMPDEST ISZERO PUSH2 0x430B JUMPI PUSH1 0x21 SLOAD SWAP1 POP PUSH2 0x4325 JUMP JUMPDEST PUSH2 0x4322 PUSH1 0x20 SLOAD PUSH1 0x21 SLOAD PUSH2 0x4EA7 SWAP1 SWAP2 SWAP1 PUSH4 0xFFFFFFFF AND JUMP JUMPDEST SWAP1 POP JUMPDEST PUSH1 0x0 DUP2 GT ISZERO PUSH2 0x43B9 JUMPI PUSH1 0x1 PUSH1 0x10 PUSH1 0x0 PUSH2 0x100 EXP DUP2 SLOAD DUP2 PUSH1 0xFF MUL NOT AND SWAP1 DUP4 ISZERO ISZERO MUL OR SWAP1 SSTORE POP PUSH2 0x43B8 PUSH1 0x22 PUSH1 0x1 SWAP1 SLOAD SWAP1 PUSH2 0x100 EXP SWAP1 DIV PUSH20 0xFFFFFFFFFFFFFFFFFFFFFFFFFFFFFFFFFFFFFFFF AND DUP3 PUSH1 0xE PUSH1 0x0 SWAP1 SLOAD SWAP1 PUSH2 0x100 EXP SWAP1 DIV PUSH20 0xFFFFFFFFFFFFFFFFFFFFFFFFFFFFFFFFFFFFFFFF AND PUSH20 0xFFFFFFFFFFFFFFFFFFFFFFFFFFFFFFFFFFFFFFFF AND PUSH2 0x4F07 SWAP1 SWAP3 SWAP2 SWAP1 PUSH4 0xFFFFFFFF AND JUMP JUMPDEST JUMPDEST POP JUMP JUMPDEST PUSH1 0xE PUSH1 0x0 SWAP1 SLOAD SWAP1 PUSH2 0x100 EXP SWAP1 DIV PUSH20 0xFFFFFFFFFFFFFFFFFFFFFFFFFFFFFFFFFFFFFFFF AND DUP2 JUMP JUMPDEST PUSH1 0x7 SLOAD DUP2 JUMP JUMPDEST PUSH1 0x26 PUSH1 0x0 SWAP1 SLOAD SWAP1 PUSH2 0x100 EXP SWAP1 DIV PUSH20 0xFFFFFFFFFFFFFFFFFFFFFFFFFFFFFFFFFFFFFFFF AND DUP2 JUMP JUMPDEST PUSH1 0x9 PUSH1 0x0 SWAP1 SLOAD SWAP1 PUSH2 0x100 EXP SWAP1 DIV PUSH20 0xFFFFFFFFFFFFFFFFFFFFFFFFFFFFFFFFFFFFFFFF AND PUSH20 0xFFFFFFFFFFFFFFFFFFFFFFFFFFFFFFFFFFFFFFFF AND CALLER PUSH20 0xFFFFFFFFFFFFFFFFFFFFFFFFFFFFFFFFFFFFFFFF AND EQ PUSH2 0x449E JUMPI PUSH1 0x40 MLOAD PUSH32 0x8C379A000000000000000000000000000000000000000000000000000000000 DUP2 MSTORE PUSH1 0x4 ADD PUSH2 0x4495 SWAP1 PUSH2 0x605E JUMP JUMPDEST PUSH1 0x40 MLOAD DUP1 SWAP2 SUB SWAP1 REVERT JUMPDEST PUSH1 0x8 SLOAD TIMESTAMP GT ISZERO PUSH2 0x44AD JUMPI PUSH1 0x0 DUP1 REVERT JUMPDEST PUSH1 0x0 DUP1 PUSH1 0x0 SWAP1 POP JUMPDEST DUP3 MLOAD DUP2 LT ISZERO PUSH2 0x484A JUMPI PUSH1 0x0 PUSH20 0xFFFFFFFFFFFFFFFFFFFFFFFFFFFFFFFFFFFFFFFF AND DUP4 DUP3 DUP2 MLOAD DUP2 LT PUSH2 0x44E9 JUMPI PUSH2 0x44E8 PUSH2 0x60EA JUMP JUMPDEST JUMPDEST PUSH1 0x20 MUL PUSH1 0x20 ADD ADD MLOAD PUSH20 0xFFFFFFFFFFFFFFFFFFFFFFFFFFFFFFFFFFFFFFFF AND SUB PUSH2 0x4547 JUMPI PUSH1 0x40 MLOAD PUSH32 0x8C379A000000000000000000000000000000000000000000000000000000000 DUP2 MSTORE PUSH1 0x4 ADD PUSH2 0x453E SWAP1 PUSH2 0x78A3 JUMP JUMPDEST PUSH1 0x40 MLOAD DUP1 SWAP2 SUB SWAP1 REVERT JUMPDEST PUSH1 0x1 ISZERO ISZERO PUSH1 0x1 PUSH1 0x0 DUP6 DUP5 DUP2 MLOAD DUP2 LT PUSH2 0x4562 JUMPI PUSH2 0x4561 PUSH2 0x60EA JUMP JUMPDEST JUMPDEST PUSH1 0x20 MUL PUSH1 0x20 ADD ADD MLOAD PUSH20 0xFFFFFFFFFFFFFFFFFFFFFFFFFFFFFFFFFFFFFFFF AND PUSH20 0xFFFFFFFFFFFFFFFFFFFFFFFFFFFFFFFFFFFFFFFF AND DUP2 MSTORE PUSH1 0x20 ADD SWAP1 DUP2 MSTORE PUSH1 0x20 ADD PUSH1 0x0 KECCAK256 PUSH1 0x0 SWAP1 SLOAD SWAP1 PUSH2 0x100 EXP SWAP1 DIV PUSH1 0xFF AND ISZERO ISZERO EQ PUSH2 0x4837 JUMPI PUSH1 0x1 DUP1 PUSH1 0x0 DUP6 DUP5 DUP2 MLOAD DUP2 LT PUSH2 0x45D1 JUMPI PUSH2 0x45D0 PUSH2 0x60EA JUMP JUMPDEST JUMPDEST PUSH1 0x20 MUL PUSH1 0x20 ADD ADD MLOAD PUSH20 0xFFFFFFFFFFFFFFFFFFFFFFFFFFFFFFFFFFFFFFFF AND PUSH20 0xFFFFFFFFFFFFFFFFFFFFFFFFFFFFFFFFFFFFFFFF AND DUP2 MSTORE PUSH1 0x20 ADD SWAP1 DUP2 MSTORE PUSH1 0x20 ADD PUSH1 0x0 KECCAK256 PUSH1 0x0 PUSH2 0x100 EXP DUP2 SLOAD DUP2 PUSH1 0xFF MUL NOT AND SWAP1 DUP4 ISZERO ISZERO MUL OR SWAP1 SSTORE POP PUSH1 0xA PUSH1 0x40 MLOAD DUP1 PUSH1 0x60 ADD PUSH1 0x40 MSTORE DUP1 PUSH1 0x0 ISZERO ISZERO DUP2 MSTORE PUSH1 0x20 ADD DUP6 DUP5 DUP2 MLOAD DUP2 LT PUSH2 0x4653 JUMPI PUSH2 0x4652 PUSH2 0x60EA JUMP JUMPDEST JUMPDEST PUSH1 0x20 MUL PUSH1 0x20 ADD ADD MLOAD PUSH20 0xFFFFFFFFFFFFFFFFFFFFFFFFFFFFFFFFFFFFFFFF AND DUP2 MSTORE PUSH1 0x20 ADD PUSH1 0x6 DUP2 MSTORE POP SWAP1 DUP1 PUSH1 0x1 DUP2 SLOAD ADD DUP1 DUP3 SSTORE DUP1 SWAP2 POP POP PUSH1 0x1 SWAP1 SUB SWAP1 PUSH1 0x0 MSTORE PUSH1 0x20 PUSH1 0x0 KECCAK256 SWAP1 PUSH1 0x2 MUL ADD PUSH1 0x0 SWAP1 SWAP2 SWAP1 SWAP2 SWAP1 SWAP2 POP PUSH1 0x0 DUP3 ADD MLOAD DUP2 PUSH1 0x0 ADD PUSH1 0x0 PUSH2 0x100 EXP DUP2 SLOAD DUP2 PUSH1 0xFF MUL NOT AND SWAP1 DUP4 ISZERO ISZERO MUL OR SWAP1 SSTORE POP PUSH1 0x20 DUP3 ADD MLOAD DUP2 PUSH1 0x0 ADD PUSH1 0x1 PUSH2 0x100 EXP DUP2 SLOAD DUP2 PUSH20 0xFFFFFFFFFFFFFFFFFFFFFFFFFFFFFFFFFFFFFFFF MUL NOT AND SWAP1 DUP4 PUSH20 0xFFFFFFFFFFFFFFFFFFFFFFFFFFFFFFFFFFFFFFFF AND MUL OR SWAP1 SSTORE POP PUSH1 0x40 DUP3 ADD MLOAD DUP2 PUSH1 0x1 ADD SSTORE POP POP PUSH1 0x6 PUSH1 0x2 PUSH1 0x0 DUP6 DUP5 DUP2 MLOAD DUP2 LT PUSH2 0x4730 JUMPI PUSH2 0x472F PUSH2 0x60EA JUMP JUMPDEST JUMPDEST PUSH1 0x20 MUL PUSH1 0x20 ADD ADD MLOAD PUSH20 0xFFFFFFFFFFFFFFFFFFFFFFFFFFFFFFFFFFFFFFFF AND PUSH20 0xFFFFFFFFFFFFFFFFFFFFFFFFFFFFFFFFFFFFFFFF AND DUP2 MSTORE PUSH1 0x20 ADD SWAP1 DUP2 MSTORE PUSH1 0x20 ADD PUSH1 0x0 KECCAK256 DUP2 SWAP1 SSTORE POP DUP2 PUSH1 0x3 PUSH1 0x0 DUP6 DUP5 DUP2 MLOAD DUP2 LT PUSH2 0x478E JUMPI PUSH2 0x478D PUSH2 0x60EA JUMP JUMPDEST JUMPDEST PUSH1 0x20 MUL PUSH1 0x20 ADD ADD MLOAD PUSH20 0xFFFFFFFFFFFFFFFFFFFFFFFFFFFFFFFFFFFFFFFF AND PUSH20 0xFFFFFFFFFFFFFFFFFFFFFFFFFFFFFFFFFFFFFFFF AND DUP2 MSTORE PUSH1 0x20 ADD SWAP1 DUP2 MSTORE PUSH1 0x20 ADD PUSH1 0x0 KECCAK256 DUP2 SWAP1 SSTORE POP PUSH1 0x1 DUP3 PUSH2 0x47E1 SWAP2 SWAP1 PUSH2 0x76EE JUMP JUMPDEST SWAP2 POP PUSH32 0xC4B48E75A1F7AB0A9A2F786B5D6C1F7789020403BFF177FB54D46EDB89CCC00 DUP4 DUP3 DUP2 MLOAD DUP2 LT PUSH2 0x4817 JUMPI PUSH2 0x4816 PUSH2 0x60EA JUMP JUMPDEST JUMPDEST PUSH1 0x20 MUL PUSH1 0x20 ADD ADD MLOAD ADDRESS PUSH1 0x40 MLOAD PUSH2 0x482E SWAP3 SWAP2 SWAP1 PUSH2 0x61E8 JUMP JUMPDEST PUSH1 0x40 MLOAD DUP1 SWAP2 SUB SWAP1 LOG1 JUMPDEST DUP1 DUP1 PUSH2 0x4842 SWAP1 PUSH2 0x6211 JUMP JUMPDEST SWAP2 POP POP PUSH2 0x44B5 JUMP JUMPDEST POP PUSH2 0x4860 DUP2 PUSH1 0x7 SLOAD PUSH2 0x5048 SWAP1 SWAP2 SWAP1 PUSH4 0xFFFFFFFF AND JUMP JUMPDEST PUSH1 0x7 DUP2 SWAP1 SSTORE POP POP POP JUMP JUMPDEST PUSH1 0x0 PUSH2 0x4875 DUP3 PUSH2 0x1A70 JUMP JUMPDEST ISZERO PUSH2 0x48C1 JUMPI PUSH1 0x2 PUSH1 0x0 DUP4 PUSH20 0xFFFFFFFFFFFFFFFFFFFFFFFFFFFFFFFFFFFFFFFF AND PUSH20 0xFFFFFFFFFFFFFFFFFFFFFFFFFFFFFFFFFFFFFFFF AND DUP2 MSTORE PUSH1 0x20 ADD SWAP1 DUP2 MSTORE PUSH1 0x20 ADD PUSH1 0x0 KECCAK256 SLOAD SWAP1 POP PUSH2 0x48C6 JUMP JUMPDEST PUSH1 0x0 SWAP1 POP JUMPDEST SWAP2 SWAP1 POP JUMP JUMPDEST PUSH1 0x22 PUSH1 0x1 SWAP1 SLOAD SWAP1 PUSH2 0x100 EXP SWAP1 DIV PUSH20 0xFFFFFFFFFFFFFFFFFFFFFFFFFFFFFFFFFFFFFFFF AND DUP2 JUMP JUMPDEST PUSH1 0x22 PUSH1 0x0 SWAP1 SLOAD SWAP1 PUSH2 0x100 EXP SWAP1 DIV PUSH1 0xFF AND ISZERO PUSH2 0x4941 JUMPI PUSH1 0x40 MLOAD PUSH32 0x8C379A000000000000000000000000000000000000000000000000000000000 DUP2 MSTORE PUSH1 0x4 ADD PUSH2 0x4938 SWAP1 PUSH2 0x64BD JUMP JUMPDEST PUSH1 0x40 MLOAD DUP1 SWAP2 SUB SWAP1 REVERT JUMPDEST PUSH2 0x4949 PUSH2 0x2032 JUMP JUMPDEST PUSH2 0x4988 JUMPI PUSH1 0x40 MLOAD PUSH32 0x8C379A000000000000000000000000000000000000000000000000000000000 DUP2 MSTORE PUSH1 0x4 ADD PUSH2 0x497F SWAP1 PUSH2 0x63A3 JUMP JUMPDEST PUSH1 0x40 MLOAD DUP1 SWAP2 SUB SWAP1 REVERT JUMPDEST PUSH1 0xE PUSH1 0x14 SWAP1 SLOAD SWAP1 PUSH2 0x100 EXP SWAP1 DIV PUSH1 0xFF AND PUSH2 0x49D7 JUMPI PUSH1 0x40 MLOAD PUSH32 0x8C379A000000000000000000000000000000000000000000000000000000000 DUP2 MSTORE PUSH1 0x4 ADD PUSH2 0x49CE SWAP1 PUSH2 0x7166 JUMP JUMPDEST PUSH1 0x40 MLOAD DUP1 SWAP2 SUB SWAP1 REVERT JUMPDEST PUSH2 0x49DF PUSH2 0x4EBD JUMP JUMPDEST PUSH2 0x49E7 PUSH2 0x4FEF JUMP JUMPDEST PUSH1 0x0 PUSH1 0xD PUSH1 0x0 CALLER PUSH20 0xFFFFFFFFFFFFFFFFFFFFFFFFFFFFFFFFFFFFFFFF AND PUSH20 0xFFFFFFFFFFFFFFFFFFFFFFFFFFFFFFFFFFFFFFFF AND DUP2 MSTORE PUSH1 0x20 ADD SWAP1 DUP2 MSTORE PUSH1 0x20 ADD PUSH1 0x0 KECCAK256 PUSH1 0x0 ADD SLOAD EQ ISZERO DUP1 ISZERO PUSH2 0x4A87 JUMPI POP PUSH1 0xD PUSH1 0x0 CALLER PUSH20 0xFFFFFFFFFFFFFFFFFFFFFFFFFFFFFFFFFFFFFFFF AND PUSH20 0xFFFFFFFFFFFFFFFFFFFFFFFFFFFFFFFFFFFFFFFF AND DUP2 MSTORE PUSH1 0x20 ADD SWAP1 DUP2 MSTORE PUSH1 0x20 ADD PUSH1 0x0 KECCAK256 PUSH1 0x4 ADD PUSH1 0x0 SWAP1 SLOAD SWAP1 PUSH2 0x100 EXP SWAP1 DIV PUSH1 0xFF AND ISZERO JUMPDEST PUSH2 0x4AC6 JUMPI PUSH1 0x40 MLOAD PUSH32 0x8C379A000000000000000000000000000000000000000000000000000000000 DUP2 MSTORE PUSH1 0x4 ADD PUSH2 0x4ABD SWAP1 PUSH2 0x65BB JUMP JUMPDEST PUSH1 0x40 MLOAD DUP1 SWAP2 SUB SWAP1 REVERT JUMPDEST PUSH2 0x4ACE PUSH2 0x4135 JUMP JUMPDEST PUSH2 0x4B0D JUMPI PUSH1 0x40 MLOAD PUSH32 0x8C379A000000000000000000000000000000000000000000000000000000000 DUP2 MSTORE PUSH1 0x4 ADD PUSH2 0x4B04 SWAP1 PUSH2 0x790F JUMP JUMPDEST PUSH1 0x40 MLOAD DUP1 SWAP2 SUB SWAP1 REVERT JUMPDEST CALLER PUSH20 0xFFFFFFFFFFFFFFFFFFFFFFFFFFFFFFFFFFFFFFFF AND PUSH1 0xD PUSH1 0x0 CALLER PUSH20 0xFFFFFFFFFFFFFFFFFFFFFFFFFFFFFFFFFFFFFFFF AND PUSH20 0xFFFFFFFFFFFFFFFFFFFFFFFFFFFFFFFFFFFFFFFF AND DUP2 MSTORE PUSH1 0x20 ADD SWAP1 DUP2 MSTORE PUSH1 0x20 ADD PUSH1 0x0 KECCAK256 PUSH1 0x1 ADD PUSH1 0x0 SWAP1 SLOAD SWAP1 PUSH2 0x100 EXP SWAP1 DIV PUSH20 0xFFFFFFFFFFFFFFFFFFFFFFFFFFFFFFFFFFFFFFFF AND PUSH20 0xFFFFFFFFFFFFFFFFFFFFFFFFFFFFFFFFFFFFFFFF AND EQ PUSH2 0x4BDD JUMPI PUSH1 0x40 MLOAD PUSH32 0x8C379A000000000000000000000000000000000000000000000000000000000 DUP2 MSTORE PUSH1 0x4 ADD PUSH2 0x4BD4 SWAP1 PUSH2 0x79A1 JUMP JUMPDEST PUSH1 0x40 MLOAD DUP1 SWAP2 SUB SWAP1 REVERT JUMPDEST PUSH1 0x1 PUSH1 0xD PUSH1 0x0 CALLER PUSH20 0xFFFFFFFFFFFFFFFFFFFFFFFFFFFFFFFFFFFFFFFF AND PUSH20 0xFFFFFFFFFFFFFFFFFFFFFFFFFFFFFFFFFFFFFFFF AND DUP2 MSTORE PUSH1 0x20 ADD SWAP1 DUP2 MSTORE PUSH1 0x20 ADD PUSH1 0x0 KECCAK256 PUSH1 0x4 ADD PUSH1 0x0 PUSH2 0x100 EXP DUP2 SLOAD DUP2 PUSH1 0xFF MUL NOT AND SWAP1 DUP4 ISZERO ISZERO MUL OR SWAP1 SSTORE POP PUSH2 0x4CC7 CALLER PUSH1 0xD PUSH1 0x0 CALLER PUSH20 0xFFFFFFFFFFFFFFFFFFFFFFFFFFFFFFFFFFFFFFFF AND PUSH20 0xFFFFFFFFFFFFFFFFFFFFFFFFFFFFFFFFFFFFFFFF AND DUP2 MSTORE PUSH1 0x20 ADD SWAP1 DUP2 MSTORE PUSH1 0x20 ADD PUSH1 0x0 KECCAK256 PUSH1 0x0 ADD SLOAD PUSH1 0xE PUSH1 0x0 SWAP1 SLOAD SWAP1 PUSH2 0x100 EXP SWAP1 DIV PUSH20 0xFFFFFFFFFFFFFFFFFFFFFFFFFFFFFFFFFFFFFFFF AND PUSH20 0xFFFFFFFFFFFFFFFFFFFFFFFFFFFFFFFFFFFFFFFF AND PUSH2 0x4F07 SWAP1 SWAP3 SWAP2 SWAP1 PUSH4 0xFFFFFFFF AND JUMP JUMPDEST CALLER PUSH20 0xFFFFFFFFFFFFFFFFFFFFFFFFFFFFFFFFFFFFFFFF AND PUSH32 0xAF1C751736853CD600A4066D300ADA44130063FCFFDF2EECBCC805A135B35A5C PUSH1 0xD PUSH1 0x0 CALLER PUSH20 0xFFFFFFFFFFFFFFFFFFFFFFFFFFFFFFFFFFFFFFFF AND PUSH20 0xFFFFFFFFFFFFFFFFFFFFFFFFFFFFFFFFFFFFFFFF AND DUP2 MSTORE PUSH1 0x20 ADD SWAP1 DUP2 MSTORE PUSH1 0x20 ADD PUSH1 0x0 KECCAK256 PUSH1 0x0 ADD SLOAD ADDRESS PUSH1 0x40 MLOAD PUSH2 0x4D51 SWAP3 SWAP2 SWAP1 PUSH2 0x6ECB JUMP JUMPDEST PUSH1 0x40 MLOAD DUP1 SWAP2 SUB SWAP1 LOG2 PUSH2 0x4D61 PUSH2 0x503E JUMP JUMPDEST JUMP JUMPDEST PUSH1 0x23 PUSH1 0x0 SWAP1 SLOAD SWAP1 PUSH2 0x100 EXP SWAP1 DIV PUSH20 0xFFFFFFFFFFFFFFFFFFFFFFFFFFFFFFFFFFFFFFFF AND DUP2 JUMP JUMPDEST PUSH1 0x8 SLOAD DUP2 JUMP JUMPDEST PUSH1 0x0 PUSH2 0x4D9C PUSH1 0x21 SLOAD PUSH2 0x32ED JUMP JUMPDEST SWAP1 POP SWAP1 JUMP JUMPDEST CALLER PUSH20 0xFFFFFFFFFFFFFFFFFFFFFFFFFFFFFFFFFFFFFFFF AND PUSH1 0x26 PUSH1 0x0 SWAP1 SLOAD SWAP1 PUSH2 0x100 EXP SWAP1 DIV PUSH20 0xFFFFFFFFFFFFFFFFFFFFFFFFFFFFFFFFFFFFFFFF AND PUSH20 0xFFFFFFFFFFFFFFFFFFFFFFFFFFFFFFFFFFFFFFFF AND EQ PUSH2 0x4E31 JUMPI PUSH1 0x40 MLOAD PUSH32 0x8C379A000000000000000000000000000000000000000000000000000000000 DUP2 MSTORE PUSH1 0x4 ADD PUSH2 0x4E28 SWAP1 PUSH2 0x7A0D JUMP JUMPDEST PUSH1 0x40 MLOAD DUP1 SWAP2 SUB SWAP1 REVERT JUMPDEST DUP1 PUSH1 0x9 PUSH1 0x0 PUSH2 0x100 EXP DUP2 SLOAD DUP2 PUSH20 0xFFFFFFFFFFFFFFFFFFFFFFFFFFFFFFFFFFFFFFFF MUL NOT AND SWAP1 DUP4 PUSH20 0xFFFFFFFFFFFFFFFFFFFFFFFFFFFFFFFFFFFFFFFF AND MUL OR SWAP1 SSTORE POP POP JUMP JUMPDEST PUSH1 0x28 SLOAD DUP2 JUMP JUMPDEST PUSH1 0x0 DUP2 DUP4 PUSH2 0x4E89 SWAP2 SWAP1 PUSH2 0x7A2D JUMP JUMPDEST SWAP1 POP SWAP3 SWAP2 POP POP JUMP JUMPDEST PUSH1 0x0 DUP2 DUP4 PUSH2 0x4E9F SWAP2 SWAP1 PUSH2 0x7A9E JUMP JUMPDEST SWAP1 POP SWAP3 SWAP2 POP POP JUMP JUMPDEST PUSH1 0x0 DUP2 DUP4 PUSH2 0x4EB5 SWAP2 SWAP1 PUSH2 0x61B4 JUMP JUMPDEST SWAP1 POP SWAP3 SWAP2 POP POP JUMP JUMPDEST PUSH2 0x4EC5 PUSH2 0x2927 JUMP JUMPDEST ISZERO PUSH2 0x4F05 JUMPI PUSH1 0x40 MLOAD PUSH32 0x8C379A000000000000000000000000000000000000000000000000000000000 DUP2 MSTORE PUSH1 0x4 ADD PUSH2 0x4EFC SWAP1 PUSH2 0x7B1B JUMP JUMPDEST PUSH1 0x40 MLOAD DUP1 SWAP2 SUB SWAP1 REVERT JUMPDEST JUMP JUMPDEST PUSH2 0x4F88 DUP4 PUSH4 0xA9059CBB PUSH1 0xE0 SHL DUP5 DUP5 PUSH1 0x40 MLOAD PUSH1 0x24 ADD PUSH2 0x4F26 SWAP3 SWAP2 SWAP1 PUSH2 0x7B3B JUMP JUMPDEST PUSH1 0x40 MLOAD PUSH1 0x20 DUP2 DUP4 SUB SUB DUP2 MSTORE SWAP1 PUSH1 0x40 MSTORE SWAP1 PUSH28 0xFFFFFFFFFFFFFFFFFFFFFFFFFFFFFFFFFFFFFFFFFFFFFFFFFFFFFFFF NOT AND PUSH1 0x20 DUP3 ADD DUP1 MLOAD PUSH28 0xFFFFFFFFFFFFFFFFFFFFFFFFFFFFFFFFFFFFFFFFFFFFFFFFFFFFFFFF DUP4 DUP2 DUP4 AND OR DUP4 MSTORE POP POP POP POP PUSH2 0x515F JUMP JUMPDEST POP POP POP JUMP JUMPDEST PUSH2 0x4F95 PUSH2 0x5226 JUMP JUMPDEST PUSH1 0x0 DUP1 PUSH1 0x0 PUSH2 0x100 EXP DUP2 SLOAD DUP2 PUSH1 0xFF MUL NOT AND SWAP1 DUP4 ISZERO ISZERO MUL OR SWAP1 SSTORE POP PUSH32 0x5DB9EE0A495BF2E6FF9C91A7834C1BA4FDD244A5E8AA4E537BD38AEAE4B073AA PUSH2 0x4FD8 PUSH2 0x526F JUMP JUMPDEST PUSH1 0x40 MLOAD PUSH2 0x4FE5 SWAP2 SWAP1 PUSH2 0x5F5E JUMP JUMPDEST PUSH1 0x40 MLOAD DUP1 SWAP2 SUB SWAP1 LOG1 JUMP JUMPDEST PUSH1 0x2 PUSH1 0xB SLOAD SUB PUSH2 0x5034 JUMPI PUSH1 0x40 MLOAD PUSH32 0x8C379A000000000000000000000000000000000000000000000000000000000 DUP2 MSTORE PUSH1 0x4 ADD PUSH2 0x502B SWAP1 PUSH2 0x7BB0 JUMP JUMPDEST PUSH1 0x40 MLOAD DUP1 SWAP2 SUB SWAP1 REVERT JUMPDEST PUSH1 0x2 PUSH1 0xB DUP2 SWAP1 SSTORE POP JUMP JUMPDEST PUSH1 0x1 PUSH1 0xB DUP2 SWAP1 SSTORE POP JUMP JUMPDEST PUSH1 0x0 DUP2 DUP4 PUSH2 0x5056 SWAP2 SWAP1 PUSH2 0x76EE JUMP JUMPDEST SWAP1 POP SWAP3 SWAP2 POP POP JUMP JUMPDEST PUSH1 0x0 DUP2 DUP4 PUSH2 0x506C SWAP2 SWAP1 PUSH2 0x7BD0 JUMP JUMPDEST SWAP1 POP SWAP3 SWAP2 POP POP JUMP JUMPDEST PUSH2 0x50F7 DUP5 PUSH4 0x23B872DD PUSH1 0xE0 SHL DUP6 DUP6 DUP6 PUSH1 0x40 MLOAD PUSH1 0x24 ADD PUSH2 0x5095 SWAP4 SWAP3 SWAP2 SWAP1 PUSH2 0x7C01 JUMP JUMPDEST PUSH1 0x40 MLOAD PUSH1 0x20 DUP2 DUP4 SUB SUB DUP2 MSTORE SWAP1 PUSH1 0x40 MSTORE SWAP1 PUSH28 0xFFFFFFFFFFFFFFFFFFFFFFFFFFFFFFFFFFFFFFFFFFFFFFFFFFFFFFFF NOT AND PUSH1 0x20 DUP3 ADD DUP1 MLOAD PUSH28 0xFFFFFFFFFFFFFFFFFFFFFFFFFFFFFFFFFFFFFFFFFFFFFFFFFFFFFFFF DUP4 DUP2 DUP4 AND OR DUP4 MSTORE POP POP POP POP PUSH2 0x515F JUMP JUMPDEST POP POP POP POP JUMP JUMPDEST PUSH2 0x5105 PUSH2 0x4EBD JUMP JUMPDEST PUSH1 0x1 PUSH1 0x0 DUP1 PUSH2 0x100 EXP DUP2 SLOAD DUP2 PUSH1 0xFF MUL NOT AND SWAP1 DUP4 ISZERO ISZERO MUL OR SWAP1 SSTORE POP PUSH32 0x62E78CEA01BEE320CD4E420270B5EA74000D11B0C9F74754EBDBFC544B05A258 PUSH2 0x5148 PUSH2 0x526F JUMP JUMPDEST PUSH1 0x40 MLOAD PUSH2 0x5155 SWAP2 SWAP1 PUSH2 0x5F5E JUMP JUMPDEST PUSH1 0x40 MLOAD DUP1 SWAP2 SUB SWAP1 LOG1 JUMP JUMPDEST PUSH1 0x0 PUSH2 0x51C1 DUP3 PUSH1 0x40 MLOAD DUP1 PUSH1 0x40 ADD PUSH1 0x40 MSTORE DUP1 PUSH1 0x20 DUP2 MSTORE PUSH1 0x20 ADD PUSH32 0x5361666542455032303A206C6F772D6C6576656C2063616C6C206661696C6564 DUP2 MSTORE POP DUP6 PUSH20 0xFFFFFFFFFFFFFFFFFFFFFFFFFFFFFFFFFFFFFFFF AND PUSH2 0x5277 SWAP1 SWAP3 SWAP2 SWAP1 PUSH4 0xFFFFFFFF AND JUMP JUMPDEST SWAP1 POP PUSH1 0x0 DUP2 MLOAD GT ISZERO PUSH2 0x5221 JUMPI DUP1 DUP1 PUSH1 0x20 ADD SWAP1 MLOAD DUP2 ADD SWAP1 PUSH2 0x51E1 SWAP2 SWAP1 PUSH2 0x7C4D JUMP JUMPDEST PUSH2 0x5220 JUMPI PUSH1 0x40 MLOAD PUSH32 0x8C379A000000000000000000000000000000000000000000000000000000000 DUP2 MSTORE PUSH1 0x4 ADD PUSH2 0x5217 SWAP1 PUSH2 0x7CEC JUMP JUMPDEST PUSH1 0x40 MLOAD DUP1 SWAP2 SUB SWAP1 REVERT JUMPDEST JUMPDEST POP POP POP JUMP JUMPDEST PUSH2 0x522E PUSH2 0x2927 JUMP JUMPDEST PUSH2 0x526D JUMPI PUSH1 0x40 MLOAD PUSH32 0x8C379A000000000000000000000000000000000000000000000000000000000 DUP2 MSTORE PUSH1 0x4 ADD PUSH2 0x5264 SWAP1 PUSH2 0x7D58 JUMP JUMPDEST PUSH1 0x40 MLOAD DUP1 SWAP2 SUB SWAP1 REVERT JUMPDEST JUMP JUMPDEST PUSH1 0x0 CALLER SWAP1 POP SWAP1 JUMP JUMPDEST PUSH1 0x60 PUSH2 0x5286 DUP5 DUP5 PUSH1 0x0 DUP6 PUSH2 0x528F JUMP JUMPDEST SWAP1 POP SWAP4 SWAP3 POP POP POP JUMP JUMPDEST PUSH1 0x60 DUP3 SELFBALANCE LT ISZERO PUSH2 0x52D4 JUMPI PUSH1 0x40 MLOAD PUSH32 0x8C379A000000000000000000000000000000000000000000000000000000000 DUP2 MSTORE PUSH1 0x4 ADD PUSH2 0x52CB SWAP1 PUSH2 0x7DEA JUMP JUMPDEST PUSH1 0x40 MLOAD DUP1 SWAP2 SUB SWAP1 REVERT JUMPDEST PUSH1 0x0 DUP1 DUP7 PUSH20 0xFFFFFFFFFFFFFFFFFFFFFFFFFFFFFFFFFFFFFFFF AND DUP6 DUP8 PUSH1 0x40 MLOAD PUSH2 0x52FD SWAP2 SWAP1 PUSH2 0x7E51 JUMP JUMPDEST PUSH1 0x0 PUSH1 0x40 MLOAD DUP1 DUP4 SUB DUP2 DUP6 DUP8 GAS CALL SWAP3 POP POP POP RETURNDATASIZE DUP1 PUSH1 0x0 DUP2 EQ PUSH2 0x533A JUMPI PUSH1 0x40 MLOAD SWAP2 POP PUSH1 0x1F NOT PUSH1 0x3F RETURNDATASIZE ADD AND DUP3 ADD PUSH1 0x40 MSTORE RETURNDATASIZE DUP3 MSTORE RETURNDATASIZE PUSH1 0x0 PUSH1 0x20 DUP5 ADD RETURNDATACOPY PUSH2 0x533F JUMP JUMPDEST PUSH1 0x60 SWAP2 POP JUMPDEST POP SWAP2 POP SWAP2 POP PUSH2 0x5350 DUP8 DUP4 DUP4 DUP8 PUSH2 0x535C JUMP JUMPDEST SWAP3 POP POP POP SWAP5 SWAP4 POP POP POP POP JUMP JUMPDEST PUSH1 0x60 DUP4 ISZERO PUSH2 0x53BE JUMPI PUSH1 0x0 DUP4 MLOAD SUB PUSH2 0x53B6 JUMPI PUSH2 0x5376 DUP6 PUSH2 0x53D1 JUMP JUMPDEST PUSH2 0x53B5 JUMPI PUSH1 0x40 MLOAD PUSH32 0x8C379A000000000000000000000000000000000000000000000000000000000 DUP2 MSTORE PUSH1 0x4 ADD PUSH2 0x53AC SWAP1 PUSH2 0x7EB4 JUMP JUMPDEST PUSH1 0x40 MLOAD DUP1 SWAP2 SUB SWAP1 REVERT JUMPDEST JUMPDEST DUP3 SWAP1 POP PUSH2 0x53C9 JUMP JUMPDEST PUSH2 0x53C8 DUP4 DUP4 PUSH2 0x53F4 JUMP JUMPDEST JUMPDEST SWAP5 SWAP4 POP POP POP POP JUMP JUMPDEST PUSH1 0x0 DUP1 DUP3 PUSH20 0xFFFFFFFFFFFFFFFFFFFFFFFFFFFFFFFFFFFFFFFF AND EXTCODESIZE GT SWAP1 POP SWAP2 SWAP1 POP JUMP JUMPDEST PUSH1 0x0 DUP3 MLOAD GT ISZERO PUSH2 0x5407 JUMPI DUP2 MLOAD DUP1 DUP4 PUSH1 0x20 ADD REVERT JUMPDEST DUP1 PUSH1 0x40 MLOAD PUSH32 0x8C379A000000000000000000000000000000000000000000000000000000000 DUP2 MSTORE PUSH1 0x4 ADD PUSH2 0x543B SWAP2 SWAP1 PUSH2 0x5CC4 JUMP JUMPDEST PUSH1 0x40 MLOAD DUP1 SWAP2 SUB SWAP1 REVERT JUMPDEST PUSH1 0x0 PUSH1 0x40 MLOAD SWAP1 POP SWAP1 JUMP JUMPDEST PUSH1 0x0 DUP1 REVERT JUMPDEST PUSH1 0x0 DUP1 REVERT JUMPDEST PUSH1 0x0 DUP1 REVERT JUMPDEST PUSH1 0x0 PUSH1 0x1F NOT PUSH1 0x1F DUP4 ADD AND SWAP1 POP SWAP2 SWAP1 POP JUMP JUMPDEST PUSH32 0x4E487B7100000000000000000000000000000000000000000000000000000000 PUSH1 0x0 MSTORE PUSH1 0x41 PUSH1 0x4 MSTORE PUSH1 0x24 PUSH1 0x0 REVERT JUMPDEST PUSH2 0x54A6 DUP3 PUSH2 0x545D JUMP JUMPDEST DUP2 ADD DUP2 DUP2 LT PUSH8 0xFFFFFFFFFFFFFFFF DUP3 GT OR ISZERO PUSH2 0x54C5 JUMPI PUSH2 0x54C4 PUSH2 0x546E JUMP JUMPDEST JUMPDEST DUP1 PUSH1 0x40 MSTORE POP POP POP JUMP JUMPDEST PUSH1 0x0 PUSH2 0x54D8 PUSH2 0x5444 JUMP JUMPDEST SWAP1 POP PUSH2 0x54E4 DUP3 DUP3 PUSH2 0x549D JUMP JUMPDEST SWAP2 SWAP1 POP JUMP JUMPDEST PUSH1 0x0 PUSH8 0xFFFFFFFFFFFFFFFF DUP3 GT ISZERO PUSH2 0x5504 JUMPI PUSH2 0x5503 PUSH2 0x546E JUMP JUMPDEST JUMPDEST PUSH1 0x20 DUP3 MUL SWAP1 POP PUSH1 0x20 DUP2 ADD SWAP1 POP SWAP2 SWAP1 POP JUMP JUMPDEST PUSH1 0x0 DUP1 REVERT JUMPDEST PUSH1 0x0 PUSH20 0xFFFFFFFFFFFFFFFFFFFFFFFFFFFFFFFFFFFFFFFF DUP3 AND SWAP1 POP SWAP2 SWAP1 POP JUMP JUMPDEST PUSH1 0x0 PUSH2 0x5545 DUP3 PUSH2 0x551A JUMP JUMPDEST SWAP1 POP SWAP2 SWAP1 POP JUMP JUMPDEST PUSH2 0x5555 DUP2 PUSH2 0x553A JUMP JUMPDEST DUP2 EQ PUSH2 0x5560 JUMPI PUSH1 0x0 DUP1 REVERT JUMPDEST POP JUMP JUMPDEST PUSH1 0x0 DUP2 CALLDATALOAD SWAP1 POP PUSH2 0x5572 DUP2 PUSH2 0x554C JUMP JUMPDEST SWAP3 SWAP2 POP POP JUMP JUMPDEST PUSH1 0x0 PUSH2 0x558B PUSH2 0x5586 DUP5 PUSH2 0x54E9 JUMP JUMPDEST PUSH2 0x54CE JUMP JUMPDEST SWAP1 POP DUP1 DUP4 DUP3 MSTORE PUSH1 0x20 DUP3 ADD SWAP1 POP PUSH1 0x20 DUP5 MUL DUP4 ADD DUP6 DUP2 GT ISZERO PUSH2 0x55AE JUMPI PUSH2 0x55AD PUSH2 0x5515 JUMP JUMPDEST JUMPDEST DUP4 JUMPDEST DUP2 DUP2 LT ISZERO PUSH2 0x55D7 JUMPI DUP1 PUSH2 0x55C3 DUP9 DUP3 PUSH2 0x5563 JUMP JUMPDEST DUP5 MSTORE PUSH1 0x20 DUP5 ADD SWAP4 POP POP PUSH1 0x20 DUP2 ADD SWAP1 POP PUSH2 0x55B0 JUMP JUMPDEST POP POP POP SWAP4 SWAP3 POP POP POP JUMP JUMPDEST PUSH1 0x0 DUP3 PUSH1 0x1F DUP4 ADD SLT PUSH2 0x55F6 JUMPI PUSH2 0x55F5 PUSH2 0x5458 JUMP JUMPDEST JUMPDEST DUP2 CALLDATALOAD PUSH2 0x5606 DUP5 DUP3 PUSH1 0x20 DUP7 ADD PUSH2 0x5578 JUMP JUMPDEST SWAP2 POP POP SWAP3 SWAP2 POP POP JUMP JUMPDEST PUSH1 0x0 PUSH8 0xFFFFFFFFFFFFFFFF DUP3 GT ISZERO PUSH2 0x562A JUMPI PUSH2 0x5629 PUSH2 0x546E JUMP JUMPDEST JUMPDEST PUSH1 0x20 DUP3 MUL SWAP1 POP PUSH1 0x20 DUP2 ADD SWAP1 POP SWAP2 SWAP1 POP JUMP JUMPDEST PUSH1 0x0 DUP2 SWAP1 POP SWAP2 SWAP1 POP JUMP JUMPDEST PUSH2 0x564E DUP2 PUSH2 0x563B JUMP JUMPDEST DUP2 EQ PUSH2 0x5659 JUMPI PUSH1 0x0 DUP1 REVERT JUMPDEST POP JUMP JUMPDEST PUSH1 0x0 DUP2 CALLDATALOAD SWAP1 POP PUSH2 0x566B DUP2 PUSH2 0x5645 JUMP JUMPDEST SWAP3 SWAP2 POP POP JUMP JUMPDEST PUSH1 0x0 PUSH2 0x5684 PUSH2 0x567F DUP5 PUSH2 0x560F JUMP JUMPDEST PUSH2 0x54CE JUMP JUMPDEST SWAP1 POP DUP1 DUP4 DUP3 MSTORE PUSH1 0x20 DUP3 ADD SWAP1 POP PUSH1 0x20 DUP5 MUL DUP4 ADD DUP6 DUP2 GT ISZERO PUSH2 0x56A7 JUMPI PUSH2 0x56A6 PUSH2 0x5515 JUMP JUMPDEST JUMPDEST DUP4 JUMPDEST DUP2 DUP2 LT ISZERO PUSH2 0x56D0 JUMPI DUP1 PUSH2 0x56BC DUP9 DUP3 PUSH2 0x565C JUMP JUMPDEST DUP5 MSTORE PUSH1 0x20 DUP5 ADD SWAP4 POP POP PUSH1 0x20 DUP2 ADD SWAP1 POP PUSH2 0x56A9 JUMP JUMPDEST POP POP POP SWAP4 SWAP3 POP POP POP JUMP JUMPDEST PUSH1 0x0 DUP3 PUSH1 0x1F DUP4 ADD SLT PUSH2 0x56EF JUMPI PUSH2 0x56EE PUSH2 0x5458 JUMP JUMPDEST JUMPDEST DUP2 CALLDATALOAD PUSH2 0x56FF DUP5 DUP3 PUSH1 0x20 DUP7 ADD PUSH2 0x5671 JUMP JUMPDEST SWAP2 POP POP SWAP3 SWAP2 POP POP JUMP JUMPDEST PUSH1 0x0 DUP1 PUSH1 0x40 DUP4 DUP6 SUB SLT ISZERO PUSH2 0x571F JUMPI PUSH2 0x571E PUSH2 0x544E JUMP JUMPDEST JUMPDEST PUSH1 0x0 DUP4 ADD CALLDATALOAD PUSH8 0xFFFFFFFFFFFFFFFF DUP2 GT ISZERO PUSH2 0x573D JUMPI PUSH2 0x573C PUSH2 0x5453 JUMP JUMPDEST JUMPDEST PUSH2 0x5749 DUP6 DUP3 DUP7 ADD PUSH2 0x55E1 JUMP JUMPDEST SWAP3 POP POP PUSH1 0x20 DUP4 ADD CALLDATALOAD PUSH8 0xFFFFFFFFFFFFFFFF DUP2 GT ISZERO PUSH2 0x576A JUMPI PUSH2 0x5769 PUSH2 0x5453 JUMP JUMPDEST JUMPDEST PUSH2 0x5776 DUP6 DUP3 DUP7 ADD PUSH2 0x56DA JUMP JUMPDEST SWAP2 POP POP SWAP3 POP SWAP3 SWAP1 POP JUMP JUMPDEST PUSH1 0x0 PUSH1 0x20 DUP3 DUP5 SUB SLT ISZERO PUSH2 0x5796 JUMPI PUSH2 0x5795 PUSH2 0x544E JUMP JUMPDEST JUMPDEST PUSH1 0x0 PUSH2 0x57A4 DUP5 DUP3 DUP6 ADD PUSH2 0x565C JUMP JUMPDEST SWAP2 POP POP SWAP3 SWAP2 POP POP JUMP JUMPDEST PUSH2 0x57B6 DUP2 PUSH2 0x563B JUMP JUMPDEST DUP3 MSTORE POP POP JUMP JUMPDEST PUSH1 0x0 PUSH1 0x20 DUP3 ADD SWAP1 POP PUSH2 0x57D1 PUSH1 0x0 DUP4 ADD DUP5 PUSH2 0x57AD JUMP JUMPDEST SWAP3 SWAP2 POP POP JUMP JUMPDEST PUSH1 0x0 DUP2 ISZERO ISZERO SWAP1 POP SWAP2 SWAP1 POP JUMP JUMPDEST PUSH2 0x57EC DUP2 PUSH2 0x57D7 JUMP JUMPDEST DUP3 MSTORE POP POP JUMP JUMPDEST PUSH1 0x0 PUSH1 0x20 DUP3 ADD SWAP1 POP PUSH2 0x5807 PUSH1 0x0 DUP4 ADD DUP5 PUSH2 0x57E3 JUMP JUMPDEST SWAP3 SWAP2 POP POP JUMP JUMPDEST PUSH1 0x0 PUSH1 0x20 DUP3 DUP5 SUB SLT ISZERO PUSH2 0x5823 JUMPI PUSH2 0x5822 PUSH2 0x544E JUMP JUMPDEST JUMPDEST PUSH1 0x0 PUSH2 0x5831 DUP5 DUP3 DUP6 ADD PUSH2 0x5563 JUMP JUMPDEST SWAP2 POP POP SWAP3 SWAP2 POP POP JUMP JUMPDEST PUSH2 0x5843 DUP2 PUSH2 0x553A JUMP JUMPDEST DUP3 MSTORE POP POP JUMP JUMPDEST PUSH1 0x0 PUSH1 0x60 DUP3 ADD SWAP1 POP PUSH2 0x585E PUSH1 0x0 DUP4 ADD DUP7 PUSH2 0x57E3 JUMP JUMPDEST PUSH2 0x586B PUSH1 0x20 DUP4 ADD DUP6 PUSH2 0x583A JUMP JUMPDEST PUSH2 0x5878 PUSH1 0x40 DUP4 ADD DUP5 PUSH2 0x57AD JUMP JUMPDEST SWAP5 SWAP4 POP POP POP POP JUMP JUMPDEST PUSH1 0x0 DUP1 PUSH1 0x40 DUP4 DUP6 SUB SLT ISZERO PUSH2 0x5897 JUMPI PUSH2 0x5896 PUSH2 0x544E JUMP JUMPDEST JUMPDEST PUSH1 0x0 PUSH2 0x58A5 DUP6 DUP3 DUP7 ADD PUSH2 0x5563 JUMP JUMPDEST SWAP3 POP POP PUSH1 0x20 PUSH2 0x58B6 DUP6 DUP3 DUP7 ADD PUSH2 0x5563 JUMP JUMPDEST SWAP2 POP POP SWAP3 POP SWAP3 SWAP1 POP JUMP JUMPDEST PUSH1 0x0 DUP2 SWAP1 POP SWAP2 SWAP1 POP JUMP JUMPDEST PUSH1 0x0 PUSH2 0x58E5 PUSH2 0x58E0 PUSH2 0x58DB DUP5 PUSH2 0x551A JUMP JUMPDEST PUSH2 0x58C0 JUMP JUMPDEST PUSH2 0x551A JUMP JUMPDEST SWAP1 POP SWAP2 SWAP1 POP JUMP JUMPDEST PUSH1 0x0 PUSH2 0x58F7 DUP3 PUSH2 0x58CA JUMP JUMPDEST SWAP1 POP SWAP2 SWAP1 POP JUMP JUMPDEST PUSH1 0x0 PUSH2 0x5909 DUP3 PUSH2 0x58EC JUMP JUMPDEST SWAP1 POP SWAP2 SWAP1 POP JUMP JUMPDEST PUSH2 0x5919 DUP2 PUSH2 0x58FE JUMP JUMPDEST DUP3 MSTORE POP POP JUMP JUMPDEST PUSH1 0x0 PUSH1 0x20 DUP3 ADD SWAP1 POP PUSH2 0x5934 PUSH1 0x0 DUP4 ADD DUP5 PUSH2 0x5910 JUMP JUMPDEST SWAP3 SWAP2 POP POP JUMP JUMPDEST PUSH1 0x0 DUP1 REVERT JUMPDEST PUSH1 0x0 DUP1 DUP4 PUSH1 0x1F DUP5 ADD SLT PUSH2 0x5955 JUMPI PUSH2 0x5954 PUSH2 0x5458 JUMP JUMPDEST JUMPDEST DUP3 CALLDATALOAD SWAP1 POP PUSH8 0xFFFFFFFFFFFFFFFF DUP2 GT ISZERO PUSH2 0x5972 JUMPI PUSH2 0x5971 PUSH2 0x593A JUMP JUMPDEST JUMPDEST PUSH1 0x20 DUP4 ADD SWAP2 POP DUP4 PUSH1 0x20 DUP3 MUL DUP4 ADD GT ISZERO PUSH2 0x598E JUMPI PUSH2 0x598D PUSH2 0x5515 JUMP JUMPDEST JUMPDEST SWAP3 POP SWAP3 SWAP1 POP JUMP JUMPDEST PUSH1 0x0 DUP1 REVERT JUMPDEST PUSH1 0x0 PUSH8 0xFFFFFFFFFFFFFFFF DUP3 GT ISZERO PUSH2 0x59B5 JUMPI PUSH2 0x59B4 PUSH2 0x546E JUMP JUMPDEST JUMPDEST PUSH2 0x59BE DUP3 PUSH2 0x545D JUMP JUMPDEST SWAP1 POP PUSH1 0x20 DUP2 ADD SWAP1 POP SWAP2 SWAP1 POP JUMP JUMPDEST DUP3 DUP2 DUP4 CALLDATACOPY PUSH1 0x0 DUP4 DUP4 ADD MSTORE POP POP POP JUMP JUMPDEST PUSH1 0x0 PUSH2 0x59ED PUSH2 0x59E8 DUP5 PUSH2 0x599A JUMP JUMPDEST PUSH2 0x54CE JUMP JUMPDEST SWAP1 POP DUP3 DUP2 MSTORE PUSH1 0x20 DUP2 ADD DUP5 DUP5 DUP5 ADD GT ISZERO PUSH2 0x5A09 JUMPI PUSH2 0x5A08 PUSH2 0x5995 JUMP JUMPDEST JUMPDEST PUSH2 0x5A14 DUP5 DUP3 DUP6 PUSH2 0x59CB JUMP JUMPDEST POP SWAP4 SWAP3 POP POP POP JUMP JUMPDEST PUSH1 0x0 DUP3 PUSH1 0x1F DUP4 ADD SLT PUSH2 0x5A31 JUMPI PUSH2 0x5A30 PUSH2 0x5458 JUMP JUMPDEST JUMPDEST DUP2 CALLDATALOAD PUSH2 0x5A41 DUP5 DUP3 PUSH1 0x20 DUP7 ADD PUSH2 0x59DA JUMP JUMPDEST SWAP2 POP POP SWAP3 SWAP2 POP POP JUMP JUMPDEST PUSH1 0x0 DUP1 PUSH1 0x0 DUP1 PUSH1 0x0 PUSH1 0x80 DUP7 DUP9 SUB SLT ISZERO PUSH2 0x5A66 JUMPI PUSH2 0x5A65 PUSH2 0x544E JUMP JUMPDEST JUMPDEST PUSH1 0x0 DUP7 ADD CALLDATALOAD PUSH8 0xFFFFFFFFFFFFFFFF DUP2 GT ISZERO PUSH2 0x5A84 JUMPI PUSH2 0x5A83 PUSH2 0x5453 JUMP JUMPDEST JUMPDEST PUSH2 0x5A90 DUP9 DUP3 DUP10 ADD PUSH2 0x55E1 JUMP JUMPDEST SWAP6 POP POP PUSH1 0x20 DUP7 ADD CALLDATALOAD PUSH8 0xFFFFFFFFFFFFFFFF DUP2 GT ISZERO PUSH2 0x5AB1 JUMPI PUSH2 0x5AB0 PUSH2 0x5453 JUMP JUMPDEST JUMPDEST PUSH2 0x5ABD DUP9 DUP3 DUP10 ADD PUSH2 0x593F JUMP JUMPDEST SWAP5 POP SWAP5 POP POP PUSH1 0x40 PUSH2 0x5AD0 DUP9 DUP3 DUP10 ADD PUSH2 0x565C JUMP JUMPDEST SWAP3 POP POP PUSH1 0x60 DUP7 ADD CALLDATALOAD PUSH8 0xFFFFFFFFFFFFFFFF DUP2 GT ISZERO PUSH2 0x5AF1 JUMPI PUSH2 0x5AF0 PUSH2 0x5453 JUMP JUMPDEST JUMPDEST PUSH2 0x5AFD DUP9 DUP3 DUP10 ADD PUSH2 0x5A1C JUMP JUMPDEST SWAP2 POP POP SWAP3 SWAP6 POP SWAP3 SWAP6 SWAP1 SWAP4 POP JUMP JUMPDEST PUSH1 0x0 PUSH1 0x20 DUP3 DUP5 SUB SLT ISZERO PUSH2 0x5B20 JUMPI PUSH2 0x5B1F PUSH2 0x544E JUMP JUMPDEST JUMPDEST PUSH1 0x0 DUP3 ADD CALLDATALOAD PUSH8 0xFFFFFFFFFFFFFFFF DUP2 GT ISZERO PUSH2 0x5B3E JUMPI PUSH2 0x5B3D PUSH2 0x5453 JUMP JUMPDEST JUMPDEST PUSH2 0x5B4A DUP5 DUP3 DUP6 ADD PUSH2 0x5A1C JUMP JUMPDEST SWAP2 POP POP SWAP3 SWAP2 POP POP JUMP JUMPDEST PUSH1 0x0 PUSH8 0xFFFFFFFFFFFFFFFF DUP3 GT ISZERO PUSH2 0x5B6E JUMPI PUSH2 0x5B6D PUSH2 0x546E JUMP JUMPDEST JUMPDEST PUSH1 0x20 DUP3 MUL SWAP1 POP SWAP2 SWAP1 POP JUMP JUMPDEST PUSH1 0x0 PUSH2 0x5B8C PUSH2 0x5B87 DUP5 PUSH2 0x5B53 JUMP JUMPDEST PUSH2 0x54CE JUMP JUMPDEST SWAP1 POP DUP1 PUSH1 0x20 DUP5 MUL DUP4 ADD DUP6 DUP2 GT ISZERO PUSH2 0x5BA6 JUMPI PUSH2 0x5BA5 PUSH2 0x5515 JUMP JUMPDEST JUMPDEST DUP4 JUMPDEST DUP2 DUP2 LT ISZERO PUSH2 0x5BCF JUMPI DUP1 PUSH2 0x5BBB DUP9 DUP3 PUSH2 0x565C JUMP JUMPDEST DUP5 MSTORE PUSH1 0x20 DUP5 ADD SWAP4 POP POP PUSH1 0x20 DUP2 ADD SWAP1 POP PUSH2 0x5BA8 JUMP JUMPDEST POP POP POP SWAP4 SWAP3 POP POP POP JUMP JUMPDEST PUSH1 0x0 DUP3 PUSH1 0x1F DUP4 ADD SLT PUSH2 0x5BEE JUMPI PUSH2 0x5BED PUSH2 0x5458 JUMP JUMPDEST JUMPDEST PUSH1 0x5 PUSH2 0x5BFB DUP5 DUP3 DUP6 PUSH2 0x5B79 JUMP JUMPDEST SWAP2 POP POP SWAP3 SWAP2 POP POP JUMP JUMPDEST PUSH1 0x0 DUP1 PUSH2 0x140 DUP4 DUP6 SUB SLT ISZERO PUSH2 0x5C1C JUMPI PUSH2 0x5C1B PUSH2 0x544E JUMP JUMPDEST JUMPDEST PUSH1 0x0 PUSH2 0x5C2A DUP6 DUP3 DUP7 ADD PUSH2 0x5BD9 JUMP JUMPDEST SWAP3 POP POP PUSH1 0xA0 PUSH2 0x5C3B DUP6 DUP3 DUP7 ADD PUSH2 0x5BD9 JUMP JUMPDEST SWAP2 POP POP SWAP3 POP SWAP3 SWAP1 POP JUMP JUMPDEST PUSH1 0x0 DUP2 MLOAD SWAP1 POP SWAP2 SWAP1 POP JUMP JUMPDEST PUSH1 0x0 DUP3 DUP3 MSTORE PUSH1 0x20 DUP3 ADD SWAP1 POP SWAP3 SWAP2 POP POP JUMP JUMPDEST PUSH1 0x0 JUMPDEST DUP4 DUP2 LT ISZERO PUSH2 0x5C7F JUMPI DUP1 DUP3 ADD MLOAD DUP2 DUP5 ADD MSTORE PUSH1 0x20 DUP2 ADD SWAP1 POP PUSH2 0x5C64 JUMP JUMPDEST PUSH1 0x0 DUP5 DUP5 ADD MSTORE POP POP POP POP JUMP JUMPDEST PUSH1 0x0 PUSH2 0x5C96 DUP3 PUSH2 0x5C45 JUMP JUMPDEST PUSH2 0x5CA0 DUP2 DUP6 PUSH2 0x5C50 JUMP JUMPDEST SWAP4 POP PUSH2 0x5CB0 DUP2 DUP6 PUSH1 0x20 DUP7 ADD PUSH2 0x5C61 JUMP JUMPDEST PUSH2 0x5CB9 DUP2 PUSH2 0x545D JUMP JUMPDEST DUP5 ADD SWAP2 POP POP SWAP3 SWAP2 POP POP JUMP JUMPDEST PUSH1 0x0 PUSH1 0x20 DUP3 ADD SWAP1 POP DUP2 DUP2 SUB PUSH1 0x0 DUP4 ADD MSTORE PUSH2 0x5CDE DUP2 DUP5 PUSH2 0x5C8B JUMP JUMPDEST SWAP1 POP SWAP3 SWAP2 POP POP JUMP JUMPDEST PUSH1 0x0 DUP2 MLOAD SWAP1 POP SWAP2 SWAP1 POP JUMP JUMPDEST PUSH1 0x0 DUP3 DUP3 MSTORE PUSH1 0x20 DUP3 ADD SWAP1 POP SWAP3 SWAP2 POP POP JUMP JUMPDEST PUSH1 0x0 DUP2 SWAP1 POP PUSH1 0x20 DUP3 ADD SWAP1 POP SWAP2 SWAP1 POP JUMP JUMPDEST PUSH2 0x5D1B DUP2 PUSH2 0x57D7 JUMP JUMPDEST DUP3 MSTORE POP POP JUMP JUMPDEST PUSH2 0x5D2A DUP2 PUSH2 0x553A JUMP JUMPDEST DUP3 MSTORE POP POP JUMP JUMPDEST PUSH2 0x5D39 DUP2 PUSH2 0x563B JUMP JUMPDEST DUP3 MSTORE POP POP JUMP JUMPDEST PUSH1 0x60 DUP3 ADD PUSH1 0x0 DUP3 ADD MLOAD PUSH2 0x5D55 PUSH1 0x0 DUP6 ADD DUP3 PUSH2 0x5D12 JUMP JUMPDEST POP PUSH1 0x20 DUP3 ADD MLOAD PUSH2 0x5D68 PUSH1 0x20 DUP6 ADD DUP3 PUSH2 0x5D21 JUMP JUMPDEST POP PUSH1 0x40 DUP3 ADD MLOAD PUSH2 0x5D7B PUSH1 0x40 DUP6 ADD DUP3 PUSH2 0x5D30 JUMP JUMPDEST POP POP POP POP JUMP JUMPDEST PUSH1 0x0 PUSH2 0x5D8D DUP4 DUP4 PUSH2 0x5D3F JUMP JUMPDEST PUSH1 0x60 DUP4 ADD SWAP1 POP SWAP3 SWAP2 POP POP JUMP JUMPDEST PUSH1 0x0 PUSH1 0x20 DUP3 ADD SWAP1 POP SWAP2 SWAP1 POP JUMP JUMPDEST PUSH1 0x0 PUSH2 0x5DB1 DUP3 PUSH2 0x5CE6 JUMP JUMPDEST PUSH2 0x5DBB DUP2 DUP6 PUSH2 0x5CF1 JUMP JUMPDEST SWAP4 POP PUSH2 0x5DC6 DUP4 PUSH2 0x5D02 JUMP JUMPDEST DUP1 PUSH1 0x0 JUMPDEST DUP4 DUP2 LT ISZERO PUSH2 0x5DF7 JUMPI DUP2 MLOAD PUSH2 0x5DDE DUP9 DUP3 PUSH2 0x5D81 JUMP JUMPDEST SWAP8 POP PUSH2 0x5DE9 DUP4 PUSH2 0x5D99 JUMP JUMPDEST SWAP3 POP POP PUSH1 0x1 DUP2 ADD SWAP1 POP PUSH2 0x5DCA JUMP JUMPDEST POP DUP6 SWAP4 POP POP POP POP SWAP3 SWAP2 POP POP JUMP JUMPDEST PUSH1 0x0 PUSH1 0x20 DUP3 ADD SWAP1 POP DUP2 DUP2 SUB PUSH1 0x0 DUP4 ADD MSTORE PUSH2 0x5E1E DUP2 DUP5 PUSH2 0x5DA6 JUMP JUMPDEST SWAP1 POP SWAP3 SWAP2 POP POP JUMP JUMPDEST PUSH1 0x0 PUSH1 0xC0 DUP3 ADD SWAP1 POP PUSH2 0x5E3B PUSH1 0x0 DUP4 ADD DUP10 PUSH2 0x57AD JUMP JUMPDEST PUSH2 0x5E48 PUSH1 0x20 DUP4 ADD DUP9 PUSH2 0x583A JUMP JUMPDEST PUSH2 0x5E55 PUSH1 0x40 DUP4 ADD DUP8 PUSH2 0x57AD JUMP JUMPDEST PUSH2 0x5E62 PUSH1 0x60 DUP4 ADD DUP7 PUSH2 0x57AD JUMP JUMPDEST PUSH2 0x5E6F PUSH1 0x80 DUP4 ADD DUP6 PUSH2 0x57E3 JUMP JUMPDEST PUSH2 0x5E7C PUSH1 0xA0 DUP4 ADD DUP5 PUSH2 0x57E3 JUMP JUMPDEST SWAP8 SWAP7 POP POP POP POP POP POP POP JUMP JUMPDEST PUSH1 0x0 PUSH2 0x5E92 DUP3 PUSH2 0x551A JUMP JUMPDEST SWAP1 POP SWAP2 SWAP1 POP JUMP JUMPDEST PUSH2 0x5EA2 DUP2 PUSH2 0x5E87 JUMP JUMPDEST DUP2 EQ PUSH2 0x5EAD JUMPI PUSH1 0x0 DUP1 REVERT JUMPDEST POP JUMP JUMPDEST PUSH1 0x0 DUP2 CALLDATALOAD SWAP1 POP PUSH2 0x5EBF DUP2 PUSH2 0x5E99 JUMP JUMPDEST SWAP3 SWAP2 POP POP JUMP JUMPDEST PUSH1 0x0 PUSH1 0x20 DUP3 DUP5 SUB SLT ISZERO PUSH2 0x5EDB JUMPI PUSH2 0x5EDA PUSH2 0x544E JUMP JUMPDEST JUMPDEST PUSH1 0x0 PUSH2 0x5EE9 DUP5 DUP3 DUP6 ADD PUSH2 0x5EB0 JUMP JUMPDEST SWAP2 POP POP SWAP3 SWAP2 POP POP JUMP JUMPDEST PUSH2 0x5EFB DUP2 PUSH2 0x57D7 JUMP JUMPDEST DUP2 EQ PUSH2 0x5F06 JUMPI PUSH1 0x0 DUP1 REVERT JUMPDEST POP JUMP JUMPDEST PUSH1 0x0 DUP2 CALLDATALOAD SWAP1 POP PUSH2 0x5F18 DUP2 PUSH2 0x5EF2 JUMP JUMPDEST SWAP3 SWAP2 POP POP JUMP JUMPDEST PUSH1 0x0 DUP1 PUSH1 0x40 DUP4 DUP6 SUB SLT ISZERO PUSH2 0x5F35 JUMPI PUSH2 0x5F34 PUSH2 0x544E JUMP JUMPDEST JUMPDEST PUSH1 0x0 PUSH2 0x5F43 DUP6 DUP3 DUP7 ADD PUSH2 0x5F09 JUMP JUMPDEST SWAP3 POP POP PUSH1 0x20 PUSH2 0x5F54 DUP6 DUP3 DUP7 ADD PUSH2 0x5563 JUMP JUMPDEST SWAP2 POP POP SWAP3 POP SWAP3 SWAP1 POP JUMP JUMPDEST PUSH1 0x0 PUSH1 0x20 DUP3 ADD SWAP1 POP PUSH2 0x5F73 PUSH1 0x0 DUP4 ADD DUP5 PUSH2 0x583A JUMP JUMPDEST SWAP3 SWAP2 POP POP JUMP JUMPDEST PUSH1 0x0 PUSH1 0x20 DUP3 DUP5 SUB SLT ISZERO PUSH2 0x5F8F JUMPI PUSH2 0x5F8E PUSH2 0x544E JUMP JUMPDEST JUMPDEST PUSH1 0x0 DUP3 ADD CALLDATALOAD PUSH8 0xFFFFFFFFFFFFFFFF DUP2 GT ISZERO PUSH2 0x5FAD JUMPI PUSH2 0x5FAC PUSH2 0x5453 JUMP JUMPDEST JUMPDEST PUSH2 0x5FB9 DUP5 DUP3 DUP6 ADD PUSH2 0x55E1 JUMP JUMPDEST SWAP2 POP POP SWAP3 SWAP2 POP POP JUMP JUMPDEST PUSH2 0x5FCB DUP2 PUSH2 0x5E87 JUMP JUMPDEST DUP3 MSTORE POP POP JUMP JUMPDEST PUSH1 0x0 PUSH1 0x20 DUP3 ADD SWAP1 POP PUSH2 0x5FE6 PUSH1 0x0 DUP4 ADD DUP5 PUSH2 0x5FC2 JUMP JUMPDEST SWAP3 SWAP2 POP POP JUMP JUMPDEST PUSH32 0x6F6E6C7920506F6F6C2043726561746F7220616464726573732063616E206361 PUSH1 0x0 DUP3 ADD MSTORE PUSH32 0x6C6C000000000000000000000000000000000000000000000000000000000000 PUSH1 0x20 DUP3 ADD MSTORE POP JUMP JUMPDEST PUSH1 0x0 PUSH2 0x6048 PUSH1 0x22 DUP4 PUSH2 0x5C50 JUMP JUMPDEST SWAP2 POP PUSH2 0x6053 DUP3 PUSH2 0x5FEC JUMP JUMPDEST PUSH1 0x40 DUP3 ADD SWAP1 POP SWAP2 SWAP1 POP JUMP JUMPDEST PUSH1 0x0 PUSH1 0x20 DUP3 ADD SWAP1 POP DUP2 DUP2 SUB PUSH1 0x0 DUP4 ADD MSTORE PUSH2 0x6077 DUP2 PUSH2 0x603B JUMP JUMPDEST SWAP1 POP SWAP2 SWAP1 POP JUMP JUMPDEST PUSH32 0x72656D6F7665206F6E6C792077686974656C6973742061646472657373000000 PUSH1 0x0 DUP3 ADD MSTORE POP JUMP JUMPDEST PUSH1 0x0 PUSH2 0x60B4 PUSH1 0x1D DUP4 PUSH2 0x5C50 JUMP JUMPDEST SWAP2 POP PUSH2 0x60BF DUP3 PUSH2 0x607E JUMP JUMPDEST PUSH1 0x20 DUP3 ADD SWAP1 POP SWAP2 SWAP1 POP JUMP JUMPDEST PUSH1 0x0 PUSH1 0x20 DUP3 ADD SWAP1 POP DUP2 DUP2 SUB PUSH1 0x0 DUP4 ADD MSTORE PUSH2 0x60E3 DUP2 PUSH2 0x60A7 JUMP JUMPDEST SWAP1 POP SWAP2 SWAP1 POP JUMP JUMPDEST PUSH32 0x4E487B7100000000000000000000000000000000000000000000000000000000 PUSH1 0x0 MSTORE PUSH1 0x32 PUSH1 0x4 MSTORE PUSH1 0x24 PUSH1 0x0 REVERT JUMPDEST PUSH32 0x7573652076616C69642061646472657373000000000000000000000000000000 PUSH1 0x0 DUP3 ADD MSTORE POP JUMP JUMPDEST PUSH1 0x0 PUSH2 0x614F PUSH1 0x11 DUP4 PUSH2 0x5C50 JUMP JUMPDEST SWAP2 POP PUSH2 0x615A DUP3 PUSH2 0x6119 JUMP JUMPDEST PUSH1 0x20 DUP3 ADD SWAP1 POP SWAP2 SWAP1 POP JUMP JUMPDEST PUSH1 0x0 PUSH1 0x20 DUP3 ADD SWAP1 POP DUP2 DUP2 SUB PUSH1 0x0 DUP4 ADD MSTORE PUSH2 0x617E DUP2 PUSH2 0x6142 JUMP JUMPDEST SWAP1 POP SWAP2 SWAP1 POP JUMP JUMPDEST PUSH32 0x4E487B7100000000000000000000000000000000000000000000000000000000 PUSH1 0x0 MSTORE PUSH1 0x11 PUSH1 0x4 MSTORE PUSH1 0x24 PUSH1 0x0 REVERT JUMPDEST PUSH1 0x0 PUSH2 0x61BF DUP3 PUSH2 0x563B JUMP JUMPDEST SWAP2 POP PUSH2 0x61CA DUP4 PUSH2 0x563B JUMP JUMPDEST SWAP3 POP DUP3 DUP3 SUB SWAP1 POP DUP2 DUP2 GT ISZERO PUSH2 0x61E2 JUMPI PUSH2 0x61E1 PUSH2 0x6185 JUMP JUMPDEST JUMPDEST SWAP3 SWAP2 POP POP JUMP JUMPDEST PUSH1 0x0 PUSH1 0x40 DUP3 ADD SWAP1 POP PUSH2 0x61FD PUSH1 0x0 DUP4 ADD DUP6 PUSH2 0x583A JUMP JUMPDEST PUSH2 0x620A PUSH1 0x20 DUP4 ADD DUP5 PUSH2 0x583A JUMP JUMPDEST SWAP4 SWAP3 POP POP POP JUMP JUMPDEST PUSH1 0x0 PUSH2 0x621C DUP3 PUSH2 0x563B JUMP JUMPDEST SWAP2 POP PUSH32 0xFFFFFFFFFFFFFFFFFFFFFFFFFFFFFFFFFFFFFFFFFFFFFFFFFFFFFFFFFFFFFFFF DUP3 SUB PUSH2 0x624E JUMPI PUSH2 0x624D PUSH2 0x6185 JUMP JUMPDEST JUMPDEST PUSH1 0x1 DUP3 ADD SWAP1 POP SWAP2 SWAP1 POP JUMP JUMPDEST PUSH32 0x6F6E6C792076616C696420616464726573732063616E2063616C6C0000000000 PUSH1 0x0 DUP3 ADD MSTORE POP JUMP JUMPDEST PUSH1 0x0 PUSH2 0x628F PUSH1 0x1B DUP4 PUSH2 0x5C50 JUMP JUMPDEST SWAP2 POP PUSH2 0x629A DUP3 PUSH2 0x6259 JUMP JUMPDEST PUSH1 0x20 DUP3 ADD SWAP1 POP SWAP2 SWAP1 POP JUMP JUMPDEST PUSH1 0x0 PUSH1 0x20 DUP3 ADD SWAP1 POP DUP2 DUP2 SUB PUSH1 0x0 DUP4 ADD MSTORE PUSH2 0x62BE DUP2 PUSH2 0x6282 JUMP JUMPDEST SWAP1 POP SWAP2 SWAP1 POP JUMP JUMPDEST PUSH32 0x5F7075626C6963526174696F206D75737420736D616C6C6572207468616E2044 PUSH1 0x0 DUP3 ADD MSTORE PUSH32 0x454E4F4D494E41544F5200000000000000000000000000000000000000000000 PUSH1 0x20 DUP3 ADD MSTORE POP JUMP JUMPDEST PUSH1 0x0 PUSH2 0x6321 PUSH1 0x2A DUP4 PUSH2 0x5C50 JUMP JUMPDEST SWAP2 POP PUSH2 0x632C DUP3 PUSH2 0x62C5 JUMP JUMPDEST PUSH1 0x40 DUP3 ADD SWAP1 POP SWAP2 SWAP1 POP JUMP JUMPDEST PUSH1 0x0 PUSH1 0x20 DUP3 ADD SWAP1 POP DUP2 DUP2 SUB PUSH1 0x0 DUP4 ADD MSTORE PUSH2 0x6350 DUP2 PUSH2 0x6314 JUMP JUMPDEST SWAP1 POP SWAP2 SWAP1 POP JUMP JUMPDEST PUSH32 0x48617320746F2062652066696E616C697A656400000000000000000000000000 PUSH1 0x0 DUP3 ADD MSTORE POP JUMP JUMPDEST PUSH1 0x0 PUSH2 0x638D PUSH1 0x13 DUP4 PUSH2 0x5C50 JUMP JUMPDEST SWAP2 POP PUSH2 0x6398 DUP3 PUSH2 0x6357 JUMP JUMPDEST PUSH1 0x20 DUP3 ADD SWAP1 POP SWAP2 SWAP1 POP JUMP JUMPDEST PUSH1 0x0 PUSH1 0x20 DUP3 ADD SWAP1 POP DUP2 DUP2 SUB PUSH1 0x0 DUP4 ADD MSTORE PUSH2 0x63BC DUP2 PUSH2 0x6380 JUMP JUMPDEST SWAP1 POP SWAP2 SWAP1 POP JUMP JUMPDEST PUSH32 0x4D696E696D756D2072616973652068617320746F206265207265616368656400 PUSH1 0x0 DUP3 ADD MSTORE POP JUMP JUMPDEST PUSH1 0x0 PUSH2 0x63F9 PUSH1 0x1F DUP4 PUSH2 0x5C50 JUMP JUMPDEST SWAP2 POP PUSH2 0x6404 DUP3 PUSH2 0x63C3 JUMP JUMPDEST PUSH1 0x20 DUP3 ADD SWAP1 POP SWAP2 SWAP1 POP JUMP JUMPDEST PUSH1 0x0 PUSH1 0x20 DUP3 ADD SWAP1 POP DUP2 DUP2 SUB PUSH1 0x0 DUP4 ADD MSTORE PUSH2 0x6428 DUP2 PUSH2 0x63EC JUMP JUMPDEST SWAP1 POP SWAP2 SWAP1 POP JUMP JUMPDEST PUSH1 0x0 DUP2 MLOAD SWAP1 POP PUSH2 0x643E DUP2 PUSH2 0x5645 JUMP JUMPDEST SWAP3 SWAP2 POP POP JUMP JUMPDEST PUSH1 0x0 PUSH1 0x20 DUP3 DUP5 SUB SLT ISZERO PUSH2 0x645A JUMPI PUSH2 0x6459 PUSH2 0x544E JUMP JUMPDEST JUMPDEST PUSH1 0x0 PUSH2 0x6468 DUP5 DUP3 DUP6 ADD PUSH2 0x642F JUMP JUMPDEST SWAP2 POP POP SWAP3 SWAP2 POP POP JUMP JUMPDEST PUSH32 0x48617320746F206265206E6F6E20696E7374616E742073776170000000000000 PUSH1 0x0 DUP3 ADD MSTORE POP JUMP JUMPDEST PUSH1 0x0 PUSH2 0x64A7 PUSH1 0x1A DUP4 PUSH2 0x5C50 JUMP JUMPDEST SWAP2 POP PUSH2 0x64B2 DUP3 PUSH2 0x6471 JUMP JUMPDEST PUSH1 0x20 DUP3 ADD SWAP1 POP SWAP2 SWAP1 POP JUMP JUMPDEST PUSH1 0x0 PUSH1 0x20 DUP3 ADD SWAP1 POP DUP2 DUP2 SUB PUSH1 0x0 DUP4 ADD MSTORE PUSH2 0x64D6 DUP2 PUSH2 0x649A JUMP JUMPDEST SWAP1 POP SWAP2 SWAP1 POP JUMP JUMPDEST PUSH32 0x4D696E696D756D2072616973652068617320746F206578697374000000000000 PUSH1 0x0 DUP3 ADD MSTORE POP JUMP JUMPDEST PUSH1 0x0 PUSH2 0x6513 PUSH1 0x1A DUP4 PUSH2 0x5C50 JUMP JUMPDEST SWAP2 POP PUSH2 0x651E DUP3 PUSH2 0x64DD JUMP JUMPDEST PUSH1 0x20 DUP3 ADD SWAP1 POP SWAP2 SWAP1 POP JUMP JUMPDEST PUSH1 0x0 PUSH1 0x20 DUP3 ADD SWAP1 POP DUP2 DUP2 SUB PUSH1 0x0 DUP4 ADD MSTORE PUSH2 0x6542 DUP2 PUSH2 0x6506 JUMP JUMPDEST SWAP1 POP SWAP2 SWAP1 POP JUMP JUMPDEST PUSH32 0x5075726368617365206973206569746865722030206F722066696E616C697A65 PUSH1 0x0 DUP3 ADD MSTORE PUSH32 0x6400000000000000000000000000000000000000000000000000000000000000 PUSH1 0x20 DUP3 ADD MSTORE POP JUMP JUMPDEST PUSH1 0x0 PUSH2 0x65A5 PUSH1 0x21 DUP4 PUSH2 0x5C50 JUMP JUMPDEST SWAP2 POP PUSH2 0x65B0 DUP3 PUSH2 0x6549 JUMP JUMPDEST PUSH1 0x40 DUP3 ADD SWAP1 POP SWAP2 SWAP1 POP JUMP JUMPDEST PUSH1 0x0 PUSH1 0x20 DUP3 ADD SWAP1 POP DUP2 DUP2 SUB PUSH1 0x0 DUP4 ADD MSTORE PUSH2 0x65D4 DUP2 PUSH2 0x6598 JUMP JUMPDEST SWAP1 POP SWAP2 SWAP1 POP JUMP JUMPDEST PUSH32 0x546F6B656E20416464726573732068617320746F206265206469666620746861 PUSH1 0x0 DUP3 ADD MSTORE PUSH32 0x6E2074686520696265703230207375626A65637420746F2073616C6500000000 PUSH1 0x20 DUP3 ADD MSTORE POP JUMP JUMPDEST PUSH1 0x0 PUSH2 0x6637 PUSH1 0x3C DUP4 PUSH2 0x5C50 JUMP JUMPDEST SWAP2 POP PUSH2 0x6642 DUP3 PUSH2 0x65DB JUMP JUMPDEST PUSH1 0x40 DUP3 ADD SWAP1 POP SWAP2 SWAP1 POP JUMP JUMPDEST PUSH1 0x0 PUSH1 0x20 DUP3 ADD SWAP1 POP DUP2 DUP2 SUB PUSH1 0x0 DUP4 ADD MSTORE PUSH2 0x6666 DUP2 PUSH2 0x662A JUMP JUMPDEST SWAP1 POP SWAP2 SWAP1 POP JUMP JUMPDEST PUSH32 0x205F616464726573736573206C656E677468206973207A65726F000000000000 PUSH1 0x0 DUP3 ADD MSTORE POP JUMP JUMPDEST PUSH1 0x0 PUSH2 0x66A3 PUSH1 0x1A DUP4 PUSH2 0x5C50 JUMP JUMPDEST SWAP2 POP PUSH2 0x66AE DUP3 PUSH2 0x666D JUMP JUMPDEST PUSH1 0x20 DUP3 ADD SWAP1 POP SWAP2 SWAP1 POP JUMP JUMPDEST PUSH1 0x0 PUSH1 0x20 DUP3 ADD SWAP1 POP DUP2 DUP2 SUB PUSH1 0x0 DUP4 ADD MSTORE PUSH2 0x66D2 DUP2 PUSH2 0x6696 JUMP JUMPDEST SWAP1 POP SWAP2 SWAP1 POP JUMP JUMPDEST PUSH32 0x6C65737320616464726573730000000000000000000000000000000000000000 PUSH1 0x0 DUP3 ADD MSTORE POP JUMP JUMPDEST PUSH1 0x0 PUSH2 0x670F PUSH1 0xC DUP4 PUSH2 0x5C50 JUMP JUMPDEST SWAP2 POP PUSH2 0x671A DUP3 PUSH2 0x66D9 JUMP JUMPDEST PUSH1 0x20 DUP3 ADD SWAP1 POP SWAP2 SWAP1 POP JUMP JUMPDEST PUSH1 0x0 PUSH1 0x20 DUP3 ADD SWAP1 POP DUP2 DUP2 SUB PUSH1 0x0 DUP4 ADD MSTORE PUSH2 0x673E DUP2 PUSH2 0x6702 JUMP JUMPDEST SWAP1 POP SWAP2 SWAP1 POP JUMP JUMPDEST PUSH32 0x4E487B7100000000000000000000000000000000000000000000000000000000 PUSH1 0x0 MSTORE PUSH1 0x22 PUSH1 0x4 MSTORE PUSH1 0x24 PUSH1 0x0 REVERT JUMPDEST PUSH1 0x0 PUSH1 0x2 DUP3 DIV SWAP1 POP PUSH1 0x1 DUP3 AND DUP1 PUSH2 0x678C JUMPI PUSH1 0x7F DUP3 AND SWAP2 POP JUMPDEST PUSH1 0x20 DUP3 LT DUP2 SUB PUSH2 0x679F JUMPI PUSH2 0x679E PUSH2 0x6745 JUMP JUMPDEST JUMPDEST POP SWAP2 SWAP1 POP JUMP JUMPDEST PUSH1 0x0 DUP2 SWAP1 POP DUP2 PUSH1 0x0 MSTORE PUSH1 0x20 PUSH1 0x0 KECCAK256 SWAP1 POP SWAP2 SWAP1 POP JUMP JUMPDEST PUSH1 0x0 DUP2 SLOAD PUSH2 0x67C7 DUP2 PUSH2 0x6774 JUMP JUMPDEST PUSH2 0x67D1 DUP2 DUP7 PUSH2 0x5C50 JUMP JUMPDEST SWAP5 POP PUSH1 0x1 DUP3 AND PUSH1 0x0 DUP2 EQ PUSH2 0x67EC JUMPI PUSH1 0x1 DUP2 EQ PUSH2 0x6802 JUMPI PUSH2 0x6835 JUMP JUMPDEST PUSH1 0xFF NOT DUP4 AND DUP7 MSTORE DUP2 ISZERO ISZERO PUSH1 0x20 MUL DUP7 ADD SWAP4 POP PUSH2 0x6835 JUMP JUMPDEST PUSH2 0x680B DUP6 PUSH2 0x67A5 JUMP JUMPDEST PUSH1 0x0 JUMPDEST DUP4 DUP2 LT ISZERO PUSH2 0x682D JUMPI DUP2 SLOAD DUP2 DUP10 ADD MSTORE PUSH1 0x1 DUP3 ADD SWAP2 POP PUSH1 0x20 DUP2 ADD SWAP1 POP PUSH2 0x680E JUMP JUMPDEST DUP1 DUP9 ADD SWAP6 POP POP POP JUMPDEST POP POP POP SWAP3 SWAP2 POP POP JUMP JUMPDEST PUSH1 0x0 PUSH1 0x60 DUP3 ADD SWAP1 POP DUP2 DUP2 SUB PUSH1 0x0 DUP4 ADD MSTORE PUSH2 0x6858 DUP2 DUP7 PUSH2 0x5C8B JUMP JUMPDEST SWAP1 POP DUP2 DUP2 SUB PUSH1 0x20 DUP4 ADD MSTORE PUSH2 0x686C DUP2 DUP6 PUSH2 0x67BA JUMP JUMPDEST SWAP1 POP PUSH2 0x687B PUSH1 0x40 DUP4 ADD DUP5 PUSH2 0x57AD JUMP JUMPDEST SWAP5 SWAP4 POP POP POP POP JUMP JUMPDEST PUSH32 0x6E6F7420612076616C6964207469657200000000000000000000000000000000 PUSH1 0x0 DUP3 ADD MSTORE POP JUMP JUMPDEST PUSH1 0x0 PUSH2 0x68B9 PUSH1 0x10 DUP4 PUSH2 0x5C50 JUMP JUMPDEST SWAP2 POP PUSH2 0x68C4 DUP3 PUSH2 0x6883 JUMP JUMPDEST PUSH1 0x20 DUP3 ADD SWAP1 POP SWAP2 SWAP1 POP JUMP JUMPDEST PUSH1 0x0 PUSH1 0x20 DUP3 ADD SWAP1 POP DUP2 DUP2 SUB PUSH1 0x0 DUP4 ADD MSTORE PUSH2 0x68E8 DUP2 PUSH2 0x68AC JUMP JUMPDEST SWAP1 POP SWAP2 SWAP1 POP JUMP JUMPDEST PUSH1 0x0 PUSH1 0x60 DUP3 ADD SWAP1 POP PUSH2 0x6904 PUSH1 0x0 DUP4 ADD DUP7 PUSH2 0x583A JUMP JUMPDEST PUSH2 0x6911 PUSH1 0x20 DUP4 ADD DUP6 PUSH2 0x57AD JUMP JUMPDEST PUSH2 0x691E PUSH1 0x40 DUP4 ADD DUP5 PUSH2 0x583A JUMP JUMPDEST SWAP5 SWAP4 POP POP POP POP JUMP JUMPDEST PUSH1 0x0 PUSH1 0x20 PUSH1 0x1F DUP4 ADD DIV SWAP1 POP SWAP2 SWAP1 POP JUMP JUMPDEST PUSH1 0x0 DUP3 DUP3 SHL SWAP1 POP SWAP3 SWAP2 POP POP JUMP JUMPDEST PUSH1 0x0 PUSH1 0x8 DUP4 MUL PUSH2 0x6973 PUSH32 0xFFFFFFFFFFFFFFFFFFFFFFFFFFFFFFFFFFFFFFFFFFFFFFFFFFFFFFFFFFFFFFFF DUP3 PUSH2 0x6936 JUMP JUMPDEST PUSH2 0x697D DUP7 DUP4 PUSH2 0x6936 JUMP JUMPDEST SWAP6 POP DUP1 NOT DUP5 AND SWAP4 POP DUP1 DUP7 AND DUP5 OR SWAP3 POP POP POP SWAP4 SWAP3 POP POP POP JUMP JUMPDEST PUSH1 0x0 PUSH2 0x69B0 PUSH2 0x69AB PUSH2 0x69A6 DUP5 PUSH2 0x563B JUMP JUMPDEST PUSH2 0x58C0 JUMP JUMPDEST PUSH2 0x563B JUMP JUMPDEST SWAP1 POP SWAP2 SWAP1 POP JUMP JUMPDEST PUSH1 0x0 DUP2 SWAP1 POP SWAP2 SWAP1 POP JUMP JUMPDEST PUSH2 0x69CA DUP4 PUSH2 0x6995 JUMP JUMPDEST PUSH2 0x69DE PUSH2 0x69D6 DUP3 PUSH2 0x69B7 JUMP JUMPDEST DUP5 DUP5 SLOAD PUSH2 0x6943 JUMP JUMPDEST DUP3 SSTORE POP POP POP POP JUMP JUMPDEST PUSH1 0x0 SWAP1 JUMP JUMPDEST PUSH2 0x69F3 PUSH2 0x69E6 JUMP JUMPDEST PUSH2 0x69FE DUP2 DUP5 DUP5 PUSH2 0x69C1 JUMP JUMPDEST POP POP POP JUMP JUMPDEST JUMPDEST DUP2 DUP2 LT ISZERO PUSH2 0x6A22 JUMPI PUSH2 0x6A17 PUSH1 0x0 DUP3 PUSH2 0x69EB JUMP JUMPDEST PUSH1 0x1 DUP2 ADD SWAP1 POP PUSH2 0x6A04 JUMP JUMPDEST POP POP JUMP JUMPDEST PUSH1 0x1F DUP3 GT ISZERO PUSH2 0x6A67 JUMPI PUSH2 0x6A38 DUP2 PUSH2 0x67A5 JUMP JUMPDEST PUSH2 0x6A41 DUP5 PUSH2 0x6926 JUMP JUMPDEST DUP2 ADD PUSH1 0x20 DUP6 LT ISZERO PUSH2 0x6A50 JUMPI DUP2 SWAP1 POP JUMPDEST PUSH2 0x6A64 PUSH2 0x6A5C DUP6 PUSH2 0x6926 JUMP JUMPDEST DUP4 ADD DUP3 PUSH2 0x6A03 JUMP JUMPDEST POP POP JUMPDEST POP POP POP JUMP JUMPDEST PUSH1 0x0 DUP3 DUP3 SHR SWAP1 POP SWAP3 SWAP2 POP POP JUMP JUMPDEST PUSH1 0x0 PUSH2 0x6A8A PUSH1 0x0 NOT DUP5 PUSH1 0x8 MUL PUSH2 0x6A6C JUMP JUMPDEST NOT DUP1 DUP4 AND SWAP2 POP POP SWAP3 SWAP2 POP POP JUMP JUMPDEST PUSH1 0x0 PUSH2 0x6AA3 DUP4 DUP4 PUSH2 0x6A79 JUMP JUMPDEST SWAP2 POP DUP3 PUSH1 0x2 MUL DUP3 OR SWAP1 POP SWAP3 SWAP2 POP POP JUMP JUMPDEST PUSH2 0x6ABC DUP3 PUSH2 0x5C45 JUMP JUMPDEST PUSH8 0xFFFFFFFFFFFFFFFF DUP2 GT ISZERO PUSH2 0x6AD5 JUMPI PUSH2 0x6AD4 PUSH2 0x546E JUMP JUMPDEST JUMPDEST PUSH2 0x6ADF DUP3 SLOAD PUSH2 0x6774 JUMP JUMPDEST PUSH2 0x6AEA DUP3 DUP3 DUP6 PUSH2 0x6A26 JUMP JUMPDEST PUSH1 0x0 PUSH1 0x20 SWAP1 POP PUSH1 0x1F DUP4 GT PUSH1 0x1 DUP2 EQ PUSH2 0x6B1D JUMPI PUSH1 0x0 DUP5 ISZERO PUSH2 0x6B0B JUMPI DUP3 DUP8 ADD MLOAD SWAP1 POP JUMPDEST PUSH2 0x6B15 DUP6 DUP3 PUSH2 0x6A97 JUMP JUMPDEST DUP7 SSTORE POP PUSH2 0x6B7D JUMP JUMPDEST PUSH1 0x1F NOT DUP5 AND PUSH2 0x6B2B DUP7 PUSH2 0x67A5 JUMP JUMPDEST PUSH1 0x0 JUMPDEST DUP3 DUP2 LT ISZERO PUSH2 0x6B53 JUMPI DUP5 DUP10 ADD MLOAD DUP3 SSTORE PUSH1 0x1 DUP3 ADD SWAP2 POP PUSH1 0x20 DUP6 ADD SWAP5 POP PUSH1 0x20 DUP2 ADD SWAP1 POP PUSH2 0x6B2E JUMP JUMPDEST DUP7 DUP4 LT ISZERO PUSH2 0x6B70 JUMPI DUP5 DUP10 ADD MLOAD PUSH2 0x6B6C PUSH1 0x1F DUP10 AND DUP3 PUSH2 0x6A79 JUMP JUMPDEST DUP4 SSTORE POP JUMPDEST PUSH1 0x1 PUSH1 0x2 DUP9 MUL ADD DUP9 SSTORE POP POP POP JUMPDEST POP POP POP POP POP POP JUMP JUMPDEST PUSH32 0x496E646976696475616C204D6178696D696D20414D6F756E742073686F756C64 PUSH1 0x0 DUP3 ADD MSTORE PUSH32 0x206265203E20496E646976696475616C204D696E696D756D20416D6F756E7400 PUSH1 0x20 DUP3 ADD MSTORE POP JUMP JUMPDEST PUSH1 0x0 PUSH2 0x6BE1 PUSH1 0x3F DUP4 PUSH2 0x5C50 JUMP JUMPDEST SWAP2 POP PUSH2 0x6BEC DUP3 PUSH2 0x6B85 JUMP JUMPDEST PUSH1 0x40 DUP3 ADD SWAP1 POP SWAP2 SWAP1 POP JUMP JUMPDEST PUSH1 0x0 PUSH1 0x20 DUP3 ADD SWAP1 POP DUP2 DUP2 SUB PUSH1 0x0 DUP4 ADD MSTORE PUSH2 0x6C10 DUP2 PUSH2 0x6BD4 JUMP JUMPDEST SWAP1 POP SWAP2 SWAP1 POP JUMP JUMPDEST PUSH32 0x546F6B656E7320666F722053616C652073686F756C64206265203E20496E6469 PUSH1 0x0 DUP3 ADD MSTORE PUSH32 0x76696475616C204D696E696D756D20416D6F756E740000000000000000000000 PUSH1 0x20 DUP3 ADD MSTORE POP JUMP JUMPDEST PUSH1 0x0 PUSH2 0x6C73 PUSH1 0x35 DUP4 PUSH2 0x5C50 JUMP JUMPDEST SWAP2 POP PUSH2 0x6C7E DUP3 PUSH2 0x6C17 JUMP JUMPDEST PUSH1 0x40 DUP3 ADD SWAP1 POP SWAP2 SWAP1 POP JUMP JUMPDEST PUSH1 0x0 PUSH1 0x20 DUP3 ADD SWAP1 POP DUP2 DUP2 SUB PUSH1 0x0 DUP4 ADD MSTORE PUSH2 0x6CA2 DUP2 PUSH2 0x6C66 JUMP JUMPDEST SWAP1 POP SWAP2 SWAP1 POP JUMP JUMPDEST PUSH32 0x546F6B656E7320666F722053616C652073686F756C64206265203E20496E6469 PUSH1 0x0 DUP3 ADD MSTORE PUSH32 0x76696475616C206D6178696D756D20416D6F756E740000000000000000000000 PUSH1 0x20 DUP3 ADD MSTORE POP JUMP JUMPDEST PUSH1 0x0 PUSH2 0x6D05 PUSH1 0x35 DUP4 PUSH2 0x5C50 JUMP JUMPDEST SWAP2 POP PUSH2 0x6D10 DUP3 PUSH2 0x6CA9 JUMP JUMPDEST PUSH1 0x40 DUP3 ADD SWAP1 POP SWAP2 SWAP1 POP JUMP JUMPDEST PUSH1 0x0 PUSH1 0x20 DUP3 ADD SWAP1 POP DUP2 DUP2 SUB PUSH1 0x0 DUP4 ADD MSTORE PUSH2 0x6D34 DUP2 PUSH2 0x6CF8 JUMP JUMPDEST SWAP1 POP SWAP2 SWAP1 POP JUMP JUMPDEST PUSH32 0x546F74616C526169736520697320626967676572207468616E206D696E696D75 PUSH1 0x0 DUP3 ADD MSTORE PUSH32 0x6D20726169736520616D6F756E74000000000000000000000000000000000000 PUSH1 0x20 DUP3 ADD MSTORE POP JUMP JUMPDEST PUSH1 0x0 PUSH2 0x6D97 PUSH1 0x2E DUP4 PUSH2 0x5C50 JUMP JUMPDEST SWAP2 POP PUSH2 0x6DA2 DUP3 PUSH2 0x6D3B JUMP JUMPDEST PUSH1 0x40 DUP3 ADD SWAP1 POP SWAP2 SWAP1 POP JUMP JUMPDEST PUSH1 0x0 PUSH1 0x20 DUP3 ADD SWAP1 POP DUP2 DUP2 SUB PUSH1 0x0 DUP4 ADD MSTORE PUSH2 0x6DC6 DUP2 PUSH2 0x6D8A JUMP JUMPDEST SWAP1 POP SWAP2 SWAP1 POP JUMP JUMPDEST PUSH32 0x746F6B656E2062616C616E6365206973206C6F77000000000000000000000000 PUSH1 0x0 DUP3 ADD MSTORE POP JUMP JUMPDEST PUSH1 0x0 PUSH2 0x6E03 PUSH1 0x14 DUP4 PUSH2 0x5C50 JUMP JUMPDEST SWAP2 POP PUSH2 0x6E0E DUP3 PUSH2 0x6DCD JUMP JUMPDEST PUSH1 0x20 DUP3 ADD SWAP1 POP SWAP2 SWAP1 POP JUMP JUMPDEST PUSH1 0x0 PUSH1 0x20 DUP3 ADD SWAP1 POP DUP2 DUP2 SUB PUSH1 0x0 DUP4 ADD MSTORE PUSH2 0x6E32 DUP2 PUSH2 0x6DF6 JUMP JUMPDEST SWAP1 POP SWAP2 SWAP1 POP JUMP JUMPDEST PUSH32 0x5472616E73666572656420746F6B656E73206861766520746F20626520657175 PUSH1 0x0 DUP3 ADD MSTORE PUSH32 0x616C206F72206C657373207468616E2070726F706F7365640000000000000000 PUSH1 0x20 DUP3 ADD MSTORE POP JUMP JUMPDEST PUSH1 0x0 PUSH2 0x6E95 PUSH1 0x38 DUP4 PUSH2 0x5C50 JUMP JUMPDEST SWAP2 POP PUSH2 0x6EA0 DUP3 PUSH2 0x6E39 JUMP JUMPDEST PUSH1 0x40 DUP3 ADD SWAP1 POP SWAP2 SWAP1 POP JUMP JUMPDEST PUSH1 0x0 PUSH1 0x20 DUP3 ADD SWAP1 POP DUP2 DUP2 SUB PUSH1 0x0 DUP4 ADD MSTORE PUSH2 0x6EC4 DUP2 PUSH2 0x6E88 JUMP JUMPDEST SWAP1 POP SWAP2 SWAP1 POP JUMP JUMPDEST PUSH1 0x0 PUSH1 0x40 DUP3 ADD SWAP1 POP PUSH2 0x6EE0 PUSH1 0x0 DUP4 ADD DUP6 PUSH2 0x57AD JUMP JUMPDEST PUSH2 0x6EED PUSH1 0x20 DUP4 ADD DUP5 PUSH2 0x583A JUMP JUMPDEST SWAP4 SWAP3 POP POP POP JUMP JUMPDEST PUSH32 0x5365742076616C69642061646472657373000000000000000000000000000000 PUSH1 0x0 DUP3 ADD MSTORE POP JUMP JUMPDEST PUSH1 0x0 PUSH2 0x6F2A PUSH1 0x11 DUP4 PUSH2 0x5C50 JUMP JUMPDEST SWAP2 POP PUSH2 0x6F35 DUP3 PUSH2 0x6EF4 JUMP JUMPDEST PUSH1 0x20 DUP3 ADD SWAP1 POP SWAP2 SWAP1 POP JUMP JUMPDEST PUSH1 0x0 PUSH1 0x20 DUP3 ADD SWAP1 POP DUP2 DUP2 SUB PUSH1 0x0 DUP4 ADD MSTORE PUSH2 0x6F59 DUP2 PUSH2 0x6F1D JUMP JUMPDEST SWAP1 POP SWAP2 SWAP1 POP JUMP JUMPDEST PUSH1 0x0 PUSH2 0x6F6B DUP3 PUSH2 0x58EC JUMP JUMPDEST SWAP1 POP SWAP2 SWAP1 POP JUMP JUMPDEST PUSH2 0x6F7B DUP2 PUSH2 0x6F60 JUMP JUMPDEST DUP3 MSTORE POP POP JUMP JUMPDEST PUSH1 0x0 PUSH1 0x20 DUP3 ADD SWAP1 POP PUSH2 0x6F96 PUSH1 0x0 DUP4 ADD DUP5 PUSH2 0x6F72 JUMP JUMPDEST SWAP3 SWAP2 POP POP JUMP JUMPDEST PUSH1 0x0 DUP2 PUSH1 0x1 SHR SWAP1 POP SWAP2 SWAP1 POP JUMP JUMPDEST PUSH1 0x0 DUP1 DUP3 SWAP2 POP DUP4 SWAP1 POP JUMPDEST PUSH1 0x1 DUP6 GT ISZERO PUSH2 0x6FF3 JUMPI DUP1 DUP7 DIV DUP2 GT ISZERO PUSH2 0x6FCF JUMPI PUSH2 0x6FCE PUSH2 0x6185 JUMP JUMPDEST JUMPDEST PUSH1 0x1 DUP6 AND ISZERO PUSH2 0x6FDE JUMPI DUP1 DUP3 MUL SWAP2 POP JUMPDEST DUP1 DUP2 MUL SWAP1 POP PUSH2 0x6FEC DUP6 PUSH2 0x6F9C JUMP JUMPDEST SWAP5 POP PUSH2 0x6FB3 JUMP JUMPDEST SWAP5 POP SWAP5 SWAP3 POP POP POP JUMP JUMPDEST PUSH1 0x0 DUP3 PUSH2 0x700C JUMPI PUSH1 0x1 SWAP1 POP PUSH2 0x70C8 JUMP JUMPDEST DUP2 PUSH2 0x701A JUMPI PUSH1 0x0 SWAP1 POP PUSH2 0x70C8 JUMP JUMPDEST DUP2 PUSH1 0x1 DUP2 EQ PUSH2 0x7030 JUMPI PUSH1 0x2 DUP2 EQ PUSH2 0x703A JUMPI PUSH2 0x7069 JUMP JUMPDEST PUSH1 0x1 SWAP2 POP POP PUSH2 0x70C8 JUMP JUMPDEST PUSH1 0xFF DUP5 GT ISZERO PUSH2 0x704C JUMPI PUSH2 0x704B PUSH2 0x6185 JUMP JUMPDEST JUMPDEST DUP4 PUSH1 0x2 EXP SWAP2 POP DUP5 DUP3 GT ISZERO PUSH2 0x7063 JUMPI PUSH2 0x7062 PUSH2 0x6185 JUMP JUMPDEST JUMPDEST POP PUSH2 0x70C8 JUMP JUMPDEST POP PUSH1 0x20 DUP4 LT PUSH2 0x133 DUP4 LT AND PUSH1 0x4E DUP5 LT PUSH1 0xB DUP5 LT AND OR ISZERO PUSH2 0x709E JUMPI DUP3 DUP3 EXP SWAP1 POP DUP4 DUP2 GT ISZERO PUSH2 0x7099 JUMPI PUSH2 0x7098 PUSH2 0x6185 JUMP JUMPDEST JUMPDEST PUSH2 0x70C8 JUMP JUMPDEST PUSH2 0x70AB DUP5 DUP5 DUP5 PUSH1 0x1 PUSH2 0x6FA9 JUMP JUMPDEST SWAP3 POP SWAP1 POP DUP2 DUP5 DIV DUP2 GT ISZERO PUSH2 0x70C2 JUMPI PUSH2 0x70C1 PUSH2 0x6185 JUMP JUMPDEST JUMPDEST DUP2 DUP2 MUL SWAP1 POP JUMPDEST SWAP4 SWAP3 POP POP POP JUMP JUMPDEST PUSH1 0x0 PUSH2 0x70DA DUP3 PUSH2 0x563B JUMP JUMPDEST SWAP2 POP PUSH2 0x70E5 DUP4 PUSH2 0x563B JUMP JUMPDEST SWAP3 POP PUSH2 0x7112 PUSH32 0xFFFFFFFFFFFFFFFFFFFFFFFFFFFFFFFFFFFFFFFFFFFFFFFFFFFFFFFFFFFFFFFF DUP5 DUP5 PUSH2 0x6FFC JUMP JUMPDEST SWAP1 POP SWAP3 SWAP2 POP POP JUMP JUMPDEST PUSH32 0x48617320746F2062652066756E64656400000000000000000000000000000000 PUSH1 0x0 DUP3 ADD MSTORE POP JUMP JUMPDEST PUSH1 0x0 PUSH2 0x7150 PUSH1 0x10 DUP4 PUSH2 0x5C50 JUMP JUMPDEST SWAP2 POP PUSH2 0x715B DUP3 PUSH2 0x711A JUMP JUMPDEST PUSH1 0x20 DUP3 ADD SWAP1 POP SWAP2 SWAP1 POP JUMP JUMPDEST PUSH1 0x0 PUSH1 0x20 DUP3 ADD SWAP1 POP DUP2 DUP2 SUB PUSH1 0x0 DUP4 ADD MSTORE PUSH2 0x717F DUP2 PUSH2 0x7143 JUMP JUMPDEST SWAP1 POP SWAP2 SWAP1 POP JUMP JUMPDEST PUSH32 0x48617320746F206265206F70656E000000000000000000000000000000000000 PUSH1 0x0 DUP3 ADD MSTORE POP JUMP JUMPDEST PUSH1 0x0 PUSH2 0x71BC PUSH1 0xE DUP4 PUSH2 0x5C50 JUMP JUMPDEST SWAP2 POP PUSH2 0x71C7 DUP3 PUSH2 0x7186 JUMP JUMPDEST PUSH1 0x20 DUP3 ADD SWAP1 POP SWAP2 SWAP1 POP JUMP JUMPDEST PUSH1 0x0 PUSH1 0x20 DUP3 ADD SWAP1 POP DUP2 DUP2 SUB PUSH1 0x0 DUP4 ADD MSTORE PUSH2 0x71EB DUP2 PUSH2 0x71AF JUMP JUMPDEST SWAP1 POP SWAP2 SWAP1 POP JUMP JUMPDEST PUSH32 0x6F6E6C792077686974656C69737420616464726573732063616E2063616C6C00 PUSH1 0x0 DUP3 ADD MSTORE POP JUMP JUMPDEST PUSH1 0x0 PUSH2 0x7228 PUSH1 0x1F DUP4 PUSH2 0x5C50 JUMP JUMPDEST SWAP2 POP PUSH2 0x7233 DUP3 PUSH2 0x71F2 JUMP JUMPDEST PUSH1 0x20 DUP3 ADD SWAP1 POP SWAP2 SWAP1 POP JUMP JUMPDEST PUSH1 0x0 PUSH1 0x20 DUP3 ADD SWAP1 POP DUP2 DUP2 SUB PUSH1 0x0 DUP4 ADD MSTORE PUSH2 0x7257 DUP2 PUSH2 0x721B JUMP JUMPDEST SWAP1 POP SWAP2 SWAP1 POP JUMP JUMPDEST PUSH32 0x416D6F756E742068617320746F20626520706F73697469766500000000000000 PUSH1 0x0 DUP3 ADD MSTORE POP JUMP JUMPDEST PUSH1 0x0 PUSH2 0x7294 PUSH1 0x19 DUP4 PUSH2 0x5C50 JUMP JUMPDEST SWAP2 POP PUSH2 0x729F DUP3 PUSH2 0x725E JUMP JUMPDEST PUSH1 0x20 DUP3 ADD SWAP1 POP SWAP2 SWAP1 POP JUMP JUMPDEST PUSH1 0x0 PUSH1 0x20 DUP3 ADD SWAP1 POP DUP2 DUP2 SUB PUSH1 0x0 DUP4 ADD MSTORE PUSH2 0x72C3 DUP2 PUSH2 0x7287 JUMP JUMPDEST SWAP1 POP SWAP2 SWAP1 POP JUMP JUMPDEST PUSH32 0x416D6F756E74206973206C657373207468616E20746F6B656E7320617661696C PUSH1 0x0 DUP3 ADD MSTORE PUSH32 0x61626C6500000000000000000000000000000000000000000000000000000000 PUSH1 0x20 DUP3 ADD MSTORE POP JUMP JUMPDEST PUSH1 0x0 PUSH2 0x7326 PUSH1 0x24 DUP4 PUSH2 0x5C50 JUMP JUMPDEST SWAP2 POP PUSH2 0x7331 DUP3 PUSH2 0x72CA JUMP JUMPDEST PUSH1 0x40 DUP3 ADD SWAP1 POP SWAP2 SWAP1 POP JUMP JUMPDEST PUSH1 0x0 PUSH1 0x20 DUP3 ADD SWAP1 POP DUP2 DUP2 SUB PUSH1 0x0 DUP4 ADD MSTORE PUSH2 0x7355 DUP2 PUSH2 0x7319 JUMP JUMPDEST SWAP1 POP SWAP2 SWAP1 POP JUMP JUMPDEST PUSH32 0x557365722068617320746F20636F7665722074686520636F7374206F66207468 PUSH1 0x0 DUP3 ADD MSTORE PUSH32 0x65207377617020696E20424E422C207573652074686520636F73742066756E63 PUSH1 0x20 DUP3 ADD MSTORE PUSH32 0x74696F6E20746F2064657465726D696E65000000000000000000000000000000 PUSH1 0x40 DUP3 ADD MSTORE POP JUMP JUMPDEST PUSH1 0x0 PUSH2 0x73DE PUSH1 0x51 DUP4 PUSH2 0x5C50 JUMP JUMPDEST SWAP2 POP PUSH2 0x73E9 DUP3 PUSH2 0x735C JUMP JUMPDEST PUSH1 0x60 DUP3 ADD SWAP1 POP SWAP2 SWAP1 POP JUMP JUMPDEST PUSH1 0x0 PUSH1 0x20 DUP3 ADD SWAP1 POP DUP2 DUP2 SUB PUSH1 0x0 DUP4 ADD MSTORE PUSH2 0x740D DUP2 PUSH2 0x73D1 JUMP JUMPDEST SWAP1 POP SWAP2 SWAP1 POP JUMP JUMPDEST PUSH32 0x4F6E6C792076616C69642075736572732063616E207377617020746869732074 PUSH1 0x0 DUP3 ADD MSTORE PUSH32 0x6F6B656E73000000000000000000000000000000000000000000000000000000 PUSH1 0x20 DUP3 ADD MSTORE POP JUMP JUMPDEST PUSH1 0x0 PUSH2 0x7470 PUSH1 0x25 DUP4 PUSH2 0x5C50 JUMP JUMPDEST SWAP2 POP PUSH2 0x747B DUP3 PUSH2 0x7414 JUMP JUMPDEST PUSH1 0x40 DUP3 ADD SWAP1 POP SWAP2 SWAP1 POP JUMP JUMPDEST PUSH1 0x0 PUSH1 0x20 DUP3 ADD SWAP1 POP DUP2 DUP2 SUB PUSH1 0x0 DUP4 ADD MSTORE PUSH2 0x749F DUP2 PUSH2 0x7463 JUMP JUMPDEST SWAP1 POP SWAP2 SWAP1 POP JUMP JUMPDEST PUSH32 0x416D6F756E74206973206C657373207468616E206D696E696D756D20616D6F75 PUSH1 0x0 DUP3 ADD MSTORE PUSH32 0x6E74000000000000000000000000000000000000000000000000000000000000 PUSH1 0x20 DUP3 ADD MSTORE POP JUMP JUMPDEST PUSH1 0x0 PUSH2 0x7502 PUSH1 0x22 DUP4 PUSH2 0x5C50 JUMP JUMPDEST SWAP2 POP PUSH2 0x750D DUP3 PUSH2 0x74A6 JUMP JUMPDEST PUSH1 0x40 DUP3 ADD SWAP1 POP SWAP2 SWAP1 POP JUMP JUMPDEST PUSH1 0x0 PUSH1 0x20 DUP3 ADD SWAP1 POP DUP2 DUP2 SUB PUSH1 0x0 DUP4 ADD MSTORE PUSH2 0x7531 DUP2 PUSH2 0x74F5 JUMP JUMPDEST SWAP1 POP SWAP2 SWAP1 POP JUMP JUMPDEST PUSH32 0x416464726573732068617320616C72656164792070617373656420746865206D PUSH1 0x0 DUP3 ADD MSTORE PUSH32 0x617820616D6F756E74206F662073776170000000000000000000000000000000 PUSH1 0x20 DUP3 ADD MSTORE POP JUMP JUMPDEST PUSH1 0x0 PUSH2 0x7594 PUSH1 0x31 DUP4 PUSH2 0x5C50 JUMP JUMPDEST SWAP2 POP PUSH2 0x759F DUP3 PUSH2 0x7538 JUMP JUMPDEST PUSH1 0x40 DUP3 ADD SWAP1 POP SWAP2 SWAP1 POP JUMP JUMPDEST PUSH1 0x0 PUSH1 0x20 DUP3 ADD SWAP1 POP DUP2 DUP2 SUB PUSH1 0x0 DUP4 ADD MSTORE PUSH2 0x75C3 DUP2 PUSH2 0x7587 JUMP JUMPDEST SWAP1 POP SWAP2 SWAP1 POP JUMP JUMPDEST PUSH32 0x6E6F742073756666696369656E7420616D6F756E7420617661696C61626C6520 PUSH1 0x0 DUP3 ADD MSTORE PUSH32 0x666F72207075626C69632073616C650000000000000000000000000000000000 PUSH1 0x20 DUP3 ADD MSTORE POP JUMP JUMPDEST PUSH1 0x0 PUSH2 0x7626 PUSH1 0x2F DUP4 PUSH2 0x5C50 JUMP JUMPDEST SWAP2 POP PUSH2 0x7631 DUP3 PUSH2 0x75CA JUMP JUMPDEST PUSH1 0x40 DUP3 ADD SWAP1 POP SWAP2 SWAP1 POP JUMP JUMPDEST PUSH1 0x0 PUSH1 0x20 DUP3 ADD SWAP1 POP DUP2 DUP2 SUB PUSH1 0x0 DUP4 ADD MSTORE PUSH2 0x7655 DUP2 PUSH2 0x7619 JUMP JUMPDEST SWAP1 POP SWAP2 SWAP1 POP JUMP JUMPDEST PUSH32 0x6E6F742073756666696369656E7420616D6F756E7420617661696C61626C6520 PUSH1 0x0 DUP3 ADD MSTORE PUSH32 0x666F7220707269766174652073616C6500000000000000000000000000000000 PUSH1 0x20 DUP3 ADD MSTORE POP JUMP JUMPDEST PUSH1 0x0 PUSH2 0x76B8 PUSH1 0x30 DUP4 PUSH2 0x5C50 JUMP JUMPDEST SWAP2 POP PUSH2 0x76C3 DUP3 PUSH2 0x765C JUMP JUMPDEST PUSH1 0x40 DUP3 ADD SWAP1 POP SWAP2 SWAP1 POP JUMP JUMPDEST PUSH1 0x0 PUSH1 0x20 DUP3 ADD SWAP1 POP DUP2 DUP2 SUB PUSH1 0x0 DUP4 ADD MSTORE PUSH2 0x76E7 DUP2 PUSH2 0x76AB JUMP JUMPDEST SWAP1 POP SWAP2 SWAP1 POP JUMP JUMPDEST PUSH1 0x0 PUSH2 0x76F9 DUP3 PUSH2 0x563B JUMP JUMPDEST SWAP2 POP PUSH2 0x7704 DUP4 PUSH2 0x563B JUMP JUMPDEST SWAP3 POP DUP3 DUP3 ADD SWAP1 POP DUP1 DUP3 GT ISZERO PUSH2 0x771C JUMPI PUSH2 0x771B PUSH2 0x6185 JUMP JUMPDEST JUMPDEST SWAP3 SWAP2 POP POP JUMP JUMPDEST PUSH1 0x0 PUSH1 0x60 DUP3 ADD SWAP1 POP PUSH2 0x7737 PUSH1 0x0 DUP4 ADD DUP7 PUSH2 0x57AD JUMP JUMPDEST PUSH2 0x7744 PUSH1 0x20 DUP4 ADD DUP6 PUSH2 0x57AD JUMP JUMPDEST PUSH2 0x7751 PUSH1 0x40 DUP4 ADD DUP5 PUSH2 0x583A JUMP JUMPDEST SWAP5 SWAP4 POP POP POP POP JUMP JUMPDEST PUSH32 0x7365742056616C6964206665652070657263656E746167650000000000000000 PUSH1 0x0 DUP3 ADD MSTORE POP JUMP JUMPDEST PUSH1 0x0 PUSH2 0x778F PUSH1 0x18 DUP4 PUSH2 0x5C50 JUMP JUMPDEST SWAP2 POP PUSH2 0x779A DUP3 PUSH2 0x7759 JUMP JUMPDEST PUSH1 0x20 DUP3 ADD SWAP1 POP SWAP2 SWAP1 POP JUMP JUMPDEST PUSH1 0x0 PUSH1 0x20 DUP3 ADD SWAP1 POP DUP2 DUP2 SUB PUSH1 0x0 DUP4 ADD MSTORE PUSH2 0x77BE DUP2 PUSH2 0x7782 JUMP JUMPDEST SWAP1 POP SWAP2 SWAP1 POP JUMP JUMPDEST PUSH32 0x546F74616C5261697365206973206C657373207468616E206D696E696D756D20 PUSH1 0x0 DUP3 ADD MSTORE PUSH32 0x726169736520616D6F756E740000000000000000000000000000000000000000 PUSH1 0x20 DUP3 ADD MSTORE POP JUMP JUMPDEST PUSH1 0x0 PUSH2 0x7821 PUSH1 0x2C DUP4 PUSH2 0x5C50 JUMP JUMPDEST SWAP2 POP PUSH2 0x782C DUP3 PUSH2 0x77C5 JUMP JUMPDEST PUSH1 0x40 DUP3 ADD SWAP1 POP SWAP2 SWAP1 POP JUMP JUMPDEST PUSH1 0x0 PUSH1 0x20 DUP3 ADD SWAP1 POP DUP2 DUP2 SUB PUSH1 0x0 DUP4 ADD MSTORE PUSH2 0x7850 DUP2 PUSH2 0x7814 JUMP JUMPDEST SWAP1 POP SWAP2 SWAP1 POP JUMP JUMPDEST PUSH32 0x61646472657373206D7573742062652076616C69640000000000000000000000 PUSH1 0x0 DUP3 ADD MSTORE POP JUMP JUMPDEST PUSH1 0x0 PUSH2 0x788D PUSH1 0x15 DUP4 PUSH2 0x5C50 JUMP JUMPDEST SWAP2 POP PUSH2 0x7898 DUP3 PUSH2 0x7857 JUMP JUMPDEST PUSH1 0x20 DUP3 ADD SWAP1 POP SWAP2 SWAP1 POP JUMP JUMPDEST PUSH1 0x0 PUSH1 0x20 DUP3 ADD SWAP1 POP DUP2 DUP2 SUB PUSH1 0x0 DUP4 ADD MSTORE PUSH2 0x78BC DUP2 PUSH2 0x7880 JUMP JUMPDEST SWAP1 POP SWAP2 SWAP1 POP JUMP JUMPDEST PUSH32 0x6D696E696D756E20726169736520686173206E6F742062652072656163686564 PUSH1 0x0 DUP3 ADD MSTORE POP JUMP JUMPDEST PUSH1 0x0 PUSH2 0x78F9 PUSH1 0x20 DUP4 PUSH2 0x5C50 JUMP JUMPDEST SWAP2 POP PUSH2 0x7904 DUP3 PUSH2 0x78C3 JUMP JUMPDEST PUSH1 0x20 DUP3 ADD SWAP1 POP SWAP2 SWAP1 POP JUMP JUMPDEST PUSH1 0x0 PUSH1 0x20 DUP3 ADD SWAP1 POP DUP2 DUP2 SUB PUSH1 0x0 DUP4 ADD MSTORE PUSH2 0x7928 DUP2 PUSH2 0x78EC JUMP JUMPDEST SWAP1 POP SWAP2 SWAP1 POP JUMP JUMPDEST PUSH32 0x73656E6465722073686F756C6420707572636861736520647572696E67206970 PUSH1 0x0 DUP3 ADD MSTORE PUSH32 0x6F00000000000000000000000000000000000000000000000000000000000000 PUSH1 0x20 DUP3 ADD MSTORE POP JUMP JUMPDEST PUSH1 0x0 PUSH2 0x798B PUSH1 0x21 DUP4 PUSH2 0x5C50 JUMP JUMPDEST SWAP2 POP PUSH2 0x7996 DUP3 PUSH2 0x792F JUMP JUMPDEST PUSH1 0x40 DUP3 ADD SWAP1 POP SWAP2 SWAP1 POP JUMP JUMPDEST PUSH1 0x0 PUSH1 0x20 DUP3 ADD SWAP1 POP DUP2 DUP2 SUB PUSH1 0x0 DUP4 ADD MSTORE PUSH2 0x79BA DUP2 PUSH2 0x797E JUMP JUMPDEST SWAP1 POP SWAP2 SWAP1 POP JUMP JUMPDEST PUSH32 0x6F6E6C7920666163746F727920636F6E74726163742063616E2063616C6C0000 PUSH1 0x0 DUP3 ADD MSTORE POP JUMP JUMPDEST PUSH1 0x0 PUSH2 0x79F7 PUSH1 0x1E DUP4 PUSH2 0x5C50 JUMP JUMPDEST SWAP2 POP PUSH2 0x7A02 DUP3 PUSH2 0x79C1 JUMP JUMPDEST PUSH1 0x20 DUP3 ADD SWAP1 POP SWAP2 SWAP1 POP JUMP JUMPDEST PUSH1 0x0 PUSH1 0x20 DUP3 ADD SWAP1 POP DUP2 DUP2 SUB PUSH1 0x0 DUP4 ADD MSTORE PUSH2 0x7A26 DUP2 PUSH2 0x79EA JUMP JUMPDEST SWAP1 POP SWAP2 SWAP1 POP JUMP JUMPDEST PUSH1 0x0 PUSH2 0x7A38 DUP3 PUSH2 0x563B JUMP JUMPDEST SWAP2 POP PUSH2 0x7A43 DUP4 PUSH2 0x563B JUMP JUMPDEST SWAP3 POP DUP3 DUP3 MUL PUSH2 0x7A51 DUP2 PUSH2 0x563B JUMP JUMPDEST SWAP2 POP DUP3 DUP3 DIV DUP5 EQ DUP4 ISZERO OR PUSH2 0x7A68 JUMPI PUSH2 0x7A67 PUSH2 0x6185 JUMP JUMPDEST JUMPDEST POP SWAP3 SWAP2 POP POP JUMP JUMPDEST PUSH32 0x4E487B7100000000000000000000000000000000000000000000000000000000 PUSH1 0x0 MSTORE PUSH1 0x12 PUSH1 0x4 MSTORE PUSH1 0x24 PUSH1 0x0 REVERT JUMPDEST PUSH1 0x0 PUSH2 0x7AA9 DUP3 PUSH2 0x563B JUMP JUMPDEST SWAP2 POP PUSH2 0x7AB4 DUP4 PUSH2 0x563B JUMP JUMPDEST SWAP3 POP DUP3 PUSH2 0x7AC4 JUMPI PUSH2 0x7AC3 PUSH2 0x7A6F JUMP JUMPDEST JUMPDEST DUP3 DUP3 DIV SWAP1 POP SWAP3 SWAP2 POP POP JUMP JUMPDEST PUSH32 0x5061757361626C653A2070617573656400000000000000000000000000000000 PUSH1 0x0 DUP3 ADD MSTORE POP JUMP JUMPDEST PUSH1 0x0 PUSH2 0x7B05 PUSH1 0x10 DUP4 PUSH2 0x5C50 JUMP JUMPDEST SWAP2 POP PUSH2 0x7B10 DUP3 PUSH2 0x7ACF JUMP JUMPDEST PUSH1 0x20 DUP3 ADD SWAP1 POP SWAP2 SWAP1 POP JUMP JUMPDEST PUSH1 0x0 PUSH1 0x20 DUP3 ADD SWAP1 POP DUP2 DUP2 SUB PUSH1 0x0 DUP4 ADD MSTORE PUSH2 0x7B34 DUP2 PUSH2 0x7AF8 JUMP JUMPDEST SWAP1 POP SWAP2 SWAP1 POP JUMP JUMPDEST PUSH1 0x0 PUSH1 0x40 DUP3 ADD SWAP1 POP PUSH2 0x7B50 PUSH1 0x0 DUP4 ADD DUP6 PUSH2 0x583A JUMP JUMPDEST PUSH2 0x7B5D PUSH1 0x20 DUP4 ADD DUP5 PUSH2 0x57AD JUMP JUMPDEST SWAP4 SWAP3 POP POP POP JUMP JUMPDEST PUSH32 0x5265656E7472616E637947756172643A207265656E7472616E742063616C6C00 PUSH1 0x0 DUP3 ADD MSTORE POP JUMP JUMPDEST PUSH1 0x0 PUSH2 0x7B9A PUSH1 0x1F DUP4 PUSH2 0x5C50 JUMP JUMPDEST SWAP2 POP PUSH2 0x7BA5 DUP3 PUSH2 0x7B64 JUMP JUMPDEST PUSH1 0x20 DUP3 ADD SWAP1 POP SWAP2 SWAP1 POP JUMP JUMPDEST PUSH1 0x0 PUSH1 0x20 DUP3 ADD SWAP1 POP DUP2 DUP2 SUB PUSH1 0x0 DUP4 ADD MSTORE PUSH2 0x7BC9 DUP2 PUSH2 0x7B8D JUMP JUMPDEST SWAP1 POP SWAP2 SWAP1 POP JUMP JUMPDEST PUSH1 0x0 PUSH2 0x7BDB DUP3 PUSH2 0x563B JUMP JUMPDEST SWAP2 POP PUSH2 0x7BE6 DUP4 PUSH2 0x563B JUMP JUMPDEST SWAP3 POP DUP3 PUSH2 0x7BF6 JUMPI PUSH2 0x7BF5 PUSH2 0x7A6F JUMP JUMPDEST JUMPDEST DUP3 DUP3 MOD SWAP1 POP SWAP3 SWAP2 POP POP JUMP JUMPDEST PUSH1 0x0 PUSH1 0x60 DUP3 ADD SWAP1 POP PUSH2 0x7C16 PUSH1 0x0 DUP4 ADD DUP7 PUSH2 0x583A JUMP JUMPDEST PUSH2 0x7C23 PUSH1 0x20 DUP4 ADD DUP6 PUSH2 0x583A JUMP JUMPDEST PUSH2 0x7C30 PUSH1 0x40 DUP4 ADD DUP5 PUSH2 0x57AD JUMP JUMPDEST SWAP5 SWAP4 POP POP POP POP JUMP JUMPDEST PUSH1 0x0 DUP2 MLOAD SWAP1 POP PUSH2 0x7C47 DUP2 PUSH2 0x5EF2 JUMP JUMPDEST SWAP3 SWAP2 POP POP JUMP JUMPDEST PUSH1 0x0 PUSH1 0x20 DUP3 DUP5 SUB SLT ISZERO PUSH2 0x7C63 JUMPI PUSH2 0x7C62 PUSH2 0x544E JUMP JUMPDEST JUMPDEST PUSH1 0x0 PUSH2 0x7C71 DUP5 DUP3 DUP6 ADD PUSH2 0x7C38 JUMP JUMPDEST SWAP2 POP POP SWAP3 SWAP2 POP POP JUMP JUMPDEST PUSH32 0x5361666542455032303A204245503230206F7065726174696F6E20646964206E PUSH1 0x0 DUP3 ADD MSTORE PUSH32 0x6F74207375636365656400000000000000000000000000000000000000000000 PUSH1 0x20 DUP3 ADD MSTORE POP JUMP JUMPDEST PUSH1 0x0 PUSH2 0x7CD6 PUSH1 0x2A DUP4 PUSH2 0x5C50 JUMP JUMPDEST SWAP2 POP PUSH2 0x7CE1 DUP3 PUSH2 0x7C7A JUMP JUMPDEST PUSH1 0x40 DUP3 ADD SWAP1 POP SWAP2 SWAP1 POP JUMP JUMPDEST PUSH1 0x0 PUSH1 0x20 DUP3 ADD SWAP1 POP DUP2 DUP2 SUB PUSH1 0x0 DUP4 ADD MSTORE PUSH2 0x7D05 DUP2 PUSH2 0x7CC9 JUMP JUMPDEST SWAP1 POP SWAP2 SWAP1 POP JUMP JUMPDEST PUSH32 0x5061757361626C653A206E6F7420706175736564000000000000000000000000 PUSH1 0x0 DUP3 ADD MSTORE POP JUMP JUMPDEST PUSH1 0x0 PUSH2 0x7D42 PUSH1 0x14 DUP4 PUSH2 0x5C50 JUMP JUMPDEST SWAP2 POP PUSH2 0x7D4D DUP3 PUSH2 0x7D0C JUMP JUMPDEST PUSH1 0x20 DUP3 ADD SWAP1 POP SWAP2 SWAP1 POP JUMP JUMPDEST PUSH1 0x0 PUSH1 0x20 DUP3 ADD SWAP1 POP DUP2 DUP2 SUB PUSH1 0x0 DUP4 ADD MSTORE PUSH2 0x7D71 DUP2 PUSH2 0x7D35 JUMP JUMPDEST SWAP1 POP SWAP2 SWAP1 POP JUMP JUMPDEST PUSH32 0x416464726573733A20696E73756666696369656E742062616C616E636520666F PUSH1 0x0 DUP3 ADD MSTORE PUSH32 0x722063616C6C0000000000000000000000000000000000000000000000000000 PUSH1 0x20 DUP3 ADD MSTORE POP JUMP JUMPDEST PUSH1 0x0 PUSH2 0x7DD4 PUSH1 0x26 DUP4 PUSH2 0x5C50 JUMP JUMPDEST SWAP2 POP PUSH2 0x7DDF DUP3 PUSH2 0x7D78 JUMP JUMPDEST PUSH1 0x40 DUP3 ADD SWAP1 POP SWAP2 SWAP1 POP JUMP JUMPDEST PUSH1 0x0 PUSH1 0x20 DUP3 ADD SWAP1 POP DUP2 DUP2 SUB PUSH1 0x0 DUP4 ADD MSTORE PUSH2 0x7E03 DUP2 PUSH2 0x7DC7 JUMP JUMPDEST SWAP1 POP SWAP2 SWAP1 POP JUMP JUMPDEST PUSH1 0x0 DUP2 MLOAD SWAP1 POP SWAP2 SWAP1 POP JUMP JUMPDEST PUSH1 0x0 DUP2 SWAP1 POP SWAP3 SWAP2 POP POP JUMP JUMPDEST PUSH1 0x0 PUSH2 0x7E2B DUP3 PUSH2 0x7E0A JUMP JUMPDEST PUSH2 0x7E35 DUP2 DUP6 PUSH2 0x7E15 JUMP JUMPDEST SWAP4 POP PUSH2 0x7E45 DUP2 DUP6 PUSH1 0x20 DUP7 ADD PUSH2 0x5C61 JUMP JUMPDEST DUP1 DUP5 ADD SWAP2 POP POP SWAP3 SWAP2 POP POP JUMP JUMPDEST PUSH1 0x0 PUSH2 0x7E5D DUP3 DUP5 PUSH2 0x7E20 JUMP JUMPDEST SWAP2 POP DUP2 SWAP1 POP SWAP3 SWAP2 POP POP JUMP JUMPDEST PUSH32 0x416464726573733A2063616C6C20746F206E6F6E2D636F6E7472616374000000 PUSH1 0x0 DUP3 ADD MSTORE POP JUMP JUMPDEST PUSH1 0x0 PUSH2 0x7E9E PUSH1 0x1D DUP4 PUSH2 0x5C50 JUMP JUMPDEST SWAP2 POP PUSH2 0x7EA9 DUP3 PUSH2 0x7E68 JUMP JUMPDEST PUSH1 0x20 DUP3 ADD SWAP1 POP SWAP2 SWAP1 POP JUMP JUMPDEST PUSH1 0x0 PUSH1 0x20 DUP3 ADD SWAP1 POP DUP2 DUP2 SUB PUSH1 0x0 DUP4 ADD MSTORE PUSH2 0x7ECD DUP2 PUSH2 0x7E91 JUMP JUMPDEST SWAP1 POP SWAP2 SWAP1 POP JUMP INVALID LOG2 PUSH5 0x6970667358 0x22 SLT KECCAK256 0xD PUSH4 0x2BFA0D70 SGT 0xEE MSTORE SWAP6 SHL 0xF9 0xB2 SWAP12 CODESIZE DUP4 PUSH24 0xD8886902580D45BC30B4B4623F2D9164736F6C6343000811 STOP CALLER "
		},
		"gasEstimates": {
			"creation": {
				"codeDepositCost": "6504400",
				"executionCost": "infinite",
				"totalCost": "infinite"
			},
			"external": {
				"DENOMINATOR()": "397",
				"FEE_ADDRESS()": "2580",
				"addPrivate(address[])": "infinite",
				"addPublicRandom(address[],uint256[],uint256,string)": "infinite",
				"addTokensForSale(uint256)": "infinite",
				"availableTokens()": "infinite",
				"changeClientSeed(string)": "infinite",
				"clientSeed()": "infinite",
				"cost(uint256)": "infinite",
				"costFee(uint256)": "infinite",
				"currentWhitelisted()": "2562",
				"decimals()": "2564",
				"endDate()": "2563",
				"factoryContract()": "2669",
				"feeAmount()": "2497",
				"feePercentage()": "2497",
				"fundAddress()": "2675",
				"fundToken()": "infinite",
				"getPurchase(address)": "infinite",
				"getStartDate()": "2526",
				"getUserTier(address)": "5230",
				"getWhitelistedAddresses()": "infinite",
				"hasFinalized()": "2516",
				"hasMinimumRaise()": "2588",
				"hasStarted()": "2541",
				"ibep20()": "infinite",
				"individualMaximumAmount(uint256)": "infinite",
				"individualMinimumAmount(uint256)": "infinite",
				"isNativeToken()": "2633",
				"isOpen()": "4810",
				"isSaleFunded()": "2590",
				"isSetTierLimit()": "2562",
				"isWhitelisted(address)": "2974",
				"minimumRaise()": "2542",
				"minimumRaiseAchieved()": "infinite",
				"minimumRaiseNotAchieved()": "infinite",
				"nonce()": "2562",
				"pause()": "30227",
				"paused()": "2592",
				"poolCreator()": "2581",
				"poolStartDate()": "2517",
				"poolType()": "2626",
				"privatePurchaseableAmount()": "2583",
				"publicPurchaseableAmount()": "2541",
				"purchases(address)": "infinite",
				"redeemGivenMinimumGoalNotAchieved()": "infinite",
				"redeemTokens()": "infinite",
				"remove(address[],uint256[])": "infinite",
				"removeOtherBEP20Tokens(address,address)": "infinite",
				"serverSeed()": "infinite",
				"setDistributionRatio(uint256)": "infinite",
				"setFeePercentage(uint256)": "infinite",
				"setFundAddress(address)": "infinite",
				"setNewOwner(address)": "27024",
				"setTierLimit(uint256[5],uint256[5])": "infinite",
				"setTokenType(bool,address)": "53669",
				"setTreasurerAddress(address)": "29151",
				"swap(uint256)": "infinite",
				"tokensAllocated()": "2496",
				"tokensForSale()": "2543",
				"tokensLeft()": "infinite",
				"totalRaiseCost()": "infinite",
				"tradeValue()": "2497",
				"unpause()": "30204",
				"unsoldTokensReedemed()": "2583",
				"userTier(address)": "2905",
				"whitelist(address)": "2979",
				"whitelistIndex(address)": "2883",
				"whitelistItems(uint256)": "infinite",
				"withdrawFunds()": "infinite",
				"withdrawUnsoldTokens()": "infinite"
			}
		},
		"methodIdentifiers": {
			"DENOMINATOR()": "918f8674",
			"FEE_ADDRESS()": "eb1edd61",
			"addPrivate(address[])": "df43ca03",
			"addPublicRandom(address[],uint256[],uint256,string)": "552dae54",
			"addTokensForSale(uint256)": "7542c5f9",
			"availableTokens()": "69bb4dc2",
			"changeClientSeed(string)": "60d0743d",
			"clientSeed()": "a457c2ae",
			"cost(uint256)": "9097548d",
			"costFee(uint256)": "a1c8313f",
			"currentWhitelisted()": "da687150",
			"decimals()": "313ce567",
			"endDate()": "c24a0f8b",
			"factoryContract()": "de11c94a",
			"feeAmount()": "69e15404",
			"feePercentage()": "a001ecdd",
			"fundAddress()": "e82bef29",
			"fundToken()": "50adcdb7",
			"getPurchase(address)": "a275999c",
			"getStartDate()": "78f305c6",
			"getUserTier(address)": "e4d2620e",
			"getWhitelistedAddresses()": "6d028027",
			"hasFinalized()": "4089aa9a",
			"hasMinimumRaise()": "15b57866",
			"hasStarted()": "44691f7e",
			"ibep20()": "c95e9668",
			"individualMaximumAmount(uint256)": "6616e525",
			"individualMinimumAmount(uint256)": "9f22f72d",
			"isNativeToken()": "9af4ee7e",
			"isOpen()": "47535d7b",
			"isSaleFunded()": "161a7b2a",
			"isSetTierLimit()": "8e190cb7",
			"isWhitelisted(address)": "3af32abf",
			"minimumRaise()": "8e75b131",
			"minimumRaiseAchieved()": "b367940e",
			"minimumRaiseNotAchieved()": "74fa05fb",
			"nonce()": "affed0e0",
			"pause()": "8456cb59",
			"paused()": "5c975abb",
			"poolCreator()": "c6c1decd",
			"poolStartDate()": "ee1df50d",
			"poolType()": "b1dd61b6",
			"privatePurchaseableAmount()": "fef27009",
			"publicPurchaseableAmount()": "44b17fbc",
			"purchases(address)": "842a77d3",
			"redeemGivenMinimumGoalNotAchieved()": "3fbc9e40",
			"redeemTokens()": "e9a9c50c",
			"remove(address[],uint256[])": "01faac02",
			"removeOtherBEP20Tokens(address,address)": "452a545b",
			"serverSeed()": "68c282f2",
			"setDistributionRatio(uint256)": "0e53c334",
			"setFeePercentage(uint256)": "ae06c1b7",
			"setFundAddress(address)": "85dc3004",
			"setNewOwner(address)": "f5a1f5b4",
			"setTierLimit(uint256[5],uint256[5])": "62ca66b4",
			"setTokenType(bool,address)": "a8f13784",
			"setTreasurerAddress(address)": "a351f75a",
			"swap(uint256)": "94b918de",
			"tokensAllocated()": "755e3e28",
			"tokensForSale()": "12aef8c3",
			"tokensLeft()": "b31f8f93",
			"totalRaiseCost()": "efbb34d5",
			"tradeValue()": "6295a2f4",
			"unpause()": "3f4ba83a",
			"unsoldTokensReedemed()": "b7fd706d",
			"userTier(address)": "21c7557c",
			"whitelist(address)": "9b19251a",
			"whitelistIndex(address)": "886d3518",
			"whitelistItems(uint256)": "398f5ed3",
			"withdrawFunds()": "24600fc3",
			"withdrawUnsoldTokens()": "c8bdbfb6"
		}
	},
	"abi": [
		{
			"inputs": [
				{
					"internalType": "address",
					"name": "_tokenAddress",
					"type": "address"
				},
				{
					"internalType": "uint256",
					"name": "_tradeValue",
					"type": "uint256"
				},
				{
					"internalType": "uint256",
					"name": "_tokensForSale",
					"type": "uint256"
				},
				{
					"internalType": "uint256",
					"name": "_startDate",
					"type": "uint256"
				},
				{
					"internalType": "uint256",
					"name": "_endDate",
					"type": "uint256"
				},
				{
					"internalType": "bool",
					"name": "_poolType",
					"type": "bool"
				},
				{
					"internalType": "uint256",
					"name": "_minimumRaise",
					"type": "uint256"
				},
				{
					"internalType": "address",
					"name": "_address",
					"type": "address"
				},
				{
					"internalType": "string",
					"name": "_serverSeed",
					"type": "string"
				},
				{
					"internalType": "address",
					"name": "_factoryContract",
					"type": "address"
				}
			],
			"stateMutability": "nonpayable",
			"type": "constructor"
		},
		{
			"anonymous": false,
			"inputs": [
				{
					"indexed": false,
					"internalType": "uint256",
					"name": "amount",
					"type": "uint256"
				},
				{
					"indexed": false,
					"internalType": "address",
					"name": "poolAddress",
					"type": "address"
				}
			],
			"name": "AddFund",
			"type": "event"
		},
		{
			"anonymous": false,
			"inputs": [
				{
					"indexed": false,
					"internalType": "address",
					"name": "accounts",
					"type": "address"
				},
				{
					"indexed": false,
					"internalType": "address",
					"name": "poolAddress",
					"type": "address"
				}
			],
			"name": "AddedToWhitelist",
			"type": "event"
		},
		{
			"anonymous": false,
			"inputs": [
				{
					"indexed": false,
					"internalType": "address",
					"name": "account",
					"type": "address"
				}
			],
			"name": "Paused",
			"type": "event"
		},
		{
			"anonymous": false,
			"inputs": [
				{
					"indexed": false,
					"internalType": "uint256",
					"name": "amount",
					"type": "uint256"
				},
				{
					"indexed": true,
					"internalType": "address",
					"name": "purchaser",
					"type": "address"
				},
				{
					"indexed": false,
					"internalType": "uint256",
					"name": "timestamp",
					"type": "uint256"
				},
				{
					"indexed": false,
					"internalType": "address",
					"name": "poolAddress",
					"type": "address"
				}
			],
			"name": "PurchaseEvent",
			"type": "event"
		},
		{
			"anonymous": false,
			"inputs": [
				{
					"indexed": false,
					"internalType": "address",
					"name": "accounts",
					"type": "address"
				},
				{
					"indexed": false,
					"internalType": "uint256",
					"name": "_tier",
					"type": "uint256"
				},
				{
					"indexed": false,
					"internalType": "address",
					"name": "poolAddress",
					"type": "address"
				}
			],
			"name": "RandomAddedToWhitelist",
			"type": "event"
		},
		{
			"anonymous": false,
			"inputs": [
				{
					"indexed": false,
					"internalType": "uint256",
					"name": "amount",
					"type": "uint256"
				},
				{
					"indexed": true,
					"internalType": "address",
					"name": "purchaser",
					"type": "address"
				},
				{
					"indexed": false,
					"internalType": "address",
					"name": "poolAddress",
					"type": "address"
				}
			],
			"name": "RedeemEvent",
			"type": "event"
		},
		{
			"anonymous": false,
			"inputs": [
				{
					"indexed": false,
					"internalType": "address",
					"name": "purchaser",
					"type": "address"
				},
				{
					"indexed": false,
					"internalType": "address",
					"name": "poolAddress",
					"type": "address"
				}
			],
			"name": "RedeemGivenMinimumGoalNotAchieved",
			"type": "event"
		},
		{
			"anonymous": false,
			"inputs": [
				{
					"indexed": false,
					"internalType": "address",
					"name": "_address",
					"type": "address"
				},
				{
					"indexed": false,
					"internalType": "address",
					"name": "poolAddress",
					"type": "address"
				}
			],
			"name": "RemovedFromWhitelist",
			"type": "event"
		},
		{
			"anonymous": false,
			"inputs": [
				{
					"indexed": false,
					"internalType": "uint256",
					"name": "_feePercentage",
					"type": "uint256"
				}
			],
			"name": "SetFeePercentage",
			"type": "event"
		},
		{
			"anonymous": false,
			"inputs": [
				{
					"indexed": false,
					"internalType": "address",
					"name": "_fundAddress",
					"type": "address"
				}
			],
			"name": "SetFundAddress",
			"type": "event"
		},
		{
			"anonymous": false,
			"inputs": [
				{
					"indexed": false,
					"internalType": "address",
					"name": "account",
					"type": "address"
				}
			],
			"name": "Unpaused",
			"type": "event"
		},
		{
			"anonymous": false,
			"inputs": [
				{
					"indexed": true,
					"internalType": "address",
					"name": "_owner",
					"type": "address"
				},
				{
					"indexed": false,
					"internalType": "address",
					"name": "poolAddress",
					"type": "address"
				}
			],
			"name": "WithdrawFunds",
			"type": "event"
		},
		{
			"inputs": [],
			"name": "DENOMINATOR",
			"outputs": [
				{
					"internalType": "uint256",
					"name": "",
					"type": "uint256"
				}
			],
			"stateMutability": "view",
			"type": "function"
		},
		{
			"inputs": [],
			"name": "FEE_ADDRESS",
			"outputs": [
				{
					"internalType": "address payable",
					"name": "",
					"type": "address"
				}
			],
			"stateMutability": "view",
			"type": "function"
		},
		{
			"inputs": [
				{
					"internalType": "address[]",
					"name": "_addresses",
					"type": "address[]"
				}
			],
			"name": "addPrivate",
			"outputs": [],
			"stateMutability": "nonpayable",
			"type": "function"
		},
		{
			"inputs": [
				{
					"internalType": "address[]",
					"name": "_addresses",
					"type": "address[]"
				},
				{
					"internalType": "uint256[]",
					"name": "_tier",
					"type": "uint256[]"
				},
				{
					"internalType": "uint256",
					"name": "_maximumWhitelisted",
					"type": "uint256"
				},
				{
					"internalType": "string",
					"name": "_serverSeed",
					"type": "string"
				}
			],
			"name": "addPublicRandom",
			"outputs": [],
			"stateMutability": "nonpayable",
			"type": "function"
		},
		{
			"inputs": [
				{
					"internalType": "uint256",
					"name": "_amount",
					"type": "uint256"
				}
			],
			"name": "addTokensForSale",
			"outputs": [],
			"stateMutability": "nonpayable",
			"type": "function"
		},
		{
			"inputs": [],
			"name": "availableTokens",
			"outputs": [
				{
					"internalType": "uint256",
					"name": "",
					"type": "uint256"
				}
			],
			"stateMutability": "view",
			"type": "function"
		},
		{
			"inputs": [
				{
					"internalType": "string",
					"name": "_clientSeed",
					"type": "string"
				}
			],
			"name": "changeClientSeed",
			"outputs": [],
			"stateMutability": "nonpayable",
			"type": "function"
		},
		{
			"inputs": [],
			"name": "clientSeed",
			"outputs": [
				{
					"internalType": "string",
					"name": "",
					"type": "string"
				}
			],
			"stateMutability": "view",
			"type": "function"
		},
		{
			"inputs": [
				{
					"internalType": "uint256",
					"name": "_amount",
					"type": "uint256"
				}
			],
			"name": "cost",
			"outputs": [
				{
					"internalType": "uint256",
					"name": "",
					"type": "uint256"
				}
			],
			"stateMutability": "view",
			"type": "function"
		},
		{
			"inputs": [
				{
					"internalType": "uint256",
					"name": "_amount",
					"type": "uint256"
				}
			],
			"name": "costFee",
			"outputs": [
				{
					"internalType": "uint256",
					"name": "",
					"type": "uint256"
				}
			],
			"stateMutability": "view",
			"type": "function"
		},
		{
			"inputs": [],
			"name": "currentWhitelisted",
			"outputs": [
				{
					"internalType": "uint256",
					"name": "",
					"type": "uint256"
				}
			],
			"stateMutability": "view",
			"type": "function"
		},
		{
			"inputs": [],
			"name": "decimals",
			"outputs": [
				{
					"internalType": "uint256",
					"name": "",
					"type": "uint256"
				}
			],
			"stateMutability": "view",
			"type": "function"
		},
		{
			"inputs": [],
			"name": "endDate",
			"outputs": [
				{
					"internalType": "uint256",
					"name": "",
					"type": "uint256"
				}
			],
			"stateMutability": "view",
			"type": "function"
		},
		{
			"inputs": [],
			"name": "factoryContract",
			"outputs": [
				{
					"internalType": "address",
					"name": "",
					"type": "address"
				}
			],
			"stateMutability": "view",
			"type": "function"
		},
		{
			"inputs": [],
			"name": "feeAmount",
			"outputs": [
				{
					"internalType": "uint256",
					"name": "",
					"type": "uint256"
				}
			],
			"stateMutability": "view",
			"type": "function"
		},
		{
			"inputs": [],
			"name": "feePercentage",
			"outputs": [
				{
					"internalType": "uint256",
					"name": "",
					"type": "uint256"
				}
			],
			"stateMutability": "view",
			"type": "function"
		},
		{
			"inputs": [],
			"name": "fundAddress",
			"outputs": [
				{
					"internalType": "address payable",
					"name": "",
					"type": "address"
				}
			],
			"stateMutability": "view",
			"type": "function"
		},
		{
			"inputs": [],
			"name": "fundToken",
			"outputs": [
				{
					"internalType": "contract IBEP20",
					"name": "",
					"type": "address"
				}
			],
			"stateMutability": "view",
			"type": "function"
		},
		{
			"inputs": [
				{
					"internalType": "address",
					"name": "wallet",
					"type": "address"
				}
			],
			"name": "getPurchase",
			"outputs": [
				{
					"internalType": "uint256",
					"name": "",
					"type": "uint256"
				},
				{
					"internalType": "address",
					"name": "",
					"type": "address"
				},
				{
					"internalType": "uint256",
					"name": "",
					"type": "uint256"
				},
				{
					"internalType": "uint256",
					"name": "",
					"type": "uint256"
				},
				{
					"internalType": "bool",
					"name": "",
					"type": "bool"
				},
				{
					"internalType": "bool",
					"name": "",
					"type": "bool"
				}
			],
			"stateMutability": "view",
			"type": "function"
		},
		{
			"inputs": [],
			"name": "getStartDate",
			"outputs": [
				{
					"internalType": "uint256",
					"name": "",
					"type": "uint256"
				}
			],
			"stateMutability": "view",
			"type": "function"
		},
		{
			"inputs": [
				{
					"internalType": "address",
					"name": "_address",
					"type": "address"
				}
			],
			"name": "getUserTier",
			"outputs": [
				{
					"internalType": "uint256",
					"name": "",
					"type": "uint256"
				}
			],
			"stateMutability": "view",
			"type": "function"
		},
		{
			"inputs": [],
			"name": "getWhitelistedAddresses",
			"outputs": [
				{
					"components": [
						{
							"internalType": "bool",
							"name": "isPublic",
							"type": "bool"
						},
						{
							"internalType": "address",
							"name": "walletAddress",
							"type": "address"
						},
						{
							"internalType": "uint256",
							"name": "tier",
							"type": "uint256"
						}
					],
					"internalType": "struct Whitelist.WhitelistItem[]",
					"name": "",
					"type": "tuple[]"
				}
			],
			"stateMutability": "view",
			"type": "function"
		},
		{
			"inputs": [],
			"name": "hasFinalized",
			"outputs": [
				{
					"internalType": "bool",
					"name": "",
					"type": "bool"
				}
			],
			"stateMutability": "view",
			"type": "function"
		},
		{
			"inputs": [],
			"name": "hasMinimumRaise",
			"outputs": [
				{
					"internalType": "bool",
					"name": "",
					"type": "bool"
				}
			],
			"stateMutability": "view",
			"type": "function"
		},
		{
			"inputs": [],
			"name": "hasStarted",
			"outputs": [
				{
					"internalType": "bool",
					"name": "",
					"type": "bool"
				}
			],
			"stateMutability": "view",
			"type": "function"
		},
		{
			"inputs": [],
			"name": "ibep20",
			"outputs": [
				{
					"internalType": "contract IBEP20",
					"name": "",
					"type": "address"
				}
			],
			"stateMutability": "view",
			"type": "function"
		},
		{
			"inputs": [
				{
					"internalType": "uint256",
					"name": "",
					"type": "uint256"
				}
			],
			"name": "individualMaximumAmount",
			"outputs": [
				{
					"internalType": "uint256",
					"name": "",
					"type": "uint256"
				}
			],
			"stateMutability": "view",
			"type": "function"
		},
		{
			"inputs": [
				{
					"internalType": "uint256",
					"name": "",
					"type": "uint256"
				}
			],
			"name": "individualMinimumAmount",
			"outputs": [
				{
					"internalType": "uint256",
					"name": "",
					"type": "uint256"
				}
			],
			"stateMutability": "view",
			"type": "function"
		},
		{
			"inputs": [],
			"name": "isNativeToken",
			"outputs": [
				{
					"internalType": "bool",
					"name": "",
					"type": "bool"
				}
			],
			"stateMutability": "view",
			"type": "function"
		},
		{
			"inputs": [],
			"name": "isOpen",
			"outputs": [
				{
					"internalType": "bool",
					"name": "",
					"type": "bool"
				}
			],
			"stateMutability": "view",
			"type": "function"
		},
		{
			"inputs": [],
			"name": "isSaleFunded",
			"outputs": [
				{
					"internalType": "bool",
					"name": "",
					"type": "bool"
				}
			],
			"stateMutability": "view",
			"type": "function"
		},
		{
			"inputs": [],
			"name": "isSetTierLimit",
			"outputs": [
				{
					"internalType": "bool",
					"name": "",
					"type": "bool"
				}
			],
			"stateMutability": "view",
			"type": "function"
		},
		{
			"inputs": [
				{
					"internalType": "address",
					"name": "_address",
					"type": "address"
				}
			],
			"name": "isWhitelisted",
			"outputs": [
				{
					"internalType": "bool",
					"name": "",
					"type": "bool"
				}
			],
			"stateMutability": "view",
			"type": "function"
		},
		{
			"inputs": [],
			"name": "minimumRaise",
			"outputs": [
				{
					"internalType": "uint256",
					"name": "",
					"type": "uint256"
				}
			],
			"stateMutability": "view",
			"type": "function"
		},
		{
			"inputs": [],
			"name": "minimumRaiseAchieved",
			"outputs": [
				{
					"internalType": "bool",
					"name": "",
					"type": "bool"
				}
			],
			"stateMutability": "view",
			"type": "function"
		},
		{
			"inputs": [],
			"name": "minimumRaiseNotAchieved",
			"outputs": [
				{
					"internalType": "bool",
					"name": "",
					"type": "bool"
				}
			],
			"stateMutability": "view",
			"type": "function"
		},
		{
			"inputs": [],
			"name": "nonce",
			"outputs": [
				{
					"internalType": "uint256",
					"name": "",
					"type": "uint256"
				}
			],
			"stateMutability": "view",
			"type": "function"
		},
		{
			"inputs": [],
			"name": "pause",
			"outputs": [],
			"stateMutability": "nonpayable",
			"type": "function"
		},
		{
			"inputs": [],
			"name": "paused",
			"outputs": [
				{
					"internalType": "bool",
					"name": "",
					"type": "bool"
				}
			],
			"stateMutability": "view",
			"type": "function"
		},
		{
			"inputs": [],
			"name": "poolCreator",
			"outputs": [
				{
					"internalType": "address",
					"name": "",
					"type": "address"
				}
			],
			"stateMutability": "view",
			"type": "function"
		},
		{
			"inputs": [],
			"name": "poolStartDate",
			"outputs": [
				{
					"internalType": "uint256",
					"name": "",
					"type": "uint256"
				}
			],
			"stateMutability": "view",
			"type": "function"
		},
		{
			"inputs": [],
			"name": "poolType",
			"outputs": [
				{
					"internalType": "bool",
					"name": "",
					"type": "bool"
				}
			],
			"stateMutability": "view",
			"type": "function"
		},
		{
			"inputs": [],
			"name": "privatePurchaseableAmount",
			"outputs": [
				{
					"internalType": "uint256",
					"name": "",
					"type": "uint256"
				}
			],
			"stateMutability": "view",
			"type": "function"
		},
		{
			"inputs": [],
			"name": "publicPurchaseableAmount",
			"outputs": [
				{
					"internalType": "uint256",
					"name": "",
					"type": "uint256"
				}
			],
			"stateMutability": "view",
			"type": "function"
		},
		{
			"inputs": [
				{
					"internalType": "address",
					"name": "",
					"type": "address"
				}
			],
			"name": "purchases",
			"outputs": [
				{
					"internalType": "uint256",
					"name": "amount",
					"type": "uint256"
				},
				{
					"internalType": "address",
					"name": "purchaser",
					"type": "address"
				},
				{
					"internalType": "uint256",
					"name": "fundAmount",
					"type": "uint256"
				},
				{
					"internalType": "uint256",
					"name": "timestamp",
					"type": "uint256"
				},
				{
					"internalType": "bool",
					"name": "wasFinalized",
					"type": "bool"
				},
				{
					"internalType": "bool",
					"name": "reverted",
					"type": "bool"
				}
			],
			"stateMutability": "view",
			"type": "function"
		},
		{
			"inputs": [],
			"name": "redeemGivenMinimumGoalNotAchieved",
			"outputs": [],
			"stateMutability": "nonpayable",
			"type": "function"
		},
		{
			"inputs": [],
			"name": "redeemTokens",
			"outputs": [],
			"stateMutability": "nonpayable",
			"type": "function"
		},
		{
			"inputs": [
				{
					"internalType": "address[]",
					"name": "_addresses",
					"type": "address[]"
				},
				{
					"internalType": "uint256[]",
					"name": "_index",
					"type": "uint256[]"
				}
			],
			"name": "remove",
			"outputs": [],
			"stateMutability": "nonpayable",
			"type": "function"
		},
		{
			"inputs": [
				{
					"internalType": "address",
					"name": "_tokenAddress",
					"type": "address"
				},
				{
					"internalType": "address",
					"name": "_to",
					"type": "address"
				}
			],
			"name": "removeOtherBEP20Tokens",
			"outputs": [],
			"stateMutability": "nonpayable",
			"type": "function"
		},
		{
			"inputs": [],
			"name": "serverSeed",
			"outputs": [
				{
					"internalType": "string",
					"name": "",
					"type": "string"
				}
			],
			"stateMutability": "view",
			"type": "function"
		},
		{
			"inputs": [
				{
					"internalType": "uint256",
					"name": "_publicRatio",
					"type": "uint256"
				}
			],
			"name": "setDistributionRatio",
			"outputs": [],
			"stateMutability": "nonpayable",
			"type": "function"
		},
		{
			"inputs": [
				{
					"internalType": "uint256",
					"name": "_feePercentage",
					"type": "uint256"
				}
			],
			"name": "setFeePercentage",
			"outputs": [],
			"stateMutability": "nonpayable",
			"type": "function"
		},
		{
			"inputs": [
				{
					"internalType": "address payable",
					"name": "_fundAddress",
					"type": "address"
				}
			],
			"name": "setFundAddress",
			"outputs": [],
			"stateMutability": "nonpayable",
			"type": "function"
		},
		{
			"inputs": [
				{
					"internalType": "address",
					"name": "_address",
					"type": "address"
				}
			],
			"name": "setNewOwner",
			"outputs": [],
			"stateMutability": "nonpayable",
			"type": "function"
		},
		{
			"inputs": [
				{
					"internalType": "uint256[5]",
					"name": "_individualMinimumAmount",
					"type": "uint256[5]"
				},
				{
					"internalType": "uint256[5]",
					"name": "_individualMaximumAmount",
					"type": "uint256[5]"
				}
			],
			"name": "setTierLimit",
			"outputs": [],
			"stateMutability": "nonpayable",
			"type": "function"
		},
		{
			"inputs": [
				{
					"internalType": "bool",
					"name": "_isNativeToken",
					"type": "bool"
				},
				{
					"internalType": "address",
					"name": "_fundTokenAddress",
					"type": "address"
				}
			],
			"name": "setTokenType",
			"outputs": [],
			"stateMutability": "nonpayable",
			"type": "function"
		},
		{
			"inputs": [
				{
					"internalType": "address payable",
					"name": "_treasurer",
					"type": "address"
				}
			],
			"name": "setTreasurerAddress",
			"outputs": [],
			"stateMutability": "nonpayable",
			"type": "function"
		},
		{
			"inputs": [
				{
					"internalType": "uint256",
					"name": "_amount",
					"type": "uint256"
				}
			],
			"name": "swap",
			"outputs": [],
			"stateMutability": "payable",
			"type": "function"
		},
		{
			"inputs": [],
			"name": "tokensAllocated",
			"outputs": [
				{
					"internalType": "uint256",
					"name": "",
					"type": "uint256"
				}
			],
			"stateMutability": "view",
			"type": "function"
		},
		{
			"inputs": [],
			"name": "tokensForSale",
			"outputs": [
				{
					"internalType": "uint256",
					"name": "",
					"type": "uint256"
				}
			],
			"stateMutability": "view",
			"type": "function"
		},
		{
			"inputs": [],
			"name": "tokensLeft",
			"outputs": [
				{
					"internalType": "uint256",
					"name": "",
					"type": "uint256"
				}
			],
			"stateMutability": "view",
			"type": "function"
		},
		{
			"inputs": [],
			"name": "totalRaiseCost",
			"outputs": [
				{
					"internalType": "uint256",
					"name": "",
					"type": "uint256"
				}
			],
			"stateMutability": "view",
			"type": "function"
		},
		{
			"inputs": [],
			"name": "tradeValue",
			"outputs": [
				{
					"internalType": "uint256",
					"name": "",
					"type": "uint256"
				}
			],
			"stateMutability": "view",
			"type": "function"
		},
		{
			"inputs": [],
			"name": "unpause",
			"outputs": [],
			"stateMutability": "nonpayable",
			"type": "function"
		},
		{
			"inputs": [],
			"name": "unsoldTokensReedemed",
			"outputs": [
				{
					"internalType": "bool",
					"name": "",
					"type": "bool"
				}
			],
			"stateMutability": "view",
			"type": "function"
		},
		{
			"inputs": [
				{
					"internalType": "address",
					"name": "",
					"type": "address"
				}
			],
			"name": "userTier",
			"outputs": [
				{
					"internalType": "uint256",
					"name": "",
					"type": "uint256"
				}
			],
			"stateMutability": "view",
			"type": "function"
		},
		{
			"inputs": [
				{
					"internalType": "address",
					"name": "",
					"type": "address"
				}
			],
			"name": "whitelist",
			"outputs": [
				{
					"internalType": "bool",
					"name": "",
					"type": "bool"
				}
			],
			"stateMutability": "view",
			"type": "function"
		},
		{
			"inputs": [
				{
					"internalType": "address",
					"name": "",
					"type": "address"
				}
			],
			"name": "whitelistIndex",
			"outputs": [
				{
					"internalType": "uint256",
					"name": "",
					"type": "uint256"
				}
			],
			"stateMutability": "view",
			"type": "function"
		},
		{
			"inputs": [
				{
					"internalType": "uint256",
					"name": "",
					"type": "uint256"
				}
			],
			"name": "whitelistItems",
			"outputs": [
				{
					"internalType": "bool",
					"name": "isPublic",
					"type": "bool"
				},
				{
					"internalType": "address",
					"name": "walletAddress",
					"type": "address"
				},
				{
					"internalType": "uint256",
					"name": "tier",
					"type": "uint256"
				}
			],
			"stateMutability": "view",
			"type": "function"
		},
		{
			"inputs": [],
			"name": "withdrawFunds",
			"outputs": [],
			"stateMutability": "nonpayable",
			"type": "function"
		},
		{
			"inputs": [],
			"name": "withdrawUnsoldTokens",
			"outputs": [],
			"stateMutability": "nonpayable",
			"type": "function"
		}
	]
}