{
	"contract/USDC.sol": {
		"MaticToUSDC": {
			"abi": [
				{
					"inputs": [
						{
							"internalType": "address",
							"name": "_usdcTokenAddress",
							"type": "address"
						},
						{
							"internalType": "uint256",
							"name": "_initialRate",
							"type": "uint256"
						}
					],
					"stateMutability": "nonpayable",
					"type": "constructor"
				},
				{
					"anonymous": false,
					"inputs": [
						{
							"indexed": true,
							"internalType": "address",
							"name": "user",
							"type": "address"
						},
						{
							"indexed": false,
							"internalType": "uint256",
							"name": "maticAmount",
							"type": "uint256"
						},
						{
							"indexed": false,
							"internalType": "uint256",
							"name": "usdcAmount",
							"type": "uint256"
						}
					],
					"name": "Converted",
					"type": "event"
				},
				{
					"inputs": [],
					"name": "conversionRate",
					"outputs": [
						{
							"internalType": "uint256",
							"name": "",
							"type": "uint256"
						}
					],
					"stateMutability": "view",
					"type": "function"
				},
				{
					"inputs": [],
					"name": "convert",
					"outputs": [],
					"stateMutability": "payable",
					"type": "function"
				},
				{
					"inputs": [],
					"name": "owner",
					"outputs": [
						{
							"internalType": "address",
							"name": "",
							"type": "address"
						}
					],
					"stateMutability": "view",
					"type": "function"
				},
				{
					"inputs": [
						{
							"internalType": "uint256",
							"name": "newRate",
							"type": "uint256"
						}
					],
					"name": "setConversionRate",
					"outputs": [],
					"stateMutability": "nonpayable",
					"type": "function"
				},
				{
					"inputs": [],
					"name": "usdcToken",
					"outputs": [
						{
							"internalType": "contract IERC20",
							"name": "",
							"type": "address"
						}
					],
					"stateMutability": "view",
					"type": "function"
				},
				{
					"inputs": [],
					"name": "withdrawMatic",
					"outputs": [],
					"stateMutability": "nonpayable",
					"type": "function"
				},
				{
					"inputs": [
						{
							"internalType": "uint256",
							"name": "amount",
							"type": "uint256"
						}
					],
					"name": "withdrawUSDC",
					"outputs": [],
					"stateMutability": "nonpayable",
					"type": "function"
				}
			],
			"devdoc": {
				"kind": "dev",
				"methods": {},
				"version": 1
			},
			"evm": {
				"assembly": "    /* \"contract/USDC.sol\":263:1533  contract MaticToUSDC {... */\n  mstore(0x40, 0x80)\n    /* \"contract/USDC.sol\":657:839  constructor(address _usdcTokenAddress, uint256 _initialRate) {... */\n  callvalue\n  dup1\n  iszero\n  tag_1\n  jumpi\n  0x00\n  dup1\n  revert\ntag_1:\n  pop\n  mload(0x40)\n  sub(codesize, bytecodeSize)\n  dup1\n  bytecodeSize\n  dup4\n  codecopy\n  dup2\n  dup2\n  add\n  0x40\n  mstore\n  dup2\n  add\n  swap1\n  tag_2\n  swap2\n  swap1\n  tag_3\n  jump\t// in\ntag_2:\n    /* \"contract/USDC.sol\":747:764  _usdcTokenAddress */\n  dup2\n    /* \"contract/USDC.sol\":728:737  usdcToken */\n  0x00\n  dup1\n    /* \"contract/USDC.sol\":728:765  usdcToken = IERC20(_usdcTokenAddress) */\n  0x0100\n  exp\n  dup2\n  sload\n  dup2\n  0xffffffffffffffffffffffffffffffffffffffff\n  mul\n  not\n  and\n  swap1\n  dup4\n  0xffffffffffffffffffffffffffffffffffffffff\n  and\n  mul\n  or\n  swap1\n  sstore\n  pop\n    /* \"contract/USDC.sol\":783:793  msg.sender */\n  caller\n    /* \"contract/USDC.sol\":775:780  owner */\n  0x01\n  0x00\n    /* \"contract/USDC.sol\":775:793  owner = msg.sender */\n  0x0100\n  exp\n  dup2\n  sload\n  dup2\n  0xffffffffffffffffffffffffffffffffffffffff\n  mul\n  not\n  and\n  swap1\n  dup4\n  0xffffffffffffffffffffffffffffffffffffffff\n  and\n  mul\n  or\n  swap1\n  sstore\n  pop\n    /* \"contract/USDC.sol\":820:832  _initialRate */\n  dup1\n    /* \"contract/USDC.sol\":803:817  conversionRate */\n  0x02\n    /* \"contract/USDC.sol\":803:832  conversionRate = _initialRate */\n  dup2\n  swap1\n  sstore\n  pop\n    /* \"contract/USDC.sol\":657:839  constructor(address _usdcTokenAddress, uint256 _initialRate) {... */\n  pop\n  pop\n    /* \"contract/USDC.sol\":263:1533  contract MaticToUSDC {... */\n  jump(tag_6)\n    /* \"#utility.yul\":88:205   */\ntag_8:\n    /* \"#utility.yul\":197:198   */\n  0x00\n    /* \"#utility.yul\":194:195   */\n  dup1\n    /* \"#utility.yul\":187:199   */\n  revert\n    /* \"#utility.yul\":334:460   */\ntag_10:\n    /* \"#utility.yul\":371:378   */\n  0x00\n    /* \"#utility.yul\":411:453   */\n  0xffffffffffffffffffffffffffffffffffffffff\n    /* \"#utility.yul\":404:409   */\n  dup3\n    /* \"#utility.yul\":400:454   */\n  and\n    /* \"#utility.yul\":389:454   */\n  swap1\n  pop\n    /* \"#utility.yul\":334:460   */\n  swap2\n  swap1\n  pop\n  jump\t// out\n    /* \"#utility.yul\":466:562   */\ntag_11:\n    /* \"#utility.yul\":503:510   */\n  0x00\n    /* \"#utility.yul\":532:556   */\n  tag_23\n    /* \"#utility.yul\":550:555   */\n  dup3\n    /* \"#utility.yul\":532:556   */\n  tag_10\n  jump\t// in\ntag_23:\n    /* \"#utility.yul\":521:556   */\n  swap1\n  pop\n    /* \"#utility.yul\":466:562   */\n  swap2\n  swap1\n  pop\n  jump\t// out\n    /* \"#utility.yul\":568:690   */\ntag_12:\n    /* \"#utility.yul\":641:665   */\n  tag_25\n    /* \"#utility.yul\":659:664   */\n  dup2\n    /* \"#utility.yul\":641:665   */\n  tag_11\n  jump\t// in\ntag_25:\n    /* \"#utility.yul\":634:639   */\n  dup2\n    /* \"#utility.yul\":631:666   */\n  eq\n    /* \"#utility.yul\":621:684   */\n  tag_26\n  jumpi\n    /* \"#utility.yul\":680:681   */\n  0x00\n    /* \"#utility.yul\":677:678   */\n  dup1\n    /* \"#utility.yul\":670:682   */\n  revert\n    /* \"#utility.yul\":621:684   */\ntag_26:\n    /* \"#utility.yul\":568:690   */\n  pop\n  jump\t// out\n    /* \"#utility.yul\":696:839   */\ntag_13:\n    /* \"#utility.yul\":753:758   */\n  0x00\n    /* \"#utility.yul\":784:790   */\n  dup2\n    /* \"#utility.yul\":778:791   */\n  mload\n    /* \"#utility.yul\":769:791   */\n  swap1\n  pop\n    /* \"#utility.yul\":800:833   */\n  tag_28\n    /* \"#utility.yul\":827:832   */\n  dup2\n    /* \"#utility.yul\":800:833   */\n  tag_12\n  jump\t// in\ntag_28:\n    /* \"#utility.yul\":696:839   */\n  swap3\n  swap2\n  pop\n  pop\n  jump\t// out\n    /* \"#utility.yul\":845:922   */\ntag_14:\n    /* \"#utility.yul\":882:889   */\n  0x00\n    /* \"#utility.yul\":911:916   */\n  dup2\n    /* \"#utility.yul\":900:916   */\n  swap1\n  pop\n    /* \"#utility.yul\":845:922   */\n  swap2\n  swap1\n  pop\n  jump\t// out\n    /* \"#utility.yul\":928:1050   */\ntag_15:\n    /* \"#utility.yul\":1001:1025   */\n  tag_31\n    /* \"#utility.yul\":1019:1024   */\n  dup2\n    /* \"#utility.yul\":1001:1025   */\n  tag_14\n  jump\t// in\ntag_31:\n    /* \"#utility.yul\":994:999   */\n  dup2\n    /* \"#utility.yul\":991:1026   */\n  eq\n    /* \"#utility.yul\":981:1044   */\n  tag_32\n  jumpi\n    /* \"#utility.yul\":1040:1041   */\n  0x00\n    /* \"#utility.yul\":1037:1038   */\n  dup1\n    /* \"#utility.yul\":1030:1042   */\n  revert\n    /* \"#utility.yul\":981:1044   */\ntag_32:\n    /* \"#utility.yul\":928:1050   */\n  pop\n  jump\t// out\n    /* \"#utility.yul\":1056:1199   */\ntag_16:\n    /* \"#utility.yul\":1113:1118   */\n  0x00\n    /* \"#utility.yul\":1144:1150   */\n  dup2\n    /* \"#utility.yul\":1138:1151   */\n  mload\n    /* \"#utility.yul\":1129:1151   */\n  swap1\n  pop\n    /* \"#utility.yul\":1160:1193   */\n  tag_34\n    /* \"#utility.yul\":1187:1192   */\n  dup2\n    /* \"#utility.yul\":1160:1193   */\n  tag_15\n  jump\t// in\ntag_34:\n    /* \"#utility.yul\":1056:1199   */\n  swap3\n  swap2\n  pop\n  pop\n  jump\t// out\n    /* \"#utility.yul\":1205:1712   */\ntag_3:\n    /* \"#utility.yul\":1284:1290   */\n  0x00\n    /* \"#utility.yul\":1292:1298   */\n  dup1\n    /* \"#utility.yul\":1341:1343   */\n  0x40\n    /* \"#utility.yul\":1329:1338   */\n  dup4\n    /* \"#utility.yul\":1320:1327   */\n  dup6\n    /* \"#utility.yul\":1316:1339   */\n  sub\n    /* \"#utility.yul\":1312:1344   */\n  slt\n    /* \"#utility.yul\":1309:1428   */\n  iszero\n  tag_36\n  jumpi\n    /* \"#utility.yul\":1347:1426   */\n  tag_37\n  tag_8\n  jump\t// in\ntag_37:\n    /* \"#utility.yul\":1309:1428   */\ntag_36:\n    /* \"#utility.yul\":1467:1468   */\n  0x00\n    /* \"#utility.yul\":1492:1556   */\n  tag_38\n    /* \"#utility.yul\":1548:1555   */\n  dup6\n    /* \"#utility.yul\":1539:1545   */\n  dup3\n    /* \"#utility.yul\":1528:1537   */\n  dup7\n    /* \"#utility.yul\":1524:1546   */\n  add\n    /* \"#utility.yul\":1492:1556   */\n  tag_13\n  jump\t// in\ntag_38:\n    /* \"#utility.yul\":1482:1556   */\n  swap3\n  pop\n    /* \"#utility.yul\":1438:1566   */\n  pop\n    /* \"#utility.yul\":1605:1607   */\n  0x20\n    /* \"#utility.yul\":1631:1695   */\n  tag_39\n    /* \"#utility.yul\":1687:1694   */\n  dup6\n    /* \"#utility.yul\":1678:1684   */\n  dup3\n    /* \"#utility.yul\":1667:1676   */\n  dup7\n    /* \"#utility.yul\":1663:1685   */\n  add\n    /* \"#utility.yul\":1631:1695   */\n  tag_16\n  jump\t// in\ntag_39:\n    /* \"#utility.yul\":1621:1695   */\n  swap2\n  pop\n    /* \"#utility.yul\":1576:1705   */\n  pop\n    /* \"#utility.yul\":1205:1712   */\n  swap3\n  pop\n  swap3\n  swap1\n  pop\n  jump\t// out\n    /* \"contract/USDC.sol\":263:1533  contract MaticToUSDC {... */\ntag_6:\n  dataSize(sub_0)\n  dup1\n  dataOffset(sub_0)\n  0x00\n  codecopy\n  0x00\n  return\nstop\n\nsub_0: assembly {\n        /* \"contract/USDC.sol\":263:1533  contract MaticToUSDC {... */\n      mstore(0x40, 0x80)\n      jumpi(tag_1, lt(calldatasize, 0x04))\n      shr(0xe0, calldataload(0x00))\n      dup1\n      0x8da5cb5b\n      gt\n      tag_9\n      jumpi\n      dup1\n      0x8da5cb5b\n      eq\n      tag_5\n      jumpi\n      dup1\n      0x91bbdcc7\n      eq\n      tag_6\n      jumpi\n      dup1\n      0xd2e80494\n      eq\n      tag_7\n      jumpi\n      dup1\n      0xdb81f99b\n      eq\n      tag_8\n      jumpi\n      jump(tag_1)\n    tag_9:\n      dup1\n      0x11eac855\n      eq\n      tag_2\n      jumpi\n      dup1\n      0x7ffdf53e\n      eq\n      tag_3\n      jumpi\n      dup1\n      0x810074c6\n      eq\n      tag_4\n      jumpi\n    tag_1:\n      0x00\n      dup1\n      revert\n        /* \"contract/USDC.sol\":290:313  IERC20 public usdcToken */\n    tag_2:\n      callvalue\n      dup1\n      iszero\n      tag_10\n      jumpi\n      0x00\n      dup1\n      revert\n    tag_10:\n      pop\n      tag_11\n      tag_12\n      jump\t// in\n    tag_11:\n      mload(0x40)\n      tag_13\n      swap2\n      swap1\n      tag_14\n      jump\t// in\n    tag_13:\n      mload(0x40)\n      dup1\n      swap2\n      sub\n      swap1\n      return\n        /* \"contract/USDC.sol\":345:374  uint256 public conversionRate */\n    tag_3:\n      callvalue\n      dup1\n      iszero\n      tag_15\n      jumpi\n      0x00\n      dup1\n      revert\n    tag_15:\n      pop\n      tag_16\n      tag_17\n      jump\t// in\n    tag_16:\n      mload(0x40)\n      tag_18\n      swap2\n      swap1\n      tag_19\n      jump\t// in\n    tag_18:\n      mload(0x40)\n      dup1\n      swap2\n      sub\n      swap1\n      return\n        /* \"contract/USDC.sol\":1278:1385  function withdrawMatic() external onlyOwner {... */\n    tag_4:\n      callvalue\n      dup1\n      iszero\n      tag_20\n      jumpi\n      0x00\n      dup1\n      revert\n    tag_20:\n      pop\n      tag_21\n      tag_22\n      jump\t// in\n    tag_21:\n      stop\n        /* \"contract/USDC.sol\":319:339  address public owner */\n    tag_5:\n      callvalue\n      dup1\n      iszero\n      tag_23\n      jumpi\n      0x00\n      dup1\n      revert\n    tag_23:\n      pop\n      tag_24\n      tag_25\n      jump\t// in\n    tag_24:\n      mload(0x40)\n      tag_26\n      swap2\n      swap1\n      tag_27\n      jump\t// in\n    tag_26:\n      mload(0x40)\n      dup1\n      swap2\n      sub\n      swap1\n      return\n        /* \"contract/USDC.sol\":955:1272  function convert() external payable {... */\n    tag_6:\n      tag_28\n      tag_29\n      jump\t// in\n    tag_28:\n      stop\n        /* \"contract/USDC.sol\":845:949  function setConversionRate(uint256 newRate) external onlyOwner {... */\n    tag_7:\n      callvalue\n      dup1\n      iszero\n      tag_30\n      jumpi\n      0x00\n      dup1\n      revert\n    tag_30:\n      pop\n      tag_31\n      0x04\n      dup1\n      calldatasize\n      sub\n      dup2\n      add\n      swap1\n      tag_32\n      swap2\n      swap1\n      tag_33\n      jump\t// in\n    tag_32:\n      tag_34\n      jump\t// in\n    tag_31:\n      stop\n        /* \"contract/USDC.sol\":1391:1531  function withdrawUSDC(uint256 amount) external onlyOwner {... */\n    tag_8:\n      callvalue\n      dup1\n      iszero\n      tag_35\n      jumpi\n      0x00\n      dup1\n      revert\n    tag_35:\n      pop\n      tag_36\n      0x04\n      dup1\n      calldatasize\n      sub\n      dup2\n      add\n      swap1\n      tag_37\n      swap2\n      swap1\n      tag_33\n      jump\t// in\n    tag_37:\n      tag_38\n      jump\t// in\n    tag_36:\n      stop\n        /* \"contract/USDC.sol\":290:313  IERC20 public usdcToken */\n    tag_12:\n      0x00\n      dup1\n      sload\n      swap1\n      0x0100\n      exp\n      swap1\n      div\n      0xffffffffffffffffffffffffffffffffffffffff\n      and\n      dup2\n      jump\t// out\n        /* \"contract/USDC.sol\":345:374  uint256 public conversionRate */\n    tag_17:\n      sload(0x02)\n      dup2\n      jump\t// out\n        /* \"contract/USDC.sol\":1278:1385  function withdrawMatic() external onlyOwner {... */\n    tag_22:\n        /* \"contract/USDC.sol\":590:595  owner */\n      0x01\n      0x00\n      swap1\n      sload\n      swap1\n      0x0100\n      exp\n      swap1\n      div\n      0xffffffffffffffffffffffffffffffffffffffff\n      and\n        /* \"contract/USDC.sol\":576:595  msg.sender == owner */\n      0xffffffffffffffffffffffffffffffffffffffff\n      and\n        /* \"contract/USDC.sol\":576:586  msg.sender */\n      caller\n        /* \"contract/USDC.sol\":576:595  msg.sender == owner */\n      0xffffffffffffffffffffffffffffffffffffffff\n      and\n      eq\n        /* \"contract/USDC.sol\":568:633  require(msg.sender == owner, \"Only owner can call this function\") */\n      tag_40\n      jumpi\n      mload(0x40)\n      0x08c379a000000000000000000000000000000000000000000000000000000000\n      dup2\n      mstore\n      0x04\n      add\n      tag_41\n      swap1\n      tag_42\n      jump\t// in\n    tag_41:\n      mload(0x40)\n      dup1\n      swap2\n      sub\n      swap1\n      revert\n    tag_40:\n        /* \"contract/USDC.sol\":1340:1345  owner */\n      0x01\n      0x00\n      swap1\n      sload\n      swap1\n      0x0100\n      exp\n      swap1\n      div\n      0xffffffffffffffffffffffffffffffffffffffff\n      and\n        /* \"contract/USDC.sol\":1332:1355  payable(owner).transfer */\n      0xffffffffffffffffffffffffffffffffffffffff\n      and\n        /* \"contract/USDC.sol\":1332:1378  payable(owner).transfer(address(this).balance) */\n      0x08fc\n        /* \"contract/USDC.sol\":1356:1377  address(this).balance */\n      selfbalance\n        /* \"contract/USDC.sol\":1332:1378  payable(owner).transfer(address(this).balance) */\n      swap1\n      dup2\n      iszero\n      mul\n      swap1\n      mload(0x40)\n      0x00\n      mload(0x40)\n      dup1\n      dup4\n      sub\n      dup2\n      dup6\n      dup9\n      dup9\n      call\n      swap4\n      pop\n      pop\n      pop\n      pop\n      iszero\n      dup1\n      iszero\n      tag_45\n      jumpi\n      returndatasize\n      0x00\n      dup1\n      returndatacopy\n      revert(0x00, returndatasize)\n    tag_45:\n      pop\n        /* \"contract/USDC.sol\":1278:1385  function withdrawMatic() external onlyOwner {... */\n      jump\t// out\n        /* \"contract/USDC.sol\":319:339  address public owner */\n    tag_25:\n      0x01\n      0x00\n      swap1\n      sload\n      swap1\n      0x0100\n      exp\n      swap1\n      div\n      0xffffffffffffffffffffffffffffffffffffffff\n      and\n      dup2\n      jump\t// out\n        /* \"contract/USDC.sol\":955:1272  function convert() external payable {... */\n    tag_29:\n        /* \"contract/USDC.sol\":1021:1022  0 */\n      0x00\n        /* \"contract/USDC.sol\":1009:1018  msg.value */\n      callvalue\n        /* \"contract/USDC.sol\":1009:1022  msg.value > 0 */\n      gt\n        /* \"contract/USDC.sol\":1001:1053  require(msg.value > 0, \"Must send MATIC to convert\") */\n      tag_47\n      jumpi\n      mload(0x40)\n      0x08c379a000000000000000000000000000000000000000000000000000000000\n      dup2\n      mstore\n      0x04\n      add\n      tag_48\n      swap1\n      tag_49\n      jump\t// in\n    tag_48:\n      mload(0x40)\n      dup1\n      swap2\n      sub\n      swap1\n      revert\n    tag_47:\n        /* \"contract/USDC.sol\":1064:1082  uint256 usdcAmount */\n      0x00\n        /* \"contract/USDC.sol\":1116:1120  1e18 */\n      0x0de0b6b3a7640000\n        /* \"contract/USDC.sol\":1098:1112  conversionRate */\n      sload(0x02)\n        /* \"contract/USDC.sol\":1086:1095  msg.value */\n      callvalue\n        /* \"contract/USDC.sol\":1086:1112  msg.value * conversionRate */\n      tag_50\n      swap2\n      swap1\n      tag_51\n      jump\t// in\n    tag_50:\n        /* \"contract/USDC.sol\":1085:1120  (msg.value * conversionRate) / 1e18 */\n      tag_52\n      swap2\n      swap1\n      tag_53\n      jump\t// in\n    tag_52:\n        /* \"contract/USDC.sol\":1064:1120  uint256 usdcAmount = (msg.value * conversionRate) / 1e18 */\n      swap1\n      pop\n        /* \"contract/USDC.sol\":1138:1147  usdcToken */\n      0x00\n      dup1\n      sload\n      swap1\n      0x0100\n      exp\n      swap1\n      div\n      0xffffffffffffffffffffffffffffffffffffffff\n      and\n        /* \"contract/USDC.sol\":1138:1156  usdcToken.transfer */\n      0xffffffffffffffffffffffffffffffffffffffff\n      and\n      0xa9059cbb\n        /* \"contract/USDC.sol\":1157:1167  msg.sender */\n      caller\n        /* \"contract/USDC.sol\":1169:1179  usdcAmount */\n      dup4\n        /* \"contract/USDC.sol\":1138:1180  usdcToken.transfer(msg.sender, usdcAmount) */\n      mload(0x40)\n      dup4\n      0xffffffff\n      and\n      0xe0\n      shl\n      dup2\n      mstore\n      0x04\n      add\n      tag_54\n      swap3\n      swap2\n      swap1\n      tag_55\n      jump\t// in\n    tag_54:\n      0x20\n      mload(0x40)\n      dup1\n      dup4\n      sub\n      dup2\n      0x00\n      dup8\n      gas\n      call\n      iszero\n      dup1\n      iszero\n      tag_57\n      jumpi\n      returndatasize\n      0x00\n      dup1\n      returndatacopy\n      revert(0x00, returndatasize)\n    tag_57:\n      pop\n      pop\n      pop\n      pop\n      mload(0x40)\n      returndatasize\n      not(0x1f)\n      0x1f\n      dup3\n      add\n      and\n      dup3\n      add\n      dup1\n      0x40\n      mstore\n      pop\n      dup2\n      add\n      swap1\n      tag_58\n      swap2\n      swap1\n      tag_59\n      jump\t// in\n    tag_58:\n        /* \"contract/USDC.sol\":1130:1205  require(usdcToken.transfer(msg.sender, usdcAmount), \"USDC transfer failed\") */\n      tag_60\n      jumpi\n      mload(0x40)\n      0x08c379a000000000000000000000000000000000000000000000000000000000\n      dup2\n      mstore\n      0x04\n      add\n      tag_61\n      swap1\n      tag_62\n      jump\t// in\n    tag_61:\n      mload(0x40)\n      dup1\n      swap2\n      sub\n      swap1\n      revert\n    tag_60:\n        /* \"contract/USDC.sol\":1231:1241  msg.sender */\n      caller\n        /* \"contract/USDC.sol\":1221:1265  Converted(msg.sender, msg.value, usdcAmount) */\n      0xffffffffffffffffffffffffffffffffffffffff\n      and\n      0xe6a45eea08a42f7c3f90f290e8ecf15e16174981943adf509fc9ea49808a64c6\n        /* \"contract/USDC.sol\":1243:1252  msg.value */\n      callvalue\n        /* \"contract/USDC.sol\":1254:1264  usdcAmount */\n      dup4\n        /* \"contract/USDC.sol\":1221:1265  Converted(msg.sender, msg.value, usdcAmount) */\n      mload(0x40)\n      tag_63\n      swap3\n      swap2\n      swap1\n      tag_64\n      jump\t// in\n    tag_63:\n      mload(0x40)\n      dup1\n      swap2\n      sub\n      swap1\n      log2\n        /* \"contract/USDC.sol\":991:1272  {... */\n      pop\n        /* \"contract/USDC.sol\":955:1272  function convert() external payable {... */\n      jump\t// out\n        /* \"contract/USDC.sol\":845:949  function setConversionRate(uint256 newRate) external onlyOwner {... */\n    tag_34:\n        /* \"contract/USDC.sol\":590:595  owner */\n      0x01\n      0x00\n      swap1\n      sload\n      swap1\n      0x0100\n      exp\n      swap1\n      div\n      0xffffffffffffffffffffffffffffffffffffffff\n      and\n        /* \"contract/USDC.sol\":576:595  msg.sender == owner */\n      0xffffffffffffffffffffffffffffffffffffffff\n      and\n        /* \"contract/USDC.sol\":576:586  msg.sender */\n      caller\n        /* \"contract/USDC.sol\":576:595  msg.sender == owner */\n      0xffffffffffffffffffffffffffffffffffffffff\n      and\n      eq\n        /* \"contract/USDC.sol\":568:633  require(msg.sender == owner, \"Only owner can call this function\") */\n      tag_66\n      jumpi\n      mload(0x40)\n      0x08c379a000000000000000000000000000000000000000000000000000000000\n      dup2\n      mstore\n      0x04\n      add\n      tag_67\n      swap1\n      tag_42\n      jump\t// in\n    tag_67:\n      mload(0x40)\n      dup1\n      swap2\n      sub\n      swap1\n      revert\n    tag_66:\n        /* \"contract/USDC.sol\":935:942  newRate */\n      dup1\n        /* \"contract/USDC.sol\":918:932  conversionRate */\n      0x02\n        /* \"contract/USDC.sol\":918:942  conversionRate = newRate */\n      dup2\n      swap1\n      sstore\n      pop\n        /* \"contract/USDC.sol\":845:949  function setConversionRate(uint256 newRate) external onlyOwner {... */\n      pop\n      jump\t// out\n        /* \"contract/USDC.sol\":1391:1531  function withdrawUSDC(uint256 amount) external onlyOwner {... */\n    tag_38:\n        /* \"contract/USDC.sol\":590:595  owner */\n      0x01\n      0x00\n      swap1\n      sload\n      swap1\n      0x0100\n      exp\n      swap1\n      div\n      0xffffffffffffffffffffffffffffffffffffffff\n      and\n        /* \"contract/USDC.sol\":576:595  msg.sender == owner */\n      0xffffffffffffffffffffffffffffffffffffffff\n      and\n        /* \"contract/USDC.sol\":576:586  msg.sender */\n      caller\n        /* \"contract/USDC.sol\":576:595  msg.sender == owner */\n      0xffffffffffffffffffffffffffffffffffffffff\n      and\n      eq\n        /* \"contract/USDC.sol\":568:633  require(msg.sender == owner, \"Only owner can call this function\") */\n      tag_70\n      jumpi\n      mload(0x40)\n      0x08c379a000000000000000000000000000000000000000000000000000000000\n      dup2\n      mstore\n      0x04\n      add\n      tag_71\n      swap1\n      tag_42\n      jump\t// in\n    tag_71:\n      mload(0x40)\n      dup1\n      swap2\n      sub\n      swap1\n      revert\n    tag_70:\n        /* \"contract/USDC.sol\":1466:1475  usdcToken */\n      0x00\n      dup1\n      sload\n      swap1\n      0x0100\n      exp\n      swap1\n      div\n      0xffffffffffffffffffffffffffffffffffffffff\n      and\n        /* \"contract/USDC.sol\":1466:1484  usdcToken.transfer */\n      0xffffffffffffffffffffffffffffffffffffffff\n      and\n      0xa9059cbb\n        /* \"contract/USDC.sol\":1485:1490  owner */\n      0x01\n      0x00\n      swap1\n      sload\n      swap1\n      0x0100\n      exp\n      swap1\n      div\n      0xffffffffffffffffffffffffffffffffffffffff\n      and\n        /* \"contract/USDC.sol\":1492:1498  amount */\n      dup4\n        /* \"contract/USDC.sol\":1466:1499  usdcToken.transfer(owner, amount) */\n      mload(0x40)\n      dup4\n      0xffffffff\n      and\n      0xe0\n      shl\n      dup2\n      mstore\n      0x04\n      add\n      tag_73\n      swap3\n      swap2\n      swap1\n      tag_55\n      jump\t// in\n    tag_73:\n      0x20\n      mload(0x40)\n      dup1\n      dup4\n      sub\n      dup2\n      0x00\n      dup8\n      gas\n      call\n      iszero\n      dup1\n      iszero\n      tag_75\n      jumpi\n      returndatasize\n      0x00\n      dup1\n      returndatacopy\n      revert(0x00, returndatasize)\n    tag_75:\n      pop\n      pop\n      pop\n      pop\n      mload(0x40)\n      returndatasize\n      not(0x1f)\n      0x1f\n      dup3\n      add\n      and\n      dup3\n      add\n      dup1\n      0x40\n      mstore\n      pop\n      dup2\n      add\n      swap1\n      tag_76\n      swap2\n      swap1\n      tag_59\n      jump\t// in\n    tag_76:\n        /* \"contract/USDC.sol\":1458:1524  require(usdcToken.transfer(owner, amount), \"USDC transfer failed\") */\n      tag_77\n      jumpi\n      mload(0x40)\n      0x08c379a000000000000000000000000000000000000000000000000000000000\n      dup2\n      mstore\n      0x04\n      add\n      tag_78\n      swap1\n      tag_62\n      jump\t// in\n    tag_78:\n      mload(0x40)\n      dup1\n      swap2\n      sub\n      swap1\n      revert\n    tag_77:\n        /* \"contract/USDC.sol\":1391:1531  function withdrawUSDC(uint256 amount) external onlyOwner {... */\n      pop\n      jump\t// out\n        /* \"#utility.yul\":7:133   */\n    tag_79:\n        /* \"#utility.yul\":44:51   */\n      0x00\n        /* \"#utility.yul\":84:126   */\n      0xffffffffffffffffffffffffffffffffffffffff\n        /* \"#utility.yul\":77:82   */\n      dup3\n        /* \"#utility.yul\":73:127   */\n      and\n        /* \"#utility.yul\":62:127   */\n      swap1\n      pop\n        /* \"#utility.yul\":7:133   */\n      swap2\n      swap1\n      pop\n      jump\t// out\n        /* \"#utility.yul\":139:199   */\n    tag_80:\n        /* \"#utility.yul\":167:170   */\n      0x00\n        /* \"#utility.yul\":188:193   */\n      dup2\n        /* \"#utility.yul\":181:193   */\n      swap1\n      pop\n        /* \"#utility.yul\":139:199   */\n      swap2\n      swap1\n      pop\n      jump\t// out\n        /* \"#utility.yul\":205:347   */\n    tag_81:\n        /* \"#utility.yul\":255:264   */\n      0x00\n        /* \"#utility.yul\":288:341   */\n      tag_110\n        /* \"#utility.yul\":306:340   */\n      tag_111\n        /* \"#utility.yul\":315:339   */\n      tag_112\n        /* \"#utility.yul\":333:338   */\n      dup5\n        /* \"#utility.yul\":315:339   */\n      tag_79\n      jump\t// in\n    tag_112:\n        /* \"#utility.yul\":306:340   */\n      tag_80\n      jump\t// in\n    tag_111:\n        /* \"#utility.yul\":288:341   */\n      tag_79\n      jump\t// in\n    tag_110:\n        /* \"#utility.yul\":275:341   */\n      swap1\n      pop\n        /* \"#utility.yul\":205:347   */\n      swap2\n      swap1\n      pop\n      jump\t// out\n        /* \"#utility.yul\":353:479   */\n    tag_82:\n        /* \"#utility.yul\":403:412   */\n      0x00\n        /* \"#utility.yul\":436:473   */\n      tag_114\n        /* \"#utility.yul\":467:472   */\n      dup3\n        /* \"#utility.yul\":436:473   */\n      tag_81\n      jump\t// in\n    tag_114:\n        /* \"#utility.yul\":423:473   */\n      swap1\n      pop\n        /* \"#utility.yul\":353:479   */\n      swap2\n      swap1\n      pop\n      jump\t// out\n        /* \"#utility.yul\":485:624   */\n    tag_83:\n        /* \"#utility.yul\":548:557   */\n      0x00\n        /* \"#utility.yul\":581:618   */\n      tag_116\n        /* \"#utility.yul\":612:617   */\n      dup3\n        /* \"#utility.yul\":581:618   */\n      tag_82\n      jump\t// in\n    tag_116:\n        /* \"#utility.yul\":568:618   */\n      swap1\n      pop\n        /* \"#utility.yul\":485:624   */\n      swap2\n      swap1\n      pop\n      jump\t// out\n        /* \"#utility.yul\":630:787   */\n    tag_84:\n        /* \"#utility.yul\":730:780   */\n      tag_118\n        /* \"#utility.yul\":774:779   */\n      dup2\n        /* \"#utility.yul\":730:780   */\n      tag_83\n      jump\t// in\n    tag_118:\n        /* \"#utility.yul\":725:728   */\n      dup3\n        /* \"#utility.yul\":718:781   */\n      mstore\n        /* \"#utility.yul\":630:787   */\n      pop\n      pop\n      jump\t// out\n        /* \"#utility.yul\":793:1041   */\n    tag_14:\n        /* \"#utility.yul\":899:903   */\n      0x00\n        /* \"#utility.yul\":937:939   */\n      0x20\n        /* \"#utility.yul\":926:935   */\n      dup3\n        /* \"#utility.yul\":922:940   */\n      add\n        /* \"#utility.yul\":914:940   */\n      swap1\n      pop\n        /* \"#utility.yul\":950:1034   */\n      tag_120\n        /* \"#utility.yul\":1031:1032   */\n      0x00\n        /* \"#utility.yul\":1020:1029   */\n      dup4\n        /* \"#utility.yul\":1016:1033   */\n      add\n        /* \"#utility.yul\":1007:1013   */\n      dup5\n        /* \"#utility.yul\":950:1034   */\n      tag_84\n      jump\t// in\n    tag_120:\n        /* \"#utility.yul\":793:1041   */\n      swap3\n      swap2\n      pop\n      pop\n      jump\t// out\n        /* \"#utility.yul\":1047:1124   */\n    tag_85:\n        /* \"#utility.yul\":1084:1091   */\n      0x00\n        /* \"#utility.yul\":1113:1118   */\n      dup2\n        /* \"#utility.yul\":1102:1118   */\n      swap1\n      pop\n        /* \"#utility.yul\":1047:1124   */\n      swap2\n      swap1\n      pop\n      jump\t// out\n        /* \"#utility.yul\":1130:1248   */\n    tag_86:\n        /* \"#utility.yul\":1217:1241   */\n      tag_123\n        /* \"#utility.yul\":1235:1240   */\n      dup2\n        /* \"#utility.yul\":1217:1241   */\n      tag_85\n      jump\t// in\n    tag_123:\n        /* \"#utility.yul\":1212:1215   */\n      dup3\n        /* \"#utility.yul\":1205:1242   */\n      mstore\n        /* \"#utility.yul\":1130:1248   */\n      pop\n      pop\n      jump\t// out\n        /* \"#utility.yul\":1254:1476   */\n    tag_19:\n        /* \"#utility.yul\":1347:1351   */\n      0x00\n        /* \"#utility.yul\":1385:1387   */\n      0x20\n        /* \"#utility.yul\":1374:1383   */\n      dup3\n        /* \"#utility.yul\":1370:1388   */\n      add\n        /* \"#utility.yul\":1362:1388   */\n      swap1\n      pop\n        /* \"#utility.yul\":1398:1469   */\n      tag_125\n        /* \"#utility.yul\":1466:1467   */\n      0x00\n        /* \"#utility.yul\":1455:1464   */\n      dup4\n        /* \"#utility.yul\":1451:1468   */\n      add\n        /* \"#utility.yul\":1442:1448   */\n      dup5\n        /* \"#utility.yul\":1398:1469   */\n      tag_86\n      jump\t// in\n    tag_125:\n        /* \"#utility.yul\":1254:1476   */\n      swap3\n      swap2\n      pop\n      pop\n      jump\t// out\n        /* \"#utility.yul\":1482:1578   */\n    tag_87:\n        /* \"#utility.yul\":1519:1526   */\n      0x00\n        /* \"#utility.yul\":1548:1572   */\n      tag_127\n        /* \"#utility.yul\":1566:1571   */\n      dup3\n        /* \"#utility.yul\":1548:1572   */\n      tag_79\n      jump\t// in\n    tag_127:\n        /* \"#utility.yul\":1537:1572   */\n      swap1\n      pop\n        /* \"#utility.yul\":1482:1578   */\n      swap2\n      swap1\n      pop\n      jump\t// out\n        /* \"#utility.yul\":1584:1702   */\n    tag_88:\n        /* \"#utility.yul\":1671:1695   */\n      tag_129\n        /* \"#utility.yul\":1689:1694   */\n      dup2\n        /* \"#utility.yul\":1671:1695   */\n      tag_87\n      jump\t// in\n    tag_129:\n        /* \"#utility.yul\":1666:1669   */\n      dup3\n        /* \"#utility.yul\":1659:1696   */\n      mstore\n        /* \"#utility.yul\":1584:1702   */\n      pop\n      pop\n      jump\t// out\n        /* \"#utility.yul\":1708:1930   */\n    tag_27:\n        /* \"#utility.yul\":1801:1805   */\n      0x00\n        /* \"#utility.yul\":1839:1841   */\n      0x20\n        /* \"#utility.yul\":1828:1837   */\n      dup3\n        /* \"#utility.yul\":1824:1842   */\n      add\n        /* \"#utility.yul\":1816:1842   */\n      swap1\n      pop\n        /* \"#utility.yul\":1852:1923   */\n      tag_131\n        /* \"#utility.yul\":1920:1921   */\n      0x00\n        /* \"#utility.yul\":1909:1918   */\n      dup4\n        /* \"#utility.yul\":1905:1922   */\n      add\n        /* \"#utility.yul\":1896:1902   */\n      dup5\n        /* \"#utility.yul\":1852:1923   */\n      tag_88\n      jump\t// in\n    tag_131:\n        /* \"#utility.yul\":1708:1930   */\n      swap3\n      swap2\n      pop\n      pop\n      jump\t// out\n        /* \"#utility.yul\":2017:2134   */\n    tag_90:\n        /* \"#utility.yul\":2126:2127   */\n      0x00\n        /* \"#utility.yul\":2123:2124   */\n      dup1\n        /* \"#utility.yul\":2116:2128   */\n      revert\n        /* \"#utility.yul\":2263:2385   */\n    tag_92:\n        /* \"#utility.yul\":2336:2360   */\n      tag_136\n        /* \"#utility.yul\":2354:2359   */\n      dup2\n        /* \"#utility.yul\":2336:2360   */\n      tag_85\n      jump\t// in\n    tag_136:\n        /* \"#utility.yul\":2329:2334   */\n      dup2\n        /* \"#utility.yul\":2326:2361   */\n      eq\n        /* \"#utility.yul\":2316:2379   */\n      tag_137\n      jumpi\n        /* \"#utility.yul\":2375:2376   */\n      0x00\n        /* \"#utility.yul\":2372:2373   */\n      dup1\n        /* \"#utility.yul\":2365:2377   */\n      revert\n        /* \"#utility.yul\":2316:2379   */\n    tag_137:\n        /* \"#utility.yul\":2263:2385   */\n      pop\n      jump\t// out\n        /* \"#utility.yul\":2391:2530   */\n    tag_93:\n        /* \"#utility.yul\":2437:2442   */\n      0x00\n        /* \"#utility.yul\":2475:2481   */\n      dup2\n        /* \"#utility.yul\":2462:2482   */\n      calldataload\n        /* \"#utility.yul\":2453:2482   */\n      swap1\n      pop\n        /* \"#utility.yul\":2491:2524   */\n      tag_139\n        /* \"#utility.yul\":2518:2523   */\n      dup2\n        /* \"#utility.yul\":2491:2524   */\n      tag_92\n      jump\t// in\n    tag_139:\n        /* \"#utility.yul\":2391:2530   */\n      swap3\n      swap2\n      pop\n      pop\n      jump\t// out\n        /* \"#utility.yul\":2536:2865   */\n    tag_33:\n        /* \"#utility.yul\":2595:2601   */\n      0x00\n        /* \"#utility.yul\":2644:2646   */\n      0x20\n        /* \"#utility.yul\":2632:2641   */\n      dup3\n        /* \"#utility.yul\":2623:2630   */\n      dup5\n        /* \"#utility.yul\":2619:2642   */\n      sub\n        /* \"#utility.yul\":2615:2647   */\n      slt\n        /* \"#utility.yul\":2612:2731   */\n      iszero\n      tag_141\n      jumpi\n        /* \"#utility.yul\":2650:2729   */\n      tag_142\n      tag_90\n      jump\t// in\n    tag_142:\n        /* \"#utility.yul\":2612:2731   */\n    tag_141:\n        /* \"#utility.yul\":2770:2771   */\n      0x00\n        /* \"#utility.yul\":2795:2848   */\n      tag_143\n        /* \"#utility.yul\":2840:2847   */\n      dup5\n        /* \"#utility.yul\":2831:2837   */\n      dup3\n        /* \"#utility.yul\":2820:2829   */\n      dup6\n        /* \"#utility.yul\":2816:2838   */\n      add\n        /* \"#utility.yul\":2795:2848   */\n      tag_93\n      jump\t// in\n    tag_143:\n        /* \"#utility.yul\":2785:2848   */\n      swap2\n      pop\n        /* \"#utility.yul\":2741:2858   */\n      pop\n        /* \"#utility.yul\":2536:2865   */\n      swap3\n      swap2\n      pop\n      pop\n      jump\t// out\n        /* \"#utility.yul\":2871:3040   */\n    tag_94:\n        /* \"#utility.yul\":2955:2966   */\n      0x00\n        /* \"#utility.yul\":2989:2995   */\n      dup3\n        /* \"#utility.yul\":2984:2987   */\n      dup3\n        /* \"#utility.yul\":2977:2996   */\n      mstore\n        /* \"#utility.yul\":3029:3033   */\n      0x20\n        /* \"#utility.yul\":3024:3027   */\n      dup3\n        /* \"#utility.yul\":3020:3034   */\n      add\n        /* \"#utility.yul\":3005:3034   */\n      swap1\n      pop\n        /* \"#utility.yul\":2871:3040   */\n      swap3\n      swap2\n      pop\n      pop\n      jump\t// out\n        /* \"#utility.yul\":3046:3266   */\n    tag_95:\n        /* \"#utility.yul\":3186:3220   */\n      0x4f6e6c79206f776e65722063616e2063616c6c20746869732066756e6374696f\n        /* \"#utility.yul\":3182:3183   */\n      0x00\n        /* \"#utility.yul\":3174:3180   */\n      dup3\n        /* \"#utility.yul\":3170:3184   */\n      add\n        /* \"#utility.yul\":3163:3221   */\n      mstore\n        /* \"#utility.yul\":3255:3258   */\n      0x6e00000000000000000000000000000000000000000000000000000000000000\n        /* \"#utility.yul\":3250:3252   */\n      0x20\n        /* \"#utility.yul\":3242:3248   */\n      dup3\n        /* \"#utility.yul\":3238:3253   */\n      add\n        /* \"#utility.yul\":3231:3259   */\n      mstore\n        /* \"#utility.yul\":3046:3266   */\n      pop\n      jump\t// out\n        /* \"#utility.yul\":3272:3638   */\n    tag_96:\n        /* \"#utility.yul\":3414:3417   */\n      0x00\n        /* \"#utility.yul\":3435:3502   */\n      tag_147\n        /* \"#utility.yul\":3499:3501   */\n      0x21\n        /* \"#utility.yul\":3494:3497   */\n      dup4\n        /* \"#utility.yul\":3435:3502   */\n      tag_94\n      jump\t// in\n    tag_147:\n        /* \"#utility.yul\":3428:3502   */\n      swap2\n      pop\n        /* \"#utility.yul\":3511:3604   */\n      tag_148\n        /* \"#utility.yul\":3600:3603   */\n      dup3\n        /* \"#utility.yul\":3511:3604   */\n      tag_95\n      jump\t// in\n    tag_148:\n        /* \"#utility.yul\":3629:3631   */\n      0x40\n        /* \"#utility.yul\":3624:3627   */\n      dup3\n        /* \"#utility.yul\":3620:3632   */\n      add\n        /* \"#utility.yul\":3613:3632   */\n      swap1\n      pop\n        /* \"#utility.yul\":3272:3638   */\n      swap2\n      swap1\n      pop\n      jump\t// out\n        /* \"#utility.yul\":3644:4063   */\n    tag_42:\n        /* \"#utility.yul\":3810:3814   */\n      0x00\n        /* \"#utility.yul\":3848:3850   */\n      0x20\n        /* \"#utility.yul\":3837:3846   */\n      dup3\n        /* \"#utility.yul\":3833:3851   */\n      add\n        /* \"#utility.yul\":3825:3851   */\n      swap1\n      pop\n        /* \"#utility.yul\":3897:3906   */\n      dup2\n        /* \"#utility.yul\":3891:3895   */\n      dup2\n        /* \"#utility.yul\":3887:3907   */\n      sub\n        /* \"#utility.yul\":3883:3884   */\n      0x00\n        /* \"#utility.yul\":3872:3881   */\n      dup4\n        /* \"#utility.yul\":3868:3885   */\n      add\n        /* \"#utility.yul\":3861:3908   */\n      mstore\n        /* \"#utility.yul\":3925:4056   */\n      tag_150\n        /* \"#utility.yul\":4051:4055   */\n      dup2\n        /* \"#utility.yul\":3925:4056   */\n      tag_96\n      jump\t// in\n    tag_150:\n        /* \"#utility.yul\":3917:4056   */\n      swap1\n      pop\n        /* \"#utility.yul\":3644:4063   */\n      swap2\n      swap1\n      pop\n      jump\t// out\n        /* \"#utility.yul\":4069:4245   */\n    tag_97:\n        /* \"#utility.yul\":4209:4237   */\n      0x4d7573742073656e64204d4154494320746f20636f6e76657274000000000000\n        /* \"#utility.yul\":4205:4206   */\n      0x00\n        /* \"#utility.yul\":4197:4203   */\n      dup3\n        /* \"#utility.yul\":4193:4207   */\n      add\n        /* \"#utility.yul\":4186:4238   */\n      mstore\n        /* \"#utility.yul\":4069:4245   */\n      pop\n      jump\t// out\n        /* \"#utility.yul\":4251:4617   */\n    tag_98:\n        /* \"#utility.yul\":4393:4396   */\n      0x00\n        /* \"#utility.yul\":4414:4481   */\n      tag_153\n        /* \"#utility.yul\":4478:4480   */\n      0x1a\n        /* \"#utility.yul\":4473:4476   */\n      dup4\n        /* \"#utility.yul\":4414:4481   */\n      tag_94\n      jump\t// in\n    tag_153:\n        /* \"#utility.yul\":4407:4481   */\n      swap2\n      pop\n        /* \"#utility.yul\":4490:4583   */\n      tag_154\n        /* \"#utility.yul\":4579:4582   */\n      dup3\n        /* \"#utility.yul\":4490:4583   */\n      tag_97\n      jump\t// in\n    tag_154:\n        /* \"#utility.yul\":4608:4610   */\n      0x20\n        /* \"#utility.yul\":4603:4606   */\n      dup3\n        /* \"#utility.yul\":4599:4611   */\n      add\n        /* \"#utility.yul\":4592:4611   */\n      swap1\n      pop\n        /* \"#utility.yul\":4251:4617   */\n      swap2\n      swap1\n      pop\n      jump\t// out\n        /* \"#utility.yul\":4623:5042   */\n    tag_49:\n        /* \"#utility.yul\":4789:4793   */\n      0x00\n        /* \"#utility.yul\":4827:4829   */\n      0x20\n        /* \"#utility.yul\":4816:4825   */\n      dup3\n        /* \"#utility.yul\":4812:4830   */\n      add\n        /* \"#utility.yul\":4804:4830   */\n      swap1\n      pop\n        /* \"#utility.yul\":4876:4885   */\n      dup2\n        /* \"#utility.yul\":4870:4874   */\n      dup2\n        /* \"#utility.yul\":4866:4886   */\n      sub\n        /* \"#utility.yul\":4862:4863   */\n      0x00\n        /* \"#utility.yul\":4851:4860   */\n      dup4\n        /* \"#utility.yul\":4847:4864   */\n      add\n        /* \"#utility.yul\":4840:4887   */\n      mstore\n        /* \"#utility.yul\":4904:5035   */\n      tag_156\n        /* \"#utility.yul\":5030:5034   */\n      dup2\n        /* \"#utility.yul\":4904:5035   */\n      tag_98\n      jump\t// in\n    tag_156:\n        /* \"#utility.yul\":4896:5035   */\n      swap1\n      pop\n        /* \"#utility.yul\":4623:5042   */\n      swap2\n      swap1\n      pop\n      jump\t// out\n        /* \"#utility.yul\":5048:5228   */\n    tag_99:\n        /* \"#utility.yul\":5096:5173   */\n      0x4e487b7100000000000000000000000000000000000000000000000000000000\n        /* \"#utility.yul\":5093:5094   */\n      0x00\n        /* \"#utility.yul\":5086:5174   */\n      mstore\n        /* \"#utility.yul\":5193:5197   */\n      0x11\n        /* \"#utility.yul\":5190:5191   */\n      0x04\n        /* \"#utility.yul\":5183:5198   */\n      mstore\n        /* \"#utility.yul\":5217:5221   */\n      0x24\n        /* \"#utility.yul\":5214:5215   */\n      0x00\n        /* \"#utility.yul\":5207:5222   */\n      revert\n        /* \"#utility.yul\":5234:5644   */\n    tag_51:\n        /* \"#utility.yul\":5274:5281   */\n      0x00\n        /* \"#utility.yul\":5297:5317   */\n      tag_159\n        /* \"#utility.yul\":5315:5316   */\n      dup3\n        /* \"#utility.yul\":5297:5317   */\n      tag_85\n      jump\t// in\n    tag_159:\n        /* \"#utility.yul\":5292:5317   */\n      swap2\n      pop\n        /* \"#utility.yul\":5331:5351   */\n      tag_160\n        /* \"#utility.yul\":5349:5350   */\n      dup4\n        /* \"#utility.yul\":5331:5351   */\n      tag_85\n      jump\t// in\n    tag_160:\n        /* \"#utility.yul\":5326:5351   */\n      swap3\n      pop\n        /* \"#utility.yul\":5386:5387   */\n      dup3\n        /* \"#utility.yul\":5383:5384   */\n      dup3\n        /* \"#utility.yul\":5379:5388   */\n      mul\n        /* \"#utility.yul\":5408:5438   */\n      tag_161\n        /* \"#utility.yul\":5426:5437   */\n      dup2\n        /* \"#utility.yul\":5408:5438   */\n      tag_85\n      jump\t// in\n    tag_161:\n        /* \"#utility.yul\":5397:5438   */\n      swap2\n      pop\n        /* \"#utility.yul\":5587:5588   */\n      dup3\n        /* \"#utility.yul\":5578:5585   */\n      dup3\n        /* \"#utility.yul\":5574:5589   */\n      div\n        /* \"#utility.yul\":5571:5572   */\n      dup5\n        /* \"#utility.yul\":5568:5590   */\n      eq\n        /* \"#utility.yul\":5548:5549   */\n      dup4\n        /* \"#utility.yul\":5541:5550   */\n      iszero\n        /* \"#utility.yul\":5521:5604   */\n      or\n        /* \"#utility.yul\":5498:5637   */\n      tag_162\n      jumpi\n        /* \"#utility.yul\":5617:5635   */\n      tag_163\n      tag_99\n      jump\t// in\n    tag_163:\n        /* \"#utility.yul\":5498:5637   */\n    tag_162:\n        /* \"#utility.yul\":5282:5644   */\n      pop\n        /* \"#utility.yul\":5234:5644   */\n      swap3\n      swap2\n      pop\n      pop\n      jump\t// out\n        /* \"#utility.yul\":5650:5830   */\n    tag_100:\n        /* \"#utility.yul\":5698:5775   */\n      0x4e487b7100000000000000000000000000000000000000000000000000000000\n        /* \"#utility.yul\":5695:5696   */\n      0x00\n        /* \"#utility.yul\":5688:5776   */\n      mstore\n        /* \"#utility.yul\":5795:5799   */\n      0x12\n        /* \"#utility.yul\":5792:5793   */\n      0x04\n        /* \"#utility.yul\":5785:5800   */\n      mstore\n        /* \"#utility.yul\":5819:5823   */\n      0x24\n        /* \"#utility.yul\":5816:5817   */\n      0x00\n        /* \"#utility.yul\":5809:5824   */\n      revert\n        /* \"#utility.yul\":5836:6021   */\n    tag_53:\n        /* \"#utility.yul\":5876:5877   */\n      0x00\n        /* \"#utility.yul\":5893:5913   */\n      tag_166\n        /* \"#utility.yul\":5911:5912   */\n      dup3\n        /* \"#utility.yul\":5893:5913   */\n      tag_85\n      jump\t// in\n    tag_166:\n        /* \"#utility.yul\":5888:5913   */\n      swap2\n      pop\n        /* \"#utility.yul\":5927:5947   */\n      tag_167\n        /* \"#utility.yul\":5945:5946   */\n      dup4\n        /* \"#utility.yul\":5927:5947   */\n      tag_85\n      jump\t// in\n    tag_167:\n        /* \"#utility.yul\":5922:5947   */\n      swap3\n      pop\n        /* \"#utility.yul\":5966:5967   */\n      dup3\n        /* \"#utility.yul\":5956:5991   */\n      tag_168\n      jumpi\n        /* \"#utility.yul\":5971:5989   */\n      tag_169\n      tag_100\n      jump\t// in\n    tag_169:\n        /* \"#utility.yul\":5956:5991   */\n    tag_168:\n        /* \"#utility.yul\":6013:6014   */\n      dup3\n        /* \"#utility.yul\":6010:6011   */\n      dup3\n        /* \"#utility.yul\":6006:6015   */\n      div\n        /* \"#utility.yul\":6001:6015   */\n      swap1\n      pop\n        /* \"#utility.yul\":5836:6021   */\n      swap3\n      swap2\n      pop\n      pop\n      jump\t// out\n        /* \"#utility.yul\":6027:6359   */\n    tag_55:\n        /* \"#utility.yul\":6148:6152   */\n      0x00\n        /* \"#utility.yul\":6186:6188   */\n      0x40\n        /* \"#utility.yul\":6175:6184   */\n      dup3\n        /* \"#utility.yul\":6171:6189   */\n      add\n        /* \"#utility.yul\":6163:6189   */\n      swap1\n      pop\n        /* \"#utility.yul\":6199:6270   */\n      tag_171\n        /* \"#utility.yul\":6267:6268   */\n      0x00\n        /* \"#utility.yul\":6256:6265   */\n      dup4\n        /* \"#utility.yul\":6252:6269   */\n      add\n        /* \"#utility.yul\":6243:6249   */\n      dup6\n        /* \"#utility.yul\":6199:6270   */\n      tag_88\n      jump\t// in\n    tag_171:\n        /* \"#utility.yul\":6280:6352   */\n      tag_172\n        /* \"#utility.yul\":6348:6350   */\n      0x20\n        /* \"#utility.yul\":6337:6346   */\n      dup4\n        /* \"#utility.yul\":6333:6351   */\n      add\n        /* \"#utility.yul\":6324:6330   */\n      dup5\n        /* \"#utility.yul\":6280:6352   */\n      tag_86\n      jump\t// in\n    tag_172:\n        /* \"#utility.yul\":6027:6359   */\n      swap4\n      swap3\n      pop\n      pop\n      pop\n      jump\t// out\n        /* \"#utility.yul\":6365:6455   */\n    tag_101:\n        /* \"#utility.yul\":6399:6406   */\n      0x00\n        /* \"#utility.yul\":6442:6447   */\n      dup2\n        /* \"#utility.yul\":6435:6448   */\n      iszero\n        /* \"#utility.yul\":6428:6449   */\n      iszero\n        /* \"#utility.yul\":6417:6449   */\n      swap1\n      pop\n        /* \"#utility.yul\":6365:6455   */\n      swap2\n      swap1\n      pop\n      jump\t// out\n        /* \"#utility.yul\":6461:6577   */\n    tag_102:\n        /* \"#utility.yul\":6531:6552   */\n      tag_175\n        /* \"#utility.yul\":6546:6551   */\n      dup2\n        /* \"#utility.yul\":6531:6552   */\n      tag_101\n      jump\t// in\n    tag_175:\n        /* \"#utility.yul\":6524:6529   */\n      dup2\n        /* \"#utility.yul\":6521:6553   */\n      eq\n        /* \"#utility.yul\":6511:6571   */\n      tag_176\n      jumpi\n        /* \"#utility.yul\":6567:6568   */\n      0x00\n        /* \"#utility.yul\":6564:6565   */\n      dup1\n        /* \"#utility.yul\":6557:6569   */\n      revert\n        /* \"#utility.yul\":6511:6571   */\n    tag_176:\n        /* \"#utility.yul\":6461:6577   */\n      pop\n      jump\t// out\n        /* \"#utility.yul\":6583:6720   */\n    tag_103:\n        /* \"#utility.yul\":6637:6642   */\n      0x00\n        /* \"#utility.yul\":6668:6674   */\n      dup2\n        /* \"#utility.yul\":6662:6675   */\n      mload\n        /* \"#utility.yul\":6653:6675   */\n      swap1\n      pop\n        /* \"#utility.yul\":6684:6714   */\n      tag_178\n        /* \"#utility.yul\":6708:6713   */\n      dup2\n        /* \"#utility.yul\":6684:6714   */\n      tag_102\n      jump\t// in\n    tag_178:\n        /* \"#utility.yul\":6583:6720   */\n      swap3\n      swap2\n      pop\n      pop\n      jump\t// out\n        /* \"#utility.yul\":6726:7071   */\n    tag_59:\n        /* \"#utility.yul\":6793:6799   */\n      0x00\n        /* \"#utility.yul\":6842:6844   */\n      0x20\n        /* \"#utility.yul\":6830:6839   */\n      dup3\n        /* \"#utility.yul\":6821:6828   */\n      dup5\n        /* \"#utility.yul\":6817:6840   */\n      sub\n        /* \"#utility.yul\":6813:6845   */\n      slt\n        /* \"#utility.yul\":6810:6929   */\n      iszero\n      tag_180\n      jumpi\n        /* \"#utility.yul\":6848:6927   */\n      tag_181\n      tag_90\n      jump\t// in\n    tag_181:\n        /* \"#utility.yul\":6810:6929   */\n    tag_180:\n        /* \"#utility.yul\":6968:6969   */\n      0x00\n        /* \"#utility.yul\":6993:7054   */\n      tag_182\n        /* \"#utility.yul\":7046:7053   */\n      dup5\n        /* \"#utility.yul\":7037:7043   */\n      dup3\n        /* \"#utility.yul\":7026:7035   */\n      dup6\n        /* \"#utility.yul\":7022:7044   */\n      add\n        /* \"#utility.yul\":6993:7054   */\n      tag_103\n      jump\t// in\n    tag_182:\n        /* \"#utility.yul\":6983:7054   */\n      swap2\n      pop\n        /* \"#utility.yul\":6939:7064   */\n      pop\n        /* \"#utility.yul\":6726:7071   */\n      swap3\n      swap2\n      pop\n      pop\n      jump\t// out\n        /* \"#utility.yul\":7077:7247   */\n    tag_104:\n        /* \"#utility.yul\":7217:7239   */\n      0x55534443207472616e73666572206661696c6564000000000000000000000000\n        /* \"#utility.yul\":7213:7214   */\n      0x00\n        /* \"#utility.yul\":7205:7211   */\n      dup3\n        /* \"#utility.yul\":7201:7215   */\n      add\n        /* \"#utility.yul\":7194:7240   */\n      mstore\n        /* \"#utility.yul\":7077:7247   */\n      pop\n      jump\t// out\n        /* \"#utility.yul\":7253:7619   */\n    tag_105:\n        /* \"#utility.yul\":7395:7398   */\n      0x00\n        /* \"#utility.yul\":7416:7483   */\n      tag_185\n        /* \"#utility.yul\":7480:7482   */\n      0x14\n        /* \"#utility.yul\":7475:7478   */\n      dup4\n        /* \"#utility.yul\":7416:7483   */\n      tag_94\n      jump\t// in\n    tag_185:\n        /* \"#utility.yul\":7409:7483   */\n      swap2\n      pop\n        /* \"#utility.yul\":7492:7585   */\n      tag_186\n        /* \"#utility.yul\":7581:7584   */\n      dup3\n        /* \"#utility.yul\":7492:7585   */\n      tag_104\n      jump\t// in\n    tag_186:\n        /* \"#utility.yul\":7610:7612   */\n      0x20\n        /* \"#utility.yul\":7605:7608   */\n      dup3\n        /* \"#utility.yul\":7601:7613   */\n      add\n        /* \"#utility.yul\":7594:7613   */\n      swap1\n      pop\n        /* \"#utility.yul\":7253:7619   */\n      swap2\n      swap1\n      pop\n      jump\t// out\n        /* \"#utility.yul\":7625:8044   */\n    tag_62:\n        /* \"#utility.yul\":7791:7795   */\n      0x00\n        /* \"#utility.yul\":7829:7831   */\n      0x20\n        /* \"#utility.yul\":7818:7827   */\n      dup3\n        /* \"#utility.yul\":7814:7832   */\n      add\n        /* \"#utility.yul\":7806:7832   */\n      swap1\n      pop\n        /* \"#utility.yul\":7878:7887   */\n      dup2\n        /* \"#utility.yul\":7872:7876   */\n      dup2\n        /* \"#utility.yul\":7868:7888   */\n      sub\n        /* \"#utility.yul\":7864:7865   */\n      0x00\n        /* \"#utility.yul\":7853:7862   */\n      dup4\n        /* \"#utility.yul\":7849:7866   */\n      add\n        /* \"#utility.yul\":7842:7889   */\n      mstore\n        /* \"#utility.yul\":7906:8037   */\n      tag_188\n        /* \"#utility.yul\":8032:8036   */\n      dup2\n        /* \"#utility.yul\":7906:8037   */\n      tag_105\n      jump\t// in\n    tag_188:\n        /* \"#utility.yul\":7898:8037   */\n      swap1\n      pop\n        /* \"#utility.yul\":7625:8044   */\n      swap2\n      swap1\n      pop\n      jump\t// out\n        /* \"#utility.yul\":8050:8382   */\n    tag_64:\n        /* \"#utility.yul\":8171:8175   */\n      0x00\n        /* \"#utility.yul\":8209:8211   */\n      0x40\n        /* \"#utility.yul\":8198:8207   */\n      dup3\n        /* \"#utility.yul\":8194:8212   */\n      add\n        /* \"#utility.yul\":8186:8212   */\n      swap1\n      pop\n        /* \"#utility.yul\":8222:8293   */\n      tag_190\n        /* \"#utility.yul\":8290:8291   */\n      0x00\n        /* \"#utility.yul\":8279:8288   */\n      dup4\n        /* \"#utility.yul\":8275:8292   */\n      add\n        /* \"#utility.yul\":8266:8272   */\n      dup6\n        /* \"#utility.yul\":8222:8293   */\n      tag_86\n      jump\t// in\n    tag_190:\n        /* \"#utility.yul\":8303:8375   */\n      tag_191\n        /* \"#utility.yul\":8371:8373   */\n      0x20\n        /* \"#utility.yul\":8360:8369   */\n      dup4\n        /* \"#utility.yul\":8356:8374   */\n      add\n        /* \"#utility.yul\":8347:8353   */\n      dup5\n        /* \"#utility.yul\":8303:8375   */\n      tag_86\n      jump\t// in\n    tag_191:\n        /* \"#utility.yul\":8050:8382   */\n      swap4\n      swap3\n      pop\n      pop\n      pop\n      jump\t// out\n\n    auxdata: 0xa2646970667358221220cdb5e0185d28044127382d5b7361ed1963c8e11b6ada25c984bd0b8456f5ee8e64736f6c634300081a0033\n}\n",
				"bytecode": {
					"linkReferences": {},
					"object": "608060405234801561000f575f80fd5b50604051610c69380380610c698339818101604052810190610031919061014f565b815f806101000a81548173ffffffffffffffffffffffffffffffffffffffff021916908373ffffffffffffffffffffffffffffffffffffffff1602179055503360015f6101000a81548173ffffffffffffffffffffffffffffffffffffffff021916908373ffffffffffffffffffffffffffffffffffffffff16021790555080600281905550505061018d565b5f80fd5b5f73ffffffffffffffffffffffffffffffffffffffff82169050919050565b5f6100eb826100c2565b9050919050565b6100fb816100e1565b8114610105575f80fd5b50565b5f81519050610116816100f2565b92915050565b5f819050919050565b61012e8161011c565b8114610138575f80fd5b50565b5f8151905061014981610125565b92915050565b5f8060408385031215610165576101646100be565b5b5f61017285828601610108565b92505060206101838582860161013b565b9150509250929050565b610acf8061019a5f395ff3fe60806040526004361061006f575f3560e01c80638da5cb5b1161004d5780638da5cb5b146100dd57806391bbdcc714610107578063d2e8049414610111578063db81f99b146101395761006f565b806311eac855146100735780637ffdf53e1461009d578063810074c6146100c7575b5f80fd5b34801561007e575f80fd5b50610087610161565b60405161009491906106d6565b60405180910390f35b3480156100a8575f80fd5b506100b1610184565b6040516100be9190610707565b60405180910390f35b3480156100d2575f80fd5b506100db61018a565b005b3480156100e8575f80fd5b506100f1610280565b6040516100fe9190610740565b60405180910390f35b61010f6102a5565b005b34801561011c575f80fd5b5061013760048036038101906101329190610787565b610437565b005b348015610144575f80fd5b5061015f600480360381019061015a9190610787565b6104d0565b005b5f8054906101000a900473ffffffffffffffffffffffffffffffffffffffff1681565b60025481565b60015f9054906101000a900473ffffffffffffffffffffffffffffffffffffffff1673ffffffffffffffffffffffffffffffffffffffff163373ffffffffffffffffffffffffffffffffffffffff1614610219576040517f08c379a000000000000000000000000000000000000000000000000000000000815260040161021090610832565b60405180910390fd5b60015f9054906101000a900473ffffffffffffffffffffffffffffffffffffffff1673ffffffffffffffffffffffffffffffffffffffff166108fc4790811502906040515f60405180830381858888f1935050505015801561027d573d5f803e3d5ffd5b50565b60015f9054906101000a900473ffffffffffffffffffffffffffffffffffffffff1681565b5f34116102e7576040517f08c379a00000000000000000000000000000000000000000000000000000000081526004016102de9061089a565b60405180910390fd5b5f670de0b6b3a7640000600254346102ff91906108e5565b6103099190610953565b90505f8054906101000a900473ffffffffffffffffffffffffffffffffffffffff1673ffffffffffffffffffffffffffffffffffffffff1663a9059cbb33836040518363ffffffff1660e01b8152600401610365929190610983565b6020604051808303815f875af1158015610381573d5f803e3d5ffd5b505050506040513d601f19601f820116820180604052508101906103a591906109df565b6103e4576040517f08c379a00000000000000000000000000000000000000000000000000000000081526004016103db90610a54565b60405180910390fd5b3373ffffffffffffffffffffffffffffffffffffffff167fe6a45eea08a42f7c3f90f290e8ecf15e16174981943adf509fc9ea49808a64c6348360405161042c929190610a72565b60405180910390a250565b60015f9054906101000a900473ffffffffffffffffffffffffffffffffffffffff1673ffffffffffffffffffffffffffffffffffffffff163373ffffffffffffffffffffffffffffffffffffffff16146104c6576040517f08c379a00000000000000000000000000000000000000000000000000000000081526004016104bd90610832565b60405180910390fd5b8060028190555050565b60015f9054906101000a900473ffffffffffffffffffffffffffffffffffffffff1673ffffffffffffffffffffffffffffffffffffffff163373ffffffffffffffffffffffffffffffffffffffff161461055f576040517f08c379a000000000000000000000000000000000000000000000000000000000815260040161055690610832565b60405180910390fd5b5f8054906101000a900473ffffffffffffffffffffffffffffffffffffffff1673ffffffffffffffffffffffffffffffffffffffff1663a9059cbb60015f9054906101000a900473ffffffffffffffffffffffffffffffffffffffff16836040518363ffffffff1660e01b81526004016105da929190610983565b6020604051808303815f875af11580156105f6573d5f803e3d5ffd5b505050506040513d601f19601f8201168201806040525081019061061a91906109df565b610659576040517f08c379a000000000000000000000000000000000000000000000000000000000815260040161065090610a54565b60405180910390fd5b50565b5f73ffffffffffffffffffffffffffffffffffffffff82169050919050565b5f819050919050565b5f61069e6106996106948461065c565b61067b565b61065c565b9050919050565b5f6106af82610684565b9050919050565b5f6106c0826106a5565b9050919050565b6106d0816106b6565b82525050565b5f6020820190506106e95f8301846106c7565b92915050565b5f819050919050565b610701816106ef565b82525050565b5f60208201905061071a5f8301846106f8565b92915050565b5f61072a8261065c565b9050919050565b61073a81610720565b82525050565b5f6020820190506107535f830184610731565b92915050565b5f80fd5b610766816106ef565b8114610770575f80fd5b50565b5f813590506107818161075d565b92915050565b5f6020828403121561079c5761079b610759565b5b5f6107a984828501610773565b91505092915050565b5f82825260208201905092915050565b7f4f6e6c79206f776e65722063616e2063616c6c20746869732066756e6374696f5f8201527f6e00000000000000000000000000000000000000000000000000000000000000602082015250565b5f61081c6021836107b2565b9150610827826107c2565b604082019050919050565b5f6020820190508181035f83015261084981610810565b9050919050565b7f4d7573742073656e64204d4154494320746f20636f6e766572740000000000005f82015250565b5f610884601a836107b2565b915061088f82610850565b602082019050919050565b5f6020820190508181035f8301526108b181610878565b9050919050565b7f4e487b71000000000000000000000000000000000000000000000000000000005f52601160045260245ffd5b5f6108ef826106ef565b91506108fa836106ef565b9250828202610908816106ef565b9150828204841483151761091f5761091e6108b8565b5b5092915050565b7f4e487b71000000000000000000000000000000000000000000000000000000005f52601260045260245ffd5b5f61095d826106ef565b9150610968836106ef565b92508261097857610977610926565b5b828204905092915050565b5f6040820190506109965f830185610731565b6109a360208301846106f8565b9392505050565b5f8115159050919050565b6109be816109aa565b81146109c8575f80fd5b50565b5f815190506109d9816109b5565b92915050565b5f602082840312156109f4576109f3610759565b5b5f610a01848285016109cb565b91505092915050565b7f55534443207472616e73666572206661696c65640000000000000000000000005f82015250565b5f610a3e6014836107b2565b9150610a4982610a0a565b602082019050919050565b5f6020820190508181035f830152610a6b81610a32565b9050919050565b5f604082019050610a855f8301856106f8565b610a9260208301846106f8565b939250505056fea2646970667358221220cdb5e0185d28044127382d5b7361ed1963c8e11b6ada25c984bd0b8456f5ee8e64736f6c634300081a0033",
					"opcodes": "PUSH1 0x80 PUSH1 0x40 MSTORE CALLVALUE DUP1 ISZERO PUSH2 0xF JUMPI PUSH0 DUP1 REVERT JUMPDEST POP PUSH1 0x40 MLOAD PUSH2 0xC69 CODESIZE SUB DUP1 PUSH2 0xC69 DUP4 CODECOPY DUP2 DUP2 ADD PUSH1 0x40 MSTORE DUP2 ADD SWAP1 PUSH2 0x31 SWAP2 SWAP1 PUSH2 0x14F JUMP JUMPDEST DUP2 PUSH0 DUP1 PUSH2 0x100 EXP DUP2 SLOAD DUP2 PUSH20 0xFFFFFFFFFFFFFFFFFFFFFFFFFFFFFFFFFFFFFFFF MUL NOT AND SWAP1 DUP4 PUSH20 0xFFFFFFFFFFFFFFFFFFFFFFFFFFFFFFFFFFFFFFFF AND MUL OR SWAP1 SSTORE POP CALLER PUSH1 0x1 PUSH0 PUSH2 0x100 EXP DUP2 SLOAD DUP2 PUSH20 0xFFFFFFFFFFFFFFFFFFFFFFFFFFFFFFFFFFFFFFFF MUL NOT AND SWAP1 DUP4 PUSH20 0xFFFFFFFFFFFFFFFFFFFFFFFFFFFFFFFFFFFFFFFF AND MUL OR SWAP1 SSTORE POP DUP1 PUSH1 0x2 DUP2 SWAP1 SSTORE POP POP POP PUSH2 0x18D JUMP JUMPDEST PUSH0 DUP1 REVERT JUMPDEST PUSH0 PUSH20 0xFFFFFFFFFFFFFFFFFFFFFFFFFFFFFFFFFFFFFFFF DUP3 AND SWAP1 POP SWAP2 SWAP1 POP JUMP JUMPDEST PUSH0 PUSH2 0xEB DUP3 PUSH2 0xC2 JUMP JUMPDEST SWAP1 POP SWAP2 SWAP1 POP JUMP JUMPDEST PUSH2 0xFB DUP2 PUSH2 0xE1 JUMP JUMPDEST DUP2 EQ PUSH2 0x105 JUMPI PUSH0 DUP1 REVERT JUMPDEST POP JUMP JUMPDEST PUSH0 DUP2 MLOAD SWAP1 POP PUSH2 0x116 DUP2 PUSH2 0xF2 JUMP JUMPDEST SWAP3 SWAP2 POP POP JUMP JUMPDEST PUSH0 DUP2 SWAP1 POP SWAP2 SWAP1 POP JUMP JUMPDEST PUSH2 0x12E DUP2 PUSH2 0x11C JUMP JUMPDEST DUP2 EQ PUSH2 0x138 JUMPI PUSH0 DUP1 REVERT JUMPDEST POP JUMP JUMPDEST PUSH0 DUP2 MLOAD SWAP1 POP PUSH2 0x149 DUP2 PUSH2 0x125 JUMP JUMPDEST SWAP3 SWAP2 POP POP JUMP JUMPDEST PUSH0 DUP1 PUSH1 0x40 DUP4 DUP6 SUB SLT ISZERO PUSH2 0x165 JUMPI PUSH2 0x164 PUSH2 0xBE JUMP JUMPDEST JUMPDEST PUSH0 PUSH2 0x172 DUP6 DUP3 DUP7 ADD PUSH2 0x108 JUMP JUMPDEST SWAP3 POP POP PUSH1 0x20 PUSH2 0x183 DUP6 DUP3 DUP7 ADD PUSH2 0x13B JUMP JUMPDEST SWAP2 POP POP SWAP3 POP SWAP3 SWAP1 POP JUMP JUMPDEST PUSH2 0xACF DUP1 PUSH2 0x19A PUSH0 CODECOPY PUSH0 RETURN INVALID PUSH1 0x80 PUSH1 0x40 MSTORE PUSH1 0x4 CALLDATASIZE LT PUSH2 0x6F JUMPI PUSH0 CALLDATALOAD PUSH1 0xE0 SHR DUP1 PUSH4 0x8DA5CB5B GT PUSH2 0x4D JUMPI DUP1 PUSH4 0x8DA5CB5B EQ PUSH2 0xDD JUMPI DUP1 PUSH4 0x91BBDCC7 EQ PUSH2 0x107 JUMPI DUP1 PUSH4 0xD2E80494 EQ PUSH2 0x111 JUMPI DUP1 PUSH4 0xDB81F99B EQ PUSH2 0x139 JUMPI PUSH2 0x6F JUMP JUMPDEST DUP1 PUSH4 0x11EAC855 EQ PUSH2 0x73 JUMPI DUP1 PUSH4 0x7FFDF53E EQ PUSH2 0x9D JUMPI DUP1 PUSH4 0x810074C6 EQ PUSH2 0xC7 JUMPI JUMPDEST PUSH0 DUP1 REVERT JUMPDEST CALLVALUE DUP1 ISZERO PUSH2 0x7E JUMPI PUSH0 DUP1 REVERT JUMPDEST POP PUSH2 0x87 PUSH2 0x161 JUMP JUMPDEST PUSH1 0x40 MLOAD PUSH2 0x94 SWAP2 SWAP1 PUSH2 0x6D6 JUMP JUMPDEST PUSH1 0x40 MLOAD DUP1 SWAP2 SUB SWAP1 RETURN JUMPDEST CALLVALUE DUP1 ISZERO PUSH2 0xA8 JUMPI PUSH0 DUP1 REVERT JUMPDEST POP PUSH2 0xB1 PUSH2 0x184 JUMP JUMPDEST PUSH1 0x40 MLOAD PUSH2 0xBE SWAP2 SWAP1 PUSH2 0x707 JUMP JUMPDEST PUSH1 0x40 MLOAD DUP1 SWAP2 SUB SWAP1 RETURN JUMPDEST CALLVALUE DUP1 ISZERO PUSH2 0xD2 JUMPI PUSH0 DUP1 REVERT JUMPDEST POP PUSH2 0xDB PUSH2 0x18A JUMP JUMPDEST STOP JUMPDEST CALLVALUE DUP1 ISZERO PUSH2 0xE8 JUMPI PUSH0 DUP1 REVERT JUMPDEST POP PUSH2 0xF1 PUSH2 0x280 JUMP JUMPDEST PUSH1 0x40 MLOAD PUSH2 0xFE SWAP2 SWAP1 PUSH2 0x740 JUMP JUMPDEST PUSH1 0x40 MLOAD DUP1 SWAP2 SUB SWAP1 RETURN JUMPDEST PUSH2 0x10F PUSH2 0x2A5 JUMP JUMPDEST STOP JUMPDEST CALLVALUE DUP1 ISZERO PUSH2 0x11C JUMPI PUSH0 DUP1 REVERT JUMPDEST POP PUSH2 0x137 PUSH1 0x4 DUP1 CALLDATASIZE SUB DUP2 ADD SWAP1 PUSH2 0x132 SWAP2 SWAP1 PUSH2 0x787 JUMP JUMPDEST PUSH2 0x437 JUMP JUMPDEST STOP JUMPDEST CALLVALUE DUP1 ISZERO PUSH2 0x144 JUMPI PUSH0 DUP1 REVERT JUMPDEST POP PUSH2 0x15F PUSH1 0x4 DUP1 CALLDATASIZE SUB DUP2 ADD SWAP1 PUSH2 0x15A SWAP2 SWAP1 PUSH2 0x787 JUMP JUMPDEST PUSH2 0x4D0 JUMP JUMPDEST STOP JUMPDEST PUSH0 DUP1 SLOAD SWAP1 PUSH2 0x100 EXP SWAP1 DIV PUSH20 0xFFFFFFFFFFFFFFFFFFFFFFFFFFFFFFFFFFFFFFFF AND DUP2 JUMP JUMPDEST PUSH1 0x2 SLOAD DUP2 JUMP JUMPDEST PUSH1 0x1 PUSH0 SWAP1 SLOAD SWAP1 PUSH2 0x100 EXP SWAP1 DIV PUSH20 0xFFFFFFFFFFFFFFFFFFFFFFFFFFFFFFFFFFFFFFFF AND PUSH20 0xFFFFFFFFFFFFFFFFFFFFFFFFFFFFFFFFFFFFFFFF AND CALLER PUSH20 0xFFFFFFFFFFFFFFFFFFFFFFFFFFFFFFFFFFFFFFFF AND EQ PUSH2 0x219 JUMPI PUSH1 0x40 MLOAD PUSH32 0x8C379A000000000000000000000000000000000000000000000000000000000 DUP2 MSTORE PUSH1 0x4 ADD PUSH2 0x210 SWAP1 PUSH2 0x832 JUMP JUMPDEST PUSH1 0x40 MLOAD DUP1 SWAP2 SUB SWAP1 REVERT JUMPDEST PUSH1 0x1 PUSH0 SWAP1 SLOAD SWAP1 PUSH2 0x100 EXP SWAP1 DIV PUSH20 0xFFFFFFFFFFFFFFFFFFFFFFFFFFFFFFFFFFFFFFFF AND PUSH20 0xFFFFFFFFFFFFFFFFFFFFFFFFFFFFFFFFFFFFFFFF AND PUSH2 0x8FC SELFBALANCE SWAP1 DUP2 ISZERO MUL SWAP1 PUSH1 0x40 MLOAD PUSH0 PUSH1 0x40 MLOAD DUP1 DUP4 SUB DUP2 DUP6 DUP9 DUP9 CALL SWAP4 POP POP POP POP ISZERO DUP1 ISZERO PUSH2 0x27D JUMPI RETURNDATASIZE PUSH0 DUP1 RETURNDATACOPY RETURNDATASIZE PUSH0 REVERT JUMPDEST POP JUMP JUMPDEST PUSH1 0x1 PUSH0 SWAP1 SLOAD SWAP1 PUSH2 0x100 EXP SWAP1 DIV PUSH20 0xFFFFFFFFFFFFFFFFFFFFFFFFFFFFFFFFFFFFFFFF AND DUP2 JUMP JUMPDEST PUSH0 CALLVALUE GT PUSH2 0x2E7 JUMPI PUSH1 0x40 MLOAD PUSH32 0x8C379A000000000000000000000000000000000000000000000000000000000 DUP2 MSTORE PUSH1 0x4 ADD PUSH2 0x2DE SWAP1 PUSH2 0x89A JUMP JUMPDEST PUSH1 0x40 MLOAD DUP1 SWAP2 SUB SWAP1 REVERT JUMPDEST PUSH0 PUSH8 0xDE0B6B3A7640000 PUSH1 0x2 SLOAD CALLVALUE PUSH2 0x2FF SWAP2 SWAP1 PUSH2 0x8E5 JUMP JUMPDEST PUSH2 0x309 SWAP2 SWAP1 PUSH2 0x953 JUMP JUMPDEST SWAP1 POP PUSH0 DUP1 SLOAD SWAP1 PUSH2 0x100 EXP SWAP1 DIV PUSH20 0xFFFFFFFFFFFFFFFFFFFFFFFFFFFFFFFFFFFFFFFF AND PUSH20 0xFFFFFFFFFFFFFFFFFFFFFFFFFFFFFFFFFFFFFFFF AND PUSH4 0xA9059CBB CALLER DUP4 PUSH1 0x40 MLOAD DUP4 PUSH4 0xFFFFFFFF AND PUSH1 0xE0 SHL DUP2 MSTORE PUSH1 0x4 ADD PUSH2 0x365 SWAP3 SWAP2 SWAP1 PUSH2 0x983 JUMP JUMPDEST PUSH1 0x20 PUSH1 0x40 MLOAD DUP1 DUP4 SUB DUP2 PUSH0 DUP8 GAS CALL ISZERO DUP1 ISZERO PUSH2 0x381 JUMPI RETURNDATASIZE PUSH0 DUP1 RETURNDATACOPY RETURNDATASIZE PUSH0 REVERT JUMPDEST POP POP POP POP PUSH1 0x40 MLOAD RETURNDATASIZE PUSH1 0x1F NOT PUSH1 0x1F DUP3 ADD AND DUP3 ADD DUP1 PUSH1 0x40 MSTORE POP DUP2 ADD SWAP1 PUSH2 0x3A5 SWAP2 SWAP1 PUSH2 0x9DF JUMP JUMPDEST PUSH2 0x3E4 JUMPI PUSH1 0x40 MLOAD PUSH32 0x8C379A000000000000000000000000000000000000000000000000000000000 DUP2 MSTORE PUSH1 0x4 ADD PUSH2 0x3DB SWAP1 PUSH2 0xA54 JUMP JUMPDEST PUSH1 0x40 MLOAD DUP1 SWAP2 SUB SWAP1 REVERT JUMPDEST CALLER PUSH20 0xFFFFFFFFFFFFFFFFFFFFFFFFFFFFFFFFFFFFFFFF AND PUSH32 0xE6A45EEA08A42F7C3F90F290E8ECF15E16174981943ADF509FC9EA49808A64C6 CALLVALUE DUP4 PUSH1 0x40 MLOAD PUSH2 0x42C SWAP3 SWAP2 SWAP1 PUSH2 0xA72 JUMP JUMPDEST PUSH1 0x40 MLOAD DUP1 SWAP2 SUB SWAP1 LOG2 POP JUMP JUMPDEST PUSH1 0x1 PUSH0 SWAP1 SLOAD SWAP1 PUSH2 0x100 EXP SWAP1 DIV PUSH20 0xFFFFFFFFFFFFFFFFFFFFFFFFFFFFFFFFFFFFFFFF AND PUSH20 0xFFFFFFFFFFFFFFFFFFFFFFFFFFFFFFFFFFFFFFFF AND CALLER PUSH20 0xFFFFFFFFFFFFFFFFFFFFFFFFFFFFFFFFFFFFFFFF AND EQ PUSH2 0x4C6 JUMPI PUSH1 0x40 MLOAD PUSH32 0x8C379A000000000000000000000000000000000000000000000000000000000 DUP2 MSTORE PUSH1 0x4 ADD PUSH2 0x4BD SWAP1 PUSH2 0x832 JUMP JUMPDEST PUSH1 0x40 MLOAD DUP1 SWAP2 SUB SWAP1 REVERT JUMPDEST DUP1 PUSH1 0x2 DUP2 SWAP1 SSTORE POP POP JUMP JUMPDEST PUSH1 0x1 PUSH0 SWAP1 SLOAD SWAP1 PUSH2 0x100 EXP SWAP1 DIV PUSH20 0xFFFFFFFFFFFFFFFFFFFFFFFFFFFFFFFFFFFFFFFF AND PUSH20 0xFFFFFFFFFFFFFFFFFFFFFFFFFFFFFFFFFFFFFFFF AND CALLER PUSH20 0xFFFFFFFFFFFFFFFFFFFFFFFFFFFFFFFFFFFFFFFF AND EQ PUSH2 0x55F JUMPI PUSH1 0x40 MLOAD PUSH32 0x8C379A000000000000000000000000000000000000000000000000000000000 DUP2 MSTORE PUSH1 0x4 ADD PUSH2 0x556 SWAP1 PUSH2 0x832 JUMP JUMPDEST PUSH1 0x40 MLOAD DUP1 SWAP2 SUB SWAP1 REVERT JUMPDEST PUSH0 DUP1 SLOAD SWAP1 PUSH2 0x100 EXP SWAP1 DIV PUSH20 0xFFFFFFFFFFFFFFFFFFFFFFFFFFFFFFFFFFFFFFFF AND PUSH20 0xFFFFFFFFFFFFFFFFFFFFFFFFFFFFFFFFFFFFFFFF AND PUSH4 0xA9059CBB PUSH1 0x1 PUSH0 SWAP1 SLOAD SWAP1 PUSH2 0x100 EXP SWAP1 DIV PUSH20 0xFFFFFFFFFFFFFFFFFFFFFFFFFFFFFFFFFFFFFFFF AND DUP4 PUSH1 0x40 MLOAD DUP4 PUSH4 0xFFFFFFFF AND PUSH1 0xE0 SHL DUP2 MSTORE PUSH1 0x4 ADD PUSH2 0x5DA SWAP3 SWAP2 SWAP1 PUSH2 0x983 JUMP JUMPDEST PUSH1 0x20 PUSH1 0x40 MLOAD DUP1 DUP4 SUB DUP2 PUSH0 DUP8 GAS CALL ISZERO DUP1 ISZERO PUSH2 0x5F6 JUMPI RETURNDATASIZE PUSH0 DUP1 RETURNDATACOPY RETURNDATASIZE PUSH0 REVERT JUMPDEST POP POP POP POP PUSH1 0x40 MLOAD RETURNDATASIZE PUSH1 0x1F NOT PUSH1 0x1F DUP3 ADD AND DUP3 ADD DUP1 PUSH1 0x40 MSTORE POP DUP2 ADD SWAP1 PUSH2 0x61A SWAP2 SWAP1 PUSH2 0x9DF JUMP JUMPDEST PUSH2 0x659 JUMPI PUSH1 0x40 MLOAD PUSH32 0x8C379A000000000000000000000000000000000000000000000000000000000 DUP2 MSTORE PUSH1 0x4 ADD PUSH2 0x650 SWAP1 PUSH2 0xA54 JUMP JUMPDEST PUSH1 0x40 MLOAD DUP1 SWAP2 SUB SWAP1 REVERT JUMPDEST POP JUMP JUMPDEST PUSH0 PUSH20 0xFFFFFFFFFFFFFFFFFFFFFFFFFFFFFFFFFFFFFFFF DUP3 AND SWAP1 POP SWAP2 SWAP1 POP JUMP JUMPDEST PUSH0 DUP2 SWAP1 POP SWAP2 SWAP1 POP JUMP JUMPDEST PUSH0 PUSH2 0x69E PUSH2 0x699 PUSH2 0x694 DUP5 PUSH2 0x65C JUMP JUMPDEST PUSH2 0x67B JUMP JUMPDEST PUSH2 0x65C JUMP JUMPDEST SWAP1 POP SWAP2 SWAP1 POP JUMP JUMPDEST PUSH0 PUSH2 0x6AF DUP3 PUSH2 0x684 JUMP JUMPDEST SWAP1 POP SWAP2 SWAP1 POP JUMP JUMPDEST PUSH0 PUSH2 0x6C0 DUP3 PUSH2 0x6A5 JUMP JUMPDEST SWAP1 POP SWAP2 SWAP1 POP JUMP JUMPDEST PUSH2 0x6D0 DUP2 PUSH2 0x6B6 JUMP JUMPDEST DUP3 MSTORE POP POP JUMP JUMPDEST PUSH0 PUSH1 0x20 DUP3 ADD SWAP1 POP PUSH2 0x6E9 PUSH0 DUP4 ADD DUP5 PUSH2 0x6C7 JUMP JUMPDEST SWAP3 SWAP2 POP POP JUMP JUMPDEST PUSH0 DUP2 SWAP1 POP SWAP2 SWAP1 POP JUMP JUMPDEST PUSH2 0x701 DUP2 PUSH2 0x6EF JUMP JUMPDEST DUP3 MSTORE POP POP JUMP JUMPDEST PUSH0 PUSH1 0x20 DUP3 ADD SWAP1 POP PUSH2 0x71A PUSH0 DUP4 ADD DUP5 PUSH2 0x6F8 JUMP JUMPDEST SWAP3 SWAP2 POP POP JUMP JUMPDEST PUSH0 PUSH2 0x72A DUP3 PUSH2 0x65C JUMP JUMPDEST SWAP1 POP SWAP2 SWAP1 POP JUMP JUMPDEST PUSH2 0x73A DUP2 PUSH2 0x720 JUMP JUMPDEST DUP3 MSTORE POP POP JUMP JUMPDEST PUSH0 PUSH1 0x20 DUP3 ADD SWAP1 POP PUSH2 0x753 PUSH0 DUP4 ADD DUP5 PUSH2 0x731 JUMP JUMPDEST SWAP3 SWAP2 POP POP JUMP JUMPDEST PUSH0 DUP1 REVERT JUMPDEST PUSH2 0x766 DUP2 PUSH2 0x6EF JUMP JUMPDEST DUP2 EQ PUSH2 0x770 JUMPI PUSH0 DUP1 REVERT JUMPDEST POP JUMP JUMPDEST PUSH0 DUP2 CALLDATALOAD SWAP1 POP PUSH2 0x781 DUP2 PUSH2 0x75D JUMP JUMPDEST SWAP3 SWAP2 POP POP JUMP JUMPDEST PUSH0 PUSH1 0x20 DUP3 DUP5 SUB SLT ISZERO PUSH2 0x79C JUMPI PUSH2 0x79B PUSH2 0x759 JUMP JUMPDEST JUMPDEST PUSH0 PUSH2 0x7A9 DUP5 DUP3 DUP6 ADD PUSH2 0x773 JUMP JUMPDEST SWAP2 POP POP SWAP3 SWAP2 POP POP JUMP JUMPDEST PUSH0 DUP3 DUP3 MSTORE PUSH1 0x20 DUP3 ADD SWAP1 POP SWAP3 SWAP2 POP POP JUMP JUMPDEST PUSH32 0x4F6E6C79206F776E65722063616E2063616C6C20746869732066756E6374696F PUSH0 DUP3 ADD MSTORE PUSH32 0x6E00000000000000000000000000000000000000000000000000000000000000 PUSH1 0x20 DUP3 ADD MSTORE POP JUMP JUMPDEST PUSH0 PUSH2 0x81C PUSH1 0x21 DUP4 PUSH2 0x7B2 JUMP JUMPDEST SWAP2 POP PUSH2 0x827 DUP3 PUSH2 0x7C2 JUMP JUMPDEST PUSH1 0x40 DUP3 ADD SWAP1 POP SWAP2 SWAP1 POP JUMP JUMPDEST PUSH0 PUSH1 0x20 DUP3 ADD SWAP1 POP DUP2 DUP2 SUB PUSH0 DUP4 ADD MSTORE PUSH2 0x849 DUP2 PUSH2 0x810 JUMP JUMPDEST SWAP1 POP SWAP2 SWAP1 POP JUMP JUMPDEST PUSH32 0x4D7573742073656E64204D4154494320746F20636F6E76657274000000000000 PUSH0 DUP3 ADD MSTORE POP JUMP JUMPDEST PUSH0 PUSH2 0x884 PUSH1 0x1A DUP4 PUSH2 0x7B2 JUMP JUMPDEST SWAP2 POP PUSH2 0x88F DUP3 PUSH2 0x850 JUMP JUMPDEST PUSH1 0x20 DUP3 ADD SWAP1 POP SWAP2 SWAP1 POP JUMP JUMPDEST PUSH0 PUSH1 0x20 DUP3 ADD SWAP1 POP DUP2 DUP2 SUB PUSH0 DUP4 ADD MSTORE PUSH2 0x8B1 DUP2 PUSH2 0x878 JUMP JUMPDEST SWAP1 POP SWAP2 SWAP1 POP JUMP JUMPDEST PUSH32 0x4E487B7100000000000000000000000000000000000000000000000000000000 PUSH0 MSTORE PUSH1 0x11 PUSH1 0x4 MSTORE PUSH1 0x24 PUSH0 REVERT JUMPDEST PUSH0 PUSH2 0x8EF DUP3 PUSH2 0x6EF JUMP JUMPDEST SWAP2 POP PUSH2 0x8FA DUP4 PUSH2 0x6EF JUMP JUMPDEST SWAP3 POP DUP3 DUP3 MUL PUSH2 0x908 DUP2 PUSH2 0x6EF JUMP JUMPDEST SWAP2 POP DUP3 DUP3 DIV DUP5 EQ DUP4 ISZERO OR PUSH2 0x91F JUMPI PUSH2 0x91E PUSH2 0x8B8 JUMP JUMPDEST JUMPDEST POP SWAP3 SWAP2 POP POP JUMP JUMPDEST PUSH32 0x4E487B7100000000000000000000000000000000000000000000000000000000 PUSH0 MSTORE PUSH1 0x12 PUSH1 0x4 MSTORE PUSH1 0x24 PUSH0 REVERT JUMPDEST PUSH0 PUSH2 0x95D DUP3 PUSH2 0x6EF JUMP JUMPDEST SWAP2 POP PUSH2 0x968 DUP4 PUSH2 0x6EF JUMP JUMPDEST SWAP3 POP DUP3 PUSH2 0x978 JUMPI PUSH2 0x977 PUSH2 0x926 JUMP JUMPDEST JUMPDEST DUP3 DUP3 DIV SWAP1 POP SWAP3 SWAP2 POP POP JUMP JUMPDEST PUSH0 PUSH1 0x40 DUP3 ADD SWAP1 POP PUSH2 0x996 PUSH0 DUP4 ADD DUP6 PUSH2 0x731 JUMP JUMPDEST PUSH2 0x9A3 PUSH1 0x20 DUP4 ADD DUP5 PUSH2 0x6F8 JUMP JUMPDEST SWAP4 SWAP3 POP POP POP JUMP JUMPDEST PUSH0 DUP2 ISZERO ISZERO SWAP1 POP SWAP2 SWAP1 POP JUMP JUMPDEST PUSH2 0x9BE DUP2 PUSH2 0x9AA JUMP JUMPDEST DUP2 EQ PUSH2 0x9C8 JUMPI PUSH0 DUP1 REVERT JUMPDEST POP JUMP JUMPDEST PUSH0 DUP2 MLOAD SWAP1 POP PUSH2 0x9D9 DUP2 PUSH2 0x9B5 JUMP JUMPDEST SWAP3 SWAP2 POP POP JUMP JUMPDEST PUSH0 PUSH1 0x20 DUP3 DUP5 SUB SLT ISZERO PUSH2 0x9F4 JUMPI PUSH2 0x9F3 PUSH2 0x759 JUMP JUMPDEST JUMPDEST PUSH0 PUSH2 0xA01 DUP5 DUP3 DUP6 ADD PUSH2 0x9CB JUMP JUMPDEST SWAP2 POP POP SWAP3 SWAP2 POP POP JUMP JUMPDEST PUSH32 0x55534443207472616E73666572206661696C6564000000000000000000000000 PUSH0 DUP3 ADD MSTORE POP JUMP JUMPDEST PUSH0 PUSH2 0xA3E PUSH1 0x14 DUP4 PUSH2 0x7B2 JUMP JUMPDEST SWAP2 POP PUSH2 0xA49 DUP3 PUSH2 0xA0A JUMP JUMPDEST PUSH1 0x20 DUP3 ADD SWAP1 POP SWAP2 SWAP1 POP JUMP JUMPDEST PUSH0 PUSH1 0x20 DUP3 ADD SWAP1 POP DUP2 DUP2 SUB PUSH0 DUP4 ADD MSTORE PUSH2 0xA6B DUP2 PUSH2 0xA32 JUMP JUMPDEST SWAP1 POP SWAP2 SWAP1 POP JUMP JUMPDEST PUSH0 PUSH1 0x40 DUP3 ADD SWAP1 POP PUSH2 0xA85 PUSH0 DUP4 ADD DUP6 PUSH2 0x6F8 JUMP JUMPDEST PUSH2 0xA92 PUSH1 0x20 DUP4 ADD DUP5 PUSH2 0x6F8 JUMP JUMPDEST SWAP4 SWAP3 POP POP POP JUMP INVALID LOG2 PUSH5 0x6970667358 0x22 SLT KECCAK256 0xCD 0xB5 0xE0 XOR TSTORE 0x28 DIV COINBASE 0x27 CODESIZE 0x2D JUMPDEST PUSH20 0x61ED1963C8E11B6ADA25C984BD0B8456F5EE8E64 PUSH20 0x6F6C634300081A00330000000000000000000000 "
				},
				"gasEstimates": {
					"creation": {
						"codeDepositCost": "553400",
						"executionCost": "infinite",
						"totalCost": "infinite"
					},
					"external": {
						"conversionRate()": "2448",
						"convert()": "infinite",
						"owner()": "2508",
						"setConversionRate(uint256)": "24728",
						"usdcToken()": "infinite",
						"withdrawMatic()": "infinite",
						"withdrawUSDC(uint256)": "infinite"
					}
				},
				"methodIdentifiers": {
					"conversionRate()": "7ffdf53e",
					"convert()": "91bbdcc7",
					"owner()": "8da5cb5b",
					"setConversionRate(uint256)": "d2e80494",
					"usdcToken()": "11eac855",
					"withdrawMatic()": "810074c6",
					"withdrawUSDC(uint256)": "db81f99b"
				}
			},
			"storageLayout": {
				"storage": [
					{
						"astId": 25,
						"contract": "contract/USDC.sol:MaticToUSDC",
						"label": "usdcToken",
						"offset": 0,
						"slot": "0",
						"type": "t_contract(IERC20)22"
					},
					{
						"astId": 27,
						"contract": "contract/USDC.sol:MaticToUSDC",
						"label": "owner",
						"offset": 0,
						"slot": "1",
						"type": "t_address"
					},
					{
						"astId": 29,
						"contract": "contract/USDC.sol:MaticToUSDC",
						"label": "conversionRate",
						"offset": 0,
						"slot": "2",
						"type": "t_uint256"
					}
				],
				"types": {
					"t_address": {
						"encoding": "inplace",
						"label": "address",
						"numberOfBytes": "20"
					},
					"t_contract(IERC20)22": {
						"encoding": "inplace",
						"label": "contract IERC20",
						"numberOfBytes": "20"
					},
					"t_uint256": {
						"encoding": "inplace",
						"label": "uint256",
						"numberOfBytes": "32"
					}
				}
			},
			"userdoc": {
				"kind": "user",
				"methods": {},
				"version": 1
			}
		}
	}
}